{
  "_format": "hh-sol-artifact-1",
  "contractName": "NonTransferableERC20",
  "sourceName": "contracts/token/NonTransferableERC20.sol",
  "abi": [
    {
      "inputs": [
        {
          "internalType": "string",
          "name": "name",
          "type": "string"
        },
        {
          "internalType": "string",
          "name": "symbol",
          "type": "string"
        },
        {
          "internalType": "uint256",
          "name": "initialSupply",
          "type": "uint256"
        }
      ],
      "stateMutability": "nonpayable",
      "type": "constructor"
    },
    {
      "inputs": [
        {
          "internalType": "address",
          "name": "spender",
          "type": "address"
        },
        {
          "internalType": "uint256",
          "name": "allowance",
          "type": "uint256"
        },
        {
          "internalType": "uint256",
          "name": "needed",
          "type": "uint256"
        }
      ],
      "name": "ERC20InsufficientAllowance",
      "type": "error"
    },
    {
      "inputs": [
        {
          "internalType": "address",
          "name": "sender",
          "type": "address"
        },
        {
          "internalType": "uint256",
          "name": "balance",
          "type": "uint256"
        },
        {
          "internalType": "uint256",
          "name": "needed",
          "type": "uint256"
        }
      ],
      "name": "ERC20InsufficientBalance",
      "type": "error"
    },
    {
      "inputs": [
        {
          "internalType": "address",
          "name": "approver",
          "type": "address"
        }
      ],
      "name": "ERC20InvalidApprover",
      "type": "error"
    },
    {
      "inputs": [
        {
          "internalType": "address",
          "name": "receiver",
          "type": "address"
        }
      ],
      "name": "ERC20InvalidReceiver",
      "type": "error"
    },
    {
      "inputs": [
        {
          "internalType": "address",
          "name": "sender",
          "type": "address"
        }
      ],
      "name": "ERC20InvalidSender",
      "type": "error"
    },
    {
      "inputs": [
        {
          "internalType": "address",
          "name": "spender",
          "type": "address"
        }
      ],
      "name": "ERC20InvalidSpender",
      "type": "error"
    },
    {
      "inputs": [
        {
          "internalType": "address",
          "name": "owner",
          "type": "address"
        }
      ],
      "name": "OwnableInvalidOwner",
      "type": "error"
    },
    {
      "inputs": [
        {
          "internalType": "address",
          "name": "account",
          "type": "address"
        }
      ],
      "name": "OwnableUnauthorizedAccount",
      "type": "error"
    },
    {
      "anonymous": false,
      "inputs": [
        {
          "indexed": true,
          "internalType": "address",
          "name": "owner",
          "type": "address"
        },
        {
          "indexed": true,
          "internalType": "address",
          "name": "spender",
          "type": "address"
        },
        {
          "indexed": false,
          "internalType": "uint256",
          "name": "value",
          "type": "uint256"
        }
      ],
      "name": "Approval",
      "type": "event"
    },
    {
      "anonymous": false,
      "inputs": [
        {
          "indexed": true,
          "internalType": "address",
          "name": "previousOwner",
          "type": "address"
        },
        {
          "indexed": true,
          "internalType": "address",
          "name": "newOwner",
          "type": "address"
        }
      ],
      "name": "OwnershipTransferred",
      "type": "event"
    },
    {
      "anonymous": false,
      "inputs": [
        {
          "indexed": true,
          "internalType": "address",
          "name": "from",
          "type": "address"
        },
        {
          "indexed": true,
          "internalType": "address",
          "name": "to",
          "type": "address"
        },
        {
          "indexed": false,
          "internalType": "uint256",
          "name": "value",
          "type": "uint256"
        }
      ],
      "name": "Transfer",
      "type": "event"
    },
    {
      "inputs": [
        {
          "internalType": "address",
          "name": "owner",
          "type": "address"
        },
        {
          "internalType": "address",
          "name": "spender",
          "type": "address"
        }
      ],
      "name": "allowance",
      "outputs": [
        {
          "internalType": "uint256",
          "name": "",
          "type": "uint256"
        }
      ],
      "stateMutability": "view",
      "type": "function"
    },
    {
      "inputs": [
        {
          "internalType": "address",
          "name": "spender",
          "type": "address"
        },
        {
          "internalType": "uint256",
          "name": "value",
          "type": "uint256"
        }
      ],
      "name": "approve",
      "outputs": [
        {
          "internalType": "bool",
          "name": "",
          "type": "bool"
        }
      ],
      "stateMutability": "nonpayable",
      "type": "function"
    },
    {
      "inputs": [
        {
          "internalType": "address",
          "name": "account",
          "type": "address"
        }
      ],
      "name": "balanceOf",
      "outputs": [
        {
          "internalType": "uint256",
          "name": "",
          "type": "uint256"
        }
      ],
      "stateMutability": "view",
      "type": "function"
    },
    {
      "inputs": [
        {
          "internalType": "uint256",
          "name": "amount",
          "type": "uint256"
        }
      ],
      "name": "burn",
      "outputs": [],
      "stateMutability": "nonpayable",
      "type": "function"
    },
    {
      "inputs": [],
      "name": "decimals",
      "outputs": [
        {
          "internalType": "uint8",
          "name": "",
          "type": "uint8"
        }
      ],
      "stateMutability": "view",
      "type": "function"
    },
    {
      "inputs": [
        {
          "internalType": "address",
          "name": "account",
          "type": "address"
        },
        {
          "internalType": "uint256",
          "name": "amount",
          "type": "uint256"
        }
      ],
      "name": "mint",
      "outputs": [],
      "stateMutability": "nonpayable",
      "type": "function"
    },
    {
      "inputs": [],
      "name": "name",
      "outputs": [
        {
          "internalType": "string",
          "name": "",
          "type": "string"
        }
      ],
      "stateMutability": "view",
      "type": "function"
    },
    {
      "inputs": [],
      "name": "owner",
      "outputs": [
        {
          "internalType": "address",
          "name": "",
          "type": "address"
        }
      ],
      "stateMutability": "view",
      "type": "function"
    },
    {
      "inputs": [],
      "name": "renounceOwnership",
      "outputs": [],
      "stateMutability": "nonpayable",
      "type": "function"
    },
    {
      "inputs": [],
      "name": "symbol",
      "outputs": [
        {
          "internalType": "string",
          "name": "",
          "type": "string"
        }
      ],
      "stateMutability": "view",
      "type": "function"
    },
    {
      "inputs": [],
      "name": "totalSupply",
      "outputs": [
        {
          "internalType": "uint256",
          "name": "",
          "type": "uint256"
        }
      ],
      "stateMutability": "view",
      "type": "function"
    },
    {
      "inputs": [
        {
          "internalType": "address",
          "name": "to",
          "type": "address"
        },
        {
          "internalType": "uint256",
          "name": "value",
          "type": "uint256"
        }
      ],
      "name": "transfer",
      "outputs": [
        {
          "internalType": "bool",
          "name": "",
          "type": "bool"
        }
      ],
      "stateMutability": "nonpayable",
      "type": "function"
    },
    {
      "inputs": [
        {
          "internalType": "address",
          "name": "from",
          "type": "address"
        },
        {
          "internalType": "address",
          "name": "to",
          "type": "address"
        },
        {
          "internalType": "uint256",
          "name": "value",
          "type": "uint256"
        }
      ],
      "name": "transferFrom",
      "outputs": [
        {
          "internalType": "bool",
          "name": "",
          "type": "bool"
        }
      ],
      "stateMutability": "nonpayable",
      "type": "function"
    },
    {
      "inputs": [
        {
          "internalType": "address",
          "name": "newOwner",
          "type": "address"
        }
      ],
      "name": "transferOwnership",
      "outputs": [],
      "stateMutability": "nonpayable",
      "type": "function"
    }
  ],
  "bytecode": "0x60406080815234620003fe5762001326803803806200001e8162000403565b9283398101606082820312620003fe5781516001600160401b039290838111620003fe57826200005091830162000429565b60209283830151858111620003fe5786916200006e91850162000429565b920151938151818111620002fe576003908154906001948583811c93168015620003f3575b88841014620003dd578190601f9384811162000387575b508890848311600114620003205760009262000314575b505060001982851b1c191690851b1782555b8451928311620002fe5760049485548581811c91168015620002f3575b88821014620002de5782811162000293575b508691841160011462000228579383949184926000956200021c575b50501b92600019911b1c19161781555b3315620002055760058054336001600160a01b0319821681179092556001600160a01b03167f8be0079c531659141344cd1fd0a4f28419497f9722a3daafe3b4186f6b6457e0600080a3670de0b6b3a764000092838102938185041490151715620001f05760025490838201809211620001f057506000917fddf252ad1be2c89b69c2b068fc378daa952ba7f163c4a11628f55a4df523b3ef9160025533835282815284832084815401905584519384523393a351610e8a90816200049c8239f35b601190634e487b7160e01b6000525260246000fd5b6024906000855191631e4fbdf760e01b8352820152fd5b0151935038806200011e565b9190601f198416928660005284886000209460005b8a898383106200027b575050501062000260575b50505050811b0181556200012e565b01519060f884600019921b161c191690553880808062000251565b8686015189559097019694850194889350016200023d565b86600052876000208380870160051c8201928a8810620002d4575b0160051c019086905b828110620002c757505062000102565b60008155018690620002b7565b92508192620002ae565b602287634e487b7160e01b6000525260246000fd5b90607f1690620000f0565b634e487b7160e01b600052604160045260246000fd5b015190503880620000c1565b90879350601f19831691866000528a6000209260005b8c82821062000370575050841162000357575b505050811b018255620000d3565b015160001983871b60f8161c1916905538808062000349565b8385015186558b9790950194938401930162000336565b90915084600052886000208480850160051c8201928b8610620003d3575b918991869594930160051c01915b828110620003c3575050620000aa565b60008155859450899101620003b3565b92508192620003a5565b634e487b7160e01b600052602260045260246000fd5b92607f169262000093565b600080fd5b6040519190601f01601f191682016001600160401b03811183821017620002fe57604052565b919080601f84011215620003fe5782516001600160401b038111620002fe576020906200045f601f8201601f1916830162000403565b92818452828287010111620003fe5760005b8181106200048757508260009394955001015290565b85810183015184820184015282016200047156fe6080604081815260048036101561001557600080fd5b600092833560e01c90816306fdde0314610ad257508063095ea7b3146109ce57806318160ddd1461099157806323b872dd1461080b578063313ce567146107d157806340c10f19146106c557806342966c68146105b757806370a0823114610556578063715018a6146104b55780638da5cb5b1461046257806395d89b411461026b578063a9059cbb1461021c578063dd62ed3e146101a45763f2fde38b146100bd57600080fd5b346101a05760207ffffffffffffffffffffffffffffffffffffffffffffffffffffffffffffffffc3601126101a0576100f4610c77565b906100fd610cc2565b73ffffffffffffffffffffffffffffffffffffffff809216928315610171575050600554827fffffffffffffffffffffffff0000000000000000000000000000000000000000821617600555167f8be0079c531659141344cd1fd0a4f28419497f9722a3daafe3b4186f6b6457e08380a380f35b908460249251917f1e4fbdf7000000000000000000000000000000000000000000000000000000008352820152fd5b8280fd5b50503461021857807ffffffffffffffffffffffffffffffffffffffffffffffffffffffffffffffffc36011261021857806020926101e0610c77565b6101e8610c9f565b73ffffffffffffffffffffffffffffffffffffffff91821683526001865283832091168252845220549051908152f35b5080fd5b50503461021857807ffffffffffffffffffffffffffffffffffffffffffffffffffffffffffffffffc3601126102185760209061026461025a610c77565b6024359033610d13565b5160018152f35b5091903461021857817ffffffffffffffffffffffffffffffffffffffffffffffffffffffffffffffffc36011261021857805190828454600181811c90808316928315610458575b602093848410811461042c5783885287959493929181156103d15750600114610355575b50505003601f017fffffffffffffffffffffffffffffffffffffffffffffffffffffffffffffffe01682019267ffffffffffffffff8411838510176103295750829182610325925282610c11565b0390f35b806041867f4e487b71000000000000000000000000000000000000000000000000000000006024945252fd5b8888529193925086917f8a35acfbc15ff81a39ae7d344fd709f28e8600b4aa8c65c6b64bfe7fe36bd19b5b8284106103bb57505050907fffffffffffffffffffffffffffffffffffffffffffffffffffffffffffffffe092601f928201019181936102d7565b8054888501870152879450928501928101610380565b7fffffffffffffffffffffffffffffffffffffffffffffffffffffffffffffff0016848701525050151560051b830101905081601f7fffffffffffffffffffffffffffffffffffffffffffffffffffffffffffffffe06102d7565b60248960228c7f4e487b7100000000000000000000000000000000000000000000000000000000835252fd5b91607f16916102b3565b50503461021857817ffffffffffffffffffffffffffffffffffffffffffffffffffffffffffffffffc3601126102185760209073ffffffffffffffffffffffffffffffffffffffff600554169051908152f35b833461055357807ffffffffffffffffffffffffffffffffffffffffffffffffffffffffffffffffc360112610553576104ec610cc2565b8073ffffffffffffffffffffffffffffffffffffffff6005547fffffffffffffffffffffffff00000000000000000000000000000000000000008116600555167f8be0079c531659141344cd1fd0a4f28419497f9722a3daafe3b4186f6b6457e08280a380f35b80fd5b5050346102185760207ffffffffffffffffffffffffffffffffffffffffffffffffffffffffffffffffc360112610218578060209273ffffffffffffffffffffffffffffffffffffffff6105a8610c77565b16815280845220549051908152f35b509190346102185760207ffffffffffffffffffffffffffffffffffffffffffffffffffffffffffffffffc360112610218578235906105f4610cc2565b33156106965733835282602052808320549382851061065257508183943385528460205203818420558160025403600255519081527fddf252ad1be2c89b69c2b068fc378daa952ba7f163c4a11628f55a4df523b3ef60203392a380f35b90517fe450d38c0000000000000000000000000000000000000000000000000000000081523391810191825260208201859052604082018390529081906060010390fd5b838360249251917f96c6fd1e000000000000000000000000000000000000000000000000000000008352820152fd5b5090346101a057807ffffffffffffffffffffffffffffffffffffffffffffffffffffffffffffffffc3601126101a0576106fd610c77565b9073ffffffffffffffffffffffffffffffffffffffff6024359261071f610cc2565b169283156107a35760025490838201809211610777575084927fddf252ad1be2c89b69c2b068fc378daa952ba7f163c4a11628f55a4df523b3ef9260209260025585855284835280852082815401905551908152a380f35b8560116024927f4e487b7100000000000000000000000000000000000000000000000000000000835252fd5b8460249251917fec442f05000000000000000000000000000000000000000000000000000000008352820152fd5b50503461021857817ffffffffffffffffffffffffffffffffffffffffffffffffffffffffffffffffc360112610218576020905160128152f35b5082346105535760607ffffffffffffffffffffffffffffffffffffffffffffffffffffffffffffffffc36011261055357610844610c77565b61084c610c9f565b916044359373ffffffffffffffffffffffffffffffffffffffff8316808352600160205286832033845260205286832054917fffffffffffffffffffffffffffffffffffffffffffffffffffffffffffffffff83036108b4575b602088610264898989610d13565b86831061094c57811561091d5733156108ee57508252600160209081528683203384528152918690209085900390558290610264876108a6565b602490848951917f94280d62000000000000000000000000000000000000000000000000000000008352820152fd5b602490848951917fe602df05000000000000000000000000000000000000000000000000000000008352820152fd5b87517ffb8f41b2000000000000000000000000000000000000000000000000000000008152339181019182526020820193909352604081018790528291506060010390fd5b50503461021857817ffffffffffffffffffffffffffffffffffffffffffffffffffffffffffffffffc360112610218576020906002549051908152f35b50346101a057817ffffffffffffffffffffffffffffffffffffffffffffffffffffffffffffffffc3601126101a057610a05610c77565b602435903315610aa35773ffffffffffffffffffffffffffffffffffffffff16918215610a7457508083602095338152600187528181208582528752205582519081527f8c5be1e5ebec7d5bd14f71427d1e84f3dd0314c0f7b2291e5b200ac8c7c3b925843392a35160018152f35b602490858551917f94280d62000000000000000000000000000000000000000000000000000000008352820152fd5b602483868651917fe602df05000000000000000000000000000000000000000000000000000000008352820152fd5b84915083346101a057827ffffffffffffffffffffffffffffffffffffffffffffffffffffffffffffffffc3601126101a05782600354600181811c90808316928315610c07575b602093848410811461042c5783885287959493929181156103d15750600114610b8a5750505003601f017fffffffffffffffffffffffffffffffffffffffffffffffffffffffffffffffe01682019267ffffffffffffffff8411838510176103295750829182610325925282610c11565b600388529193925086917fc2575a0e9e593c00f959f8c92f12db2869c3395a3b0502d05e2516446f71f85b5b828410610bf157505050907fffffffffffffffffffffffffffffffffffffffffffffffffffffffffffffffe092601f928201019181936102d7565b8054888501870152879450928501928101610bb6565b91607f1691610b19565b60208082528251818301819052939260005b858110610c63575050507fffffffffffffffffffffffffffffffffffffffffffffffffffffffffffffffe0601f8460006040809697860101520116010190565b818101830151848201604001528201610c23565b6004359073ffffffffffffffffffffffffffffffffffffffff82168203610c9a57565b600080fd5b6024359073ffffffffffffffffffffffffffffffffffffffff82168203610c9a57565b73ffffffffffffffffffffffffffffffffffffffff600554163303610ce357565b60246040517f118cdaa7000000000000000000000000000000000000000000000000000000008152336004820152fd5b9173ffffffffffffffffffffffffffffffffffffffff808416928315610e235716928315610df25760009083825281602052604082205490838210610d9a575091604082827fddf252ad1be2c89b69c2b068fc378daa952ba7f163c4a11628f55a4df523b3ef958760209652828652038282205586815220818154019055604051908152a3565b6040517fe450d38c00000000000000000000000000000000000000000000000000000000815273ffffffffffffffffffffffffffffffffffffffff919091166004820152602481019190915260448101839052606490fd5b60246040517fec442f0500000000000000000000000000000000000000000000000000000000815260006004820152fd5b60246040517f96c6fd1e00000000000000000000000000000000000000000000000000000000815260006004820152fdfea2646970667358221220a6a9f93cb8b0e6602fb1da1ecb49709a6d7be2b5933f47451c2ad1e6ebbba6f764736f6c63430008140033",
  "linkReferences": {},
  "deployedLinkReferences": {}
}