{
  "_format": "hh-sol-artifact-1",
  "contractName": "FriendtechSharesV1",
  "sourceName": "contracts/Share.sol",
  "abi": [
    {
      "anonymous": false,
      "inputs": [
        {
          "indexed": true,
          "internalType": "address",
          "name": "previousOwner",
          "type": "address"
        },
        {
          "indexed": true,
          "internalType": "address",
          "name": "newOwner",
          "type": "address"
        }
      ],
      "name": "OwnershipTransferred",
      "type": "event"
    },
    {
      "anonymous": false,
      "inputs": [
        {
          "indexed": false,
          "internalType": "address",
          "name": "trader",
          "type": "address"
        },
        {
          "indexed": false,
          "internalType": "address",
          "name": "subject",
          "type": "address"
        },
        {
          "indexed": false,
          "internalType": "bool",
          "name": "isBuy",
          "type": "bool"
        },
        {
          "indexed": false,
          "internalType": "uint256",
          "name": "shareAmount",
          "type": "uint256"
        },
        {
          "indexed": false,
          "internalType": "uint256",
          "name": "ethAmount",
          "type": "uint256"
        },
        {
          "indexed": false,
          "internalType": "uint256",
          "name": "protocolEthAmount",
          "type": "uint256"
        },
        {
          "indexed": false,
          "internalType": "uint256",
          "name": "subjectEthAmount",
          "type": "uint256"
        },
        {
          "indexed": false,
          "internalType": "uint256",
          "name": "supply",
          "type": "uint256"
        }
      ],
      "name": "Trade",
      "type": "event"
    },
    {
      "inputs": [
        {
          "internalType": "address",
          "name": "sharesSubject",
          "type": "address"
        },
        {
          "internalType": "uint256",
          "name": "amount",
          "type": "uint256"
        }
      ],
      "name": "buyShares",
      "outputs": [],
      "stateMutability": "payable",
      "type": "function"
    },
    {
      "inputs": [
        {
          "internalType": "address",
          "name": "sharesSubject",
          "type": "address"
        },
        {
          "internalType": "uint256",
          "name": "amount",
          "type": "uint256"
        }
      ],
      "name": "getBuyPrice",
      "outputs": [
        {
          "internalType": "uint256",
          "name": "",
          "type": "uint256"
        }
      ],
      "stateMutability": "view",
      "type": "function"
    },
    {
      "inputs": [
        {
          "internalType": "address",
          "name": "sharesSubject",
          "type": "address"
        },
        {
          "internalType": "uint256",
          "name": "amount",
          "type": "uint256"
        }
      ],
      "name": "getBuyPriceAfterFee",
      "outputs": [
        {
          "internalType": "uint256",
          "name": "",
          "type": "uint256"
        }
      ],
      "stateMutability": "view",
      "type": "function"
    },
    {
      "inputs": [
        {
          "internalType": "uint256",
          "name": "supply",
          "type": "uint256"
        },
        {
          "internalType": "uint256",
          "name": "amount",
          "type": "uint256"
        }
      ],
      "name": "getPrice",
      "outputs": [
        {
          "internalType": "uint256",
          "name": "",
          "type": "uint256"
        }
      ],
      "stateMutability": "pure",
      "type": "function"
    },
    {
      "inputs": [
        {
          "internalType": "address",
          "name": "sharesSubject",
          "type": "address"
        },
        {
          "internalType": "uint256",
          "name": "amount",
          "type": "uint256"
        }
      ],
      "name": "getSellPrice",
      "outputs": [
        {
          "internalType": "uint256",
          "name": "",
          "type": "uint256"
        }
      ],
      "stateMutability": "view",
      "type": "function"
    },
    {
      "inputs": [
        {
          "internalType": "address",
          "name": "sharesSubject",
          "type": "address"
        },
        {
          "internalType": "uint256",
          "name": "amount",
          "type": "uint256"
        }
      ],
      "name": "getSellPriceAfterFee",
      "outputs": [
        {
          "internalType": "uint256",
          "name": "",
          "type": "uint256"
        }
      ],
      "stateMutability": "view",
      "type": "function"
    },
    {
      "inputs": [],
      "name": "owner",
      "outputs": [
        {
          "internalType": "address",
          "name": "",
          "type": "address"
        }
      ],
      "stateMutability": "view",
      "type": "function"
    },
    {
      "inputs": [],
      "name": "protocolFeeDestination",
      "outputs": [
        {
          "internalType": "address",
          "name": "",
          "type": "address"
        }
      ],
      "stateMutability": "view",
      "type": "function"
    },
    {
      "inputs": [],
      "name": "protocolFeePercent",
      "outputs": [
        {
          "internalType": "uint256",
          "name": "",
          "type": "uint256"
        }
      ],
      "stateMutability": "view",
      "type": "function"
    },
    {
      "inputs": [],
      "name": "renounceOwnership",
      "outputs": [],
      "stateMutability": "nonpayable",
      "type": "function"
    },
    {
      "inputs": [
        {
          "internalType": "address",
          "name": "sharesSubject",
          "type": "address"
        },
        {
          "internalType": "uint256",
          "name": "amount",
          "type": "uint256"
        }
      ],
      "name": "sellShares",
      "outputs": [],
      "stateMutability": "payable",
      "type": "function"
    },
    {
      "inputs": [
        {
          "internalType": "address",
          "name": "_feeDestination",
          "type": "address"
        }
      ],
      "name": "setFeeDestination",
      "outputs": [],
      "stateMutability": "nonpayable",
      "type": "function"
    },
    {
      "inputs": [
        {
          "internalType": "uint256",
          "name": "_feePercent",
          "type": "uint256"
        }
      ],
      "name": "setProtocolFeePercent",
      "outputs": [],
      "stateMutability": "nonpayable",
      "type": "function"
    },
    {
      "inputs": [
        {
          "internalType": "uint256",
          "name": "_feePercent",
          "type": "uint256"
        }
      ],
      "name": "setSubjectFeePercent",
      "outputs": [],
      "stateMutability": "nonpayable",
      "type": "function"
    },
    {
      "inputs": [
        {
          "internalType": "address",
          "name": "",
          "type": "address"
        },
        {
          "internalType": "address",
          "name": "",
          "type": "address"
        }
      ],
      "name": "sharesBalance",
      "outputs": [
        {
          "internalType": "uint256",
          "name": "",
          "type": "uint256"
        }
      ],
      "stateMutability": "view",
      "type": "function"
    },
    {
      "inputs": [
        {
          "internalType": "address",
          "name": "",
          "type": "address"
        }
      ],
      "name": "sharesSupply",
      "outputs": [
        {
          "internalType": "uint256",
          "name": "",
          "type": "uint256"
        }
      ],
      "stateMutability": "view",
      "type": "function"
    },
    {
      "inputs": [],
      "name": "subjectFeePercent",
      "outputs": [
        {
          "internalType": "uint256",
          "name": "",
          "type": "uint256"
        }
      ],
      "stateMutability": "view",
      "type": "function"
    },
    {
      "inputs": [
        {
          "internalType": "address",
          "name": "newOwner",
          "type": "address"
        }
      ],
      "name": "transferOwnership",
      "outputs": [],
      "stateMutability": "nonpayable",
      "type": "function"
    }
  ],
  "bytecode": "0x608060405234801561001057600080fd5b5061001a3361001f565b61006f565b600080546001600160a01b038381166001600160a01b0319831681178455604051919092169283917f8be0079c531659141344cd1fd0a4f28419497f9722a3daafe3b4186f6b6457e09190a35050565b6112a88061007e6000396000f3fe6080604052600436106101295760003560e01c8063715018a6116100a5578063b51d053411610074578063f2fde38b11610059578063f2fde38b1461033f578063f9931be01461035f578063fbe532341461038c57600080fd5b8063b51d053414610316578063d6e6eb9f1461032957600080fd5b8063715018a6146102965780638da5cb5b146102ab5780639ae71781146102d6578063a4983421146102f657600080fd5b80634635256e116100fc5780635a8a764e116100e15780635a8a764e146102415780635cf4ee91146102635780636945b1231461028357600080fd5b80634635256e146101cf5780634ce7957c146101ef57600080fd5b8063020235ff1461012e5780630f026f6d146101795780632267a89c1461019957806324dc441d146101b9575b600080fd5b34801561013a57600080fd5b506101666101493660046110e9565b600460209081526000928352604080842090915290825290205481565b6040519081526020015b60405180910390f35b34801561018557600080fd5b5061016661019436600461111c565b6103ac565b3480156101a557600080fd5b506101666101b436600461111c565b610424565b3480156101c557600080fd5b5061016660035481565b3480156101db57600080fd5b506101666101ea36600461111c565b610492565b3480156101fb57600080fd5b5060015461021c9073ffffffffffffffffffffffffffffffffffffffff1681565b60405173ffffffffffffffffffffffffffffffffffffffff9091168152602001610170565b34801561024d57600080fd5b5061026161025c366004611146565b6104c9565b005b34801561026f57600080fd5b5061016661027e36600461115f565b6104d6565b61026161029136600461111c565b6105ed565b3480156102a257600080fd5b50610261610a06565b3480156102b757600080fd5b5060005473ffffffffffffffffffffffffffffffffffffffff1661021c565b3480156102e257600080fd5b506101666102f136600461111c565b610a1a565b34801561030257600080fd5b50610261610311366004611146565b610a55565b61026161032436600461111c565b610a62565b34801561033557600080fd5b5061016660025481565b34801561034b57600080fd5b5061026161035a366004611181565b610ec4565b34801561036b57600080fd5b5061016661037a366004611181565b60056020526000908152604090205481565b34801561039857600080fd5b506102616103a7366004611181565b610f7b565b6000806103b98484610492565b90506000670de0b6b3a7640000600254836103d491906111cb565b6103de9190611208565b90506000670de0b6b3a7640000600354846103f991906111cb565b6104039190611208565b9050806104108385611243565b61041a9190611243565b9695505050505050565b6000806104318484610a1a565b90506000670de0b6b3a76400006002548361044c91906111cb565b6104569190611208565b90506000670de0b6b3a76400006003548461047191906111cb565b61047b9190611208565b905080610488838561125b565b61041a919061125b565b73ffffffffffffffffffffffffffffffffffffffff82166000908152600560205260408120546104c290836104d6565b9392505050565b6104d1610fca565b600355565b60008083156105315760066104ec60018661125b565b6104f79060026111cb565b610502906001611243565b8561050e60018261125b565b61051891906111cb565b61052291906111cb565b61052c9190611208565b610534565b60005b90506000841580156105465750836001145b6105bb5760068461055860018861125b565b6105629190611243565b61056d9060026111cb565b610578906001611243565b6105828688611243565b8661058e60018a61125b565b6105989190611243565b6105a291906111cb565b6105ac91906111cb565b6105b69190611208565b6105be565b60005b905060006105cc838361125b565b9050613e806105e382670de0b6b3a76400006111cb565b61041a9190611208565b73ffffffffffffffffffffffffffffffffffffffff821660009081526005602052604090205480151580610636575073ffffffffffffffffffffffffffffffffffffffff831633145b6106c7576040517f08c379a000000000000000000000000000000000000000000000000000000000815260206004820152603060248201527f4f6e6c79207468652073686172657327207375626a6563742063616e2062757960448201527f207468652066697273742073686172650000000000000000000000000000000060648201526084015b60405180910390fd5b60006106d382846104d6565b90506000670de0b6b3a7640000600254836106ee91906111cb565b6106f89190611208565b90506000670de0b6b3a76400006003548461071391906111cb565b61071d9190611208565b90508061072a8385611243565b6107349190611243565b34101561079d576040517f08c379a000000000000000000000000000000000000000000000000000000000815260206004820152601460248201527f496e73756666696369656e74207061796d656e7400000000000000000000000060448201526064016106be565b73ffffffffffffffffffffffffffffffffffffffff861660009081526004602090815260408083203384529091529020546107d9908690611243565b73ffffffffffffffffffffffffffffffffffffffff871660009081526004602090815260408083203384529091529020556108148585611243565b73ffffffffffffffffffffffffffffffffffffffff87166000908152600560205260409020557f2c76e7a47fd53e2854856ac3f0a5f3ee40d15cfaa82266357ea9779c486ab9c3338760018887878761086d848d611243565b6040805173ffffffffffffffffffffffffffffffffffffffff998a168152979098166020880152941515868801526060860193909352608085019190915260a084015260c083015260e08201529051908190036101000190a160015460405160009173ffffffffffffffffffffffffffffffffffffffff169084908381818185875af1925050503d8060008114610920576040519150601f19603f3d011682016040523d82523d6000602084013e610925565b606091505b5050905060008773ffffffffffffffffffffffffffffffffffffffff168360405160006040518083038185875af1925050503d8060008114610983576040519150601f19603f3d011682016040523d82523d6000602084013e610988565b606091505b505090508180156109965750805b6109fc576040517f08c379a000000000000000000000000000000000000000000000000000000000815260206004820152601460248201527f556e61626c6520746f2073656e642066756e647300000000000000000000000060448201526064016106be565b5050505050505050565b610a0e610fca565b610a18600061104b565b565b73ffffffffffffffffffffffffffffffffffffffff82166000908152600560205260408120546104c290610a4f90849061125b565b836104d6565b610a5d610fca565b600255565b73ffffffffffffffffffffffffffffffffffffffff8216600090815260056020526040902054818111610af1576040517f08c379a000000000000000000000000000000000000000000000000000000000815260206004820152601a60248201527f43616e6e6f742073656c6c20746865206c61737420736861726500000000000060448201526064016106be565b6000610b06610b00848461125b565b846104d6565b90506000670de0b6b3a764000060025483610b2191906111cb565b610b2b9190611208565b90506000670de0b6b3a764000060035484610b4691906111cb565b610b509190611208565b73ffffffffffffffffffffffffffffffffffffffff87166000908152600460209081526040808320338452909152902054909150851115610bed576040517f08c379a000000000000000000000000000000000000000000000000000000000815260206004820152601360248201527f496e73756666696369656e74207368617265730000000000000000000000000060448201526064016106be565b73ffffffffffffffffffffffffffffffffffffffff86166000908152600460209081526040808320338452909152902054610c2990869061125b565b73ffffffffffffffffffffffffffffffffffffffff87166000908152600460209081526040808320338452909152902055610c64858561125b565b73ffffffffffffffffffffffffffffffffffffffff87166000908152600560205260408120919091557f2c76e7a47fd53e2854856ac3f0a5f3ee40d15cfaa82266357ea9779c486ab9c3903390889088878787610cc1848d61125b565b6040805173ffffffffffffffffffffffffffffffffffffffff998a168152979098166020880152941515868801526060860193909352608085019190915260a084015260c083015260e08201529051908190036101000190a160003382610d28858761125b565b610d32919061125b565b604051600081818185875af1925050503d8060008114610d6e576040519150601f19603f3d011682016040523d82523d6000602084013e610d73565b606091505b505060015460405191925060009173ffffffffffffffffffffffffffffffffffffffff9091169085908381818185875af1925050503d8060008114610dd4576040519150601f19603f3d011682016040523d82523d6000602084013e610dd9565b606091505b5050905060008873ffffffffffffffffffffffffffffffffffffffff168460405160006040518083038185875af1925050503d8060008114610e37576040519150601f19603f3d011682016040523d82523d6000602084013e610e3c565b606091505b50509050828015610e4a5750815b8015610e535750805b610eb9576040517f08c379a000000000000000000000000000000000000000000000000000000000815260206004820152601460248201527f556e61626c6520746f2073656e642066756e647300000000000000000000000060448201526064016106be565b505050505050505050565b610ecc610fca565b73ffffffffffffffffffffffffffffffffffffffff8116610f6f576040517f08c379a000000000000000000000000000000000000000000000000000000000815260206004820152602660248201527f4f776e61626c653a206e6577206f776e657220697320746865207a65726f206160448201527f646472657373000000000000000000000000000000000000000000000000000060648201526084016106be565b610f788161104b565b50565b610f83610fca565b600180547fffffffffffffffffffffffff00000000000000000000000000000000000000001673ffffffffffffffffffffffffffffffffffffffff92909216919091179055565b60005473ffffffffffffffffffffffffffffffffffffffff163314610a18576040517f08c379a000000000000000000000000000000000000000000000000000000000815260206004820181905260248201527f4f776e61626c653a2063616c6c6572206973206e6f7420746865206f776e657260448201526064016106be565b6000805473ffffffffffffffffffffffffffffffffffffffff8381167fffffffffffffffffffffffff0000000000000000000000000000000000000000831681178455604051919092169283917f8be0079c531659141344cd1fd0a4f28419497f9722a3daafe3b4186f6b6457e09190a35050565b803573ffffffffffffffffffffffffffffffffffffffff811681146110e457600080fd5b919050565b600080604083850312156110fc57600080fd5b611105836110c0565b9150611113602084016110c0565b90509250929050565b6000806040838503121561112f57600080fd5b611138836110c0565b946020939093013593505050565b60006020828403121561115857600080fd5b5035919050565b6000806040838503121561117257600080fd5b50508035926020909101359150565b60006020828403121561119357600080fd5b6104c2826110c0565b7f4e487b7100000000000000000000000000000000000000000000000000000000600052601160045260246000fd5b6000817fffffffffffffffffffffffffffffffffffffffffffffffffffffffffffffffff04831182151516156112035761120361119c565b500290565b60008261123e577f4e487b7100000000000000000000000000000000000000000000000000000000600052601260045260246000fd5b500490565b600082198211156112565761125661119c565b500190565b60008282101561126d5761126d61119c565b50039056fea26469706673582212202c32fca56a2d80950475c77e2046561cf1b673a278bad265f357d6f56b01366064736f6c634300080c0033",
  "linkReferences": {},
  "deployedLinkReferences": {}
}