{
  "_format": "hh-sol-artifact-1",
  "contractName": "ContentAccess",
  "sourceName": "contracts/ContentAccess.sol",
  "abi": [
    {
      "inputs": [
        {
          "internalType": "string",
          "name": "uri",
          "type": "string"
        }
      ],
      "stateMutability": "nonpayable",
      "type": "constructor"
    },
    {
      "inputs": [
        {
          "internalType": "address",
          "name": "sender",
          "type": "address"
        },
        {
          "internalType": "uint256",
          "name": "balance",
          "type": "uint256"
        },
        {
          "internalType": "uint256",
          "name": "needed",
          "type": "uint256"
        },
        {
          "internalType": "uint256",
          "name": "tokenId",
          "type": "uint256"
        }
      ],
      "name": "ERC1155InsufficientBalance",
      "type": "error"
    },
    {
      "inputs": [
        {
          "internalType": "address",
          "name": "approver",
          "type": "address"
        }
      ],
      "name": "ERC1155InvalidApprover",
      "type": "error"
    },
    {
      "inputs": [
        {
          "internalType": "uint256",
          "name": "idsLength",
          "type": "uint256"
        },
        {
          "internalType": "uint256",
          "name": "valuesLength",
          "type": "uint256"
        }
      ],
      "name": "ERC1155InvalidArrayLength",
      "type": "error"
    },
    {
      "inputs": [
        {
          "internalType": "address",
          "name": "operator",
          "type": "address"
        }
      ],
      "name": "ERC1155InvalidOperator",
      "type": "error"
    },
    {
      "inputs": [
        {
          "internalType": "address",
          "name": "receiver",
          "type": "address"
        }
      ],
      "name": "ERC1155InvalidReceiver",
      "type": "error"
    },
    {
      "inputs": [
        {
          "internalType": "address",
          "name": "sender",
          "type": "address"
        }
      ],
      "name": "ERC1155InvalidSender",
      "type": "error"
    },
    {
      "inputs": [
        {
          "internalType": "address",
          "name": "operator",
          "type": "address"
        },
        {
          "internalType": "address",
          "name": "owner",
          "type": "address"
        }
      ],
      "name": "ERC1155MissingApprovalForAll",
      "type": "error"
    },
    {
      "inputs": [
        {
          "internalType": "address",
          "name": "owner",
          "type": "address"
        }
      ],
      "name": "OwnableInvalidOwner",
      "type": "error"
    },
    {
      "inputs": [
        {
          "internalType": "address",
          "name": "account",
          "type": "address"
        }
      ],
      "name": "OwnableUnauthorizedAccount",
      "type": "error"
    },
    {
      "anonymous": false,
      "inputs": [
        {
          "indexed": true,
          "internalType": "address",
          "name": "account",
          "type": "address"
        },
        {
          "indexed": true,
          "internalType": "address",
          "name": "operator",
          "type": "address"
        },
        {
          "indexed": false,
          "internalType": "bool",
          "name": "approved",
          "type": "bool"
        }
      ],
      "name": "ApprovalForAll",
      "type": "event"
    },
    {
      "anonymous": false,
      "inputs": [
        {
          "indexed": true,
          "internalType": "address",
          "name": "previousOwner",
          "type": "address"
        },
        {
          "indexed": true,
          "internalType": "address",
          "name": "newOwner",
          "type": "address"
        }
      ],
      "name": "OwnershipTransferred",
      "type": "event"
    },
    {
      "anonymous": false,
      "inputs": [
        {
          "indexed": true,
          "internalType": "address",
          "name": "operator",
          "type": "address"
        },
        {
          "indexed": true,
          "internalType": "address",
          "name": "from",
          "type": "address"
        },
        {
          "indexed": true,
          "internalType": "address",
          "name": "to",
          "type": "address"
        },
        {
          "indexed": false,
          "internalType": "uint256[]",
          "name": "ids",
          "type": "uint256[]"
        },
        {
          "indexed": false,
          "internalType": "uint256[]",
          "name": "values",
          "type": "uint256[]"
        }
      ],
      "name": "TransferBatch",
      "type": "event"
    },
    {
      "anonymous": false,
      "inputs": [
        {
          "indexed": true,
          "internalType": "address",
          "name": "operator",
          "type": "address"
        },
        {
          "indexed": true,
          "internalType": "address",
          "name": "from",
          "type": "address"
        },
        {
          "indexed": true,
          "internalType": "address",
          "name": "to",
          "type": "address"
        },
        {
          "indexed": false,
          "internalType": "uint256",
          "name": "id",
          "type": "uint256"
        },
        {
          "indexed": false,
          "internalType": "uint256",
          "name": "value",
          "type": "uint256"
        }
      ],
      "name": "TransferSingle",
      "type": "event"
    },
    {
      "anonymous": false,
      "inputs": [
        {
          "indexed": false,
          "internalType": "string",
          "name": "value",
          "type": "string"
        },
        {
          "indexed": true,
          "internalType": "uint256",
          "name": "id",
          "type": "uint256"
        }
      ],
      "name": "URI",
      "type": "event"
    },
    {
      "inputs": [
        {
          "internalType": "address",
          "name": "account",
          "type": "address"
        },
        {
          "internalType": "uint256",
          "name": "id",
          "type": "uint256"
        }
      ],
      "name": "balanceOf",
      "outputs": [
        {
          "internalType": "uint256",
          "name": "",
          "type": "uint256"
        }
      ],
      "stateMutability": "view",
      "type": "function"
    },
    {
      "inputs": [
        {
          "internalType": "address[]",
          "name": "accounts",
          "type": "address[]"
        },
        {
          "internalType": "uint256[]",
          "name": "ids",
          "type": "uint256[]"
        }
      ],
      "name": "balanceOfBatch",
      "outputs": [
        {
          "internalType": "uint256[]",
          "name": "",
          "type": "uint256[]"
        }
      ],
      "stateMutability": "view",
      "type": "function"
    },
    {
      "inputs": [
        {
          "internalType": "uint256",
          "name": "id",
          "type": "uint256"
        },
        {
          "internalType": "uint256",
          "name": "amount",
          "type": "uint256"
        }
      ],
      "name": "burn",
      "outputs": [],
      "stateMutability": "nonpayable",
      "type": "function"
    },
    {
      "inputs": [
        {
          "internalType": "uint256[]",
          "name": "ids",
          "type": "uint256[]"
        },
        {
          "internalType": "uint256[]",
          "name": "amounts",
          "type": "uint256[]"
        }
      ],
      "name": "burnBatch",
      "outputs": [],
      "stateMutability": "nonpayable",
      "type": "function"
    },
    {
      "inputs": [
        {
          "internalType": "address",
          "name": "_to",
          "type": "address"
        },
        {
          "internalType": "uint256",
          "name": "_contentId",
          "type": "uint256"
        },
        {
          "internalType": "uint256",
          "name": "_value",
          "type": "uint256"
        }
      ],
      "name": "grantAccess",
      "outputs": [],
      "stateMutability": "nonpayable",
      "type": "function"
    },
    {
      "inputs": [
        {
          "internalType": "address",
          "name": "account",
          "type": "address"
        },
        {
          "internalType": "address",
          "name": "operator",
          "type": "address"
        }
      ],
      "name": "isApprovedForAll",
      "outputs": [
        {
          "internalType": "bool",
          "name": "",
          "type": "bool"
        }
      ],
      "stateMutability": "view",
      "type": "function"
    },
    {
      "inputs": [
        {
          "internalType": "uint256",
          "name": "id",
          "type": "uint256"
        },
        {
          "internalType": "uint256",
          "name": "amount",
          "type": "uint256"
        },
        {
          "internalType": "bytes",
          "name": "data",
          "type": "bytes"
        }
      ],
      "name": "mint",
      "outputs": [],
      "stateMutability": "nonpayable",
      "type": "function"
    },
    {
      "inputs": [
        {
          "internalType": "uint256[]",
          "name": "ids",
          "type": "uint256[]"
        },
        {
          "internalType": "uint256[]",
          "name": "amounts",
          "type": "uint256[]"
        },
        {
          "internalType": "bytes",
          "name": "data",
          "type": "bytes"
        }
      ],
      "name": "mintBatch",
      "outputs": [],
      "stateMutability": "nonpayable",
      "type": "function"
    },
    {
      "inputs": [],
      "name": "owner",
      "outputs": [
        {
          "internalType": "address",
          "name": "",
          "type": "address"
        }
      ],
      "stateMutability": "view",
      "type": "function"
    },
    {
      "inputs": [],
      "name": "renounceOwnership",
      "outputs": [],
      "stateMutability": "nonpayable",
      "type": "function"
    },
    {
      "inputs": [
        {
          "internalType": "address",
          "name": "_from",
          "type": "address"
        },
        {
          "internalType": "uint256",
          "name": "_contentId",
          "type": "uint256"
        },
        {
          "internalType": "uint256",
          "name": "_value",
          "type": "uint256"
        }
      ],
      "name": "revokeAccess",
      "outputs": [],
      "stateMutability": "nonpayable",
      "type": "function"
    },
    {
      "inputs": [
        {
          "internalType": "address",
          "name": "from",
          "type": "address"
        },
        {
          "internalType": "address",
          "name": "to",
          "type": "address"
        },
        {
          "internalType": "uint256[]",
          "name": "ids",
          "type": "uint256[]"
        },
        {
          "internalType": "uint256[]",
          "name": "values",
          "type": "uint256[]"
        },
        {
          "internalType": "bytes",
          "name": "data",
          "type": "bytes"
        }
      ],
      "name": "safeBatchTransferFrom",
      "outputs": [],
      "stateMutability": "nonpayable",
      "type": "function"
    },
    {
      "inputs": [
        {
          "internalType": "address",
          "name": "from",
          "type": "address"
        },
        {
          "internalType": "address",
          "name": "to",
          "type": "address"
        },
        {
          "internalType": "uint256",
          "name": "id",
          "type": "uint256"
        },
        {
          "internalType": "uint256",
          "name": "value",
          "type": "uint256"
        },
        {
          "internalType": "bytes",
          "name": "data",
          "type": "bytes"
        }
      ],
      "name": "safeTransferFrom",
      "outputs": [],
      "stateMutability": "nonpayable",
      "type": "function"
    },
    {
      "inputs": [
        {
          "internalType": "address",
          "name": "operator",
          "type": "address"
        },
        {
          "internalType": "bool",
          "name": "approved",
          "type": "bool"
        }
      ],
      "name": "setApprovalForAll",
      "outputs": [],
      "stateMutability": "nonpayable",
      "type": "function"
    },
    {
      "inputs": [
        {
          "internalType": "string",
          "name": "newURI",
          "type": "string"
        }
      ],
      "name": "setURI",
      "outputs": [],
      "stateMutability": "nonpayable",
      "type": "function"
    },
    {
      "inputs": [
        {
          "internalType": "bytes4",
          "name": "interfaceId",
          "type": "bytes4"
        }
      ],
      "name": "supportsInterface",
      "outputs": [
        {
          "internalType": "bool",
          "name": "",
          "type": "bool"
        }
      ],
      "stateMutability": "view",
      "type": "function"
    },
    {
      "inputs": [
        {
          "internalType": "address",
          "name": "newOwner",
          "type": "address"
        }
      ],
      "name": "transferOwnership",
      "outputs": [],
      "stateMutability": "nonpayable",
      "type": "function"
    },
    {
      "inputs": [
        {
          "internalType": "uint256",
          "name": "",
          "type": "uint256"
        }
      ],
      "name": "uri",
      "outputs": [
        {
          "internalType": "string",
          "name": "",
          "type": "string"
        }
      ],
      "stateMutability": "view",
      "type": "function"
    }
  ],
  "bytecode": "0x60806040523480156200001157600080fd5b506040516200223938038062002239833981016040819052620000349162000100565b803381620000428162000086565b506001600160a01b0381166200007257604051631e4fbdf760e01b81526000600482015260240160405180910390fd5b6200007d8162000098565b50505062000330565b600262000094828262000264565b5050565b600380546001600160a01b038381166001600160a01b0319831681179093556040519116919082907f8be0079c531659141344cd1fd0a4f28419497f9722a3daafe3b4186f6b6457e090600090a35050565b634e487b7160e01b600052604160045260246000fd5b600060208083850312156200011457600080fd5b82516001600160401b03808211156200012c57600080fd5b818501915085601f8301126200014157600080fd5b815181811115620001565762000156620000ea565b604051601f8201601f19908116603f01168101908382118183101715620001815762000181620000ea565b8160405282815288868487010111156200019a57600080fd5b600093505b82841015620001be57848401860151818501870152928501926200019f565b600086848301015280965050505050505092915050565b600181811c90821680620001ea57607f821691505b6020821081036200020b57634e487b7160e01b600052602260045260246000fd5b50919050565b601f8211156200025f57600081815260208120601f850160051c810160208610156200023a5750805b601f850160051c820191505b818110156200025b5782815560010162000246565b5050505b505050565b81516001600160401b03811115620002805762000280620000ea565b6200029881620002918454620001d5565b8462000211565b602080601f831160018114620002d05760008415620002b75750858301515b600019600386901b1c1916600185901b1785556200025b565b600085815260208120601f198616915b828110156200030157888601518255948401946001909101908401620002e0565b5085821015620003205787850151600019600388901b60f8161c191681555b5050505050600190811b01905550565b611ef980620003406000396000f3fe608060405234801561001057600080fd5b50600436106101355760003560e01c806383ca4b6f116100b2578063bb4351e811610081578063e985e9c511610066578063e985e9c5146102a0578063f242432a146102e9578063f2fde38b146102fc57600080fd5b8063bb4351e81461027a578063bbe108b91461028d57600080fd5b806383ca4b6f146102195780638da5cb5b1461022c578063a22cb46514610254578063b390c0ab1461026757600080fd5b80630e89341c116101095780634e1273f4116100ee5780634e1273f4146101de57806358816048146101fe578063715018a61461021157600080fd5b80630e89341c146101ab5780632eb2c2d6146101cb57600080fd5b8062fdd58e1461013a57806301ffc9a71461016057806302fe53051461018357806308dc9f4214610198575b600080fd5b61014d61014836600461144a565b61030f565b6040519081526020015b60405180910390f35b61017361016e3660046114a2565b610344565b6040519015158152602001610157565b6101966101913660046115ba565b610427565b005b6101966101a636600461162b565b61043b565b6101be6101b936600461167b565b61044c565b60405161015791906116f8565b6101966101d936600461179a565b6104e0565b6101f16101ec366004611844565b6105ab565b604051610157919061193f565b61019661020c366004611952565b610699565b6101966106a4565b610196610227366004611985565b6106b8565b60035460405173ffffffffffffffffffffffffffffffffffffffff9091168152602001610157565b6101966102623660046119d2565b6106c7565b610196610275366004611a0e565b6106d2565b610196610288366004611a30565b6106dd565b61019661029b366004611952565b6106e9565b6101736102ae366004611aae565b73ffffffffffffffffffffffffffffffffffffffff918216600090815260016020908152604080832093909416825291909152205460ff1690565b6101966102f7366004611ae1565b610704565b61019661030a366004611b46565b6107c2565b60008181526020818152604080832073ffffffffffffffffffffffffffffffffffffffff861684529091529020545b92915050565b60007fffffffff0000000000000000000000000000000000000000000000000000000082167fd9b67a260000000000000000000000000000000000000000000000000000000014806103d757507fffffffff0000000000000000000000000000000000000000000000000000000082167f0e89341c00000000000000000000000000000000000000000000000000000000145b8061033e57507f01ffc9a7000000000000000000000000000000000000000000000000000000007fffffffff0000000000000000000000000000000000000000000000000000000083161461033e565b61042f610823565b61043881610876565b50565b61044733848484610882565b505050565b60606002805461045b90611b61565b80601f016020809104026020016040519081016040528092919081815260200182805461048790611b61565b80156104d45780601f106104a9576101008083540402835291602001916104d4565b820191906000526020600020905b8154815290600101906020018083116104b757829003601f168201915b50505050509050919050565b3373ffffffffffffffffffffffffffffffffffffffff8616811480159061053a575073ffffffffffffffffffffffffffffffffffffffff80871660009081526001602090815260408083209385168352929052205460ff16155b15610596576040517fe237d92200000000000000000000000000000000000000000000000000000000815273ffffffffffffffffffffffffffffffffffffffff8083166004830152871660248201526044015b60405180910390fd5b6105a38686868686610905565b505050505050565b606081518351146105f557815183516040517f5b0599910000000000000000000000000000000000000000000000000000000081526004810192909252602482015260440161058d565b6000835167ffffffffffffffff811115610611576106116114c6565b60405190808252806020026020018201604052801561063a578160200160208202803683370190505b50905060005b8451811015610691576020808202860101516106649060208084028701015161030f565b82828151811061067657610676611bb4565b602090810291909101015261068a81611c12565b9050610640565b509392505050565b6104478383836109b9565b6106ac610823565b6106b66000610a48565b565b6106c3338383610abf565b5050565b6106c3338383610b2c565b6106c33383836109b9565b61044733848484610c14565b61044783838360405180602001604052806000815250610882565b3373ffffffffffffffffffffffffffffffffffffffff8616811480159061075e575073ffffffffffffffffffffffffffffffffffffffff80871660009081526001602090815260408083209385168352929052205460ff16155b156107b5576040517fe237d92200000000000000000000000000000000000000000000000000000000815273ffffffffffffffffffffffffffffffffffffffff80831660048301528716602482015260440161058d565b6105a38686868686610c78565b6107ca610823565b73ffffffffffffffffffffffffffffffffffffffff811661081a576040517f1e4fbdf70000000000000000000000000000000000000000000000000000000081526000600482015260240161058d565b61043881610a48565b60035473ffffffffffffffffffffffffffffffffffffffff1633146106b6576040517f118cdaa700000000000000000000000000000000000000000000000000000000815233600482015260240161058d565b60026106c38282611c90565b73ffffffffffffffffffffffffffffffffffffffff84166108d2576040517f57f447ce0000000000000000000000000000000000000000000000000000000081526000600482015260240161058d565b604080516001808252602082018690528183019081526060820185905260808201909252906105a3600087848487610d53565b73ffffffffffffffffffffffffffffffffffffffff8416610955576040517f57f447ce0000000000000000000000000000000000000000000000000000000081526000600482015260240161058d565b73ffffffffffffffffffffffffffffffffffffffff85166109a5576040517f01a835140000000000000000000000000000000000000000000000000000000081526000600482015260240161058d565b6109b28585858585610d53565b5050505050565b73ffffffffffffffffffffffffffffffffffffffff8316610a09576040517f01a835140000000000000000000000000000000000000000000000000000000081526000600482015260240161058d565b604080516001808252602082018590528183019081526060820184905260a082019092526000608082018181529192916109b291879185908590610d53565b6003805473ffffffffffffffffffffffffffffffffffffffff8381167fffffffffffffffffffffffff0000000000000000000000000000000000000000831681179093556040519116919082907f8be0079c531659141344cd1fd0a4f28419497f9722a3daafe3b4186f6b6457e090600090a35050565b73ffffffffffffffffffffffffffffffffffffffff8316610b0f576040517f01a835140000000000000000000000000000000000000000000000000000000081526000600482015260240161058d565b610447836000848460405180602001604052806000815250610d53565b73ffffffffffffffffffffffffffffffffffffffff8216610b7c576040517fced3e1000000000000000000000000000000000000000000000000000000000081526000600482015260240161058d565b73ffffffffffffffffffffffffffffffffffffffff83811660008181526001602090815260408083209487168084529482529182902080547fffffffffffffffffffffffffffffffffffffffffffffffffffffffffffffff001686151590811790915591519182527f17307eab39ab6107e8899845ad3d59bd9653f200f220920489ca2b5937696c31910160405180910390a3505050565b73ffffffffffffffffffffffffffffffffffffffff8416610c64576040517f57f447ce0000000000000000000000000000000000000000000000000000000081526000600482015260240161058d565b610c72600085858585610d53565b50505050565b73ffffffffffffffffffffffffffffffffffffffff8416610cc8576040517f57f447ce0000000000000000000000000000000000000000000000000000000081526000600482015260240161058d565b73ffffffffffffffffffffffffffffffffffffffff8516610d18576040517f01a835140000000000000000000000000000000000000000000000000000000081526000600482015260240161058d565b60408051600180825260208201869052818301908152606082018590526080820190925290610d4a8787848487610d53565b50505050505050565b610d5f85858585610db3565b73ffffffffffffffffffffffffffffffffffffffff8416156109b25782513390600103610da55760208481015190840151610d9e83898985858961109e565b50506105a3565b6105a3818787878787611290565b8051825114610dfb57815181516040517f5b0599910000000000000000000000000000000000000000000000000000000081526004810192909252602482015260440161058d565b3360005b8351811015610f715760208181028581018201519085019091015173ffffffffffffffffffffffffffffffffffffffff881615610eff5760008281526020818152604080832073ffffffffffffffffffffffffffffffffffffffff8c16845290915290205481811015610ecb576040517f03dee4c500000000000000000000000000000000000000000000000000000000815273ffffffffffffffffffffffffffffffffffffffff8a16600482015260248101829052604481018390526064810184905260840161058d565b60008381526020818152604080832073ffffffffffffffffffffffffffffffffffffffff8d16845290915290209082900390555b73ffffffffffffffffffffffffffffffffffffffff871615610f5e5760008281526020818152604080832073ffffffffffffffffffffffffffffffffffffffff8b16845290915281208054839290610f58908490611daa565b90915550505b505080610f6a90611c12565b9050610dff565b50825160010361101957602083015160009060208401519091508573ffffffffffffffffffffffffffffffffffffffff168773ffffffffffffffffffffffffffffffffffffffff168473ffffffffffffffffffffffffffffffffffffffff167fc3d58168c5ae7397731d063d5bbf3d657854427343f4c083240f7aacaa2d0f62858560405161100a929190918252602082015260400190565b60405180910390a450506109b2565b8373ffffffffffffffffffffffffffffffffffffffff168573ffffffffffffffffffffffffffffffffffffffff168273ffffffffffffffffffffffffffffffffffffffff167f4a39dc06d4c0dbc64b70af90fd698a233a518aa5d07e595d983b8c0526c8f7fb868660405161108f929190611dbd565b60405180910390a45050505050565b73ffffffffffffffffffffffffffffffffffffffff84163b156105a3576040517ff23a6e6100000000000000000000000000000000000000000000000000000000815273ffffffffffffffffffffffffffffffffffffffff85169063f23a6e61906111159089908990889088908890600401611deb565b6020604051808303816000875af192505050801561116e575060408051601f3d9081017fffffffffffffffffffffffffffffffffffffffffffffffffffffffffffffffe016820190925261116b91810190611e3b565b60015b6111fd573d80801561119c576040519150601f19603f3d011682016040523d82523d6000602084013e6111a1565b606091505b5080516000036111f5576040517f57f447ce00000000000000000000000000000000000000000000000000000000815273ffffffffffffffffffffffffffffffffffffffff8616600482015260240161058d565b805181602001fd5b7fffffffff0000000000000000000000000000000000000000000000000000000081167ff23a6e610000000000000000000000000000000000000000000000000000000014610d4a576040517f57f447ce00000000000000000000000000000000000000000000000000000000815273ffffffffffffffffffffffffffffffffffffffff8616600482015260240161058d565b73ffffffffffffffffffffffffffffffffffffffff84163b156105a3576040517fbc197c8100000000000000000000000000000000000000000000000000000000815273ffffffffffffffffffffffffffffffffffffffff85169063bc197c81906113079089908990889088908890600401611e58565b6020604051808303816000875af1925050508015611360575060408051601f3d9081017fffffffffffffffffffffffffffffffffffffffffffffffffffffffffffffffe016820190925261135d91810190611e3b565b60015b61138e573d80801561119c576040519150601f19603f3d011682016040523d82523d6000602084013e6111a1565b7fffffffff0000000000000000000000000000000000000000000000000000000081167fbc197c810000000000000000000000000000000000000000000000000000000014610d4a576040517f57f447ce00000000000000000000000000000000000000000000000000000000815273ffffffffffffffffffffffffffffffffffffffff8616600482015260240161058d565b803573ffffffffffffffffffffffffffffffffffffffff8116811461144557600080fd5b919050565b6000806040838503121561145d57600080fd5b61146683611421565b946020939093013593505050565b7fffffffff000000000000000000000000000000000000000000000000000000008116811461043857600080fd5b6000602082840312156114b457600080fd5b81356114bf81611474565b9392505050565b7f4e487b7100000000000000000000000000000000000000000000000000000000600052604160045260246000fd5b604051601f82017fffffffffffffffffffffffffffffffffffffffffffffffffffffffffffffffe016810167ffffffffffffffff8111828210171561153c5761153c6114c6565b604052919050565b600067ffffffffffffffff83111561155e5761155e6114c6565b61158f60207fffffffffffffffffffffffffffffffffffffffffffffffffffffffffffffffe0601f860116016114f5565b90508281528383830111156115a357600080fd5b828260208301376000602084830101529392505050565b6000602082840312156115cc57600080fd5b813567ffffffffffffffff8111156115e357600080fd5b8201601f810184136115f457600080fd5b61160384823560208401611544565b949350505050565b600082601f83011261161c57600080fd5b6114bf83833560208501611544565b60008060006060848603121561164057600080fd5b8335925060208401359150604084013567ffffffffffffffff81111561166557600080fd5b6116718682870161160b565b9150509250925092565b60006020828403121561168d57600080fd5b5035919050565b6000815180845260005b818110156116ba5760208185018101518683018201520161169e565b5060006020828601015260207fffffffffffffffffffffffffffffffffffffffffffffffffffffffffffffffe0601f83011685010191505092915050565b6020815260006114bf6020830184611694565b600067ffffffffffffffff821115611725576117256114c6565b5060051b60200190565b600082601f83011261174057600080fd5b813560206117556117508361170b565b6114f5565b82815260059290921b8401810191818101908684111561177457600080fd5b8286015b8481101561178f5780358352918301918301611778565b509695505050505050565b600080600080600060a086880312156117b257600080fd5b6117bb86611421565b94506117c960208701611421565b9350604086013567ffffffffffffffff808211156117e657600080fd5b6117f289838a0161172f565b9450606088013591508082111561180857600080fd5b61181489838a0161172f565b9350608088013591508082111561182a57600080fd5b506118378882890161160b565b9150509295509295909350565b6000806040838503121561185757600080fd5b823567ffffffffffffffff8082111561186f57600080fd5b818501915085601f83011261188357600080fd5b813560206118936117508361170b565b82815260059290921b840181019181810190898411156118b257600080fd5b948201945b838610156118d7576118c886611421565b825294820194908201906118b7565b965050860135925050808211156118ed57600080fd5b506118fa8582860161172f565b9150509250929050565b600081518084526020808501945080840160005b8381101561193457815187529582019590820190600101611918565b509495945050505050565b6020815260006114bf6020830184611904565b60008060006060848603121561196757600080fd5b61197084611421565b95602085013595506040909401359392505050565b6000806040838503121561199857600080fd5b823567ffffffffffffffff808211156119b057600080fd5b6119bc8683870161172f565b935060208501359150808211156118ed57600080fd5b600080604083850312156119e557600080fd5b6119ee83611421565b915060208301358015158114611a0357600080fd5b809150509250929050565b60008060408385031215611a2157600080fd5b50508035926020909101359150565b600080600060608486031215611a4557600080fd5b833567ffffffffffffffff80821115611a5d57600080fd5b611a698783880161172f565b94506020860135915080821115611a7f57600080fd5b611a8b8783880161172f565b93506040860135915080821115611aa157600080fd5b506116718682870161160b565b60008060408385031215611ac157600080fd5b611aca83611421565b9150611ad860208401611421565b90509250929050565b600080600080600060a08688031215611af957600080fd5b611b0286611421565b9450611b1060208701611421565b93506040860135925060608601359150608086013567ffffffffffffffff811115611b3a57600080fd5b6118378882890161160b565b600060208284031215611b5857600080fd5b6114bf82611421565b600181811c90821680611b7557607f821691505b602082108103611bae577f4e487b7100000000000000000000000000000000000000000000000000000000600052602260045260246000fd5b50919050565b7f4e487b7100000000000000000000000000000000000000000000000000000000600052603260045260246000fd5b7f4e487b7100000000000000000000000000000000000000000000000000000000600052601160045260246000fd5b60007fffffffffffffffffffffffffffffffffffffffffffffffffffffffffffffffff8203611c4357611c43611be3565b5060010190565b601f82111561044757600081815260208120601f850160051c81016020861015611c715750805b601f850160051c820191505b818110156105a357828155600101611c7d565b815167ffffffffffffffff811115611caa57611caa6114c6565b611cbe81611cb88454611b61565b84611c4a565b602080601f831160018114611d115760008415611cdb5750858301515b7fffffffffffffffffffffffffffffffffffffffffffffffffffffffffffffffff600386901b1c1916600185901b1785556105a3565b6000858152602081207fffffffffffffffffffffffffffffffffffffffffffffffffffffffffffffffe08616915b82811015611d5e57888601518255948401946001909101908401611d3f565b5085821015611d9a57878501517fffffffffffffffffffffffffffffffffffffffffffffffffffffffffffffffff600388901b60f8161c191681555b5050505050600190811b01905550565b8082018082111561033e5761033e611be3565b604081526000611dd06040830185611904565b8281036020840152611de28185611904565b95945050505050565b600073ffffffffffffffffffffffffffffffffffffffff808816835280871660208401525084604083015283606083015260a06080830152611e3060a0830184611694565b979650505050505050565b600060208284031215611e4d57600080fd5b81516114bf81611474565b600073ffffffffffffffffffffffffffffffffffffffff808816835280871660208401525060a06040830152611e9160a0830186611904565b8281036060840152611ea38186611904565b90508281036080840152611eb78185611694565b9897505050505050505056fea26469706673582212203331d313942cf09838de016cb067f739ad24f992cac552051be232ea87771e6564736f6c63430008140033",
  "linkReferences": {},
  "deployedLinkReferences": {}
}