{
  "_format": "hh-sol-artifact-1",
  "contractName": "JustFriends",
  "sourceName": "contracts/JustFriends.sol",
  "abi": [
    {
      "inputs": [
        {
          "internalType": "address",
          "name": "_protocolFeeDestination",
          "type": "address"
        },
        {
          "internalType": "uint8",
          "name": "_protocolFeePercentBase",
          "type": "uint8"
        },
        {
          "internalType": "uint8",
          "name": "_creatorFeePercentBase",
          "type": "uint8"
        },
        {
          "internalType": "uint8",
          "name": "_extraFeePercentBase",
          "type": "uint8"
        },
        {
          "internalType": "uint8",
          "name": "_loyalFanFeePercentBase",
          "type": "uint8"
        },
        {
          "internalType": "uint8",
          "name": "_loyalFanLength",
          "type": "uint8"
        }
      ],
      "stateMutability": "nonpayable",
      "type": "constructor"
    },
    {
      "inputs": [
        {
          "internalType": "address",
          "name": "user",
          "type": "address"
        },
        {
          "internalType": "address",
          "name": "creator",
          "type": "address"
        },
        {
          "internalType": "uint256",
          "name": "periodTimestamp",
          "type": "uint256"
        }
      ],
      "name": "DuplicateClaiming",
      "type": "error"
    },
    {
      "inputs": [
        {
          "internalType": "address",
          "name": "walletAddress",
          "type": "address"
        },
        {
          "internalType": "bytes32",
          "name": "contentHash",
          "type": "bytes32"
        }
      ],
      "name": "DuplicateVoting",
      "type": "error"
    },
    {
      "inputs": [
        {
          "internalType": "address",
          "name": "sender",
          "type": "address"
        },
        {
          "internalType": "uint256",
          "name": "balance",
          "type": "uint256"
        },
        {
          "internalType": "uint256",
          "name": "needed",
          "type": "uint256"
        },
        {
          "internalType": "uint256",
          "name": "tokenId",
          "type": "uint256"
        }
      ],
      "name": "ERC1155InsufficientBalance",
      "type": "error"
    },
    {
      "inputs": [
        {
          "internalType": "address",
          "name": "approver",
          "type": "address"
        }
      ],
      "name": "ERC1155InvalidApprover",
      "type": "error"
    },
    {
      "inputs": [
        {
          "internalType": "uint256",
          "name": "idsLength",
          "type": "uint256"
        },
        {
          "internalType": "uint256",
          "name": "valuesLength",
          "type": "uint256"
        }
      ],
      "name": "ERC1155InvalidArrayLength",
      "type": "error"
    },
    {
      "inputs": [
        {
          "internalType": "address",
          "name": "operator",
          "type": "address"
        }
      ],
      "name": "ERC1155InvalidOperator",
      "type": "error"
    },
    {
      "inputs": [
        {
          "internalType": "address",
          "name": "receiver",
          "type": "address"
        }
      ],
      "name": "ERC1155InvalidReceiver",
      "type": "error"
    },
    {
      "inputs": [
        {
          "internalType": "address",
          "name": "sender",
          "type": "address"
        }
      ],
      "name": "ERC1155InvalidSender",
      "type": "error"
    },
    {
      "inputs": [
        {
          "internalType": "address",
          "name": "operator",
          "type": "address"
        },
        {
          "internalType": "address",
          "name": "owner",
          "type": "address"
        }
      ],
      "name": "ERC1155MissingApprovalForAll",
      "type": "error"
    },
    {
      "inputs": [
        {
          "internalType": "address",
          "name": "user",
          "type": "address"
        },
        {
          "internalType": "address",
          "name": "creator",
          "type": "address"
        },
        {
          "internalType": "uint256",
          "name": "periodTimestamp",
          "type": "uint256"
        }
      ],
      "name": "EarlyClaiming",
      "type": "error"
    },
    {
      "inputs": [
        {
          "internalType": "address",
          "name": "walletAddress",
          "type": "address"
        }
      ],
      "name": "ExistedCreator",
      "type": "error"
    },
    {
      "inputs": [],
      "name": "FailedFeeTransfer",
      "type": "error"
    },
    {
      "inputs": [
        {
          "internalType": "address",
          "name": "walletAddress",
          "type": "address"
        },
        {
          "internalType": "bytes32",
          "name": "contentHash",
          "type": "bytes32"
        }
      ],
      "name": "FreeContentExchange",
      "type": "error"
    },
    {
      "inputs": [
        {
          "internalType": "address",
          "name": "user",
          "type": "address"
        },
        {
          "internalType": "address",
          "name": "creator",
          "type": "address"
        },
        {
          "internalType": "uint256",
          "name": "periodTimestamp",
          "type": "uint256"
        }
      ],
      "name": "IllegalClaiming",
      "type": "error"
    },
    {
      "inputs": [
        {
          "internalType": "address",
          "name": "walletAddress",
          "type": "address"
        },
        {
          "internalType": "bytes32",
          "name": "contentHash",
          "type": "bytes32"
        },
        {
          "internalType": "uint256",
          "name": "amount",
          "type": "uint256"
        }
      ],
      "name": "InsufficientAccess",
      "type": "error"
    },
    {
      "inputs": [
        {
          "internalType": "address",
          "name": "walletAddress",
          "type": "address"
        },
        {
          "internalType": "bytes32",
          "name": "contentHash",
          "type": "bytes32"
        },
        {
          "internalType": "uint256",
          "name": "amount",
          "type": "uint256"
        }
      ],
      "name": "InsufficientPayment",
      "type": "error"
    },
    {
      "inputs": [
        {
          "internalType": "bytes32",
          "name": "contentHash",
          "type": "bytes32"
        }
      ],
      "name": "InvalidContent",
      "type": "error"
    },
    {
      "inputs": [
        {
          "internalType": "address",
          "name": "walletAddress",
          "type": "address"
        }
      ],
      "name": "InvalidCreator",
      "type": "error"
    },
    {
      "inputs": [
        {
          "internalType": "address",
          "name": "walletAddress",
          "type": "address"
        },
        {
          "internalType": "bytes32",
          "name": "contentHash",
          "type": "bytes32"
        }
      ],
      "name": "InvalidFirstPurchase",
      "type": "error"
    },
    {
      "inputs": [
        {
          "internalType": "address",
          "name": "walletAddress",
          "type": "address"
        },
        {
          "internalType": "bytes32",
          "name": "contentHash",
          "type": "bytes32"
        }
      ],
      "name": "InvalidLastSell",
      "type": "error"
    },
    {
      "inputs": [
        {
          "internalType": "address",
          "name": "walletAddress",
          "type": "address"
        },
        {
          "internalType": "bytes32",
          "name": "contentHash",
          "type": "bytes32"
        }
      ],
      "name": "InvalidVoting",
      "type": "error"
    },
    {
      "inputs": [
        {
          "internalType": "address",
          "name": "owner",
          "type": "address"
        }
      ],
      "name": "OwnableInvalidOwner",
      "type": "error"
    },
    {
      "inputs": [
        {
          "internalType": "address",
          "name": "account",
          "type": "address"
        }
      ],
      "name": "OwnableUnauthorizedAccount",
      "type": "error"
    },
    {
      "inputs": [
        {
          "internalType": "address",
          "name": "walletAddress",
          "type": "address"
        },
        {
          "internalType": "bytes32",
          "name": "contentHash",
          "type": "bytes32"
        }
      ],
      "name": "PaidContentVoting",
      "type": "error"
    },
    {
      "inputs": [
        {
          "internalType": "address",
          "name": "user",
          "type": "address"
        },
        {
          "internalType": "address",
          "name": "creator",
          "type": "address"
        },
        {
          "internalType": "uint256",
          "name": "periodTimestamp",
          "type": "uint256"
        }
      ],
      "name": "UnCloseClaiming",
      "type": "error"
    },
    {
      "anonymous": false,
      "inputs": [
        {
          "indexed": true,
          "internalType": "bytes32",
          "name": "hash",
          "type": "bytes32"
        },
        {
          "indexed": true,
          "internalType": "address",
          "name": "buyer",
          "type": "address"
        },
        {
          "indexed": false,
          "internalType": "uint256",
          "name": "amount",
          "type": "uint256"
        },
        {
          "indexed": false,
          "internalType": "uint256",
          "name": "totalPrice",
          "type": "uint256"
        }
      ],
      "name": "AccessPurchased",
      "type": "event"
    },
    {
      "anonymous": false,
      "inputs": [
        {
          "indexed": true,
          "internalType": "bytes32",
          "name": "hash",
          "type": "bytes32"
        },
        {
          "indexed": true,
          "internalType": "address",
          "name": "seller",
          "type": "address"
        },
        {
          "indexed": false,
          "internalType": "uint256",
          "name": "amount",
          "type": "uint256"
        },
        {
          "indexed": false,
          "internalType": "uint256",
          "name": "totalPrice",
          "type": "uint256"
        }
      ],
      "name": "AccessSold",
      "type": "event"
    },
    {
      "anonymous": false,
      "inputs": [
        {
          "indexed": true,
          "internalType": "address",
          "name": "account",
          "type": "address"
        },
        {
          "indexed": true,
          "internalType": "address",
          "name": "operator",
          "type": "address"
        },
        {
          "indexed": false,
          "internalType": "bool",
          "name": "approved",
          "type": "bool"
        }
      ],
      "name": "ApprovalForAll",
      "type": "event"
    },
    {
      "anonymous": false,
      "inputs": [
        {
          "indexed": true,
          "internalType": "bytes32",
          "name": "hash",
          "type": "bytes32"
        },
        {
          "indexed": true,
          "internalType": "address",
          "name": "creator",
          "type": "address"
        },
        {
          "indexed": false,
          "internalType": "uint256",
          "name": "startedPrice",
          "type": "uint256"
        },
        {
          "indexed": false,
          "internalType": "bool",
          "name": "isPaid",
          "type": "bool"
        }
      ],
      "name": "ContentCreated",
      "type": "event"
    },
    {
      "anonymous": false,
      "inputs": [
        {
          "indexed": true,
          "internalType": "bytes32",
          "name": "hash",
          "type": "bytes32"
        },
        {
          "indexed": true,
          "internalType": "address",
          "name": "account",
          "type": "address"
        },
        {
          "indexed": true,
          "internalType": "address",
          "name": "creator",
          "type": "address"
        }
      ],
      "name": "Downvoted",
      "type": "event"
    },
    {
      "anonymous": false,
      "inputs": [
        {
          "indexed": true,
          "internalType": "address",
          "name": "previousOwner",
          "type": "address"
        },
        {
          "indexed": true,
          "internalType": "address",
          "name": "newOwner",
          "type": "address"
        }
      ],
      "name": "OwnershipTransferred",
      "type": "event"
    },
    {
      "anonymous": false,
      "inputs": [
        {
          "indexed": true,
          "internalType": "address",
          "name": "operator",
          "type": "address"
        },
        {
          "indexed": true,
          "internalType": "address",
          "name": "from",
          "type": "address"
        },
        {
          "indexed": true,
          "internalType": "address",
          "name": "to",
          "type": "address"
        },
        {
          "indexed": false,
          "internalType": "uint256[]",
          "name": "ids",
          "type": "uint256[]"
        },
        {
          "indexed": false,
          "internalType": "uint256[]",
          "name": "values",
          "type": "uint256[]"
        }
      ],
      "name": "TransferBatch",
      "type": "event"
    },
    {
      "anonymous": false,
      "inputs": [
        {
          "indexed": true,
          "internalType": "address",
          "name": "operator",
          "type": "address"
        },
        {
          "indexed": true,
          "internalType": "address",
          "name": "from",
          "type": "address"
        },
        {
          "indexed": true,
          "internalType": "address",
          "name": "to",
          "type": "address"
        },
        {
          "indexed": false,
          "internalType": "uint256",
          "name": "id",
          "type": "uint256"
        },
        {
          "indexed": false,
          "internalType": "uint256",
          "name": "value",
          "type": "uint256"
        }
      ],
      "name": "TransferSingle",
      "type": "event"
    },
    {
      "anonymous": false,
      "inputs": [
        {
          "indexed": false,
          "internalType": "string",
          "name": "value",
          "type": "string"
        },
        {
          "indexed": true,
          "internalType": "uint256",
          "name": "id",
          "type": "uint256"
        }
      ],
      "name": "URI",
      "type": "event"
    },
    {
      "anonymous": false,
      "inputs": [
        {
          "indexed": true,
          "internalType": "bytes32",
          "name": "hash",
          "type": "bytes32"
        },
        {
          "indexed": true,
          "internalType": "address",
          "name": "account",
          "type": "address"
        },
        {
          "indexed": true,
          "internalType": "address",
          "name": "creator",
          "type": "address"
        }
      ],
      "name": "Upvoted",
      "type": "event"
    },
    {
      "inputs": [],
      "name": "MAX_UINT256",
      "outputs": [
        {
          "internalType": "uint256",
          "name": "",
          "type": "uint256"
        }
      ],
      "stateMutability": "view",
      "type": "function"
    },
    {
      "inputs": [
        {
          "internalType": "address",
          "name": "account",
          "type": "address"
        },
        {
          "internalType": "uint256",
          "name": "id",
          "type": "uint256"
        }
      ],
      "name": "balanceOf",
      "outputs": [
        {
          "internalType": "uint256",
          "name": "",
          "type": "uint256"
        }
      ],
      "stateMutability": "view",
      "type": "function"
    },
    {
      "inputs": [
        {
          "internalType": "address[]",
          "name": "accounts",
          "type": "address[]"
        },
        {
          "internalType": "uint256[]",
          "name": "ids",
          "type": "uint256[]"
        }
      ],
      "name": "balanceOfBatch",
      "outputs": [
        {
          "internalType": "uint256[]",
          "name": "",
          "type": "uint256[]"
        }
      ],
      "stateMutability": "view",
      "type": "function"
    },
    {
      "inputs": [
        {
          "internalType": "uint256",
          "name": "id",
          "type": "uint256"
        },
        {
          "internalType": "uint256",
          "name": "amount",
          "type": "uint256"
        }
      ],
      "name": "burn",
      "outputs": [],
      "stateMutability": "nonpayable",
      "type": "function"
    },
    {
      "inputs": [
        {
          "internalType": "uint256[]",
          "name": "ids",
          "type": "uint256[]"
        },
        {
          "internalType": "uint256[]",
          "name": "amounts",
          "type": "uint256[]"
        }
      ],
      "name": "burnBatch",
      "outputs": [],
      "stateMutability": "nonpayable",
      "type": "function"
    },
    {
      "inputs": [
        {
          "internalType": "bytes32",
          "name": "_contentHash",
          "type": "bytes32"
        },
        {
          "internalType": "uint256",
          "name": "_amount",
          "type": "uint256"
        }
      ],
      "name": "buyContentAccess",
      "outputs": [],
      "stateMutability": "payable",
      "type": "function"
    },
    {
      "inputs": [
        {
          "internalType": "address",
          "name": "_creator",
          "type": "address"
        },
        {
          "internalType": "uint256",
          "name": "_periodId",
          "type": "uint256"
        }
      ],
      "name": "claim",
      "outputs": [],
      "stateMutability": "nonpayable",
      "type": "function"
    },
    {
      "inputs": [
        {
          "internalType": "bytes32",
          "name": "",
          "type": "bytes32"
        }
      ],
      "name": "contentList",
      "outputs": [
        {
          "internalType": "bytes32",
          "name": "contentHash",
          "type": "bytes32"
        },
        {
          "internalType": "uint256",
          "name": "accessTokenId",
          "type": "uint256"
        },
        {
          "internalType": "address",
          "name": "creator",
          "type": "address"
        },
        {
          "internalType": "bool",
          "name": "isPaid",
          "type": "bool"
        },
        {
          "internalType": "uint256",
          "name": "startedPrice",
          "type": "uint256"
        },
        {
          "internalType": "uint256",
          "name": "totalUpvote",
          "type": "uint256"
        },
        {
          "internalType": "uint256",
          "name": "totalDownvote",
          "type": "uint256"
        },
        {
          "internalType": "uint256",
          "name": "totalSupply",
          "type": "uint256"
        }
      ],
      "stateMutability": "view",
      "type": "function"
    },
    {
      "inputs": [],
      "name": "creatorFeePercentBase",
      "outputs": [
        {
          "internalType": "uint8",
          "name": "",
          "type": "uint8"
        }
      ],
      "stateMutability": "view",
      "type": "function"
    },
    {
      "inputs": [
        {
          "internalType": "address",
          "name": "",
          "type": "address"
        }
      ],
      "name": "creatorList",
      "outputs": [
        {
          "internalType": "uint256",
          "name": "totalContent",
          "type": "uint256"
        },
        {
          "internalType": "uint256",
          "name": "totalUpvote",
          "type": "uint256"
        },
        {
          "internalType": "uint256",
          "name": "totalDownvote",
          "type": "uint256"
        }
      ],
      "stateMutability": "view",
      "type": "function"
    },
    {
      "inputs": [],
      "name": "extraFeePercentBase",
      "outputs": [
        {
          "internalType": "uint8",
          "name": "",
          "type": "uint8"
        }
      ],
      "stateMutability": "view",
      "type": "function"
    },
    {
      "inputs": [
        {
          "internalType": "bytes32",
          "name": "_contentHash",
          "type": "bytes32"
        },
        {
          "internalType": "uint256",
          "name": "_amount",
          "type": "uint256"
        }
      ],
      "name": "getBuyPrice",
      "outputs": [
        {
          "internalType": "uint256",
          "name": "buyPrice",
          "type": "uint256"
        }
      ],
      "stateMutability": "view",
      "type": "function"
    },
    {
      "inputs": [
        {
          "internalType": "uint256",
          "name": "_basePrice",
          "type": "uint256"
        },
        {
          "internalType": "uint256",
          "name": "_supply",
          "type": "uint256"
        },
        {
          "internalType": "uint256",
          "name": "_amount",
          "type": "uint256"
        }
      ],
      "name": "getContentPrice",
      "outputs": [
        {
          "internalType": "uint256",
          "name": "",
          "type": "uint256"
        }
      ],
      "stateMutability": "pure",
      "type": "function"
    },
    {
      "inputs": [
        {
          "internalType": "bytes32[]",
          "name": "_contentHashes",
          "type": "bytes32[]"
        }
      ],
      "name": "getContentsInfo",
      "outputs": [
        {
          "components": [
            {
              "internalType": "bytes32",
              "name": "contentHash",
              "type": "bytes32"
            },
            {
              "internalType": "uint256",
              "name": "accessTokenId",
              "type": "uint256"
            },
            {
              "internalType": "address",
              "name": "creator",
              "type": "address"
            },
            {
              "internalType": "bool",
              "name": "isPaid",
              "type": "bool"
            },
            {
              "internalType": "uint256",
              "name": "startedPrice",
              "type": "uint256"
            },
            {
              "internalType": "uint256",
              "name": "totalUpvote",
              "type": "uint256"
            },
            {
              "internalType": "uint256",
              "name": "totalDownvote",
              "type": "uint256"
            },
            {
              "internalType": "uint256",
              "name": "totalSupply",
              "type": "uint256"
            }
          ],
          "internalType": "struct JustFriendsInterface.Content[]",
          "name": "",
          "type": "tuple[]"
        }
      ],
      "stateMutability": "view",
      "type": "function"
    },
    {
      "inputs": [
        {
          "internalType": "address",
          "name": "_walletAddress",
          "type": "address"
        }
      ],
      "name": "getCreatorInfo",
      "outputs": [
        {
          "internalType": "uint256",
          "name": "",
          "type": "uint256"
        },
        {
          "internalType": "uint256",
          "name": "",
          "type": "uint256"
        },
        {
          "internalType": "uint256",
          "name": "",
          "type": "uint256"
        }
      ],
      "stateMutability": "view",
      "type": "function"
    },
    {
      "inputs": [
        {
          "internalType": "address",
          "name": "_creator",
          "type": "address"
        },
        {
          "internalType": "uint256",
          "name": "_periodId",
          "type": "uint256"
        }
      ],
      "name": "getListLoyalty",
      "outputs": [
        {
          "internalType": "address[]",
          "name": "",
          "type": "address[]"
        }
      ],
      "stateMutability": "view",
      "type": "function"
    },
    {
      "inputs": [
        {
          "internalType": "address",
          "name": "account",
          "type": "address"
        },
        {
          "internalType": "address",
          "name": "operator",
          "type": "address"
        }
      ],
      "name": "isApprovedForAll",
      "outputs": [
        {
          "internalType": "bool",
          "name": "",
          "type": "bool"
        }
      ],
      "stateMutability": "view",
      "type": "function"
    },
    {
      "inputs": [],
      "name": "loyalFanFeePercentBase",
      "outputs": [
        {
          "internalType": "uint8",
          "name": "",
          "type": "uint8"
        }
      ],
      "stateMutability": "view",
      "type": "function"
    },
    {
      "inputs": [
        {
          "internalType": "address",
          "name": "",
          "type": "address"
        },
        {
          "internalType": "address",
          "name": "",
          "type": "address"
        },
        {
          "internalType": "uint256",
          "name": "",
          "type": "uint256"
        }
      ],
      "name": "loyalFanRecords",
      "outputs": [
        {
          "internalType": "uint256",
          "name": "loyalty",
          "type": "uint256"
        },
        {
          "internalType": "bool",
          "name": "claimed",
          "type": "bool"
        }
      ],
      "stateMutability": "view",
      "type": "function"
    },
    {
      "inputs": [
        {
          "internalType": "uint256",
          "name": "id",
          "type": "uint256"
        },
        {
          "internalType": "uint256",
          "name": "amount",
          "type": "uint256"
        },
        {
          "internalType": "bytes",
          "name": "data",
          "type": "bytes"
        }
      ],
      "name": "mint",
      "outputs": [],
      "stateMutability": "nonpayable",
      "type": "function"
    },
    {
      "inputs": [
        {
          "internalType": "uint256[]",
          "name": "ids",
          "type": "uint256[]"
        },
        {
          "internalType": "uint256[]",
          "name": "amounts",
          "type": "uint256[]"
        },
        {
          "internalType": "bytes",
          "name": "data",
          "type": "bytes"
        }
      ],
      "name": "mintBatch",
      "outputs": [],
      "stateMutability": "nonpayable",
      "type": "function"
    },
    {
      "inputs": [],
      "name": "owner",
      "outputs": [
        {
          "internalType": "address",
          "name": "",
          "type": "address"
        }
      ],
      "stateMutability": "view",
      "type": "function"
    },
    {
      "inputs": [
        {
          "internalType": "address",
          "name": "",
          "type": "address"
        },
        {
          "internalType": "uint256",
          "name": "",
          "type": "uint256"
        }
      ],
      "name": "periodList",
      "outputs": [
        {
          "internalType": "uint256",
          "name": "revenue",
          "type": "uint256"
        },
        {
          "internalType": "bool",
          "name": "isClose",
          "type": "bool"
        }
      ],
      "stateMutability": "view",
      "type": "function"
    },
    {
      "inputs": [
        {
          "internalType": "bytes32",
          "name": "_contentHash",
          "type": "bytes32"
        },
        {
          "internalType": "uint256",
          "name": "_startedPrice",
          "type": "uint256"
        },
        {
          "internalType": "bool",
          "name": "isPaid",
          "type": "bool"
        }
      ],
      "name": "postContent",
      "outputs": [],
      "stateMutability": "nonpayable",
      "type": "function"
    },
    {
      "inputs": [],
      "name": "protocolFeeDestination",
      "outputs": [
        {
          "internalType": "address",
          "name": "",
          "type": "address"
        }
      ],
      "stateMutability": "view",
      "type": "function"
    },
    {
      "inputs": [],
      "name": "protocolFeePercentBase",
      "outputs": [
        {
          "internalType": "uint8",
          "name": "",
          "type": "uint8"
        }
      ],
      "stateMutability": "view",
      "type": "function"
    },
    {
      "inputs": [],
      "name": "renounceOwnership",
      "outputs": [],
      "stateMutability": "nonpayable",
      "type": "function"
    },
    {
      "inputs": [
        {
          "internalType": "address",
          "name": "from",
          "type": "address"
        },
        {
          "internalType": "address",
          "name": "to",
          "type": "address"
        },
        {
          "internalType": "uint256[]",
          "name": "ids",
          "type": "uint256[]"
        },
        {
          "internalType": "uint256[]",
          "name": "values",
          "type": "uint256[]"
        },
        {
          "internalType": "bytes",
          "name": "data",
          "type": "bytes"
        }
      ],
      "name": "safeBatchTransferFrom",
      "outputs": [],
      "stateMutability": "nonpayable",
      "type": "function"
    },
    {
      "inputs": [
        {
          "internalType": "address",
          "name": "from",
          "type": "address"
        },
        {
          "internalType": "address",
          "name": "to",
          "type": "address"
        },
        {
          "internalType": "uint256",
          "name": "id",
          "type": "uint256"
        },
        {
          "internalType": "uint256",
          "name": "value",
          "type": "uint256"
        },
        {
          "internalType": "bytes",
          "name": "data",
          "type": "bytes"
        }
      ],
      "name": "safeTransferFrom",
      "outputs": [],
      "stateMutability": "nonpayable",
      "type": "function"
    },
    {
      "inputs": [
        {
          "internalType": "bytes32",
          "name": "_contentHash",
          "type": "bytes32"
        },
        {
          "internalType": "uint256",
          "name": "_amount",
          "type": "uint256"
        }
      ],
      "name": "sellContentAccess",
      "outputs": [],
      "stateMutability": "nonpayable",
      "type": "function"
    },
    {
      "inputs": [
        {
          "internalType": "address",
          "name": "operator",
          "type": "address"
        },
        {
          "internalType": "bool",
          "name": "approved",
          "type": "bool"
        }
      ],
      "name": "setApprovalForAll",
      "outputs": [],
      "stateMutability": "nonpayable",
      "type": "function"
    },
    {
      "inputs": [
        {
          "internalType": "uint8",
          "name": "_newProtocolFeePercentBase",
          "type": "uint8"
        },
        {
          "internalType": "uint8",
          "name": "_newCreatorFeePercentBase",
          "type": "uint8"
        },
        {
          "internalType": "uint8",
          "name": "_newExtraFeePercentBase",
          "type": "uint8"
        }
      ],
      "name": "setFeePercentBase",
      "outputs": [],
      "stateMutability": "nonpayable",
      "type": "function"
    },
    {
      "inputs": [
        {
          "internalType": "address",
          "name": "_newProtocolFeeDestination",
          "type": "address"
        }
      ],
      "name": "setProtocolFeeDestination",
      "outputs": [],
      "stateMutability": "nonpayable",
      "type": "function"
    },
    {
      "inputs": [
        {
          "internalType": "string",
          "name": "newURI",
          "type": "string"
        }
      ],
      "name": "setURI",
      "outputs": [],
      "stateMutability": "nonpayable",
      "type": "function"
    },
    {
      "inputs": [
        {
          "internalType": "uint8",
          "name": "_upvoteWeight",
          "type": "uint8"
        },
        {
          "internalType": "uint8",
          "name": "_downvoteWeight",
          "type": "uint8"
        },
        {
          "internalType": "uint8",
          "name": "_voteWeight",
          "type": "uint8"
        }
      ],
      "name": "setVoteWeightBase",
      "outputs": [],
      "stateMutability": "nonpayable",
      "type": "function"
    },
    {
      "inputs": [
        {
          "internalType": "bytes4",
          "name": "interfaceId",
          "type": "bytes4"
        }
      ],
      "name": "supportsInterface",
      "outputs": [
        {
          "internalType": "bool",
          "name": "",
          "type": "bool"
        }
      ],
      "stateMutability": "view",
      "type": "function"
    },
    {
      "inputs": [
        {
          "internalType": "address",
          "name": "newOwner",
          "type": "address"
        }
      ],
      "name": "transferOwnership",
      "outputs": [],
      "stateMutability": "nonpayable",
      "type": "function"
    },
    {
      "inputs": [
        {
          "internalType": "uint256",
          "name": "",
          "type": "uint256"
        }
      ],
      "name": "uri",
      "outputs": [
        {
          "internalType": "string",
          "name": "",
          "type": "string"
        }
      ],
      "stateMutability": "view",
      "type": "function"
    },
    {
      "inputs": [
        {
          "internalType": "address",
          "name": "",
          "type": "address"
        },
        {
          "internalType": "bytes32",
          "name": "",
          "type": "bytes32"
        }
      ],
      "name": "userReactions",
      "outputs": [
        {
          "internalType": "enum JustFriendsInterface.VoteType",
          "name": "",
          "type": "uint8"
        }
      ],
      "stateMutability": "view",
      "type": "function"
    },
    {
      "inputs": [
        {
          "internalType": "bytes32",
          "name": "_contentHash",
          "type": "bytes32"
        },
        {
          "internalType": "enum JustFriendsInterface.VoteType",
          "name": "_voteType",
          "type": "uint8"
        }
      ],
      "name": "vote",
      "outputs": [],
      "stateMutability": "nonpayable",
      "type": "function"
    }
  ],
  "bytecode": "0x6080346200024857601f62004a2538819003918201601f1916830192916001600160401b03918285118486101762000232578160c09285926040978852833981010312620002485781516001600160a01b0392838216929183900362000248576200006d602082016200024d565b6200007a8683016200024d565b62000088606084016200024d565b91620000a560a06200009d608087016200024d565b95016200024d565b8851909560208201908111828210176200023257895260008091526002546001908181811c9116801562000227575b60208210146200021357601f8111620001c9575b5050806002553315620001b25760038054336001600160a01b031982168117909255995199650186a01950649967ff000000000000009897969594939291167f8be0079c531659141344cd1fd0a4f28419497f9722a3daafe3b4186f6b6457e08380a360055560018060401b031960065416966004549460ff60b81b9060b81b169460018060c01b031916179060ff60a01b9060a01b16179060ff60a81b9060a81b16179060ff60b01b9060b01b16171760045560381b1617176006556147c890816200025d8239f35b602490895190631e4fbdf760e01b82526004820152fd5b60028352601f0160051c7f405787fa12a823e0f2b7631cc41b3ba8828b3321ca811111fa75cd3aa3bb5ace908101905b818110620002085750620000e8565b8381558201620001f9565b634e487b7160e01b83526022600452602483fd5b90607f1690620000d4565b634e487b7160e01b600052604160045260246000fd5b600080fd5b519060ff82168203620002485756fe6080604052600436101561001257600080fd5b60003560e01c8062fdd58e1461029657806301ffc9a71461029157806302fe53051461028c57806308dc9f42146102875780630e89341c146102825780630f7f49ff1461027d578063115b15701461027857806311f4bfde146102735780631d5593b41461026e57806323bac0dd146102695780632e50b914146102645780632eb2c2d61461025f57806333a581d21461025a5780633d4ac718146102555780633f3ca6b21461025057806340d8bbc71461024b578063485fe27f146102465780634ce7957c146102415780634e1273f41461023c578063715018a61461023757806383ca4b6f146102325780638da5cb5b1461022d57806391a6fe981461022857806397d5c1ac146102235780639dd3cad31461021e578063a10786b014610219578063a22cb46514610214578063aad3ec961461020f578063ac3744e21461020a578063b390c0ab14610205578063bb4351e814610200578063bfcfb7a7146101fb578063c9a28cb9146101f6578063ccdb635f146101f1578063de11368c146101ec578063e985e9c5146101e7578063eb183aca146101e2578063ec17d627146101dd578063f242432a146101d85763f2fde38b146101d357600080fd5b612cfa565b612b9e565b612b5c565b612aaf565b6129dc565b6125e0565b61259e565b61216a565b611c7b565b611bb7565b611b79565b611a0d565b6119ca565b61189d565b61180b565b6117ab565b611708565b6116be565b61166c565b6115b3565b611511565b611439565b6113a2565b6112ec565b6112aa565b6111e8565b61110c565b6110b3565b610eea565b610d70565b610d2e565b610c7a565b610b31565b610aab565b6109e0565b610875565b6107a6565b6105e4565b6103aa565b610307565b6004359073ffffffffffffffffffffffffffffffffffffffff821682036102be57565b600080fd5b6024359073ffffffffffffffffffffffffffffffffffffffff821682036102be57565b359073ffffffffffffffffffffffffffffffffffffffff821682036102be57565b346102be5760407ffffffffffffffffffffffffffffffffffffffffffffffffffffffffffffffffc3601126102be57602061037761034361029b565b6024356000526000835260406000209073ffffffffffffffffffffffffffffffffffffffff16600052602052604060002090565b54604051908152f35b7fffffffff000000000000000000000000000000000000000000000000000000008116036102be57565b346102be5760207ffffffffffffffffffffffffffffffffffffffffffffffffffffffffffffffffc3601126102be5760207fffffffff0000000000000000000000000000000000000000000000000000000060043561040881610380565b167fd9b67a26000000000000000000000000000000000000000000000000000000008114908115610470575b8115610446575b506040519015158152f35b7f01ffc9a7000000000000000000000000000000000000000000000000000000009150143861043b565b7f0e89341c0000000000000000000000000000000000000000000000000000000081149150610434565b7f4e487b7100000000000000000000000000000000000000000000000000000000600052604160045260246000fd5b610100810190811067ffffffffffffffff8211176104e657604052565b61049a565b6060810190811067ffffffffffffffff8211176104e657604052565b6020810190811067ffffffffffffffff8211176104e657604052565b90601f7fffffffffffffffffffffffffffffffffffffffffffffffffffffffffffffffe0910116810190811067ffffffffffffffff8211176104e657604052565b60405190610571826104c9565b565b67ffffffffffffffff81116104e657601f017fffffffffffffffffffffffffffffffffffffffffffffffffffffffffffffffe01660200190565b9291926105b982610573565b916105c76040519384610523565b8294818452818301116102be578281602093846000960137010152565b346102be576020807ffffffffffffffffffffffffffffffffffffffffffffffffffffffffffffffffc3601126102be5767ffffffffffffffff6004358181116102be57366023820112156102be576106469036906024816004013591016105ad565b9161064f612ddc565b82519182116104e65761066c82610667600254612e2d565b614721565b80601f83116001146106c5575081926000926106ba575b50507fffffffffffffffffffffffffffffffffffffffffffffffffffffffffffffffff8260011b9260031b1c191617600255600080f35b015190503880610683565b907fffffffffffffffffffffffffffffffffffffffffffffffffffffffffffffffe083169361071660026000527f405787fa12a823e0f2b7631cc41b3ba8828b3321ca811111fa75cd3aa3bb5ace90565b926000905b8682106107705750508360019510610739575b505050811b01600255005b01517fffffffffffffffffffffffffffffffffffffffffffffffffffffffffffffffff60f88460031b161c1916905538808061072e565b8060018596829496860151815501950193019061071b565b9080601f830112156102be578160206107a3933591016105ad565b90565b346102be5760607ffffffffffffffffffffffffffffffffffffffffffffffffffffffffffffffffc3601126102be5760443567ffffffffffffffff81116102be576107f8610804913690600401610788565b602435600435336145c0565b005b919082519283825260005b8481106108505750507fffffffffffffffffffffffffffffffffffffffffffffffffffffffffffffffe0601f8460006020809697860101520116010190565b602081830181015184830182015201610811565b9060206107a3928181520190610806565b346102be576020807ffffffffffffffffffffffffffffffffffffffffffffffffffffffffffffffffc3601126102be576040516000916002546108b781612e2d565b8084529060019081811690811561094c57506001146108f1575b6108ed846108e181880382610523565b60405191829182610864565b0390f35b600260009081529294507f405787fa12a823e0f2b7631cc41b3ba8828b3321ca811111fa75cd3aa3bb5ace5b82841061093957505050816108ed936108e192820101936108d1565b805485850187015292850192810161091d565b7fffffffffffffffffffffffffffffffffffffffffffffffffffffffffffffff0016858501525050151560051b82010191506108e1816108ed6108d1565b7ffffffffffffffffffffffffffffffffffffffffffffffffffffffffffffffffc60609101126102be5760043560ff811681036102be579060243560ff811681036102be579060443560ff811681036102be5790565b346102be5760ff610a957fffffffffffffffffff0000ffffffffffffffffffffffffffffffffffffffffff75ff00000000000000000000000000000000000000000076ff00000000000000000000000000000000000000000000610a433661098a565b9591610a50979197612ddc565b6004547fffffffffffffffffffffff00ffffffffffffffffffffffffffffffffffffffff16911660a01b74ff0000000000000000000000000000000000000000161790565b9360b01b169360a81b1691161717600455600080f35b346102be5760207ffffffffffffffffffffffffffffffffffffffffffffffffffffffffffffffffc3601126102be5773ffffffffffffffffffffffffffffffffffffffff610af761029b565b166000526008602052604060002080546108ed60026001840154930154604051938493846040919493926060820195825260208201520152565b346102be5760407ffffffffffffffffffffffffffffffffffffffffffffffffffffffffffffffffc3601126102be5773ffffffffffffffffffffffffffffffffffffffff610b7d61029b565b16600052600b6020526040600020602435600052602052604060002060ff6002825492015416906108ed60405192839283909291602090604083019483521515910152565b67ffffffffffffffff81116104e65760051b60200190565b60208082019080835283518092528060408094019401926000905b838210610c0457505050505090565b84518051875280840151878501528082015173ffffffffffffffffffffffffffffffffffffffff16878301526060808201511515908801526080808201519088015260a0808201519088015260c0808201519088015260e090810151908701526101009095019493820193600190910190610bf5565b346102be576020807ffffffffffffffffffffffffffffffffffffffffffffffffffffffffffffffffc3601126102be5760043567ffffffffffffffff81116102be57366023820112156102be57806004013590610cd682610bc2565b91610ce46040519384610523565b80835260248484019160051b830101913683116102be57602401905b828210610d1f576108ed610d1385613bd7565b60405191829182610bda565b81358152908401908401610d00565b346102be5760007ffffffffffffffffffffffffffffffffffffffffffffffffffffffffffffffffc3601126102be57602060ff60045460b01c16604051908152f35b346102be5760407ffffffffffffffffffffffffffffffffffffffffffffffffffffffffffffffffc3601126102be5760043560005260076020526108ed610e7c610e75610e37604060002060e0604051610dc9816104c9565b8254815260018301546020820152600283015473ffffffffffffffffffffffffffffffffffffffff8116604083015260a01c60ff16151560608201526006600384015493846080840152600481015460a0840152600581015460c08401520154918291015260243591613db5565b610e6f610e69610e6460045460ff610e59818360a01c16828460a81c16613eb5565b9160b81c1690613eb5565b613ea3565b60ff1690565b90613d69565b6064900490565b6040519081529081906020820190565b81601f820112156102be57803591610ea383610bc2565b92610eb16040519485610523565b808452602092838086019260051b8201019283116102be578301905b828210610edb575050505090565b81358152908301908301610ecd565b346102be5760a07ffffffffffffffffffffffffffffffffffffffffffffffffffffffffffffffffc3601126102be57610f2161029b565b610f296102c3565b906044359167ffffffffffffffff908184116102be57610f4e60049436908601610e8c565b906064358381116102be57610f669036908701610e8c565b926084359081116102be57610f7e9036908701610788565b9373ffffffffffffffffffffffffffffffffffffffff808216903382141580611071575b61101e57831615610fed5715610fbc5761080495506133b3565b6024866000604051917f01a83514000000000000000000000000000000000000000000000000000000008352820152fd5b6024876000604051917f57f447ce000000000000000000000000000000000000000000000000000000008352820152fd5b604080517fe237d92200000000000000000000000000000000000000000000000000000000815233818b0190815273ffffffffffffffffffffffffffffffffffffffff8616602082015290918291010390fd5b5081600052600160205260ff6110ab3360406000209073ffffffffffffffffffffffffffffffffffffffff16600052602052604060002090565b541615610fa2565b346102be5760007ffffffffffffffffffffffffffffffffffffffffffffffffffffffffffffffffc3601126102be5760206040517fffffffffffffffffffffffffffffffffffffffffffffffffffffffffffffffff8152f35b346102be5760207ffffffffffffffffffffffffffffffffffffffffffffffffffffffffffffffffc3601126102be57600435600052600760205260406000208054906108ed6001820154916002810154906003810154600482015490600660058401549301549360405197889773ffffffffffffffffffffffffffffffffffffffff60ff8460a01c1693169189949160e0969373ffffffffffffffffffffffffffffffffffffffff919a999895929a61010088019b8852602088015216604086015215156060850152608084015260a083015260c08201520152565b346102be5760607ffffffffffffffffffffffffffffffffffffffffffffffffffffffffffffffffc3601126102be5761127361122261029b565b73ffffffffffffffffffffffffffffffffffffffff61123f6102c3565b9116600052600a60205260406000209073ffffffffffffffffffffffffffffffffffffffff16600052602052604060002090565b604435600052602052604060002060ff6001825492015416906108ed60405192839283909291602090604083019483521515910152565b346102be5760007ffffffffffffffffffffffffffffffffffffffffffffffffffffffffffffffffc3601126102be57602060ff60045460b81c16604051908152f35b346102be5760407ffffffffffffffffffffffffffffffffffffffffffffffffffffffffffffffffc3601126102be5773ffffffffffffffffffffffffffffffffffffffff8061133961029b565b166000526020600b815260406000206024356000528152600161136181604060002001613ab4565b926040519280840190808552855180925280604086019601926000905b83821061138b5786880387f35b84518116885296820196938201939085019061137e565b346102be5760007ffffffffffffffffffffffffffffffffffffffffffffffffffffffffffffffffc3601126102be57602073ffffffffffffffffffffffffffffffffffffffff60045416604051908152f35b90815180825260208080930193019160005b828110611414575050505090565b835185529381019392810192600101611406565b9060206107a39281815201906113f4565b346102be5760407ffffffffffffffffffffffffffffffffffffffffffffffffffffffffffffffffc3601126102be5760043567ffffffffffffffff8082116102be57366023830112156102be57816004013561149481610bc2565b926114a26040519485610523565b81845260209160248386019160051b830101913683116102be57602401905b8282106114fa57856024358681116102be576108ed916114e86114ee923690600401610e8c565b90612f63565b60405191829182611428565b838091611506846102e6565b8152019101906114c1565b346102be576000807ffffffffffffffffffffffffffffffffffffffffffffffffffffffffffffffffc3601126115b057611549612ddc565b8073ffffffffffffffffffffffffffffffffffffffff6003547fffffffffffffffffffffffff00000000000000000000000000000000000000008116600355167f8be0079c531659141344cd1fd0a4f28419497f9722a3daafe3b4186f6b6457e08280a380f35b80fd5b346102be5760407ffffffffffffffffffffffffffffffffffffffffffffffffffffffffffffffffc3601126102be5767ffffffffffffffff6004358181116102be57611603903690600401610e8c565b906024359081116102be5761161c903690600401610e8c565b331561163b5761080491600060405161163481610507565b5233613044565b60246040517f01a8351400000000000000000000000000000000000000000000000000000000815260006004820152fd5b346102be5760007ffffffffffffffffffffffffffffffffffffffffffffffffffffffffffffffffc3601126102be57602073ffffffffffffffffffffffffffffffffffffffff60035416604051908152f35b346102be5760607ffffffffffffffffffffffffffffffffffffffffffffffffffffffffffffffffc3601126102be576020611700604435602435600435613db5565b604051908152f35b346102be5760207ffffffffffffffffffffffffffffffffffffffffffffffffffffffffffffffffc3601126102be5773ffffffffffffffffffffffffffffffffffffffff61175461029b565b166000526008602052604060002060405161176e816104eb565b6108ed6040835492838152600260018601549586602084015201549182910152604051938493846040919493926060820195825260208201520152565b346102be5761ff006117bc3661098a565b6117c893919293612ddc565b7fffffffffffffffffffffffffffffffffffffffffffffffffffffffffff00000060ff62ff00006006549360101b1695169116179160081b161717600655600080f35b346102be5760207ffffffffffffffffffffffffffffffffffffffffffffffffffffffffffffffffc3601126102be5773ffffffffffffffffffffffffffffffffffffffff61185761029b565b61185f612ddc565b167fffffffffffffffffffffffff00000000000000000000000000000000000000006004541617600455600080f35b6044359081151582036102be57565b346102be5760407ffffffffffffffffffffffffffffffffffffffffffffffffffffffffffffffffc3601126102be576118d461029b565b60243590811515908183036102be5773ffffffffffffffffffffffffffffffffffffffff81169283156119995761193b61196b9233600052600160205260406000209073ffffffffffffffffffffffffffffffffffffffff16600052602052604060002090565b9060ff7fffffffffffffffffffffffffffffffffffffffffffffffffffffffffffffff0083541691151516179055565b6040519081527f17307eab39ab6107e8899845ad3d59bd9653f200f220920489ca2b5937696c3160203392a3005b60246040517fced3e10000000000000000000000000000000000000000000000000000000000815260006004820152fd5b346102be5760407ffffffffffffffffffffffffffffffffffffffffffffffffffffffffffffffffc3601126102be57610804611a0461029b565b60243590614168565b346102be5760607ffffffffffffffffffffffffffffffffffffffffffffffffffffffffffffffffc3601126102be57602435600435611a4a61188e565b6006611a60836000526007602052604060002090565b0154611b4757611b427f2a6ac6014fb9ac562e49a217a307e224bc04bf37f3b004677735bbff991ce72091611a9e611a99600554612ee9565b600555565b611af9600554611aac610564565b86815260208101919091523360408201528215156060820152866080820152600060a0820152600060c0820152600160e0820152611af4866000526007602052604060002090565b61449a565b611b0e600554611b076136de565b9033614574565b336000908152600860205260409020611b278154612ee9565b90556040805195865290151560208601523394918291820190565b0390a3005b6040517f69d71ce500000000000000000000000000000000000000000000000000000000815260048101839052602490fd5b346102be5760407ffffffffffffffffffffffffffffffffffffffffffffffffffffffffffffffffc3601126102be57610804602435600435336146c4565b346102be5760607ffffffffffffffffffffffffffffffffffffffffffffffffffffffffffffffffc3601126102be5767ffffffffffffffff6004358181116102be57611c07903690600401610e8c565b906024358181116102be57611c20903690600401610e8c565b906044359081116102be57611c39903690600401610788565b903315611c4a576108049233613223565b60246040517f57f447ce00000000000000000000000000000000000000000000000000000000815260006004820152fd5b6040807ffffffffffffffffffffffffffffffffffffffffffffffffffffffffffffffffc3601126102be576004803560243591611cc2826000526007602052604060002090565b93600285019485549573ffffffffffffffffffffffffffffffffffffffff87169687156121325760a01c60ff16156120f4578633146120be57611e9896611e9891611d2b611d25611d1c60065463ffffffff9060181c1690565b63ffffffff1690565b43613d7c565b918261203e575b50611def611db383611da4611d673373ffffffffffffffffffffffffffffffffffffffff16600052600a602052604060002090565b855473ffffffffffffffffffffffffffffffffffffffff165b73ffffffffffffffffffffffffffffffffffffffff16600052602052604060002090565b90600052602052604060002090565b611dc78154611dc18c613d0b565b90613615565b8091558333611dea855473ffffffffffffffffffffffffffffffffffffffff1690565b613f6d565b611e3e611e39611e13835473ffffffffffffffffffffffffffffffffffffffff1690565b73ffffffffffffffffffffffffffffffffffffffff166000526008602052604060002090565b613b19565b95611e8489611e9d611e8a60038901549a8a611e6260068c019586549e8f90613db5565b9582611e7a6020899501938451920191825190614611565b9251905190613615565b9061463f565b98909e8f90838b9497613615565b613615565b98893410611ffc578b611eaf91613615565b90556000808080809e8180808093611edb8b5473ffffffffffffffffffffffffffffffffffffffff1690565b5af194611ee66136f1565b50875473ffffffffffffffffffffffffffffffffffffffff165af190611f0a6136f1565b5015908115611ff3575b50611fcc57507f8fccfe372405954c8e1283918d67d52c901db69d2458fb3588c9491d6da7b0939593611fc69593611f9d611f95611fb195611da4611f6f6001975473ffffffffffffffffffffffffffffffffffffffff1690565b73ffffffffffffffffffffffffffffffffffffffff16600052600b602052604060002090565b918254613615565b9055015487611faa6136de565b91336145c0565b51948552602085015233939081906040820190565b0390a380f35b85517f24a8ac13000000000000000000000000000000000000000000000000000000008152fd5b90501538611f14565b88517fd066786900000000000000000000000000000000000000000000000000000000815233818601908152602081018d905234604082015281906060010390fd5b612077600291611da461205086613cd1565b9173ffffffffffffffffffffffffffffffffffffffff16600052600b602052604060002090565b0161208a612086825460ff1690565b1590565b15611d325780547fffffffffffffffffffffffffffffffffffffffffffffffffffffffffffffff0016600117905538611d32565b5050517f69d71ce50000000000000000000000000000000000000000000000000000000081529081019182529081906020010390fd5b5050517f18c1febf00000000000000000000000000000000000000000000000000000000815233918101918252602082019290925281906040010390fd5b505090517f69d71ce5000000000000000000000000000000000000000000000000000000008152918201928352509081906020010390fd5b346102be576040807ffffffffffffffffffffffffffffffffffffffffffffffffffffffffffffffffc3601126102be57600435906024359060038210156102be576121c76121c2846000526007602052604060002090565b613b41565b9060016121d76060840151151590565b151514612568576121e783612a76565b8215612532578082019061220f825173ffffffffffffffffffffffffffffffffffffffff1690565b73ffffffffffffffffffffffffffffffffffffffff9490851633146124fb57612252611e39611e13855173ffffffffffffffffffffffffffffffffffffffff1690565b9061228b61228488611da43373ffffffffffffffffffffffffffffffffffffffff166000526009602052604060002090565b5460ff1690565b61229481612a76565b8181151591826124de575b50506124a7576001906123456122c4611d25611d1c60065463ffffffff9060181c1690565b8061242f575b61231881611da46122fb3373ffffffffffffffffffffffffffffffffffffffff16600052600a602052604060002090565b8a5173ffffffffffffffffffffffffffffffffffffffff16611d80565b906123238254612ee9565b80925533611dea895173ffffffffffffffffffffffffffffffffffffffff1690565b61237c816123778a611da43373ffffffffffffffffffffffffffffffffffffffff166000526009602052604060002090565b613ec9565b61238581612a76565b036123ef5760c06123c4940161239b8151613607565b9052016123a88151613607565b90525173ffffffffffffffffffffffffffffffffffffffff1690565b169033907f0f4350ab19f9ce309a3a6602ee41a7e87d7e70da42bac2bec03750a0e9990295600080a4005b6020915060a0612404940161239b8151613607565b169033907fbb855693349364057d3f5bfed9236334c04a7458f3a270f18a0c373f909b87f2600080a4005b600261245e61243d83613cd1565b611da4611f6f8b5173ffffffffffffffffffffffffffffffffffffffff1690565b0161246d612086825460ff1690565b612478575b506122ca565b80547fffffffffffffffffffffffffffffffffffffffffffffffffffffffffffffff0016600117905538612472565b82517fcd7f7b9500000000000000000000000000000000000000000000000000000000815233600482015260248101889052604490fd5b9091506124ea82612a76565b6124f381612a76565b14813861229f565b81517f8a0ffdbe00000000000000000000000000000000000000000000000000000000815233600482015260248101879052604490fd5b517f8a0ffdbe00000000000000000000000000000000000000000000000000000000815233600482015260248101849052604490fd5b517f51e6df2200000000000000000000000000000000000000000000000000000000815233600482015260248101849052604490fd5b346102be5760007ffffffffffffffffffffffffffffffffffffffffffffffffffffffffffffffffc3601126102be57602060ff60045460a01c16604051908152f35b346102be576040807ffffffffffffffffffffffffffffffffffffffffffffffffffffffffffffffffc3601126102be5760049081356024359161262d826000526007602052604060002090565b906002820180549573ffffffffffffffffffffffffffffffffffffffff87169687156129a85760a01c60ff161561296b5786331461293757600184019186612676845433612e80565b106128f457612694611d25611d1c60065463ffffffff9060181c1690565b978861289f575b50805473ffffffffffffffffffffffffffffffffffffffff16946126df8673ffffffffffffffffffffffffffffffffffffffff166000526008602052604060002090565b6126e890613b19565b9060038101549060060190898083549061270191613cfe565b61270a92613db5565b91826020820191888351910190815161272291614611565b9251905161272f91613615565b6127389261463f565b81612748849e9396948395613cfe565b9061275291613cfe565b9061275c91613cfe565b986127879073ffffffffffffffffffffffffffffffffffffffff16600052600b602052604060002090565b600091825260205260409020908154906127a091613615565b9055888154906127af91613cfe565b905560008080809b8180808080988b546127dc9073ffffffffffffffffffffffffffffffffffffffff1690565b5af1956127e76136f1565b505473ffffffffffffffffffffffffffffffffffffffff165af19061280a6136f1565b508880808089335af19061281c6136f1565b5015918215612896575b50811561288d575b50612866575091611fc691611fb1867fb78a347f67e60e77f52aa2a212347075651ba0dbe890c6ca751c2aab5cf45d3d9554336146c4565b82517f24a8ac13000000000000000000000000000000000000000000000000000000008152fd5b9050153861282e565b15915038612826565b6128b1600291611da46120508c613cd1565b016128c0612086825460ff1690565b1561269b5780547fffffffffffffffffffffffffffffffffffffffffffffffffffffffffffffff001660011790553861269b565b83517f380dfc4200000000000000000000000000000000000000000000000000000000815233818401908152602081018890526040810189905281906060010390fd5b82517f69d71ce500000000000000000000000000000000000000000000000000000000815290810185815281906020010390fd5b82517f18c1febf00000000000000000000000000000000000000000000000000000000815233918101918252602082018690529081906040010390fd5b83517f69d71ce500000000000000000000000000000000000000000000000000000000815280830187815281906020010390fd5b346102be5760407ffffffffffffffffffffffffffffffffffffffffffffffffffffffffffffffffc3601126102be57602060ff612a6a612a1a61029b565b73ffffffffffffffffffffffffffffffffffffffff612a376102c3565b91166000526001845260406000209073ffffffffffffffffffffffffffffffffffffffff16600052602052604060002090565b54166040519015158152f35b60031115612a8057565b7f4e487b7100000000000000000000000000000000000000000000000000000000600052602160045260246000fd5b346102be5760407ffffffffffffffffffffffffffffffffffffffffffffffffffffffffffffffffc3601126102be5773ffffffffffffffffffffffffffffffffffffffff612afb61029b565b166000908152600960205260408120602435825260205260ff604082205416604051906003811015612b2f57602092508152f35b6024837f4e487b710000000000000000000000000000000000000000000000000000000081526021600452fd5b346102be5760007ffffffffffffffffffffffffffffffffffffffffffffffffffffffffffffffffc3601126102be57602060ff60045460a81c16604051908152f35b346102be5760a07ffffffffffffffffffffffffffffffffffffffffffffffffffffffffffffffffc3601126102be57612bd561029b565b612bdd6102c3565b60843567ffffffffffffffff81116102be57612bfd903690600401610788565b9073ffffffffffffffffffffffffffffffffffffffff808416903382141580612cb8575b612c6b57821615611c4a571561163b5761080492612c636064356044359160405192600184526020840152604083019160018352606084015260808301604052565b9290916133b3565b6040517fe237d92200000000000000000000000000000000000000000000000000000000815233600482015273ffffffffffffffffffffffffffffffffffffffff86166024820152604490fd5b5081600052600160205260ff612cf23360406000209073ffffffffffffffffffffffffffffffffffffffff16600052602052604060002090565b541615612c21565b346102be5760207ffffffffffffffffffffffffffffffffffffffffffffffffffffffffffffffffc3601126102be57612d3161029b565b612d39612ddc565b73ffffffffffffffffffffffffffffffffffffffff809116908115612dab57600354827fffffffffffffffffffffffff0000000000000000000000000000000000000000821617600355167f8be0079c531659141344cd1fd0a4f28419497f9722a3daafe3b4186f6b6457e0600080a3005b60246040517f1e4fbdf700000000000000000000000000000000000000000000000000000000815260006004820152fd5b73ffffffffffffffffffffffffffffffffffffffff600354163303612dfd57565b60246040517f118cdaa7000000000000000000000000000000000000000000000000000000008152336004820152fd5b90600182811c92168015612e76575b6020831014612e4757565b7f4e487b7100000000000000000000000000000000000000000000000000000000600052602260045260246000fd5b91607f1691612e3c565b612eb691600052600060205260406000209073ffffffffffffffffffffffffffffffffffffffff16600052602052604060002090565b5490565b7f4e487b7100000000000000000000000000000000000000000000000000000000600052601160045260246000fd5b7fffffffffffffffffffffffffffffffffffffffffffffffffffffffffffffffff8114612f165760010190565b612eba565b7f4e487b7100000000000000000000000000000000000000000000000000000000600052603260045260246000fd5b8051821015612f5e5760209160051b010190565b612f1b565b919091805183518082036130095750508051907fffffffffffffffffffffffffffffffffffffffffffffffffffffffffffffffe0612fb9612fa384610bc2565b93612fb16040519586610523565b808552610bc2565b0190602091368385013760005b81518110156130015780612fec612ffc9260051b85808287010151918a01015190612e80565b612ff68287612f4a565b52612ee9565b612fc6565b509193505050565b6040517f5b05999100000000000000000000000000000000000000000000000000000000815260048101919091526024810191909152604490fd5b929190805182519081810361300957505060005b8151811015613168578060051b6020808285010151918501015173ffffffffffffffffffffffffffffffffffffffff871661309e575b505061309990612ee9565b613058565b6130db876130b6846000526000602052604060002090565b9073ffffffffffffffffffffffffffffffffffffffff16600052602052604060002090565b5481811061310b57876130b66130999594936131039303936000526000602052604060002090565b55903861308e565b6040517f03dee4c500000000000000000000000000000000000000000000000000000000815273ffffffffffffffffffffffffffffffffffffffff8916600482015260248101919091526044810182905260648101839052608490fd5b50906000929391600181511484146131d75760209081015191810151604080519384529183015273ffffffffffffffffffffffffffffffffffffffff929092169133917fc3d58168c5ae7397731d063d5bbf3d657854427343f4c083240f7aacaa2d0f6291819081015b0390a4565b909173ffffffffffffffffffffffffffffffffffffffff7f4a39dc06d4c0dbc64b70af90fd698a233a518aa5d07e595d983b8c0526c8f7fb916131d26040519283921695339583613622565b90805183519081810361300957505060005b81518110156132a357806132799160051b84602080838701015192880101519173ffffffffffffffffffffffffffffffffffffffff821661327e575b505050612ee9565b613235565b613299916130b6611f95926000526000602052604060002090565b9055388481613271565b5080519193929160010361335f5760208181015183820151604080519283529282015273ffffffffffffffffffffffffffffffffffffffff86169160009133917fc3d58168c5ae7397731d063d5bbf3d657854427343f4c083240f7aacaa2d0f6291a45b73ffffffffffffffffffffffffffffffffffffffff8416613329575b50505050565b80516001036133505790602080613347959301519101519133613721565b38808080613323565b61335a9333613a16565b613347565b604051600073ffffffffffffffffffffffffffffffffffffffff8616917f4a39dc06d4c0dbc64b70af90fd698a233a518aa5d07e595d983b8c0526c8f7fb3391806133ab888883613622565b0390a4613307565b94919091815184519081810361300957505060005b82518110156134eb578060051b90602080838601015192870101518573ffffffffffffffffffffffffffffffffffffffff93848b1661343e575b61341494821661341957505050612ee9565b6133c8565b613434916130b6611f95926000526000602052604060002090565b9055388581613271565b919293905061345b8a6130b6846000526000602052604060002090565b5483811061348e5791879184613414969594036134868d6130b6856000526000602052604060002090565b559450613402565b6040517f03dee4c500000000000000000000000000000000000000000000000000000000815273ffffffffffffffffffffffffffffffffffffffff8c16600482015260248101919091526044810184905260648101839052608490fd5b5094919392909360018551146000146135b05760208581015183820151604080519283529282015273ffffffffffffffffffffffffffffffffffffffff838116929086169133917fc3d58168c5ae7397731d063d5bbf3d657854427343f4c083240f7aacaa2d0f6291a45b73ffffffffffffffffffffffffffffffffffffffff8116613579575b5050505050565b845160010361359f5760208061359596015192015192336138a5565b3880808080613572565b6135ab94919233613a64565b613595565b60405173ffffffffffffffffffffffffffffffffffffffff90818316918516907f4a39dc06d4c0dbc64b70af90fd698a233a518aa5d07e595d983b8c0526c8f7fb3391806135ff888c83613622565b0390a4613556565b9060018201809211612f1657565b91908201809211612f1657565b90916136396107a3936040845260408401906113f4565b9160208184039101526113f4565b908160209103126102be57516107a381610380565b909260a09273ffffffffffffffffffffffffffffffffffffffff6107a3969516835260006020840152604083015260608201528160808201520190610806565b91926107a395949160a09473ffffffffffffffffffffffffffffffffffffffff8092168552166020840152604083015260608201528160808201520190610806565b604051906136eb82610507565b60008252565b3d1561371c573d9061370282610573565b916137106040519384610523565b82523d6000602084013e565b606090565b9293919093843b613733575050505050565b60209161376f60405194859384937ff23a6e6100000000000000000000000000000000000000000000000000000000988986526004860161365c565b0381600073ffffffffffffffffffffffffffffffffffffffff88165af160009181613875575b506137fa57826137a36136f1565b80519190826137f3576040517f57f447ce00000000000000000000000000000000000000000000000000000000815273ffffffffffffffffffffffffffffffffffffffff83166004820152602490fd5b9050602001fd5b7fffffffff00000000000000000000000000000000000000000000000000000000160361382c57503880808080613572565b6040517f57f447ce00000000000000000000000000000000000000000000000000000000815273ffffffffffffffffffffffffffffffffffffffff919091166004820152602490fd5b61389791925060203d811161389e575b61388f8183610523565b810190613647565b9038613795565b503d613885565b939290949194853b6138ba575b505050505050565b6138f660209360405195869485947ff23a6e6100000000000000000000000000000000000000000000000000000000998a87526004870161369c565b0381600073ffffffffffffffffffffffffffffffffffffffff88165af16000918161395d575b5061392a57826137a36136f1565b7fffffffff00000000000000000000000000000000000000000000000000000000160361382c57503880808080806138b2565b61397691925060203d811161389e5761388f8183610523565b903861391c565b926139ba6107a3959373ffffffffffffffffffffffffffffffffffffffff6139c8941686526000602087015260a0604087015260a08601906113f4565b9084820360608601526113f4565b916080818403910152610806565b93906107a395936139ba916139c89473ffffffffffffffffffffffffffffffffffffffff809216885216602087015260a0604087015260a08601906113f4565b9293919093843b613a28575050505050565b60209161376f60405194859384937fbc197c8100000000000000000000000000000000000000000000000000000000988986526004860161397d565b939290949194853b613a7857505050505050565b6138f660209360405195869485947fbc197c8100000000000000000000000000000000000000000000000000000000998a8752600487016139d6565b9060405191828154918282526020928383019160005283600020936000905b828210613ae95750505061057192500383610523565b855473ffffffffffffffffffffffffffffffffffffffff1684526001958601958895509381019390910190613ad3565b90604051613b26816104eb565b60406002829480548452600181015460208501520154910152565b90604051613b4e816104c9565b60e0600682948054845260018101546020850152613bb260ff6002830154613ba573ffffffffffffffffffffffffffffffffffffffff8216604089019073ffffffffffffffffffffffffffffffffffffffff169052565b60a01c1615156060860152565b60038101546080850152600481015460a0850152600581015460c08501520154910152565b805190613be382610bc2565b917fffffffffffffffffffffffffffffffffffffffffffffffffffffffffffffffe0613c1f604092613c1784519687610523565b808652610bc2565b019060005b828110613c845750505060005b8151811015613c7f5780613c5f6121c2613c4e613c7a9486612f4a565b516000526007602052604060002090565b613c698286612f4a565b52613c748185612f4a565b50612ee9565b613c31565b505090565b6020908251613c92816104c9565b60008152826000818301526000858301526000606083015260006080830152600060a0830152600060c0830152600060e0830152828801015201613c24565b907fffffffffffffffffffffffffffffffffffffffffffffffffffffffffffffffff8201918211612f1657565b91908203918211612f1657565b9081600302916003830403612f1657565b908160011b917f7fffffffffffffffffffffffffffffffffffffffffffffffffffffffffffffff811603612f1657565b90670de0b6b3a764000091828102928184041490151715612f1657565b81810292918115918404141715612f1657565b8115613d86570490565b7f4e487b7100000000000000000000000000000000000000000000000000000000600052601260045260246000fd5b9080159283600014613e54576000935b80613e4a575b15613deb575050611dc1610e75613de66107a3946000613cfe565b613d4c565b613df482613cd1565b91818301809311612f16576107a394613e45613e3e83610e6f613e39613e3488611e98613e2e611dc19c610e6f610e759d613de69d613615565b95613cd1565b613d1c565b613607565b6006900490565b613cfe565b5060018114613dcb565b7fffffffffffffffffffffffffffffffffffffffffffffffffffffffffffffffff8201828111612f1657613e9c613e8d84600693613d69565b610e6f613e39613e3487613cd1565b0493613dc5565b60ff60649116019060ff8211612f1657565b9060ff8091169116019060ff8211612f1657565b906003811015612a805760ff7fffffffffffffffffffffffffffffffffffffffffffffffffffffffffffffff008354169116179055565b8054821015612f5e5760005260206000200190600090565b90815491680100000000000000008310156104e65782613f4091600161057195018155613f00565b90919082549060031b9173ffffffffffffffffffffffffffffffffffffffff809116831b921b1916179055565b9091926001613fa085611da48573ffffffffffffffffffffffffffffffffffffffff16600052600b602052604060002090565b0191825480156140305780957fffffffffffffffffffffffffffffffffffffffffffffffffffffffffffffffff9260005b83811061403d575050600654613fed915060381c60ff16610e69565b8110614030576006546140059060381c60ff16610e69565b11159182614026575b505061401957505050565b61057192613f4091613f00565b119050388061400e565b5050506105719250613f18565b61406a61404a8289613f00565b905473ffffffffffffffffffffffffffffffffffffffff9160031b1c1690565b73ffffffffffffffffffffffffffffffffffffffff808a16908216146140e35783611da4846130b66140bc9473ffffffffffffffffffffffffffffffffffffffff16600052600a602052604060002090565b54858111156140d5575b506140d090612ee9565b613fd1565b9098509350876140d06140c6565b50505050505050505050565b906040516040810181811067ffffffffffffffff8211176104e657604052602060ff60018395805485520154161515910152565b90604051614130816104eb565b604060ff600283958054855261414860018201613ab4565b60208601520154161515910152565b60ff1660ff8114612f165760010190565b906141af60206141a86141a384611da4876130b63373ffffffffffffffffffffffffffffffffffffffff16600052600a602052604060002090565b6140ef565b0151151590565b614446576006816141ce611d25611d1c845463ffffffff9060181c1690565b11156143f15761420a61420583611da48673ffffffffffffffffffffffffffffffffffffffff16600052600b602052604060002090565b614123565b614248612086600261424086611da48973ffffffffffffffffffffffffffffffffffffffff16600052600b602052604060002090565b015460ff1690565b61439d5760409283820161425f6120868251151590565b614393575b50602082019460005b8651805160ff83169081101561433a576142a861428e6142c1923394612f4a565b5173ffffffffffffffffffffffffffffffffffffffff1690565b73ffffffffffffffffffffffffffffffffffffffff1690565b146142d4576142cf90614157565b61426d565b5050506000809394506142fd81936142f7610e69849551925460ff9060381c1690565b90613d7c565b335af16143086136f1565b50156143115750565b600490517f24a8ac13000000000000000000000000000000000000000000000000000000008152fd5b505085517ffd52de3600000000000000000000000000000000000000000000000000000000815233600482015273ffffffffffffffffffffffffffffffffffffffff929092166024830152506044810191909152606490fd5b6001905238614264565b6040517ff68fd58400000000000000000000000000000000000000000000000000000000815233600482015273ffffffffffffffffffffffffffffffffffffffff8516602482015260448101849052606490fd5b506040517f858e249f00000000000000000000000000000000000000000000000000000000815233600482015273ffffffffffffffffffffffffffffffffffffffff9290921660248301526044820152606490fd5b6040517fc3ea5df500000000000000000000000000000000000000000000000000000000815233600482015273ffffffffffffffffffffffffffffffffffffffff9290921660248301526044820152606490fd5b9060e0600691805184556020810151600185015561454f6002850173ffffffffffffffffffffffffffffffffffffffff6040840151167fffffffffffffffffffffffff00000000000000000000000000000000000000008254161781556145046060840151151590565b90805490917fffffffffffffffffffffff00ffffffffffffffffffffffffffffffffffffffff90911690151560a01b74ff000000000000000000000000000000000000000016179055565b6080810151600385015560a0810151600485015560c081015160058501550151910155565b91909173ffffffffffffffffffffffffffffffffffffffff811615611c4a5761057192604051906001825260208201526040810191600183526001606083015260808201604052613223565b9092919273ffffffffffffffffffffffffffffffffffffffff821615611c4a576105719361460b60405192600184526020840152604083019160018352606084015260808301604052565b91613223565b906146339060ff6146286006549482861690613d69565b9360081c1690613d69565b8103908111612f165790565b929091926004549360ff91828660a81c1690614668848860a01c16968560065460101c16613d69565b106146a3575b908260646146908282614687819861469c981687613d69565b04981684613d69565b049660b81c1690613d69565b0491929190565b6146b3838760b01c168092613eb5565b940390828211612f1657909361466e565b9073ffffffffffffffffffffffffffffffffffffffff82161561163b576105719261470c60405192600184526020840152604083019160018352606084015260808301604052565b91600060405161471b81610507565b52613044565b601f811161472d575050565b600090600282527f405787fa12a823e0f2b7631cc41b3ba8828b3321ca811111fa75cd3aa3bb5ace906020601f850160051c83019410614788575b601f0160051c01915b82811061477d57505050565b818155600101614771565b909250829061476856fea2646970667358221220d35e949aa1eb45e9e4fed53ff9243106358b611e824c3036a9f4cfc81542f67b64736f6c63430008140033",
  "linkReferences": {},
  "deployedLinkReferences": {}
}