{
  "_format": "hh-sol-artifact-1",
  "contractName": "JustFriends",
  "sourceName": "contracts/JustFriends.sol",
  "abi": [
    {
      "inputs": [
        {
          "internalType": "address",
          "name": "_protocolFeeDestination",
          "type": "address"
        },
        {
          "internalType": "uint8",
          "name": "_protocolFeePercentBase",
          "type": "uint8"
        },
        {
          "internalType": "uint8",
          "name": "_creatorFeePercentBase",
          "type": "uint8"
        },
        {
          "internalType": "uint8",
          "name": "_extraFeePercentBase",
          "type": "uint8"
        },
        {
          "internalType": "address",
          "name": "_contentAccessContract",
          "type": "address"
        }
      ],
      "stateMutability": "nonpayable",
      "type": "constructor"
    },
    {
      "inputs": [
        {
          "internalType": "address",
          "name": "user",
          "type": "address"
        },
        {
          "internalType": "address",
          "name": "creator",
          "type": "address"
        },
        {
          "internalType": "uint256",
          "name": "periodTimestamp",
          "type": "uint256"
        }
      ],
      "name": "DuplicateClaiming",
      "type": "error"
    },
    {
      "inputs": [
        {
          "internalType": "address",
          "name": "walletAddress",
          "type": "address"
        },
        {
          "internalType": "bytes32",
          "name": "contentHash",
          "type": "bytes32"
        }
      ],
      "name": "DuplicateVoting",
      "type": "error"
    },
    {
      "inputs": [
        {
          "internalType": "address",
          "name": "user",
          "type": "address"
        },
        {
          "internalType": "address",
          "name": "creator",
          "type": "address"
        },
        {
          "internalType": "uint256",
          "name": "periodTimestamp",
          "type": "uint256"
        }
      ],
      "name": "EarlyClaiming",
      "type": "error"
    },
    {
      "inputs": [
        {
          "internalType": "address",
          "name": "walletAddress",
          "type": "address"
        }
      ],
      "name": "ExistedCreator",
      "type": "error"
    },
    {
      "inputs": [],
      "name": "FailedFeeTransfer",
      "type": "error"
    },
    {
      "inputs": [
        {
          "internalType": "address",
          "name": "walletAddress",
          "type": "address"
        },
        {
          "internalType": "bytes32",
          "name": "contentHash",
          "type": "bytes32"
        }
      ],
      "name": "FreeContentExchange",
      "type": "error"
    },
    {
      "inputs": [
        {
          "internalType": "address",
          "name": "user",
          "type": "address"
        },
        {
          "internalType": "address",
          "name": "creator",
          "type": "address"
        },
        {
          "internalType": "uint256",
          "name": "periodTimestamp",
          "type": "uint256"
        }
      ],
      "name": "IllegalClaiming",
      "type": "error"
    },
    {
      "inputs": [
        {
          "internalType": "address",
          "name": "walletAddress",
          "type": "address"
        },
        {
          "internalType": "bytes32",
          "name": "contentHash",
          "type": "bytes32"
        },
        {
          "internalType": "uint256",
          "name": "amount",
          "type": "uint256"
        }
      ],
      "name": "InsufficientAccess",
      "type": "error"
    },
    {
      "inputs": [
        {
          "internalType": "address",
          "name": "walletAddress",
          "type": "address"
        },
        {
          "internalType": "bytes32",
          "name": "contentHash",
          "type": "bytes32"
        },
        {
          "internalType": "uint256",
          "name": "amount",
          "type": "uint256"
        },
        {
          "internalType": "uint256",
          "name": "price",
          "type": "uint256"
        },
        {
          "internalType": "uint256",
          "name": "protocolFee",
          "type": "uint256"
        },
        {
          "internalType": "uint256",
          "name": "creatorFee",
          "type": "uint256"
        }
      ],
      "name": "InsufficientPayment",
      "type": "error"
    },
    {
      "inputs": [
        {
          "internalType": "bytes32",
          "name": "contentHash",
          "type": "bytes32"
        }
      ],
      "name": "InvalidContent",
      "type": "error"
    },
    {
      "inputs": [
        {
          "internalType": "address",
          "name": "walletAddress",
          "type": "address"
        }
      ],
      "name": "InvalidCreator",
      "type": "error"
    },
    {
      "inputs": [
        {
          "internalType": "address",
          "name": "walletAddress",
          "type": "address"
        },
        {
          "internalType": "bytes32",
          "name": "contentHash",
          "type": "bytes32"
        },
        {
          "internalType": "uint256",
          "name": "totalSupply",
          "type": "uint256"
        }
      ],
      "name": "InvalidFirstPurchase",
      "type": "error"
    },
    {
      "inputs": [
        {
          "internalType": "address",
          "name": "walletAddress",
          "type": "address"
        },
        {
          "internalType": "bytes32",
          "name": "contentHash",
          "type": "bytes32"
        }
      ],
      "name": "InvalidLastSell",
      "type": "error"
    },
    {
      "inputs": [
        {
          "internalType": "address",
          "name": "walletAddress",
          "type": "address"
        },
        {
          "internalType": "bytes32",
          "name": "contentHash",
          "type": "bytes32"
        }
      ],
      "name": "InvalidVoting",
      "type": "error"
    },
    {
      "inputs": [
        {
          "internalType": "address",
          "name": "owner",
          "type": "address"
        }
      ],
      "name": "OwnableInvalidOwner",
      "type": "error"
    },
    {
      "inputs": [
        {
          "internalType": "address",
          "name": "account",
          "type": "address"
        }
      ],
      "name": "OwnableUnauthorizedAccount",
      "type": "error"
    },
    {
      "inputs": [
        {
          "internalType": "address",
          "name": "walletAddress",
          "type": "address"
        },
        {
          "internalType": "bytes32",
          "name": "contentHash",
          "type": "bytes32"
        }
      ],
      "name": "PaidContentVoting",
      "type": "error"
    },
    {
      "anonymous": false,
      "inputs": [
        {
          "indexed": true,
          "internalType": "bytes32",
          "name": "hash",
          "type": "bytes32"
        },
        {
          "indexed": true,
          "internalType": "address",
          "name": "buyer",
          "type": "address"
        },
        {
          "indexed": false,
          "internalType": "uint256",
          "name": "amount",
          "type": "uint256"
        },
        {
          "indexed": false,
          "internalType": "uint256",
          "name": "totalPrice",
          "type": "uint256"
        }
      ],
      "name": "AccessPurchased",
      "type": "event"
    },
    {
      "anonymous": false,
      "inputs": [
        {
          "indexed": true,
          "internalType": "bytes32",
          "name": "hash",
          "type": "bytes32"
        },
        {
          "indexed": true,
          "internalType": "address",
          "name": "seller",
          "type": "address"
        },
        {
          "indexed": false,
          "internalType": "uint256",
          "name": "amount",
          "type": "uint256"
        },
        {
          "indexed": false,
          "internalType": "uint256",
          "name": "totalPrice",
          "type": "uint256"
        }
      ],
      "name": "AccessSold",
      "type": "event"
    },
    {
      "anonymous": false,
      "inputs": [
        {
          "indexed": true,
          "internalType": "bytes32",
          "name": "hash",
          "type": "bytes32"
        },
        {
          "indexed": true,
          "internalType": "address",
          "name": "creator",
          "type": "address"
        },
        {
          "indexed": false,
          "internalType": "uint256",
          "name": "startedPrice",
          "type": "uint256"
        }
      ],
      "name": "ContentCreated",
      "type": "event"
    },
    {
      "anonymous": false,
      "inputs": [
        {
          "indexed": true,
          "internalType": "bytes32",
          "name": "hash",
          "type": "bytes32"
        },
        {
          "indexed": true,
          "internalType": "address",
          "name": "account",
          "type": "address"
        }
      ],
      "name": "Downvoted",
      "type": "event"
    },
    {
      "anonymous": false,
      "inputs": [
        {
          "indexed": true,
          "internalType": "address",
          "name": "previousOwner",
          "type": "address"
        },
        {
          "indexed": true,
          "internalType": "address",
          "name": "newOwner",
          "type": "address"
        }
      ],
      "name": "OwnershipTransferred",
      "type": "event"
    },
    {
      "anonymous": false,
      "inputs": [
        {
          "indexed": true,
          "internalType": "bytes32",
          "name": "hash",
          "type": "bytes32"
        },
        {
          "indexed": true,
          "internalType": "address",
          "name": "account",
          "type": "address"
        }
      ],
      "name": "Upvoted",
      "type": "event"
    },
    {
      "inputs": [
        {
          "internalType": "bytes32",
          "name": "_contentHash",
          "type": "bytes32"
        },
        {
          "internalType": "uint256",
          "name": "_amount",
          "type": "uint256"
        }
      ],
      "name": "buyContentAccess",
      "outputs": [],
      "stateMutability": "payable",
      "type": "function"
    },
    {
      "inputs": [
        {
          "internalType": "address",
          "name": "_creator",
          "type": "address"
        },
        {
          "internalType": "uint256",
          "name": "_periodTimestamp",
          "type": "uint256"
        }
      ],
      "name": "claim",
      "outputs": [],
      "stateMutability": "nonpayable",
      "type": "function"
    },
    {
      "inputs": [],
      "name": "contentAccessContract",
      "outputs": [
        {
          "internalType": "address",
          "name": "",
          "type": "address"
        }
      ],
      "stateMutability": "view",
      "type": "function"
    },
    {
      "inputs": [
        {
          "internalType": "bytes32",
          "name": "",
          "type": "bytes32"
        }
      ],
      "name": "contentList",
      "outputs": [
        {
          "internalType": "bytes32",
          "name": "contentHash",
          "type": "bytes32"
        },
        {
          "internalType": "uint256",
          "name": "accessTokenId",
          "type": "uint256"
        },
        {
          "internalType": "address",
          "name": "creator",
          "type": "address"
        },
        {
          "internalType": "uint256",
          "name": "startedPrice",
          "type": "uint256"
        },
        {
          "internalType": "uint256",
          "name": "totalUpvote",
          "type": "uint256"
        },
        {
          "internalType": "uint256",
          "name": "totalDownvote",
          "type": "uint256"
        },
        {
          "internalType": "uint256",
          "name": "totalSupply",
          "type": "uint256"
        }
      ],
      "stateMutability": "view",
      "type": "function"
    },
    {
      "inputs": [],
      "name": "creatorFeePercentBase",
      "outputs": [
        {
          "internalType": "uint8",
          "name": "",
          "type": "uint8"
        }
      ],
      "stateMutability": "view",
      "type": "function"
    },
    {
      "inputs": [
        {
          "internalType": "address",
          "name": "",
          "type": "address"
        }
      ],
      "name": "creatorList",
      "outputs": [
        {
          "internalType": "address",
          "name": "walletAddress",
          "type": "address"
        },
        {
          "internalType": "uint256",
          "name": "totalContent",
          "type": "uint256"
        },
        {
          "internalType": "uint256",
          "name": "totalUpvote",
          "type": "uint256"
        },
        {
          "internalType": "uint256",
          "name": "totalDownvote",
          "type": "uint256"
        }
      ],
      "stateMutability": "view",
      "type": "function"
    },
    {
      "inputs": [],
      "name": "extraFeePercentBase",
      "outputs": [
        {
          "internalType": "uint8",
          "name": "",
          "type": "uint8"
        }
      ],
      "stateMutability": "view",
      "type": "function"
    },
    {
      "inputs": [
        {
          "internalType": "bytes32",
          "name": "_contentHash",
          "type": "bytes32"
        }
      ],
      "name": "getContentInfo",
      "outputs": [
        {
          "internalType": "bytes32",
          "name": "",
          "type": "bytes32"
        },
        {
          "internalType": "uint256",
          "name": "",
          "type": "uint256"
        },
        {
          "internalType": "address",
          "name": "",
          "type": "address"
        },
        {
          "internalType": "uint256",
          "name": "",
          "type": "uint256"
        }
      ],
      "stateMutability": "view",
      "type": "function"
    },
    {
      "inputs": [
        {
          "internalType": "uint256",
          "name": "_basePrice",
          "type": "uint256"
        },
        {
          "internalType": "uint256",
          "name": "_supply",
          "type": "uint256"
        },
        {
          "internalType": "uint256",
          "name": "_amount",
          "type": "uint256"
        }
      ],
      "name": "getContentPrice",
      "outputs": [
        {
          "internalType": "uint256",
          "name": "",
          "type": "uint256"
        }
      ],
      "stateMutability": "pure",
      "type": "function"
    },
    {
      "inputs": [
        {
          "internalType": "address",
          "name": "_walletAddress",
          "type": "address"
        }
      ],
      "name": "getCreatorInfo",
      "outputs": [
        {
          "internalType": "address",
          "name": "",
          "type": "address"
        },
        {
          "internalType": "uint256",
          "name": "",
          "type": "uint256"
        },
        {
          "internalType": "uint256",
          "name": "",
          "type": "uint256"
        },
        {
          "internalType": "uint256",
          "name": "",
          "type": "uint256"
        }
      ],
      "stateMutability": "view",
      "type": "function"
    },
    {
      "inputs": [],
      "name": "owner",
      "outputs": [
        {
          "internalType": "address",
          "name": "",
          "type": "address"
        }
      ],
      "stateMutability": "view",
      "type": "function"
    },
    {
      "inputs": [
        {
          "internalType": "bytes32",
          "name": "_contentHash",
          "type": "bytes32"
        },
        {
          "internalType": "uint256",
          "name": "_startedPrice",
          "type": "uint256"
        }
      ],
      "name": "postContent",
      "outputs": [],
      "stateMutability": "nonpayable",
      "type": "function"
    },
    {
      "inputs": [],
      "name": "protocolFeeDestination",
      "outputs": [
        {
          "internalType": "address",
          "name": "",
          "type": "address"
        }
      ],
      "stateMutability": "view",
      "type": "function"
    },
    {
      "inputs": [],
      "name": "protocolFeePercentBase",
      "outputs": [
        {
          "internalType": "uint8",
          "name": "",
          "type": "uint8"
        }
      ],
      "stateMutability": "view",
      "type": "function"
    },
    {
      "inputs": [],
      "name": "register",
      "outputs": [],
      "stateMutability": "nonpayable",
      "type": "function"
    },
    {
      "inputs": [],
      "name": "renounceOwnership",
      "outputs": [],
      "stateMutability": "nonpayable",
      "type": "function"
    },
    {
      "inputs": [
        {
          "internalType": "bytes32",
          "name": "_contentHash",
          "type": "bytes32"
        },
        {
          "internalType": "uint256",
          "name": "_amount",
          "type": "uint256"
        }
      ],
      "name": "sellContentAccess",
      "outputs": [],
      "stateMutability": "nonpayable",
      "type": "function"
    },
    {
      "inputs": [
        {
          "internalType": "uint8",
          "name": "_newProtocolFeePercentBase",
          "type": "uint8"
        },
        {
          "internalType": "uint8",
          "name": "_newCreatorFeePercentBase",
          "type": "uint8"
        },
        {
          "internalType": "uint8",
          "name": "_newExtraFeePercentBase",
          "type": "uint8"
        }
      ],
      "name": "setFeePercentBase",
      "outputs": [],
      "stateMutability": "nonpayable",
      "type": "function"
    },
    {
      "inputs": [
        {
          "internalType": "address",
          "name": "_newProtocolFeeDestination",
          "type": "address"
        }
      ],
      "name": "setProtocolFeeDestination",
      "outputs": [],
      "stateMutability": "nonpayable",
      "type": "function"
    },
    {
      "inputs": [
        {
          "internalType": "uint8",
          "name": "_upvoteWeight",
          "type": "uint8"
        },
        {
          "internalType": "uint8",
          "name": "_downvoteWeight",
          "type": "uint8"
        },
        {
          "internalType": "uint8",
          "name": "_voteWeight",
          "type": "uint8"
        }
      ],
      "name": "setVoteWeightBase",
      "outputs": [],
      "stateMutability": "nonpayable",
      "type": "function"
    },
    {
      "inputs": [
        {
          "internalType": "address",
          "name": "newOwner",
          "type": "address"
        }
      ],
      "name": "transferOwnership",
      "outputs": [],
      "stateMutability": "nonpayable",
      "type": "function"
    },
    {
      "inputs": [
        {
          "internalType": "bytes32",
          "name": "_contentHash",
          "type": "bytes32"
        },
        {
          "internalType": "enum JustFriendsInterface.VoteType",
          "name": "_voteType",
          "type": "uint8"
        },
        {
          "internalType": "uint256",
          "name": "_periodTimestamp",
          "type": "uint256"
        }
      ],
      "name": "vote",
      "outputs": [],
      "stateMutability": "nonpayable",
      "type": "function"
    }
  ],
  "bytecode": "0x608060405260006003556004805466ffffffffffffff191665278d001950641790553480156200002e57600080fd5b506040516200297e3803806200297e833981016040819052620000519162000175565b33806200007857604051631e4fbdf760e01b81526000600482015260240160405180910390fd5b6200008381620000f6565b5060018054600280546001600160a01b0319166001600160a01b03948516179055959091166001600160a81b031990951694909417600160a01b60ff948516021761ffff60a81b1916600160a81b9284169290920260ff60b01b191691909117600160b01b9190921602179055620001e5565b600080546001600160a01b038381166001600160a01b0319831681178455604051919092169283917f8be0079c531659141344cd1fd0a4f28419497f9722a3daafe3b4186f6b6457e09190a35050565b80516001600160a01b03811681146200015e57600080fd5b919050565b805160ff811681146200015e57600080fd5b600080600080600060a086880312156200018e57600080fd5b620001998662000146565b9450620001a96020870162000163565b9350620001b96040870162000163565b9250620001c96060870162000163565b9150620001d96080870162000146565b90509295509295909350565b61278980620001f56000396000f3fe6080604052600436106101755760003560e01c806391a6fe98116100cb578063bfcfb7a71161007f578063de11368c11610059578063de11368c14610672578063ec17d62714610692578063f2fde38b146106c557600080fd5b8063bfcfb7a71461060d578063cb6029b214610620578063ccdb635f1461064057600080fd5b80639dd3cad3116100b05780639dd3cad3146105ad578063a10786b0146105cd578063aad3ec96146105ed57600080fd5b806391a6fe981461050057806397d5c1ac1461052e57600080fd5b806338e846961161012d57806355b90ea71161010757806355b90ea7146104a0578063715018a6146104c05780638da5cb5b146104d557600080fd5b806338e84696146102de5780633d4ac718146103b35780634ce7957c1461047357600080fd5b8063115b15701161015e578063115b1570146101f35780631aa3a0081461028357806323bac0dd1461029857600080fd5b806307bd92b71461017a5780630f7f49ff146101d1575b600080fd5b34801561018657600080fd5b506002546101a79073ffffffffffffffffffffffffffffffffffffffff1681565b60405173ffffffffffffffffffffffffffffffffffffffff90911681526020015b60405180910390f35b3480156101dd57600080fd5b506101f16101ec3660046123f9565b6106e5565b005b3480156101ff57600080fd5b5061024c61020e366004612460565b600660205260009081526040902080546001820154600283015460039093015473ffffffffffffffffffffffffffffffffffffffff90921692909184565b6040805173ffffffffffffffffffffffffffffffffffffffff909516855260208501939093529183015260608201526080016101c8565b34801561028f57600080fd5b506101f16107bb565b3480156102a457600080fd5b506001546102cc90760100000000000000000000000000000000000000000000900460ff1681565b60405160ff90911681526020016101c8565b3480156102ea57600080fd5b506103776102f936600461247b565b600090815260056020818152604092839020835160e08101855281548082526001830154938201849052600283015473ffffffffffffffffffffffffffffffffffffffff1695820186905260038301546060830152600483015460808301529382015460a082015260069091015460c0909101819052919390929190565b6040516101c89493929190938452602084019290925273ffffffffffffffffffffffffffffffffffffffff166040830152606082015260800190565b3480156103bf57600080fd5b506104236103ce36600461247b565b600560208190526000918252604090912080546001820154600283015460038401546004850154958501546006909501549395929473ffffffffffffffffffffffffffffffffffffffff909216939092919087565b60408051978852602088019690965273ffffffffffffffffffffffffffffffffffffffff909416948601949094526060850191909152608084015260a083019190915260c082015260e0016101c8565b34801561047f57600080fd5b506001546101a79073ffffffffffffffffffffffffffffffffffffffff1681565b3480156104ac57600080fd5b506101f16104bb366004612494565b6108a9565b3480156104cc57600080fd5b506101f1610e17565b3480156104e157600080fd5b5060005473ffffffffffffffffffffffffffffffffffffffff166101a7565b34801561050c57600080fd5b5061052061051b3660046124d0565b610e2b565b6040519081526020016101c8565b34801561053a57600080fd5b5061024c610549366004612460565b73ffffffffffffffffffffffffffffffffffffffff9081166000908152600660209081526040918290208251608081018452815490941680855260018201549285018390526002820154938501849052600390910154606090940184905293909290565b3480156105b957600080fd5b506101f16105c83660046123f9565b610f45565b3480156105d957600080fd5b506101f16105e8366004612460565b610fbc565b3480156105f957600080fd5b506101f16106083660046124fc565b61100b565b6101f161061b366004612526565b611373565b34801561062c57600080fd5b506101f161063b366004612526565b6117c4565b34801561064c57600080fd5b506001546102cc9074010000000000000000000000000000000000000000900460ff1681565b34801561067e57600080fd5b506101f161068d366004612526565b611990565b34801561069e57600080fd5b506001546102cc907501000000000000000000000000000000000000000000900460ff1681565b3480156106d157600080fd5b506101f16106e0366004612460565b611ea2565b6106ed611f06565b600180547fffffffffffffffffffff0000ffffffffffffffffffffffffffffffffffffffff167401000000000000000000000000000000000000000060ff958616027fffffffffffffffffffff00ffffffffffffffffffffffffffffffffffffffffff1617750100000000000000000000000000000000000000000093851693909302929092177fffffffffffffffffff00ffffffffffffffffffffffffffffffffffffffffffff167601000000000000000000000000000000000000000000009190931602919091179055565b3360009081526006602052604090205473ffffffffffffffffffffffffffffffffffffffff161561081f576040517f64a3462b0000000000000000000000000000000000000000000000000000000081523360048201526024015b60405180910390fd5b60408051608081018252338082526000602080840182815284860183815260608601848152948452600690925294909120925183547fffffffffffffffffffffffff00000000000000000000000000000000000000001673ffffffffffffffffffffffffffffffffffffffff90911617835592516001830155915160028201559051600390910155565b600083815260056020818152604092839020835160e08101855281548152600182015492810192909252600281015473ffffffffffffffffffffffffffffffffffffffff1693820193909352600383015460608201819052600484015460808301529183015460a082015260069092015460c08301521561095f576040517f51e6df2200000000000000000000000000000000000000000000000000000000815233600482015260248101859052604401610816565b600083600281111561097357610973612548565b036109b3576040517f8a0ffdbe00000000000000000000000000000000000000000000000000000000815233600482015260248101859052604401610816565b3373ffffffffffffffffffffffffffffffffffffffff16816040015173ffffffffffffffffffffffffffffffffffffffff1603610a25576040517f8a0ffdbe00000000000000000000000000000000000000000000000000000000815233600482015260248101859052604401610816565b60408082015173ffffffffffffffffffffffffffffffffffffffff90811660009081526006602090815283822084516080810186528154909416845260018101548483015260028101548486015260030154606084015233825260078152838220888352905291822054909160ff90911690816002811115610aa957610aa9612548565b14158015610ad85750846002811115610ac457610ac4612548565b816002811115610ad657610ad6612548565b145b15610b18576040517fcd7f7b9500000000000000000000000000000000000000000000000000000000815233600482015260248101879052604401610816565b815173ffffffffffffffffffffffffffffffffffffffff1660009081526009602090815260408083208784529091529020600281015460ff16610cdf576004544290610b71906301000000900463ffffffff16876125a6565b11610c615760028101805460017fffffffffffffffffffffffffffffffffffffffffffffffffffffffffffffff009182168117909255845173ffffffffffffffffffffffffffffffffffffffff908116600090815260096020908152604080832042808552908352818420870180548089018255908552838520018054337fffffffffffffffffffffffff0000000000000000000000000000000000000000909116811790915582518084018452888152808501868152918652600885528386208c5190971686529584528285209185529252909120915182555192018054909116911515919091179055610cdf565b336000908152600860209081526040808320865173ffffffffffffffffffffffffffffffffffffffff16845282528083208884528252918290208251808401909352805480845260019182015460ff16151592840192909252908290610cc89083906125a6565b90525083518151610cdd919033908990611f59565b505b6001866002811115610cf357610cf3612548565b03610d585760018460a001818151610d0b91906125a6565b90525060608301805160019190610d239083906125a6565b905250604051339088907fb1f8a8c3b9c62276b24c9b40926b671752062ba0733a502eee66b97cc06aad7f90600090a3610db4565b600184608001818151610d6b91906125a6565b90525060408301805160019190610d839083906125a6565b905250604051339088907fd8309d6f87417720a01d0343ff397d8014a9a84366935934f8d9fa3c011f414790600090a35b3360009081526007602090815260408083208a8452909152902080548791907fffffffffffffffffffffffffffffffffffffffffffffffffffffffffffffff00166001836002811115610e0957610e09612548565b021790555050505050505050565b610e1f611f06565b610e29600061223c565b565b6000808315610e86576006610e416001866125b9565b610e4c9060026125cc565b610e579060016125a6565b85610e636001826125b9565b610e6d91906125cc565b610e7791906125cc565b610e8191906125e3565b610e89565b60005b9050600084158015610e9b5750836001145b610f1057600684610ead6001886125b9565b610eb791906125a6565b610ec29060026125cc565b610ecd9060016125a6565b610ed786886125a6565b86610ee360018a6125b9565b610eed91906125a6565b610ef791906125cc565b610f0191906125cc565b610f0b91906125e3565b610f13565b60005b90506000610f2183836125b9565b9050612710610f3082896125cc565b610f3a91906125e3565b979650505050505050565b610f4d611f06565b6004805460ff9485167fffffffffffffffffffffffffffffffffffffffffffffffffffffffffffff00009091161761010093851693909302929092177fffffffffffffffffffffffffffffffffffffffffffffffffffffffffff00ffff16620100009190931602919091179055565b610fc4611f06565b600180547fffffffffffffffffffffffff00000000000000000000000000000000000000001673ffffffffffffffffffffffffffffffffffffffff92909216919091179055565b33600090815260086020908152604080832073ffffffffffffffffffffffffffffffffffffffff8616845282528083208484528252918290208251808401909352805483526001015460ff16158015918301919091526110bc576040517fc3ea5df500000000000000000000000000000000000000000000000000000000815233600482015273ffffffffffffffffffffffffffffffffffffffff8416602482015260448101839052606401610816565b6004546110d6906301000000900463ffffffff16836125a6565b421015611134576040517f858e249f00000000000000000000000000000000000000000000000000000000815233600482015273ffffffffffffffffffffffffffffffffffffffff8416602482015260448101839052606401610816565b73ffffffffffffffffffffffffffffffffffffffff83166000908152600960209081526040808320858452825280832081516060810183528154815260018201805484518187028101870190955280855291949293858401939092908301828280156111d657602002820191906000526020600020905b815473ffffffffffffffffffffffffffffffffffffffff1681526001909101906020018083116111ab575b50505091835250506002919091015460ff161515602090910152604081015190915061120457600160408201525b60005b8160200151518160ff16101561131b573373ffffffffffffffffffffffffffffffffffffffff1682602001518260ff16815181106112475761124761261e565b602002602001015173ffffffffffffffffffffffffffffffffffffffff160361130957815160009061127b906014906125e3565b604051909150600090339083908381818185875af1925050503d80600081146112c0576040519150601f19603f3d011682016040523d82523d6000602084013e6112c5565b606091505b5050905080611300576040517f24a8ac1300000000000000000000000000000000000000000000000000000000815260040160405180910390fd5b50505050505050565b806113138161264d565b915050611207565b506040517ffd52de3600000000000000000000000000000000000000000000000000000000815233600482015273ffffffffffffffffffffffffffffffffffffffff8516602482015260448101849052606401610816565b6000828152600560205260409020600281015473ffffffffffffffffffffffffffffffffffffffff166113d5576040517f69d71ce500000000000000000000000000000000000000000000000000000000815260048101849052602401610816565b806003015460000361141c576040517f18c1febf00000000000000000000000000000000000000000000000000000000815233600482015260248101849052604401610816565b60068101541580156114485750600281015473ffffffffffffffffffffffffffffffffffffffff163314155b156114955760068101546040517f4bef4f77000000000000000000000000000000000000000000000000000000008152336004820152602481018590526044810191909152606401610816565b60028082015473ffffffffffffffffffffffffffffffffffffffff90811660009081526006602081815260408084208151608081018352815490961686526001810154928601929092529481015494840194909452600393840154606084015292840154928401549192909161150c919086610e2b565b90506000611522836040015184606001516122b1565b9050600080611545838660600151876040015161153f91906125a6565b866122ec565b90925090508061155583866125a6565b61155f91906125a6565b3410156115bc576040517f7389809c00000000000000000000000000000000000000000000000000000000815233600482015260248101899052346044820152606481018590526084810183905260a4810182905260c401610816565b868660060160008282546115d091906125a6565b909155505060015460405160009173ffffffffffffffffffffffffffffffffffffffff169083908381818185875af1925050503d806000811461162f576040519150601f19603f3d011682016040523d82523d6000602084013e611634565b606091505b505090506000866000015173ffffffffffffffffffffffffffffffffffffffff168460405160006040518083038185875af1925050503d8060008114611696576040519150601f19603f3d011682016040523d82523d6000602084013e61169b565b606091505b505090508115806116aa575080155b156116e1576040517f24a8ac1300000000000000000000000000000000000000000000000000000000815260040160405180910390fd5b60025460018901546040517fbbe108b90000000000000000000000000000000000000000000000000000000081523360048201526024810191909152604481018b905273ffffffffffffffffffffffffffffffffffffffff90911690819063bbe108b990606401600060405180830381600087803b15801561176257600080fd5b505af1158015611776573d6000803e3d6000fd5b5050604080518d8152602081018b90523393508e92507f8fccfe372405954c8e1283918d67d52c901db69d2458fb3588c9491d6da7b093910160405180910390a35050505050505050505050565b3360009081526006602052604090205473ffffffffffffffffffffffffffffffffffffffff16611822576040517ffec99a9d000000000000000000000000000000000000000000000000000000008152336004820152602401610816565b6040805160e081018252838152600380546020808401918252338486019081526060850187815260006080870181815260a0880182815260c089018381528c8452600596879052998320895181559651600188015593516002870180547fffffffffffffffffffffffff00000000000000000000000000000000000000001673ffffffffffffffffffffffffffffffffffffffff909216919091179055915185870155905160048501559051918301919091559351600690910155805491926118ea8361266c565b9091555050336000908152600660209081526040918290208251608081018452815473ffffffffffffffffffffffffffffffffffffffff16815260018201549281018381526002830154948201949094526003909101546060820152916119508261266c565b905250604051838152339085907fd37a590ef3ba46087e58089ce48f31e4d9984dfbc9f16f956693aee6297f3e1e9060200160405180910390a350505050565b6000828152600560205260409020600281015473ffffffffffffffffffffffffffffffffffffffff166119f2576040517f69d71ce500000000000000000000000000000000000000000000000000000000815260048101849052602401610816565b8060030154600003611a39576040517f18c1febf00000000000000000000000000000000000000000000000000000000815233600482015260248101849052604401610816565b81816006015411611a7f576040517fb958565e00000000000000000000000000000000000000000000000000000000815233600482015260248101849052604401610816565b60025460018201546040517efdd58e000000000000000000000000000000000000000000000000000000008152336004820152602481019190915273ffffffffffffffffffffffffffffffffffffffff909116908390829062fdd58e90604401602060405180830381865afa158015611afc573d6000803e3d6000fd5b505050506040513d601f19601f82011682018060405250810190611b2091906126a4565b11611b67576040517f380dfc420000000000000000000000000000000000000000000000000000000081523360048201526024810185905260448101849052606401610816565b60028083015473ffffffffffffffffffffffffffffffffffffffff908116600090815260066020818152604080842081516080810183528154909616865260018101549286019290925294810154948401949094526003938401546060840152928501549285015491929091611be99190611be39088906125b9565b87610e2b565b90506000611bff836040015184606001516122b1565b9050600080611c1c838660600151876040015161153f91906125a6565b9150915087876006016000828254611c3491906125b9565b909155505060015460405160009173ffffffffffffffffffffffffffffffffffffffff169083908381818185875af1925050503d8060008114611c93576040519150601f19603f3d011682016040523d82523d6000602084013e611c98565b606091505b505090506000866000015173ffffffffffffffffffffffffffffffffffffffff168460405160006040518083038185875af1925050503d8060008114611cfa576040519150601f19603f3d011682016040523d82523d6000602084013e611cff565b606091505b50909150600090503384611d13878a6125b9565b611d1d91906125b9565b604051600081818185875af1925050503d8060008114611d59576040519150601f19603f3d011682016040523d82523d6000602084013e611d5e565b606091505b50509050821580611d6d575081155b80611d76575080155b15611dad576040517f24a8ac1300000000000000000000000000000000000000000000000000000000815260040160405180910390fd5b60018a01546040517f588160480000000000000000000000000000000000000000000000000000000081523360048201526024810191909152604481018c905273ffffffffffffffffffffffffffffffffffffffff8a1690635881604890606401600060405180830381600087803b158015611e2857600080fd5b505af1158015611e3c573d6000803e3d6000fd5b503392508e91507fb78a347f67e60e77f52aa2a212347075651ba0dbe890c6ca751c2aab5cf45d3d90508d87611e728a8d6125b9565b611e7c91906125b9565b6040805192835260208301919091520160405180910390a3505050505050505050505050565b611eaa611f06565b73ffffffffffffffffffffffffffffffffffffffff8116611efa576040517f1e4fbdf700000000000000000000000000000000000000000000000000000000815260006004820152602401610816565b611f038161223c565b50565b60005473ffffffffffffffffffffffffffffffffffffffff163314610e29576040517f118cdaa7000000000000000000000000000000000000000000000000000000008152336004820152602401610816565b73ffffffffffffffffffffffffffffffffffffffff841660009081526009602090815260408083208584529091528120600181015490915b81811015611300576000836001018281548110611fb057611fb061261e565b600091825260208083209091015473ffffffffffffffffffffffffffffffffffffffff908116808452600883526040808520928d1685529183528184208a85529092529091205490915080861061200857505061222a565b6120136001856125b9565b831480156120215750601484105b1561207f576001858101805491820181556000908152602090200180547fffffffffffffffffffffffff00000000000000000000000000000000000000001673ffffffffffffffffffffffffffffffffffffffff8a16179055612227565b836014036120f3578460010180548061209a5761209a6126bd565b60008281526020902081017fffffffffffffffffffffffffffffffffffffffffffffffffffffffffffffffff90810180547fffffffffffffffffffffffff00000000000000000000000000000000000000001690550190555b60006121006001866125b9565b90505b838111156121c7578560010160018261211c91906125b9565b8154811061212c5761212c61261e565b60009182526020909120015460018701805473ffffffffffffffffffffffffffffffffffffffff90921691839081106121675761216761261e565b600091825260209091200180547fffffffffffffffffffffffff00000000000000000000000000000000000000001673ffffffffffffffffffffffffffffffffffffffff92909216919091179055806121bf816126ec565b915050612103565b50878560010184815481106121de576121de61261e565b9060005260206000200160006101000a81548173ffffffffffffffffffffffffffffffffffffffff021916908373ffffffffffffffffffffffffffffffffffffffff1602179055505b50505b806122348161266c565b915050611f91565b6000805473ffffffffffffffffffffffffffffffffffffffff8381167fffffffffffffffffffffffff0000000000000000000000000000000000000000831681178455604051919092169283917f8be0079c531659141344cd1fd0a4f28419497f9722a3daafe3b4186f6b6457e09190a35050565b6004546000906122c990610100900460ff16836125cc565b6004546122d99060ff16856125cc565b6122e391906125b9565b90505b92915050565b600154600454600091829160ff75010000000000000000000000000000000000000000008304811692740100000000000000000000000000000000000000009004811691612342918891620100009004166125cc565b8711156123a35760015461237390760100000000000000000000000000000000000000000000900460ff1683612721565b6001549092506123a090760100000000000000000000000000000000000000000000900460ff168261273a565b90505b60646123b260ff8416876125cc565b6123bc91906125e3565b60646123cb60ff8416886125cc565b6123d591906125e3565b935093505050935093915050565b803560ff811681146123f457600080fd5b919050565b60008060006060848603121561240e57600080fd5b612417846123e3565b9250612425602085016123e3565b9150612433604085016123e3565b90509250925092565b803573ffffffffffffffffffffffffffffffffffffffff811681146123f457600080fd5b60006020828403121561247257600080fd5b6122e38261243c565b60006020828403121561248d57600080fd5b5035919050565b6000806000606084860312156124a957600080fd5b833592506020840135600381106124bf57600080fd5b929592945050506040919091013590565b6000806000606084860312156124e557600080fd5b505081359360208301359350604090920135919050565b6000806040838503121561250f57600080fd5b6125188361243c565b946020939093013593505050565b6000806040838503121561253957600080fd5b50508035926020909101359150565b7f4e487b7100000000000000000000000000000000000000000000000000000000600052602160045260246000fd5b7f4e487b7100000000000000000000000000000000000000000000000000000000600052601160045260246000fd5b808201808211156122e6576122e6612577565b818103818111156122e6576122e6612577565b80820281158282048414176122e6576122e6612577565b600082612619577f4e487b7100000000000000000000000000000000000000000000000000000000600052601260045260246000fd5b500490565b7f4e487b7100000000000000000000000000000000000000000000000000000000600052603260045260246000fd5b600060ff821660ff810361266357612663612577565b60010192915050565b60007fffffffffffffffffffffffffffffffffffffffffffffffffffffffffffffffff820361269d5761269d612577565b5060010190565b6000602082840312156126b657600080fd5b5051919050565b7f4e487b7100000000000000000000000000000000000000000000000000000000600052603160045260246000fd5b6000816126fb576126fb612577565b507fffffffffffffffffffffffffffffffffffffffffffffffffffffffffffffffff0190565b60ff81811683821601908111156122e6576122e6612577565b60ff82811682821603908111156122e6576122e661257756fea26469706673582212204536e8b632dbcac312d39dc0ea82e33346536152290f561aa7652a23bf12513e64736f6c63430008140033",
  "linkReferences": {},
  "deployedLinkReferences": {}
}