{
  "_format": "hh-sol-artifact-1",
  "contractName": "JustFriends",
  "sourceName": "contracts/JustFriends.sol",
  "abi": [
    {
      "inputs": [
        {
          "internalType": "address",
          "name": "_protocolFeeDestination",
          "type": "address"
        },
        {
          "internalType": "uint8",
          "name": "_protocolFeePercentBase",
          "type": "uint8"
        },
        {
          "internalType": "uint8",
          "name": "_creatorFeePercentBase",
          "type": "uint8"
        },
        {
          "internalType": "uint8",
          "name": "_extraFeePercentBase",
          "type": "uint8"
        },
        {
          "internalType": "uint8",
          "name": "_loyalFanFeePercentBase",
          "type": "uint8"
        },
        {
          "internalType": "uint8",
          "name": "_loyalFanLength",
          "type": "uint8"
        }
      ],
      "stateMutability": "nonpayable",
      "type": "constructor"
    },
    {
      "inputs": [
        {
          "internalType": "address",
          "name": "user",
          "type": "address"
        },
        {
          "internalType": "address",
          "name": "creator",
          "type": "address"
        },
        {
          "internalType": "uint256",
          "name": "periodTimestamp",
          "type": "uint256"
        }
      ],
      "name": "DuplicateClaiming",
      "type": "error"
    },
    {
      "inputs": [
        {
          "internalType": "address",
          "name": "walletAddress",
          "type": "address"
        },
        {
          "internalType": "bytes32",
          "name": "contentHash",
          "type": "bytes32"
        }
      ],
      "name": "DuplicateVoting",
      "type": "error"
    },
    {
      "inputs": [
        {
          "internalType": "address",
          "name": "sender",
          "type": "address"
        },
        {
          "internalType": "uint256",
          "name": "balance",
          "type": "uint256"
        },
        {
          "internalType": "uint256",
          "name": "needed",
          "type": "uint256"
        },
        {
          "internalType": "uint256",
          "name": "tokenId",
          "type": "uint256"
        }
      ],
      "name": "ERC1155InsufficientBalance",
      "type": "error"
    },
    {
      "inputs": [
        {
          "internalType": "address",
          "name": "approver",
          "type": "address"
        }
      ],
      "name": "ERC1155InvalidApprover",
      "type": "error"
    },
    {
      "inputs": [
        {
          "internalType": "uint256",
          "name": "idsLength",
          "type": "uint256"
        },
        {
          "internalType": "uint256",
          "name": "valuesLength",
          "type": "uint256"
        }
      ],
      "name": "ERC1155InvalidArrayLength",
      "type": "error"
    },
    {
      "inputs": [
        {
          "internalType": "address",
          "name": "operator",
          "type": "address"
        }
      ],
      "name": "ERC1155InvalidOperator",
      "type": "error"
    },
    {
      "inputs": [
        {
          "internalType": "address",
          "name": "receiver",
          "type": "address"
        }
      ],
      "name": "ERC1155InvalidReceiver",
      "type": "error"
    },
    {
      "inputs": [
        {
          "internalType": "address",
          "name": "sender",
          "type": "address"
        }
      ],
      "name": "ERC1155InvalidSender",
      "type": "error"
    },
    {
      "inputs": [
        {
          "internalType": "address",
          "name": "operator",
          "type": "address"
        },
        {
          "internalType": "address",
          "name": "owner",
          "type": "address"
        }
      ],
      "name": "ERC1155MissingApprovalForAll",
      "type": "error"
    },
    {
      "inputs": [
        {
          "internalType": "address",
          "name": "user",
          "type": "address"
        },
        {
          "internalType": "address",
          "name": "creator",
          "type": "address"
        },
        {
          "internalType": "uint256",
          "name": "periodTimestamp",
          "type": "uint256"
        }
      ],
      "name": "EarlyClaiming",
      "type": "error"
    },
    {
      "inputs": [
        {
          "internalType": "address",
          "name": "walletAddress",
          "type": "address"
        }
      ],
      "name": "ExistedCreator",
      "type": "error"
    },
    {
      "inputs": [],
      "name": "FailedFeeTransfer",
      "type": "error"
    },
    {
      "inputs": [
        {
          "internalType": "address",
          "name": "walletAddress",
          "type": "address"
        },
        {
          "internalType": "bytes32",
          "name": "contentHash",
          "type": "bytes32"
        }
      ],
      "name": "FreeContentExchange",
      "type": "error"
    },
    {
      "inputs": [
        {
          "internalType": "address",
          "name": "user",
          "type": "address"
        },
        {
          "internalType": "address",
          "name": "creator",
          "type": "address"
        },
        {
          "internalType": "uint256",
          "name": "periodTimestamp",
          "type": "uint256"
        }
      ],
      "name": "IllegalClaiming",
      "type": "error"
    },
    {
      "inputs": [
        {
          "internalType": "address",
          "name": "walletAddress",
          "type": "address"
        },
        {
          "internalType": "bytes32",
          "name": "contentHash",
          "type": "bytes32"
        },
        {
          "internalType": "uint256",
          "name": "amount",
          "type": "uint256"
        }
      ],
      "name": "InsufficientAccess",
      "type": "error"
    },
    {
      "inputs": [
        {
          "internalType": "address",
          "name": "walletAddress",
          "type": "address"
        },
        {
          "internalType": "bytes32",
          "name": "contentHash",
          "type": "bytes32"
        },
        {
          "internalType": "uint256",
          "name": "amount",
          "type": "uint256"
        }
      ],
      "name": "InsufficientPayment",
      "type": "error"
    },
    {
      "inputs": [
        {
          "internalType": "bytes32",
          "name": "contentHash",
          "type": "bytes32"
        }
      ],
      "name": "InvalidContent",
      "type": "error"
    },
    {
      "inputs": [
        {
          "internalType": "address",
          "name": "walletAddress",
          "type": "address"
        }
      ],
      "name": "InvalidCreator",
      "type": "error"
    },
    {
      "inputs": [
        {
          "internalType": "address",
          "name": "walletAddress",
          "type": "address"
        },
        {
          "internalType": "bytes32",
          "name": "contentHash",
          "type": "bytes32"
        }
      ],
      "name": "InvalidFirstPurchase",
      "type": "error"
    },
    {
      "inputs": [
        {
          "internalType": "address",
          "name": "walletAddress",
          "type": "address"
        },
        {
          "internalType": "bytes32",
          "name": "contentHash",
          "type": "bytes32"
        }
      ],
      "name": "InvalidLastSell",
      "type": "error"
    },
    {
      "inputs": [
        {
          "internalType": "address",
          "name": "walletAddress",
          "type": "address"
        },
        {
          "internalType": "bytes32",
          "name": "contentHash",
          "type": "bytes32"
        }
      ],
      "name": "InvalidVoting",
      "type": "error"
    },
    {
      "inputs": [
        {
          "internalType": "address",
          "name": "owner",
          "type": "address"
        }
      ],
      "name": "OwnableInvalidOwner",
      "type": "error"
    },
    {
      "inputs": [
        {
          "internalType": "address",
          "name": "account",
          "type": "address"
        }
      ],
      "name": "OwnableUnauthorizedAccount",
      "type": "error"
    },
    {
      "inputs": [
        {
          "internalType": "address",
          "name": "walletAddress",
          "type": "address"
        },
        {
          "internalType": "bytes32",
          "name": "contentHash",
          "type": "bytes32"
        }
      ],
      "name": "PaidContentVoting",
      "type": "error"
    },
    {
      "inputs": [
        {
          "internalType": "address",
          "name": "user",
          "type": "address"
        },
        {
          "internalType": "address",
          "name": "creator",
          "type": "address"
        },
        {
          "internalType": "uint256",
          "name": "periodTimestamp",
          "type": "uint256"
        }
      ],
      "name": "UnCloseClaiming",
      "type": "error"
    },
    {
      "anonymous": false,
      "inputs": [
        {
          "indexed": true,
          "internalType": "bytes32",
          "name": "hash",
          "type": "bytes32"
        },
        {
          "indexed": true,
          "internalType": "address",
          "name": "buyer",
          "type": "address"
        },
        {
          "indexed": false,
          "internalType": "uint256",
          "name": "amount",
          "type": "uint256"
        },
        {
          "indexed": false,
          "internalType": "uint256",
          "name": "totalPrice",
          "type": "uint256"
        }
      ],
      "name": "AccessPurchased",
      "type": "event"
    },
    {
      "anonymous": false,
      "inputs": [
        {
          "indexed": true,
          "internalType": "bytes32",
          "name": "hash",
          "type": "bytes32"
        },
        {
          "indexed": true,
          "internalType": "address",
          "name": "seller",
          "type": "address"
        },
        {
          "indexed": false,
          "internalType": "uint256",
          "name": "amount",
          "type": "uint256"
        },
        {
          "indexed": false,
          "internalType": "uint256",
          "name": "totalPrice",
          "type": "uint256"
        }
      ],
      "name": "AccessSold",
      "type": "event"
    },
    {
      "anonymous": false,
      "inputs": [
        {
          "indexed": true,
          "internalType": "address",
          "name": "account",
          "type": "address"
        },
        {
          "indexed": true,
          "internalType": "address",
          "name": "operator",
          "type": "address"
        },
        {
          "indexed": false,
          "internalType": "bool",
          "name": "approved",
          "type": "bool"
        }
      ],
      "name": "ApprovalForAll",
      "type": "event"
    },
    {
      "anonymous": false,
      "inputs": [
        {
          "indexed": true,
          "internalType": "bytes32",
          "name": "hash",
          "type": "bytes32"
        },
        {
          "indexed": true,
          "internalType": "address",
          "name": "creator",
          "type": "address"
        },
        {
          "indexed": false,
          "internalType": "uint256",
          "name": "startedPrice",
          "type": "uint256"
        },
        {
          "indexed": false,
          "internalType": "bool",
          "name": "isPaid",
          "type": "bool"
        }
      ],
      "name": "ContentCreated",
      "type": "event"
    },
    {
      "anonymous": false,
      "inputs": [
        {
          "indexed": true,
          "internalType": "bytes32",
          "name": "hash",
          "type": "bytes32"
        },
        {
          "indexed": true,
          "internalType": "address",
          "name": "account",
          "type": "address"
        },
        {
          "indexed": true,
          "internalType": "address",
          "name": "creator",
          "type": "address"
        }
      ],
      "name": "Downvoted",
      "type": "event"
    },
    {
      "anonymous": false,
      "inputs": [
        {
          "indexed": true,
          "internalType": "address",
          "name": "previousOwner",
          "type": "address"
        },
        {
          "indexed": true,
          "internalType": "address",
          "name": "newOwner",
          "type": "address"
        }
      ],
      "name": "OwnershipTransferred",
      "type": "event"
    },
    {
      "anonymous": false,
      "inputs": [
        {
          "indexed": true,
          "internalType": "address",
          "name": "operator",
          "type": "address"
        },
        {
          "indexed": true,
          "internalType": "address",
          "name": "from",
          "type": "address"
        },
        {
          "indexed": true,
          "internalType": "address",
          "name": "to",
          "type": "address"
        },
        {
          "indexed": false,
          "internalType": "uint256[]",
          "name": "ids",
          "type": "uint256[]"
        },
        {
          "indexed": false,
          "internalType": "uint256[]",
          "name": "values",
          "type": "uint256[]"
        }
      ],
      "name": "TransferBatch",
      "type": "event"
    },
    {
      "anonymous": false,
      "inputs": [
        {
          "indexed": true,
          "internalType": "address",
          "name": "operator",
          "type": "address"
        },
        {
          "indexed": true,
          "internalType": "address",
          "name": "from",
          "type": "address"
        },
        {
          "indexed": true,
          "internalType": "address",
          "name": "to",
          "type": "address"
        },
        {
          "indexed": false,
          "internalType": "uint256",
          "name": "id",
          "type": "uint256"
        },
        {
          "indexed": false,
          "internalType": "uint256",
          "name": "value",
          "type": "uint256"
        }
      ],
      "name": "TransferSingle",
      "type": "event"
    },
    {
      "anonymous": false,
      "inputs": [
        {
          "indexed": false,
          "internalType": "string",
          "name": "value",
          "type": "string"
        },
        {
          "indexed": true,
          "internalType": "uint256",
          "name": "id",
          "type": "uint256"
        }
      ],
      "name": "URI",
      "type": "event"
    },
    {
      "anonymous": false,
      "inputs": [
        {
          "indexed": true,
          "internalType": "bytes32",
          "name": "hash",
          "type": "bytes32"
        },
        {
          "indexed": true,
          "internalType": "address",
          "name": "account",
          "type": "address"
        },
        {
          "indexed": true,
          "internalType": "address",
          "name": "creator",
          "type": "address"
        }
      ],
      "name": "Upvoted",
      "type": "event"
    },
    {
      "inputs": [],
      "name": "MAX_UINT256",
      "outputs": [
        {
          "internalType": "uint256",
          "name": "",
          "type": "uint256"
        }
      ],
      "stateMutability": "view",
      "type": "function"
    },
    {
      "inputs": [
        {
          "internalType": "address",
          "name": "account",
          "type": "address"
        },
        {
          "internalType": "uint256",
          "name": "id",
          "type": "uint256"
        }
      ],
      "name": "balanceOf",
      "outputs": [
        {
          "internalType": "uint256",
          "name": "",
          "type": "uint256"
        }
      ],
      "stateMutability": "view",
      "type": "function"
    },
    {
      "inputs": [
        {
          "internalType": "address[]",
          "name": "accounts",
          "type": "address[]"
        },
        {
          "internalType": "uint256[]",
          "name": "ids",
          "type": "uint256[]"
        }
      ],
      "name": "balanceOfBatch",
      "outputs": [
        {
          "internalType": "uint256[]",
          "name": "",
          "type": "uint256[]"
        }
      ],
      "stateMutability": "view",
      "type": "function"
    },
    {
      "inputs": [
        {
          "internalType": "uint256",
          "name": "id",
          "type": "uint256"
        },
        {
          "internalType": "uint256",
          "name": "amount",
          "type": "uint256"
        }
      ],
      "name": "burn",
      "outputs": [],
      "stateMutability": "nonpayable",
      "type": "function"
    },
    {
      "inputs": [
        {
          "internalType": "uint256[]",
          "name": "ids",
          "type": "uint256[]"
        },
        {
          "internalType": "uint256[]",
          "name": "amounts",
          "type": "uint256[]"
        }
      ],
      "name": "burnBatch",
      "outputs": [],
      "stateMutability": "nonpayable",
      "type": "function"
    },
    {
      "inputs": [
        {
          "internalType": "bytes32",
          "name": "_contentHash",
          "type": "bytes32"
        },
        {
          "internalType": "uint256",
          "name": "_amount",
          "type": "uint256"
        }
      ],
      "name": "buyContentAccess",
      "outputs": [],
      "stateMutability": "payable",
      "type": "function"
    },
    {
      "inputs": [
        {
          "internalType": "address",
          "name": "_creator",
          "type": "address"
        },
        {
          "internalType": "uint256",
          "name": "_periodId",
          "type": "uint256"
        }
      ],
      "name": "claim",
      "outputs": [],
      "stateMutability": "nonpayable",
      "type": "function"
    },
    {
      "inputs": [
        {
          "internalType": "bytes32",
          "name": "",
          "type": "bytes32"
        }
      ],
      "name": "contentList",
      "outputs": [
        {
          "internalType": "bytes32",
          "name": "contentHash",
          "type": "bytes32"
        },
        {
          "internalType": "uint256",
          "name": "accessTokenId",
          "type": "uint256"
        },
        {
          "internalType": "address",
          "name": "creator",
          "type": "address"
        },
        {
          "internalType": "bool",
          "name": "isPaid",
          "type": "bool"
        },
        {
          "internalType": "uint256",
          "name": "startedPrice",
          "type": "uint256"
        },
        {
          "internalType": "uint256",
          "name": "totalUpvote",
          "type": "uint256"
        },
        {
          "internalType": "uint256",
          "name": "totalDownvote",
          "type": "uint256"
        },
        {
          "internalType": "uint256",
          "name": "totalSupply",
          "type": "uint256"
        }
      ],
      "stateMutability": "view",
      "type": "function"
    },
    {
      "inputs": [],
      "name": "creatorFeePercentBase",
      "outputs": [
        {
          "internalType": "uint8",
          "name": "",
          "type": "uint8"
        }
      ],
      "stateMutability": "view",
      "type": "function"
    },
    {
      "inputs": [
        {
          "internalType": "address",
          "name": "",
          "type": "address"
        }
      ],
      "name": "creatorList",
      "outputs": [
        {
          "internalType": "uint256",
          "name": "totalContent",
          "type": "uint256"
        },
        {
          "internalType": "uint256",
          "name": "totalUpvote",
          "type": "uint256"
        },
        {
          "internalType": "uint256",
          "name": "totalDownvote",
          "type": "uint256"
        }
      ],
      "stateMutability": "view",
      "type": "function"
    },
    {
      "inputs": [],
      "name": "extraFeePercentBase",
      "outputs": [
        {
          "internalType": "uint8",
          "name": "",
          "type": "uint8"
        }
      ],
      "stateMutability": "view",
      "type": "function"
    },
    {
      "inputs": [
        {
          "internalType": "bytes32[]",
          "name": "_contentHashes",
          "type": "bytes32[]"
        },
        {
          "internalType": "uint256[]",
          "name": "_amounts",
          "type": "uint256[]"
        }
      ],
      "name": "getBuyPrice",
      "outputs": [
        {
          "internalType": "uint256[]",
          "name": "",
          "type": "uint256[]"
        }
      ],
      "stateMutability": "view",
      "type": "function"
    },
    {
      "inputs": [
        {
          "internalType": "uint256",
          "name": "_basePrice",
          "type": "uint256"
        },
        {
          "internalType": "uint256",
          "name": "_supply",
          "type": "uint256"
        },
        {
          "internalType": "uint256",
          "name": "_amount",
          "type": "uint256"
        }
      ],
      "name": "getContentPrice",
      "outputs": [
        {
          "internalType": "uint256",
          "name": "",
          "type": "uint256"
        }
      ],
      "stateMutability": "pure",
      "type": "function"
    },
    {
      "inputs": [
        {
          "internalType": "bytes32[]",
          "name": "_contentHashes",
          "type": "bytes32[]"
        }
      ],
      "name": "getContentsInfo",
      "outputs": [
        {
          "components": [
            {
              "internalType": "bytes32",
              "name": "contentHash",
              "type": "bytes32"
            },
            {
              "internalType": "uint256",
              "name": "accessTokenId",
              "type": "uint256"
            },
            {
              "internalType": "address",
              "name": "creator",
              "type": "address"
            },
            {
              "internalType": "bool",
              "name": "isPaid",
              "type": "bool"
            },
            {
              "internalType": "uint256",
              "name": "startedPrice",
              "type": "uint256"
            },
            {
              "internalType": "uint256",
              "name": "totalUpvote",
              "type": "uint256"
            },
            {
              "internalType": "uint256",
              "name": "totalDownvote",
              "type": "uint256"
            },
            {
              "internalType": "uint256",
              "name": "totalSupply",
              "type": "uint256"
            }
          ],
          "internalType": "struct JustFriendsInterface.Content[]",
          "name": "",
          "type": "tuple[]"
        }
      ],
      "stateMutability": "view",
      "type": "function"
    },
    {
      "inputs": [
        {
          "internalType": "address",
          "name": "_walletAddress",
          "type": "address"
        }
      ],
      "name": "getCreatorInfo",
      "outputs": [
        {
          "internalType": "uint256",
          "name": "",
          "type": "uint256"
        },
        {
          "internalType": "uint256",
          "name": "",
          "type": "uint256"
        },
        {
          "internalType": "uint256",
          "name": "",
          "type": "uint256"
        }
      ],
      "stateMutability": "view",
      "type": "function"
    },
    {
      "inputs": [
        {
          "internalType": "address",
          "name": "_creator",
          "type": "address"
        },
        {
          "internalType": "uint256",
          "name": "_periodId",
          "type": "uint256"
        }
      ],
      "name": "getListLoyalty",
      "outputs": [
        {
          "internalType": "address[]",
          "name": "",
          "type": "address[]"
        }
      ],
      "stateMutability": "view",
      "type": "function"
    },
    {
      "inputs": [
        {
          "internalType": "bytes32[]",
          "name": "_contentHashes",
          "type": "bytes32[]"
        },
        {
          "internalType": "uint256[]",
          "name": "_amounts",
          "type": "uint256[]"
        }
      ],
      "name": "getSellPrice",
      "outputs": [
        {
          "internalType": "uint256[]",
          "name": "",
          "type": "uint256[]"
        }
      ],
      "stateMutability": "view",
      "type": "function"
    },
    {
      "inputs": [
        {
          "internalType": "address",
          "name": "account",
          "type": "address"
        },
        {
          "internalType": "address",
          "name": "operator",
          "type": "address"
        }
      ],
      "name": "isApprovedForAll",
      "outputs": [
        {
          "internalType": "bool",
          "name": "",
          "type": "bool"
        }
      ],
      "stateMutability": "view",
      "type": "function"
    },
    {
      "inputs": [],
      "name": "loyalFanFeePercentBase",
      "outputs": [
        {
          "internalType": "uint8",
          "name": "",
          "type": "uint8"
        }
      ],
      "stateMutability": "view",
      "type": "function"
    },
    {
      "inputs": [
        {
          "internalType": "address",
          "name": "",
          "type": "address"
        },
        {
          "internalType": "address",
          "name": "",
          "type": "address"
        },
        {
          "internalType": "uint256",
          "name": "",
          "type": "uint256"
        }
      ],
      "name": "loyalFanRecords",
      "outputs": [
        {
          "internalType": "uint256",
          "name": "loyalty",
          "type": "uint256"
        },
        {
          "internalType": "bool",
          "name": "claimed",
          "type": "bool"
        }
      ],
      "stateMutability": "view",
      "type": "function"
    },
    {
      "inputs": [
        {
          "internalType": "uint256",
          "name": "id",
          "type": "uint256"
        },
        {
          "internalType": "uint256",
          "name": "amount",
          "type": "uint256"
        },
        {
          "internalType": "bytes",
          "name": "data",
          "type": "bytes"
        }
      ],
      "name": "mint",
      "outputs": [],
      "stateMutability": "nonpayable",
      "type": "function"
    },
    {
      "inputs": [
        {
          "internalType": "uint256[]",
          "name": "ids",
          "type": "uint256[]"
        },
        {
          "internalType": "uint256[]",
          "name": "amounts",
          "type": "uint256[]"
        },
        {
          "internalType": "bytes",
          "name": "data",
          "type": "bytes"
        }
      ],
      "name": "mintBatch",
      "outputs": [],
      "stateMutability": "nonpayable",
      "type": "function"
    },
    {
      "inputs": [],
      "name": "owner",
      "outputs": [
        {
          "internalType": "address",
          "name": "",
          "type": "address"
        }
      ],
      "stateMutability": "view",
      "type": "function"
    },
    {
      "inputs": [
        {
          "internalType": "address",
          "name": "",
          "type": "address"
        },
        {
          "internalType": "uint256",
          "name": "",
          "type": "uint256"
        }
      ],
      "name": "periodList",
      "outputs": [
        {
          "internalType": "uint256",
          "name": "revenue",
          "type": "uint256"
        },
        {
          "internalType": "bool",
          "name": "isClose",
          "type": "bool"
        }
      ],
      "stateMutability": "view",
      "type": "function"
    },
    {
      "inputs": [
        {
          "internalType": "bytes32",
          "name": "_contentHash",
          "type": "bytes32"
        },
        {
          "internalType": "uint256",
          "name": "_startedPrice",
          "type": "uint256"
        },
        {
          "internalType": "bool",
          "name": "isPaid",
          "type": "bool"
        }
      ],
      "name": "postContent",
      "outputs": [],
      "stateMutability": "nonpayable",
      "type": "function"
    },
    {
      "inputs": [],
      "name": "protocolFeeDestination",
      "outputs": [
        {
          "internalType": "address",
          "name": "",
          "type": "address"
        }
      ],
      "stateMutability": "view",
      "type": "function"
    },
    {
      "inputs": [],
      "name": "protocolFeePercentBase",
      "outputs": [
        {
          "internalType": "uint8",
          "name": "",
          "type": "uint8"
        }
      ],
      "stateMutability": "view",
      "type": "function"
    },
    {
      "inputs": [],
      "name": "renounceOwnership",
      "outputs": [],
      "stateMutability": "nonpayable",
      "type": "function"
    },
    {
      "inputs": [
        {
          "internalType": "address",
          "name": "from",
          "type": "address"
        },
        {
          "internalType": "address",
          "name": "to",
          "type": "address"
        },
        {
          "internalType": "uint256[]",
          "name": "ids",
          "type": "uint256[]"
        },
        {
          "internalType": "uint256[]",
          "name": "values",
          "type": "uint256[]"
        },
        {
          "internalType": "bytes",
          "name": "data",
          "type": "bytes"
        }
      ],
      "name": "safeBatchTransferFrom",
      "outputs": [],
      "stateMutability": "nonpayable",
      "type": "function"
    },
    {
      "inputs": [
        {
          "internalType": "address",
          "name": "from",
          "type": "address"
        },
        {
          "internalType": "address",
          "name": "to",
          "type": "address"
        },
        {
          "internalType": "uint256",
          "name": "id",
          "type": "uint256"
        },
        {
          "internalType": "uint256",
          "name": "value",
          "type": "uint256"
        },
        {
          "internalType": "bytes",
          "name": "data",
          "type": "bytes"
        }
      ],
      "name": "safeTransferFrom",
      "outputs": [],
      "stateMutability": "nonpayable",
      "type": "function"
    },
    {
      "inputs": [
        {
          "internalType": "bytes32",
          "name": "_contentHash",
          "type": "bytes32"
        },
        {
          "internalType": "uint256",
          "name": "_amount",
          "type": "uint256"
        }
      ],
      "name": "sellContentAccess",
      "outputs": [],
      "stateMutability": "nonpayable",
      "type": "function"
    },
    {
      "inputs": [
        {
          "internalType": "address",
          "name": "operator",
          "type": "address"
        },
        {
          "internalType": "bool",
          "name": "approved",
          "type": "bool"
        }
      ],
      "name": "setApprovalForAll",
      "outputs": [],
      "stateMutability": "nonpayable",
      "type": "function"
    },
    {
      "inputs": [
        {
          "internalType": "uint8",
          "name": "_newProtocolFeePercentBase",
          "type": "uint8"
        },
        {
          "internalType": "uint8",
          "name": "_newCreatorFeePercentBase",
          "type": "uint8"
        },
        {
          "internalType": "uint8",
          "name": "_newExtraFeePercentBase",
          "type": "uint8"
        }
      ],
      "name": "setFeePercentBase",
      "outputs": [],
      "stateMutability": "nonpayable",
      "type": "function"
    },
    {
      "inputs": [
        {
          "internalType": "address",
          "name": "_newProtocolFeeDestination",
          "type": "address"
        }
      ],
      "name": "setProtocolFeeDestination",
      "outputs": [],
      "stateMutability": "nonpayable",
      "type": "function"
    },
    {
      "inputs": [
        {
          "internalType": "string",
          "name": "newURI",
          "type": "string"
        }
      ],
      "name": "setURI",
      "outputs": [],
      "stateMutability": "nonpayable",
      "type": "function"
    },
    {
      "inputs": [
        {
          "internalType": "uint8",
          "name": "_upvoteWeight",
          "type": "uint8"
        },
        {
          "internalType": "uint8",
          "name": "_downvoteWeight",
          "type": "uint8"
        },
        {
          "internalType": "uint8",
          "name": "_voteWeight",
          "type": "uint8"
        }
      ],
      "name": "setVoteWeightBase",
      "outputs": [],
      "stateMutability": "nonpayable",
      "type": "function"
    },
    {
      "inputs": [
        {
          "internalType": "bytes4",
          "name": "interfaceId",
          "type": "bytes4"
        }
      ],
      "name": "supportsInterface",
      "outputs": [
        {
          "internalType": "bool",
          "name": "",
          "type": "bool"
        }
      ],
      "stateMutability": "view",
      "type": "function"
    },
    {
      "inputs": [
        {
          "internalType": "address",
          "name": "newOwner",
          "type": "address"
        }
      ],
      "name": "transferOwnership",
      "outputs": [],
      "stateMutability": "nonpayable",
      "type": "function"
    },
    {
      "inputs": [
        {
          "internalType": "uint256",
          "name": "",
          "type": "uint256"
        }
      ],
      "name": "uri",
      "outputs": [
        {
          "internalType": "string",
          "name": "",
          "type": "string"
        }
      ],
      "stateMutability": "view",
      "type": "function"
    },
    {
      "inputs": [
        {
          "internalType": "address",
          "name": "",
          "type": "address"
        },
        {
          "internalType": "bytes32",
          "name": "",
          "type": "bytes32"
        }
      ],
      "name": "userReactions",
      "outputs": [
        {
          "internalType": "enum JustFriendsInterface.VoteType",
          "name": "",
          "type": "uint8"
        }
      ],
      "stateMutability": "view",
      "type": "function"
    },
    {
      "inputs": [
        {
          "internalType": "bytes32",
          "name": "_contentHash",
          "type": "bytes32"
        },
        {
          "internalType": "enum JustFriendsInterface.VoteType",
          "name": "_voteType",
          "type": "uint8"
        }
      ],
      "name": "vote",
      "outputs": [],
      "stateMutability": "nonpayable",
      "type": "function"
    }
  ],
  "bytecode": "0x6080346200024857601f62004b0b38819003918201601f1916830192916001600160401b03918285118486101762000232578160c09285926040978852833981010312620002485781516001600160a01b0392838216929183900362000248576200006d602082016200024d565b6200007a8683016200024d565b62000088606084016200024d565b91620000a560a06200009d608087016200024d565b95016200024d565b8851909560208201908111828210176200023257895260008091526002546001908181811c9116801562000227575b60208210146200021357601f8111620001c9575b5050806002553315620001b25760038054336001600160a01b031982168117909255995199650186a01950649967ff000000000000009897969594939291167f8be0079c531659141344cd1fd0a4f28419497f9722a3daafe3b4186f6b6457e08380a360055560018060401b031960065416966004549460ff60b81b9060b81b169460018060c01b031916179060ff60a01b9060a01b16179060ff60a81b9060a81b16179060ff60b01b9060b01b16171760045560381b1617176006556148ae90816200025d8239f35b602490895190631e4fbdf760e01b82526004820152fd5b60028352601f0160051c7f405787fa12a823e0f2b7631cc41b3ba8828b3321ca811111fa75cd3aa3bb5ace908101905b818110620002085750620000e8565b8381558201620001f9565b634e487b7160e01b83526022600452602483fd5b90607f1690620000d4565b634e487b7160e01b600052604160045260246000fd5b600080fd5b519060ff82168203620002485756fe6080604052600436101561001257600080fd5b60003560e01c80626228d9146102a5578062fdd58e146102a057806301ffc9a71461029b57806302fe53051461029657806308dc9f42146102915780630e89341c1461028c5780630f7f49ff14610287578063115b15701461028257806311f4bfde1461027d5780631d5593b41461027857806323bac0dd146102735780632eb2c2d61461026e57806333a581d2146102695780633d4ac718146102645780633f3ca6b21461025f57806340d8bbc71461025a578063485fe27f146102555780634ce7957c146102505780634e1273f41461024b578063715018a61461024657806383ca4b6f146102415780638da5cb5b1461023c57806391a6fe981461023757806397d5c1ac146102325780639dd3cad31461022d578063a10786b014610228578063a22cb46514610223578063aad3ec961461021e578063ac3744e214610219578063b390c0ab14610214578063bb4351e81461020f578063bfcfb7a71461020a578063c9a28cb914610205578063ccdb635f14610200578063de11368c146101fb578063e985e9c5146101f6578063eb183aca146101f1578063ec17d627146101ec578063ecadb26a146101e7578063f242432a146101e25763f2fde38b146101dd57600080fd5b612eab565b612d4f565b612cb5565b612c73565b612bc6565b612af3565b6126f7565b6126b5565b61222f565b611d40565b611c7c565b611c3e565b611ad2565b611a8f565b611962565b6118d0565b611870565b6117cd565b611783565b611731565b611678565b6115d6565b6114fe565b6114ac565b6113f6565b6113b4565b6112f2565b611216565b6111bd565b610ff4565b610fb2565b610e72565b610d41565b610cbb565b610bf0565b610a89565b6109ba565b6107fb565b61069a565b6105f7565b6104a8565b7f4e487b7100000000000000000000000000000000000000000000000000000000600052604160045260246000fd5b610100810190811067ffffffffffffffff8211176102f657604052565b6102aa565b6060810190811067ffffffffffffffff8211176102f657604052565b6020810190811067ffffffffffffffff8211176102f657604052565b90601f7fffffffffffffffffffffffffffffffffffffffffffffffffffffffffffffffe0910116810190811067ffffffffffffffff8211176102f657604052565b60405190610381826102d9565b565b67ffffffffffffffff81116102f65760051b60200190565b81601f820112156103f9578035916103b283610383565b926103c06040519485610333565b808452602092838086019260051b8201019283116103f9578301905b8282106103ea575050505090565b813581529083019083016103dc565b600080fd5b9060407ffffffffffffffffffffffffffffffffffffffffffffffffffffffffffffffffc8301126103f95767ffffffffffffffff6004358181116103f957836104499160040161039b565b926024359182116103f9576104609160040161039b565b90565b90815180825260208080930193019160005b828110610483575050505090565b835185529381019392810192600101610475565b906020610460928181520190610463565b346103f9576104b6366103fe565b906104c1815161306b565b91600060045460ff8160a81c169260ff808360a01c169260b81c16925b855181101561057e57806105696105628761055c6105566105518a61054c8b8f61052a6105256105146105799e6105469461314a565b516000526007602052604060002090565b613cf6565b8d61053f8d60e060808501519401519261314a565b5191613e70565b96613f70565b613f70565b613f5e565b60ff1690565b90613e24565b6064900490565b610573828a61314a565b526130e9565b6104de565b6040518061058c8982610497565b0390f35b6004359073ffffffffffffffffffffffffffffffffffffffff821682036103f957565b6024359073ffffffffffffffffffffffffffffffffffffffff821682036103f957565b359073ffffffffffffffffffffffffffffffffffffffff821682036103f957565b346103f95760407ffffffffffffffffffffffffffffffffffffffffffffffffffffffffffffffffc3601126103f9576020610667610633610590565b6024356000526000835260406000209073ffffffffffffffffffffffffffffffffffffffff16600052602052604060002090565b54604051908152f35b7fffffffff000000000000000000000000000000000000000000000000000000008116036103f957565b346103f95760207ffffffffffffffffffffffffffffffffffffffffffffffffffffffffffffffffc3601126103f95760207fffffffff000000000000000000000000000000000000000000000000000000006004356106f881610670565b167fd9b67a26000000000000000000000000000000000000000000000000000000008114908115610760575b8115610736575b506040519015158152f35b7f01ffc9a7000000000000000000000000000000000000000000000000000000009150143861072b565b7f0e89341c0000000000000000000000000000000000000000000000000000000081149150610724565b67ffffffffffffffff81116102f657601f017fffffffffffffffffffffffffffffffffffffffffffffffffffffffffffffffe01660200190565b9291926107d08261078a565b916107de6040519384610333565b8294818452818301116103f9578281602093846000960137010152565b346103f9576020807ffffffffffffffffffffffffffffffffffffffffffffffffffffffffffffffffc3601126103f95767ffffffffffffffff6004358181116103f957366023820112156103f95761085d9036906024816004013591016107c4565b91610866612f8d565b82519182116102f6576108838261087e600254612fde565b614807565b80601f83116001146108dc575081926000926108d1575b50507fffffffffffffffffffffffffffffffffffffffffffffffffffffffffffffffff8260011b9260031b1c191617600255600080f35b01519050388061089a565b907fffffffffffffffffffffffffffffffffffffffffffffffffffffffffffffffe083169361092d60026000527f405787fa12a823e0f2b7631cc41b3ba8828b3321ca811111fa75cd3aa3bb5ace90565b926000905b8682106109875750508360019510610950575b505050811b01600255005b01517fffffffffffffffffffffffffffffffffffffffffffffffffffffffffffffffff60f88460031b161c19169055388080610945565b80600185968294968601518155019501930190610932565b9080601f830112156103f957816020610460933591016107c4565b346103f95760607ffffffffffffffffffffffffffffffffffffffffffffffffffffffffffffffffc3601126103f95760443567ffffffffffffffff81116103f957610a0c610a1891369060040161099f565b602435600435336146a6565b005b919082519283825260005b848110610a645750507fffffffffffffffffffffffffffffffffffffffffffffffffffffffffffffffe0601f8460006020809697860101520116010190565b602081830181015184830182015201610a25565b906020610460928181520190610a1a565b346103f9576020807ffffffffffffffffffffffffffffffffffffffffffffffffffffffffffffffffc3601126103f957604051600091600254610acb81612fde565b80845290600190818116908115610b5c5750600114610b01575b61058c84610af581880382610333565b60405191829182610a78565b600260009081529294507f405787fa12a823e0f2b7631cc41b3ba8828b3321ca811111fa75cd3aa3bb5ace5b828410610b49575050508161058c93610af59282010193610ae5565b8054858501870152928501928101610b2d565b7fffffffffffffffffffffffffffffffffffffffffffffffffffffffffffffff0016858501525050151560051b8201019150610af58161058c610ae5565b7ffffffffffffffffffffffffffffffffffffffffffffffffffffffffffffffffc60609101126103f95760043560ff811681036103f9579060243560ff811681036103f9579060443560ff811681036103f95790565b346103f95760ff610ca57fffffffffffffffffff0000ffffffffffffffffffffffffffffffffffffffffff75ff00000000000000000000000000000000000000000076ff00000000000000000000000000000000000000000000610c5336610b9a565b9591610c60979197612f8d565b6004547fffffffffffffffffffffff00ffffffffffffffffffffffffffffffffffffffff16911660a01b74ff0000000000000000000000000000000000000000161790565b9360b01b169360a81b1691161717600455600080f35b346103f95760207ffffffffffffffffffffffffffffffffffffffffffffffffffffffffffffffffc3601126103f95773ffffffffffffffffffffffffffffffffffffffff610d07610590565b1660005260086020526040600020805461058c60026001840154930154604051938493846040919493926060820195825260208201520152565b346103f95760407ffffffffffffffffffffffffffffffffffffffffffffffffffffffffffffffffc3601126103f95773ffffffffffffffffffffffffffffffffffffffff610d8d610590565b16600052600b6020526040600020602435600052602052604060002060ff60028254920154169061058c60405192839283909291602090604083019483521515910152565b60208082019080835283518092528060408094019401926000905b838210610dfc57505050505090565b84518051875280840151878501528082015173ffffffffffffffffffffffffffffffffffffffff16878301526060808201511515908801526080808201519088015260a0808201519088015260c0808201519088015260e090810151908701526101009095019493820193600190910190610ded565b346103f9576020807ffffffffffffffffffffffffffffffffffffffffffffffffffffffffffffffffc3601126103f95760043567ffffffffffffffff81116103f957610ec290369060040161039b565b90815191610ecf83610383565b917fffffffffffffffffffffffffffffffffffffffffffffffffffffffffffffffe0610f0b604095610f0387519687610333565b808652610383565b0160005b818110610f665750505060005b8151811015610f595780610f39610525610514610f54948661314a565b610f43828661314a565b52610f4e818561314a565b506130e9565b610f1c565b83518061058c8582610dd2565b82908651610f73816102d9565b600081526000838201526000888201526000606082015260006080820152600060a0820152600060c0820152600060e082015282828801015201610f0f565b346103f95760007ffffffffffffffffffffffffffffffffffffffffffffffffffffffffffffffffc3601126103f957602060ff60045460b01c16604051908152f35b346103f95760a07ffffffffffffffffffffffffffffffffffffffffffffffffffffffffffffffffc3601126103f95761102b610590565b6110336105b3565b906044359167ffffffffffffffff908184116103f9576110586004943690860161039b565b906064358381116103f957611070903690870161039b565b926084359081116103f957611088903690870161099f565b9373ffffffffffffffffffffffffffffffffffffffff80821690338214158061117b575b611128578316156110f757156110c657610a189550613568565b6024866000604051917f01a83514000000000000000000000000000000000000000000000000000000008352820152fd5b6024876000604051917f57f447ce000000000000000000000000000000000000000000000000000000008352820152fd5b604080517fe237d92200000000000000000000000000000000000000000000000000000000815233818b0190815273ffffffffffffffffffffffffffffffffffffffff8616602082015290918291010390fd5b5081600052600160205260ff6111b53360406000209073ffffffffffffffffffffffffffffffffffffffff16600052602052604060002090565b5416156110ac565b346103f95760007ffffffffffffffffffffffffffffffffffffffffffffffffffffffffffffffffc3601126103f95760206040517fffffffffffffffffffffffffffffffffffffffffffffffffffffffffffffffff8152f35b346103f95760207ffffffffffffffffffffffffffffffffffffffffffffffffffffffffffffffffc3601126103f9576004356000526007602052604060002080549061058c6001820154916002810154906003810154600482015490600660058401549301549360405197889773ffffffffffffffffffffffffffffffffffffffff60ff8460a01c1693169189949160e0969373ffffffffffffffffffffffffffffffffffffffff919a999895929a61010088019b8852602088015216604086015215156060850152608084015260a083015260c08201520152565b346103f95760607ffffffffffffffffffffffffffffffffffffffffffffffffffffffffffffffffc3601126103f95761137d61132c610590565b73ffffffffffffffffffffffffffffffffffffffff6113496105b3565b9116600052600a60205260406000209073ffffffffffffffffffffffffffffffffffffffff16600052602052604060002090565b604435600052602052604060002060ff60018254920154169061058c60405192839283909291602090604083019483521515910152565b346103f95760007ffffffffffffffffffffffffffffffffffffffffffffffffffffffffffffffffc3601126103f957602060ff60045460b81c16604051908152f35b346103f95760407ffffffffffffffffffffffffffffffffffffffffffffffffffffffffffffffffc3601126103f95773ffffffffffffffffffffffffffffffffffffffff80611443610590565b166000526020600b815260406000206024356000528152600161146b81604060002001613c69565b926040519280840190808552855180925280604086019601926000905b8382106114955786880387f35b845181168852968201969382019390850190611488565b346103f95760007ffffffffffffffffffffffffffffffffffffffffffffffffffffffffffffffffc3601126103f957602073ffffffffffffffffffffffffffffffffffffffff60045416604051908152f35b346103f95760407ffffffffffffffffffffffffffffffffffffffffffffffffffffffffffffffffc3601126103f95760043567ffffffffffffffff8082116103f957366023830112156103f957816004013561155981610383565b926115676040519485610333565b81845260209160248386019160051b830101913683116103f957602401905b8282106115bf57856024358681116103f95761058c916115ad6115b392369060040161039b565b90613163565b60405191829182610497565b8380916115cb846105d6565b815201910190611586565b346103f9576000807ffffffffffffffffffffffffffffffffffffffffffffffffffffffffffffffffc3601126116755761160e612f8d565b8073ffffffffffffffffffffffffffffffffffffffff6003547fffffffffffffffffffffffff00000000000000000000000000000000000000008116600355167f8be0079c531659141344cd1fd0a4f28419497f9722a3daafe3b4186f6b6457e08280a380f35b80fd5b346103f95760407ffffffffffffffffffffffffffffffffffffffffffffffffffffffffffffffffc3601126103f95767ffffffffffffffff6004358181116103f9576116c890369060040161039b565b906024359081116103f9576116e190369060040161039b565b331561170057610a189160006040516116f981610317565b52336131f9565b60246040517f01a8351400000000000000000000000000000000000000000000000000000000815260006004820152fd5b346103f95760007ffffffffffffffffffffffffffffffffffffffffffffffffffffffffffffffffc3601126103f957602073ffffffffffffffffffffffffffffffffffffffff60035416604051908152f35b346103f95760607ffffffffffffffffffffffffffffffffffffffffffffffffffffffffffffffffc3601126103f95760206117c5604435602435600435613e70565b604051908152f35b346103f95760207ffffffffffffffffffffffffffffffffffffffffffffffffffffffffffffffffc3601126103f95773ffffffffffffffffffffffffffffffffffffffff611819610590565b1660005260086020526040600020604051611833816102fb565b61058c6040835492838152600260018601549586602084015201549182910152604051938493846040919493926060820195825260208201520152565b346103f95761ff0061188136610b9a565b61188d93919293612f8d565b7fffffffffffffffffffffffffffffffffffffffffffffffffffffffffff00000060ff62ff00006006549360101b1695169116179160081b161717600655600080f35b346103f95760207ffffffffffffffffffffffffffffffffffffffffffffffffffffffffffffffffc3601126103f95773ffffffffffffffffffffffffffffffffffffffff61191c610590565b611924612f8d565b167fffffffffffffffffffffffff00000000000000000000000000000000000000006004541617600455600080f35b6044359081151582036103f957565b346103f95760407ffffffffffffffffffffffffffffffffffffffffffffffffffffffffffffffffc3601126103f957611999610590565b60243590811515908183036103f95773ffffffffffffffffffffffffffffffffffffffff8116928315611a5e57611a00611a309233600052600160205260406000209073ffffffffffffffffffffffffffffffffffffffff16600052602052604060002090565b9060ff7fffffffffffffffffffffffffffffffffffffffffffffffffffffffffffffff0083541691151516179055565b6040519081527f17307eab39ab6107e8899845ad3d59bd9653f200f220920489ca2b5937696c3160203392a3005b60246040517fced3e10000000000000000000000000000000000000000000000000000000000815260006004820152fd5b346103f95760407ffffffffffffffffffffffffffffffffffffffffffffffffffffffffffffffffc3601126103f957610a18611ac9610590565b6024359061424e565b346103f95760607ffffffffffffffffffffffffffffffffffffffffffffffffffffffffffffffffc3601126103f957602435600435611b0f611953565b6006611b25836000526007602052604060002090565b0154611c0c57611c077f2a6ac6014fb9ac562e49a217a307e224bc04bf37f3b004677735bbff991ce72091611b63611b5e6005546130e9565b600555565b611bbe600554611b71610374565b86815260208101919091523360408201528215156060820152866080820152600060a0820152600060c0820152600160e0820152611bb9866000526007602052604060002090565b614580565b611bd3600554611bcc613893565b903361465a565b336000908152600860205260409020611bec81546130e9565b90556040805195865290151560208601523394918291820190565b0390a3005b6040517f69d71ce500000000000000000000000000000000000000000000000000000000815260048101839052602490fd5b346103f95760407ffffffffffffffffffffffffffffffffffffffffffffffffffffffffffffffffc3601126103f957610a18602435600435336147aa565b346103f95760607ffffffffffffffffffffffffffffffffffffffffffffffffffffffffffffffffc3601126103f95767ffffffffffffffff6004358181116103f957611ccc90369060040161039b565b906024358181116103f957611ce590369060040161039b565b906044359081116103f957611cfe90369060040161099f565b903315611d0f57610a1892336133d8565b60246040517f57f447ce00000000000000000000000000000000000000000000000000000000815260006004820152fd5b6040807ffffffffffffffffffffffffffffffffffffffffffffffffffffffffffffffffc3601126103f9576004803560243591611d87826000526007602052604060002090565b93600285019485549573ffffffffffffffffffffffffffffffffffffffff87169687156121f75760a01c60ff16156121b95786331461218357611f5d96611f5d91611df0611dea611de160065463ffffffff9060181c1690565b63ffffffff1690565b43613e37565b9182612103575b50611eb4611e7883611e69611e2c3373ffffffffffffffffffffffffffffffffffffffff16600052600a602052604060002090565b855473ffffffffffffffffffffffffffffffffffffffff165b73ffffffffffffffffffffffffffffffffffffffff16600052602052604060002090565b90600052602052604060002090565b611e8c8154611e868c613dc6565b906137ca565b8091558333611eaf855473ffffffffffffffffffffffffffffffffffffffff1690565b614053565b611f03611efe611ed8835473ffffffffffffffffffffffffffffffffffffffff1690565b73ffffffffffffffffffffffffffffffffffffffff166000526008602052604060002090565b613cce565b95611f4989611f62611f4f60038901549a8a611f2760068c019586549e8f90613e70565b9582611f3f60208995019384519201918251906146f7565b92519051906137ca565b90614725565b98909e8f90838b94976137ca565b6137ca565b988934106120c1578b611f74916137ca565b90556000808080809e8180808093611fa08b5473ffffffffffffffffffffffffffffffffffffffff1690565b5af194611fab6138a6565b50875473ffffffffffffffffffffffffffffffffffffffff165af190611fcf6138a6565b50159081156120b8575b5061209157507f8fccfe372405954c8e1283918d67d52c901db69d2458fb3588c9491d6da7b093959361208b959361206261205a61207695611e696120346001975473ffffffffffffffffffffffffffffffffffffffff1690565b73ffffffffffffffffffffffffffffffffffffffff16600052600b602052604060002090565b9182546137ca565b905501548761206f613893565b91336146a6565b51948552602085015233939081906040820190565b0390a380f35b85517f24a8ac13000000000000000000000000000000000000000000000000000000008152fd5b90501538611fd9565b88517fd066786900000000000000000000000000000000000000000000000000000000815233818601908152602081018d905234604082015281906060010390fd5b61213c600291611e6961211586613d8c565b9173ffffffffffffffffffffffffffffffffffffffff16600052600b602052604060002090565b0161214f61214b825460ff1690565b1590565b15611df75780547fffffffffffffffffffffffffffffffffffffffffffffffffffffffffffffff0016600117905538611df7565b5050517f69d71ce50000000000000000000000000000000000000000000000000000000081529081019182529081906020010390fd5b5050517f18c1febf00000000000000000000000000000000000000000000000000000000815233918101918252602082019290925281906040010390fd5b505090517f69d71ce5000000000000000000000000000000000000000000000000000000008152918201928352509081906020010390fd5b346103f95760407ffffffffffffffffffffffffffffffffffffffffffffffffffffffffffffffffc3601126103f95760048035906024359060038210156103f957612284836000526007602052604060002090565b600280820190815493600160ff8660a01c16151514612678576122a686612b8d565b851561263b5773ffffffffffffffffffffffffffffffffffffffff809516903382146125fe576122f68273ffffffffffffffffffffffffffffffffffffffff166000526008602052604060002090565b9161232f6123288a611e693373ffffffffffffffffffffffffffffffffffffffff166000526009602052604060002090565b5460ff1690565b9061233982612b8d565b811515806125e3575b6125a55791612491979593916123f68694610a189c9997612372611dea611de160065463ffffffff9060181c1690565b918261254b575b50506123c981611e696123ac3373ffffffffffffffffffffffffffffffffffffffff16600052600a602052604060002090565b8a5473ffffffffffffffffffffffffffffffffffffffff16611e45565b906123d482546130e9565b80925533611eaf895473ffffffffffffffffffffffffffffffffffffffff1690565b6123ff8a612b8d565b60018a036124ba5794600591848761241961245499612b8d565b14612496575b500161242b81546130e9565b90550161243881546130e9565b90555473ffffffffffffffffffffffffffffffffffffffff1690565b1633827f0f4350ab19f9ce309a3a6602ee41a7e87d7e70da42bac2bec03750a0e9990295600080a45b336000908152600960205260409020611e69565b613faf565b81016124a28154613f84565b9055600183016124b28154613f84565b90553861241f565b92946124c58a612b8d565b858a146124d9575b5050505050505061247d565b6124fb956001856124ea8297612b8d565b1461252f57500161242b81546130e9565b1633827fbb855693349364057d3f5bfed9236334c04a7458f3a270f18a0c373f909b87f2600080a4388080808080806124cd565b6005820161253d8154613f84565b905583016124b28154613f84565b61255b90611e6961211585613d8c565b0161256a61214b825460ff1690565b612576575b8690612379565b80547fffffffffffffffffffffffffffffffffffffffffffffffffffffffffffffff001660011790553861256f565b604080517fcd7f7b9500000000000000000000000000000000000000000000000000000000815233818601908152602081018d905290918291010390fd5b506125ed89612b8d565b6125f682612b8d565b888214612342565b604080517f8a0ffdbe00000000000000000000000000000000000000000000000000000000815233928101928352602083018a9052918291010390fd5b604080517f8a0ffdbe0000000000000000000000000000000000000000000000000000000081523392810192835260208301899052918291010390fd5b604080517f51e6df220000000000000000000000000000000000000000000000000000000081523392810192835260208301899052918291010390fd5b346103f95760007ffffffffffffffffffffffffffffffffffffffffffffffffffffffffffffffffc3601126103f957602060ff60045460a01c16604051908152f35b346103f9576040807ffffffffffffffffffffffffffffffffffffffffffffffffffffffffffffffffc3601126103f957600490813560243591612744826000526007602052604060002090565b906002820180549573ffffffffffffffffffffffffffffffffffffffff8716968715612abf5760a01c60ff1615612a8257863314612a4e5760018401918661278d845433613031565b10612a0b576127ab611dea611de160065463ffffffff9060181c1690565b97886129b6575b50805473ffffffffffffffffffffffffffffffffffffffff16946127f68673ffffffffffffffffffffffffffffffffffffffff166000526008602052604060002090565b6127ff90613cce565b9060038101549060060190898083549061281891613db9565b61282192613e70565b918260208201918883519101908151612839916146f7565b92519051612846916137ca565b61284f92614725565b8161285f849e9396948395613db9565b9061286991613db9565b9061287391613db9565b9861289e9073ffffffffffffffffffffffffffffffffffffffff16600052600b602052604060002090565b600091825260205260409020908154906128b7916137ca565b9055888154906128c691613db9565b905560008080809b8180808080988b546128f39073ffffffffffffffffffffffffffffffffffffffff1690565b5af1956128fe6138a6565b505473ffffffffffffffffffffffffffffffffffffffff165af1906129216138a6565b508880808089335af1906129336138a6565b50159182156129ad575b5081156129a4575b5061297d57509161208b91612076867fb78a347f67e60e77f52aa2a212347075651ba0dbe890c6ca751c2aab5cf45d3d9554336147aa565b82517f24a8ac13000000000000000000000000000000000000000000000000000000008152fd5b90501538612945565b1591503861293d565b6129c8600291611e696121158c613d8c565b016129d761214b825460ff1690565b156127b25780547fffffffffffffffffffffffffffffffffffffffffffffffffffffffffffffff00166001179055386127b2565b83517f380dfc4200000000000000000000000000000000000000000000000000000000815233818401908152602081018890526040810189905281906060010390fd5b82517f69d71ce500000000000000000000000000000000000000000000000000000000815290810185815281906020010390fd5b82517f18c1febf00000000000000000000000000000000000000000000000000000000815233918101918252602082018690529081906040010390fd5b83517f69d71ce500000000000000000000000000000000000000000000000000000000815280830187815281906020010390fd5b346103f95760407ffffffffffffffffffffffffffffffffffffffffffffffffffffffffffffffffc3601126103f957602060ff612b81612b31610590565b73ffffffffffffffffffffffffffffffffffffffff612b4e6105b3565b91166000526001845260406000209073ffffffffffffffffffffffffffffffffffffffff16600052602052604060002090565b54166040519015158152f35b60031115612b9757565b7f4e487b7100000000000000000000000000000000000000000000000000000000600052602160045260246000fd5b346103f95760407ffffffffffffffffffffffffffffffffffffffffffffffffffffffffffffffffc3601126103f95773ffffffffffffffffffffffffffffffffffffffff612c12610590565b166000908152600960205260408120602435825260205260ff604082205416604051906003811015612c4657602092508152f35b6024837f4e487b710000000000000000000000000000000000000000000000000000000081526021600452fd5b346103f95760007ffffffffffffffffffffffffffffffffffffffffffffffffffffffffffffffffc3601126103f957602060ff60045460a81c16604051908152f35b346103f957612cc3366103fe565b90612cce815161306b565b91600060045460ff8160a81c169260ff808360a01c169260b81c16925b855181101561057e57806105696105628761055c6105566105518a61054c8b8f612d21610525610514612d4a9e6105469461314a565b8d61053f8d612d4460e06080860151950151612d3d838661314a565b5190613db9565b9261314a565b612ceb565b346103f95760a07ffffffffffffffffffffffffffffffffffffffffffffffffffffffffffffffffc3601126103f957612d86610590565b612d8e6105b3565b60843567ffffffffffffffff81116103f957612dae90369060040161099f565b9073ffffffffffffffffffffffffffffffffffffffff808416903382141580612e69575b612e1c57821615611d0f571561170057610a1892612e146064356044359160405192600184526020840152604083019160018352606084015260808301604052565b929091613568565b6040517fe237d92200000000000000000000000000000000000000000000000000000000815233600482015273ffffffffffffffffffffffffffffffffffffffff86166024820152604490fd5b5081600052600160205260ff612ea33360406000209073ffffffffffffffffffffffffffffffffffffffff16600052602052604060002090565b541615612dd2565b346103f95760207ffffffffffffffffffffffffffffffffffffffffffffffffffffffffffffffffc3601126103f957612ee2610590565b612eea612f8d565b73ffffffffffffffffffffffffffffffffffffffff809116908115612f5c57600354827fffffffffffffffffffffffff0000000000000000000000000000000000000000821617600355167f8be0079c531659141344cd1fd0a4f28419497f9722a3daafe3b4186f6b6457e0600080a3005b60246040517f1e4fbdf700000000000000000000000000000000000000000000000000000000815260006004820152fd5b73ffffffffffffffffffffffffffffffffffffffff600354163303612fae57565b60246040517f118cdaa7000000000000000000000000000000000000000000000000000000008152336004820152fd5b90600182811c92168015613027575b6020831014612ff857565b7f4e487b7100000000000000000000000000000000000000000000000000000000600052602260045260246000fd5b91607f1691612fed565b61306791600052600060205260406000209073ffffffffffffffffffffffffffffffffffffffff16600052602052604060002090565b5490565b9061307582610383565b6130826040519182610333565b8281527fffffffffffffffffffffffffffffffffffffffffffffffffffffffffffffffe06130b08294610383565b0190602036910137565b7f4e487b7100000000000000000000000000000000000000000000000000000000600052601160045260246000fd5b7fffffffffffffffffffffffffffffffffffffffffffffffffffffffffffffffff81146131165760010190565b6130ba565b7f4e487b7100000000000000000000000000000000000000000000000000000000600052603260045260246000fd5b805182101561315e5760209160051b010190565b61311b565b919091805183518082036131be57505061317d815161306b565b9060005b81518110156131b757806131a86131b29260051b6020808287010151918901015190613031565b610573828661314a565b613181565b5090925050565b6040517f5b05999100000000000000000000000000000000000000000000000000000000815260048101919091526024810191909152604490fd5b92919080518251908181036131be57505060005b815181101561331d578060051b6020808285010151918501015173ffffffffffffffffffffffffffffffffffffffff8716613253575b505061324e906130e9565b61320d565b6132908761326b846000526000602052604060002090565b9073ffffffffffffffffffffffffffffffffffffffff16600052602052604060002090565b548181106132c0578761326b61324e9594936132b89303936000526000602052604060002090565b559038613243565b6040517f03dee4c500000000000000000000000000000000000000000000000000000000815273ffffffffffffffffffffffffffffffffffffffff8916600482015260248101919091526044810182905260648101839052608490fd5b509060009293916001815114841461338c5760209081015191810151604080519384529183015273ffffffffffffffffffffffffffffffffffffffff929092169133917fc3d58168c5ae7397731d063d5bbf3d657854427343f4c083240f7aacaa2d0f6291819081015b0390a4565b909173ffffffffffffffffffffffffffffffffffffffff7f4a39dc06d4c0dbc64b70af90fd698a233a518aa5d07e595d983b8c0526c8f7fb9161338760405192839216953395836137d7565b9080518351908181036131be57505060005b8151811015613458578061342e9160051b84602080838701015192880101519173ffffffffffffffffffffffffffffffffffffffff8216613433575b5050506130e9565b6133ea565b61344e9161326b61205a926000526000602052604060002090565b9055388481613426565b508051919392916001036135145760208181015183820151604080519283529282015273ffffffffffffffffffffffffffffffffffffffff86169160009133917fc3d58168c5ae7397731d063d5bbf3d657854427343f4c083240f7aacaa2d0f6291a45b73ffffffffffffffffffffffffffffffffffffffff84166134de575b50505050565b805160010361350557906020806134fc9593015191015191336138d6565b388080806134d8565b61350f9333613bcb565b6134fc565b604051600073ffffffffffffffffffffffffffffffffffffffff8616917f4a39dc06d4c0dbc64b70af90fd698a233a518aa5d07e595d983b8c0526c8f7fb3391806135608888836137d7565b0390a46134bc565b9491909181518451908181036131be57505060005b82518110156136a0578060051b90602080838601015192870101518573ffffffffffffffffffffffffffffffffffffffff93848b166135f3575b6135c99482166135ce575050506130e9565b61357d565b6135e99161326b61205a926000526000602052604060002090565b9055388581613426565b91929390506136108a61326b846000526000602052604060002090565b5483811061364357918791846135c99695940361363b8d61326b856000526000602052604060002090565b5594506135b7565b6040517f03dee4c500000000000000000000000000000000000000000000000000000000815273ffffffffffffffffffffffffffffffffffffffff8c16600482015260248101919091526044810184905260648101839052608490fd5b5094919392909360018551146000146137655760208581015183820151604080519283529282015273ffffffffffffffffffffffffffffffffffffffff838116929086169133917fc3d58168c5ae7397731d063d5bbf3d657854427343f4c083240f7aacaa2d0f6291a45b73ffffffffffffffffffffffffffffffffffffffff811661372e575b5050505050565b84516001036137545760208061374a9601519201519233613a5a565b3880808080613727565b61376094919233613c19565b61374a565b60405173ffffffffffffffffffffffffffffffffffffffff90818316918516907f4a39dc06d4c0dbc64b70af90fd698a233a518aa5d07e595d983b8c0526c8f7fb3391806137b4888c836137d7565b0390a461370b565b906001820180921161311657565b9190820180921161311657565b90916137ee61046093604084526040840190610463565b916020818403910152610463565b908160209103126103f9575161046081610670565b909260a09273ffffffffffffffffffffffffffffffffffffffff610460969516835260006020840152604083015260608201528160808201520190610a1a565b919261046095949160a09473ffffffffffffffffffffffffffffffffffffffff8092168552166020840152604083015260608201528160808201520190610a1a565b604051906138a082610317565b60008252565b3d156138d1573d906138b78261078a565b916138c56040519384610333565b82523d6000602084013e565b606090565b9293919093843b6138e8575050505050565b60209161392460405194859384937ff23a6e61000000000000000000000000000000000000000000000000000000009889865260048601613811565b0381600073ffffffffffffffffffffffffffffffffffffffff88165af160009181613a2a575b506139af57826139586138a6565b80519190826139a8576040517f57f447ce00000000000000000000000000000000000000000000000000000000815273ffffffffffffffffffffffffffffffffffffffff83166004820152602490fd5b9050602001fd5b7fffffffff0000000000000000000000000000000000000000000000000000000016036139e157503880808080613727565b6040517f57f447ce00000000000000000000000000000000000000000000000000000000815273ffffffffffffffffffffffffffffffffffffffff919091166004820152602490fd5b613a4c91925060203d8111613a53575b613a448183610333565b8101906137fc565b903861394a565b503d613a3a565b939290949194853b613a6f575b505050505050565b613aab60209360405195869485947ff23a6e6100000000000000000000000000000000000000000000000000000000998a875260048701613851565b0381600073ffffffffffffffffffffffffffffffffffffffff88165af160009181613b12575b50613adf57826139586138a6565b7fffffffff0000000000000000000000000000000000000000000000000000000016036139e15750388080808080613a67565b613b2b91925060203d8111613a5357613a448183610333565b9038613ad1565b92613b6f610460959373ffffffffffffffffffffffffffffffffffffffff613b7d941686526000602087015260a0604087015260a0860190610463565b908482036060860152610463565b916080818403910152610a1a565b93906104609593613b6f91613b7d9473ffffffffffffffffffffffffffffffffffffffff809216885216602087015260a0604087015260a0860190610463565b9293919093843b613bdd575050505050565b60209161392460405194859384937fbc197c81000000000000000000000000000000000000000000000000000000009889865260048601613b32565b939290949194853b613c2d57505050505050565b613aab60209360405195869485947fbc197c8100000000000000000000000000000000000000000000000000000000998a875260048701613b8b565b9060405191828154918282526020928383019160005283600020936000905b828210613c9e5750505061038192500383610333565b855473ffffffffffffffffffffffffffffffffffffffff1684526001958601958895509381019390910190613c88565b90604051613cdb816102fb565b60406002829480548452600181015460208501520154910152565b90604051613d03816102d9565b60e0600682948054845260018101546020850152613d6760ff6002830154613d5a73ffffffffffffffffffffffffffffffffffffffff8216604089019073ffffffffffffffffffffffffffffffffffffffff169052565b60a01c1615156060860152565b60038101546080850152600481015460a0850152600581015460c08501520154910152565b907fffffffffffffffffffffffffffffffffffffffffffffffffffffffffffffffff820191821161311657565b9190820391821161311657565b908160030291600383040361311657565b908160011b917f7fffffffffffffffffffffffffffffffffffffffffffffffffffffffffffffff81160361311657565b90670de0b6b3a76400009182810292818404149015171561311657565b8181029291811591840414171561311657565b8115613e41570490565b7f4e487b7100000000000000000000000000000000000000000000000000000000600052601260045260246000fd5b9080159283600014613f0f576000935b80613f05575b15613ea6575050611e86610562613ea1610460946000613db9565b613e07565b613eaf82613d8c565b918183018093116131165761046094613f00613ef98361055c613ef4613eef88611f5d613ee9611e869c61055c6105629d613ea19d6137ca565b95613d8c565b613dd7565b6137bc565b6006900490565b613db9565b5060018114613e86565b7fffffffffffffffffffffffffffffffffffffffffffffffffffffffffffffffff820182811161311657613f57613f4884600693613e24565b61055c613ef4613eef87613d8c565b0493613e80565b60ff60649116019060ff821161311657565b9060ff8091169116019060ff821161311657565b8015613116577fffffffffffffffffffffffffffffffffffffffffffffffffffffffffffffffff0190565b906003811015612b975760ff7fffffffffffffffffffffffffffffffffffffffffffffffffffffffffffffff008354169116179055565b805482101561315e5760005260206000200190600090565b90815491680100000000000000008310156102f6578261402691600161038195018155613fe6565b90919082549060031b9173ffffffffffffffffffffffffffffffffffffffff809116831b921b1916179055565b909192600161408685611e698573ffffffffffffffffffffffffffffffffffffffff16600052600b602052604060002090565b0191825480156141165780957fffffffffffffffffffffffffffffffffffffffffffffffffffffffffffffffff9260005b8381106141235750506006546140d3915060381c60ff16610556565b8110614116576006546140eb9060381c60ff16610556565b1115918261410c575b50506140ff57505050565b6103819261402691613fe6565b11905038806140f4565b5050506103819250613ffe565b6141506141308289613fe6565b905473ffffffffffffffffffffffffffffffffffffffff9160031b1c1690565b73ffffffffffffffffffffffffffffffffffffffff808a16908216146141c95783611e698461326b6141a29473ffffffffffffffffffffffffffffffffffffffff16600052600a602052604060002090565b54858111156141bb575b506141b6906130e9565b6140b7565b9098509350876141b66141ac565b50505050505050505050565b906040516040810181811067ffffffffffffffff8211176102f657604052602060ff60018395805485520154161515910152565b90604051614216816102fb565b604060ff600283958054855261422e60018201613c69565b60208601520154161515910152565b60ff1660ff81146131165760010190565b90614295602061428e61428984611e698761326b3373ffffffffffffffffffffffffffffffffffffffff16600052600a602052604060002090565b6141d5565b0151151590565b61452c576006816142b4611dea611de1845463ffffffff9060181c1690565b11156144d7576142f06142eb83611e698673ffffffffffffffffffffffffffffffffffffffff16600052600b602052604060002090565b614209565b61432e61214b600261432686611e698973ffffffffffffffffffffffffffffffffffffffff16600052600b602052604060002090565b015460ff1690565b6144835760409283820161434561214b8251151590565b614479575b50602082019460005b8651805160ff8316908110156144205761438e6143746143a792339461314a565b5173ffffffffffffffffffffffffffffffffffffffff1690565b73ffffffffffffffffffffffffffffffffffffffff1690565b146143ba576143b59061423d565b614353565b5050506000809394506143e381936143dd610556849551925460ff9060381c1690565b90613e37565b335af16143ee6138a6565b50156143f75750565b600490517f24a8ac13000000000000000000000000000000000000000000000000000000008152fd5b505085517ffd52de3600000000000000000000000000000000000000000000000000000000815233600482015273ffffffffffffffffffffffffffffffffffffffff929092166024830152506044810191909152606490fd5b600190523861434a565b6040517ff68fd58400000000000000000000000000000000000000000000000000000000815233600482015273ffffffffffffffffffffffffffffffffffffffff8516602482015260448101849052606490fd5b506040517f858e249f00000000000000000000000000000000000000000000000000000000815233600482015273ffffffffffffffffffffffffffffffffffffffff9290921660248301526044820152606490fd5b6040517fc3ea5df500000000000000000000000000000000000000000000000000000000815233600482015273ffffffffffffffffffffffffffffffffffffffff9290921660248301526044820152606490fd5b9060e060069180518455602081015160018501556146356002850173ffffffffffffffffffffffffffffffffffffffff6040840151167fffffffffffffffffffffffff00000000000000000000000000000000000000008254161781556145ea6060840151151590565b90805490917fffffffffffffffffffffff00ffffffffffffffffffffffffffffffffffffffff90911690151560a01b74ff000000000000000000000000000000000000000016179055565b6080810151600385015560a0810151600485015560c081015160058501550151910155565b91909173ffffffffffffffffffffffffffffffffffffffff811615611d0f57610381926040519060018252602082015260408101916001835260016060830152608082016040526133d8565b9092919273ffffffffffffffffffffffffffffffffffffffff821615611d0f57610381936146f160405192600184526020840152604083019160018352606084015260808301604052565b916133d8565b906147199060ff61470e6006549482861690613e24565b9360081c1690613e24565b81039081116131165790565b929091926004549360ff91828660a81c169061474e848860a01c16968560065460101c16613e24565b10614789575b90826064614776828261476d8198614782981687613e24565b04981684613e24565b049660b81c1690613e24565b0491929190565b614799838760b01c168092613f70565b940390828211613116579093614754565b9073ffffffffffffffffffffffffffffffffffffffff82161561170057610381926147f260405192600184526020840152604083019160018352606084015260808301604052565b91600060405161480181610317565b526131f9565b601f8111614813575050565b600090600282527f405787fa12a823e0f2b7631cc41b3ba8828b3321ca811111fa75cd3aa3bb5ace906020601f850160051c8301941061486e575b601f0160051c01915b82811061486357505050565b818155600101614857565b909250829061484e56fea26469706673582212209ff332085db168396d6c9a0cefe0ad6bcb2f6084774f822fd5ef164fa2ec12ae64736f6c63430008140033",
  "linkReferences": {},
  "deployedLinkReferences": {}
}