{
  "_format": "hh-sol-artifact-1",
  "contractName": "JustFriends",
  "sourceName": "contracts/JustFriends.sol",
  "abi": [
    {
      "inputs": [
        {
          "internalType": "address",
          "name": "_protocolFeeDestination",
          "type": "address"
        },
        {
          "internalType": "uint8",
          "name": "_protocolFeePercentBase",
          "type": "uint8"
        },
        {
          "internalType": "uint8",
          "name": "_creatorFeePercentBase",
          "type": "uint8"
        },
        {
          "internalType": "uint8",
          "name": "_extraFeePercentBase",
          "type": "uint8"
        },
        {
          "internalType": "uint8",
          "name": "_loyalFanFeePercentBase",
          "type": "uint8"
        }
      ],
      "stateMutability": "nonpayable",
      "type": "constructor"
    },
    {
      "inputs": [
        {
          "internalType": "address",
          "name": "user",
          "type": "address"
        },
        {
          "internalType": "address",
          "name": "creator",
          "type": "address"
        },
        {
          "internalType": "uint256",
          "name": "periodTimestamp",
          "type": "uint256"
        }
      ],
      "name": "DuplicateClaiming",
      "type": "error"
    },
    {
      "inputs": [
        {
          "internalType": "address",
          "name": "walletAddress",
          "type": "address"
        },
        {
          "internalType": "bytes32",
          "name": "contentHash",
          "type": "bytes32"
        }
      ],
      "name": "DuplicateVoting",
      "type": "error"
    },
    {
      "inputs": [
        {
          "internalType": "address",
          "name": "sender",
          "type": "address"
        },
        {
          "internalType": "uint256",
          "name": "balance",
          "type": "uint256"
        },
        {
          "internalType": "uint256",
          "name": "needed",
          "type": "uint256"
        },
        {
          "internalType": "uint256",
          "name": "tokenId",
          "type": "uint256"
        }
      ],
      "name": "ERC1155InsufficientBalance",
      "type": "error"
    },
    {
      "inputs": [
        {
          "internalType": "address",
          "name": "approver",
          "type": "address"
        }
      ],
      "name": "ERC1155InvalidApprover",
      "type": "error"
    },
    {
      "inputs": [
        {
          "internalType": "uint256",
          "name": "idsLength",
          "type": "uint256"
        },
        {
          "internalType": "uint256",
          "name": "valuesLength",
          "type": "uint256"
        }
      ],
      "name": "ERC1155InvalidArrayLength",
      "type": "error"
    },
    {
      "inputs": [
        {
          "internalType": "address",
          "name": "operator",
          "type": "address"
        }
      ],
      "name": "ERC1155InvalidOperator",
      "type": "error"
    },
    {
      "inputs": [
        {
          "internalType": "address",
          "name": "receiver",
          "type": "address"
        }
      ],
      "name": "ERC1155InvalidReceiver",
      "type": "error"
    },
    {
      "inputs": [
        {
          "internalType": "address",
          "name": "sender",
          "type": "address"
        }
      ],
      "name": "ERC1155InvalidSender",
      "type": "error"
    },
    {
      "inputs": [
        {
          "internalType": "address",
          "name": "operator",
          "type": "address"
        },
        {
          "internalType": "address",
          "name": "owner",
          "type": "address"
        }
      ],
      "name": "ERC1155MissingApprovalForAll",
      "type": "error"
    },
    {
      "inputs": [
        {
          "internalType": "address",
          "name": "user",
          "type": "address"
        },
        {
          "internalType": "address",
          "name": "creator",
          "type": "address"
        },
        {
          "internalType": "uint256",
          "name": "periodTimestamp",
          "type": "uint256"
        }
      ],
      "name": "EarlyClaiming",
      "type": "error"
    },
    {
      "inputs": [
        {
          "internalType": "address",
          "name": "walletAddress",
          "type": "address"
        }
      ],
      "name": "ExistedCreator",
      "type": "error"
    },
    {
      "inputs": [],
      "name": "FailedFeeTransfer",
      "type": "error"
    },
    {
      "inputs": [
        {
          "internalType": "address",
          "name": "walletAddress",
          "type": "address"
        },
        {
          "internalType": "bytes32",
          "name": "contentHash",
          "type": "bytes32"
        }
      ],
      "name": "FreeContentExchange",
      "type": "error"
    },
    {
      "inputs": [
        {
          "internalType": "address",
          "name": "user",
          "type": "address"
        },
        {
          "internalType": "address",
          "name": "creator",
          "type": "address"
        },
        {
          "internalType": "uint256",
          "name": "periodTimestamp",
          "type": "uint256"
        }
      ],
      "name": "IllegalClaiming",
      "type": "error"
    },
    {
      "inputs": [
        {
          "internalType": "address",
          "name": "walletAddress",
          "type": "address"
        },
        {
          "internalType": "bytes32",
          "name": "contentHash",
          "type": "bytes32"
        },
        {
          "internalType": "uint256",
          "name": "amount",
          "type": "uint256"
        }
      ],
      "name": "InsufficientAccess",
      "type": "error"
    },
    {
      "inputs": [
        {
          "internalType": "address",
          "name": "walletAddress",
          "type": "address"
        },
        {
          "internalType": "bytes32",
          "name": "contentHash",
          "type": "bytes32"
        },
        {
          "internalType": "uint256",
          "name": "amount",
          "type": "uint256"
        }
      ],
      "name": "InsufficientPayment",
      "type": "error"
    },
    {
      "inputs": [
        {
          "internalType": "bytes32",
          "name": "contentHash",
          "type": "bytes32"
        }
      ],
      "name": "InvalidContent",
      "type": "error"
    },
    {
      "inputs": [
        {
          "internalType": "address",
          "name": "walletAddress",
          "type": "address"
        }
      ],
      "name": "InvalidCreator",
      "type": "error"
    },
    {
      "inputs": [
        {
          "internalType": "address",
          "name": "walletAddress",
          "type": "address"
        },
        {
          "internalType": "bytes32",
          "name": "contentHash",
          "type": "bytes32"
        }
      ],
      "name": "InvalidFirstPurchase",
      "type": "error"
    },
    {
      "inputs": [
        {
          "internalType": "address",
          "name": "walletAddress",
          "type": "address"
        },
        {
          "internalType": "bytes32",
          "name": "contentHash",
          "type": "bytes32"
        }
      ],
      "name": "InvalidLastSell",
      "type": "error"
    },
    {
      "inputs": [
        {
          "internalType": "address",
          "name": "walletAddress",
          "type": "address"
        },
        {
          "internalType": "bytes32",
          "name": "contentHash",
          "type": "bytes32"
        }
      ],
      "name": "InvalidVoting",
      "type": "error"
    },
    {
      "inputs": [
        {
          "internalType": "address",
          "name": "owner",
          "type": "address"
        }
      ],
      "name": "OwnableInvalidOwner",
      "type": "error"
    },
    {
      "inputs": [
        {
          "internalType": "address",
          "name": "account",
          "type": "address"
        }
      ],
      "name": "OwnableUnauthorizedAccount",
      "type": "error"
    },
    {
      "inputs": [
        {
          "internalType": "address",
          "name": "walletAddress",
          "type": "address"
        },
        {
          "internalType": "bytes32",
          "name": "contentHash",
          "type": "bytes32"
        }
      ],
      "name": "PaidContentVoting",
      "type": "error"
    },
    {
      "inputs": [
        {
          "internalType": "address",
          "name": "user",
          "type": "address"
        },
        {
          "internalType": "address",
          "name": "creator",
          "type": "address"
        },
        {
          "internalType": "uint256",
          "name": "periodTimestamp",
          "type": "uint256"
        }
      ],
      "name": "UnCloseClaiming",
      "type": "error"
    },
    {
      "anonymous": false,
      "inputs": [
        {
          "indexed": true,
          "internalType": "bytes32",
          "name": "hash",
          "type": "bytes32"
        },
        {
          "indexed": true,
          "internalType": "address",
          "name": "buyer",
          "type": "address"
        },
        {
          "indexed": false,
          "internalType": "uint256",
          "name": "amount",
          "type": "uint256"
        },
        {
          "indexed": false,
          "internalType": "uint256",
          "name": "totalPrice",
          "type": "uint256"
        }
      ],
      "name": "AccessPurchased",
      "type": "event"
    },
    {
      "anonymous": false,
      "inputs": [
        {
          "indexed": true,
          "internalType": "bytes32",
          "name": "hash",
          "type": "bytes32"
        },
        {
          "indexed": true,
          "internalType": "address",
          "name": "seller",
          "type": "address"
        },
        {
          "indexed": false,
          "internalType": "uint256",
          "name": "amount",
          "type": "uint256"
        },
        {
          "indexed": false,
          "internalType": "uint256",
          "name": "totalPrice",
          "type": "uint256"
        }
      ],
      "name": "AccessSold",
      "type": "event"
    },
    {
      "anonymous": false,
      "inputs": [
        {
          "indexed": true,
          "internalType": "address",
          "name": "account",
          "type": "address"
        },
        {
          "indexed": true,
          "internalType": "address",
          "name": "operator",
          "type": "address"
        },
        {
          "indexed": false,
          "internalType": "bool",
          "name": "approved",
          "type": "bool"
        }
      ],
      "name": "ApprovalForAll",
      "type": "event"
    },
    {
      "anonymous": false,
      "inputs": [
        {
          "indexed": true,
          "internalType": "bytes32",
          "name": "hash",
          "type": "bytes32"
        },
        {
          "indexed": true,
          "internalType": "address",
          "name": "creator",
          "type": "address"
        },
        {
          "indexed": false,
          "internalType": "uint256",
          "name": "startedPrice",
          "type": "uint256"
        },
        {
          "indexed": false,
          "internalType": "bool",
          "name": "isPaid",
          "type": "bool"
        }
      ],
      "name": "ContentCreated",
      "type": "event"
    },
    {
      "anonymous": false,
      "inputs": [
        {
          "indexed": true,
          "internalType": "bytes32",
          "name": "hash",
          "type": "bytes32"
        },
        {
          "indexed": true,
          "internalType": "address",
          "name": "account",
          "type": "address"
        },
        {
          "indexed": true,
          "internalType": "address",
          "name": "creator",
          "type": "address"
        }
      ],
      "name": "Downvoted",
      "type": "event"
    },
    {
      "anonymous": false,
      "inputs": [
        {
          "indexed": true,
          "internalType": "address",
          "name": "previousOwner",
          "type": "address"
        },
        {
          "indexed": true,
          "internalType": "address",
          "name": "newOwner",
          "type": "address"
        }
      ],
      "name": "OwnershipTransferred",
      "type": "event"
    },
    {
      "anonymous": false,
      "inputs": [
        {
          "indexed": true,
          "internalType": "address",
          "name": "operator",
          "type": "address"
        },
        {
          "indexed": true,
          "internalType": "address",
          "name": "from",
          "type": "address"
        },
        {
          "indexed": true,
          "internalType": "address",
          "name": "to",
          "type": "address"
        },
        {
          "indexed": false,
          "internalType": "uint256[]",
          "name": "ids",
          "type": "uint256[]"
        },
        {
          "indexed": false,
          "internalType": "uint256[]",
          "name": "values",
          "type": "uint256[]"
        }
      ],
      "name": "TransferBatch",
      "type": "event"
    },
    {
      "anonymous": false,
      "inputs": [
        {
          "indexed": true,
          "internalType": "address",
          "name": "operator",
          "type": "address"
        },
        {
          "indexed": true,
          "internalType": "address",
          "name": "from",
          "type": "address"
        },
        {
          "indexed": true,
          "internalType": "address",
          "name": "to",
          "type": "address"
        },
        {
          "indexed": false,
          "internalType": "uint256",
          "name": "id",
          "type": "uint256"
        },
        {
          "indexed": false,
          "internalType": "uint256",
          "name": "value",
          "type": "uint256"
        }
      ],
      "name": "TransferSingle",
      "type": "event"
    },
    {
      "anonymous": false,
      "inputs": [
        {
          "indexed": false,
          "internalType": "string",
          "name": "value",
          "type": "string"
        },
        {
          "indexed": true,
          "internalType": "uint256",
          "name": "id",
          "type": "uint256"
        }
      ],
      "name": "URI",
      "type": "event"
    },
    {
      "anonymous": false,
      "inputs": [
        {
          "indexed": true,
          "internalType": "bytes32",
          "name": "hash",
          "type": "bytes32"
        },
        {
          "indexed": true,
          "internalType": "address",
          "name": "account",
          "type": "address"
        },
        {
          "indexed": true,
          "internalType": "address",
          "name": "creator",
          "type": "address"
        }
      ],
      "name": "Upvoted",
      "type": "event"
    },
    {
      "inputs": [],
      "name": "MAX_UINT256",
      "outputs": [
        {
          "internalType": "uint256",
          "name": "",
          "type": "uint256"
        }
      ],
      "stateMutability": "view",
      "type": "function"
    },
    {
      "inputs": [
        {
          "internalType": "address",
          "name": "account",
          "type": "address"
        },
        {
          "internalType": "uint256",
          "name": "id",
          "type": "uint256"
        }
      ],
      "name": "balanceOf",
      "outputs": [
        {
          "internalType": "uint256",
          "name": "",
          "type": "uint256"
        }
      ],
      "stateMutability": "view",
      "type": "function"
    },
    {
      "inputs": [
        {
          "internalType": "address[]",
          "name": "accounts",
          "type": "address[]"
        },
        {
          "internalType": "uint256[]",
          "name": "ids",
          "type": "uint256[]"
        }
      ],
      "name": "balanceOfBatch",
      "outputs": [
        {
          "internalType": "uint256[]",
          "name": "",
          "type": "uint256[]"
        }
      ],
      "stateMutability": "view",
      "type": "function"
    },
    {
      "inputs": [
        {
          "internalType": "uint256",
          "name": "id",
          "type": "uint256"
        },
        {
          "internalType": "uint256",
          "name": "amount",
          "type": "uint256"
        }
      ],
      "name": "burn",
      "outputs": [],
      "stateMutability": "nonpayable",
      "type": "function"
    },
    {
      "inputs": [
        {
          "internalType": "uint256[]",
          "name": "ids",
          "type": "uint256[]"
        },
        {
          "internalType": "uint256[]",
          "name": "amounts",
          "type": "uint256[]"
        }
      ],
      "name": "burnBatch",
      "outputs": [],
      "stateMutability": "nonpayable",
      "type": "function"
    },
    {
      "inputs": [
        {
          "internalType": "bytes32",
          "name": "_contentHash",
          "type": "bytes32"
        },
        {
          "internalType": "uint256",
          "name": "_amount",
          "type": "uint256"
        }
      ],
      "name": "buyContentAccess",
      "outputs": [],
      "stateMutability": "payable",
      "type": "function"
    },
    {
      "inputs": [
        {
          "internalType": "address",
          "name": "_creator",
          "type": "address"
        },
        {
          "internalType": "uint256",
          "name": "_periodId",
          "type": "uint256"
        }
      ],
      "name": "claim",
      "outputs": [],
      "stateMutability": "nonpayable",
      "type": "function"
    },
    {
      "inputs": [
        {
          "internalType": "bytes32",
          "name": "",
          "type": "bytes32"
        }
      ],
      "name": "contentList",
      "outputs": [
        {
          "internalType": "bytes32",
          "name": "contentHash",
          "type": "bytes32"
        },
        {
          "internalType": "uint256",
          "name": "accessTokenId",
          "type": "uint256"
        },
        {
          "internalType": "address",
          "name": "creator",
          "type": "address"
        },
        {
          "internalType": "bool",
          "name": "isPaid",
          "type": "bool"
        },
        {
          "internalType": "uint256",
          "name": "startedPrice",
          "type": "uint256"
        },
        {
          "internalType": "uint256",
          "name": "totalUpvote",
          "type": "uint256"
        },
        {
          "internalType": "uint256",
          "name": "totalDownvote",
          "type": "uint256"
        },
        {
          "internalType": "uint256",
          "name": "totalSupply",
          "type": "uint256"
        }
      ],
      "stateMutability": "view",
      "type": "function"
    },
    {
      "inputs": [],
      "name": "creatorFeePercentBase",
      "outputs": [
        {
          "internalType": "uint8",
          "name": "",
          "type": "uint8"
        }
      ],
      "stateMutability": "view",
      "type": "function"
    },
    {
      "inputs": [
        {
          "internalType": "address",
          "name": "",
          "type": "address"
        }
      ],
      "name": "creatorList",
      "outputs": [
        {
          "internalType": "uint256",
          "name": "totalContent",
          "type": "uint256"
        },
        {
          "internalType": "uint256",
          "name": "totalUpvote",
          "type": "uint256"
        },
        {
          "internalType": "uint256",
          "name": "totalDownvote",
          "type": "uint256"
        }
      ],
      "stateMutability": "view",
      "type": "function"
    },
    {
      "inputs": [],
      "name": "extraFeePercentBase",
      "outputs": [
        {
          "internalType": "uint8",
          "name": "",
          "type": "uint8"
        }
      ],
      "stateMutability": "view",
      "type": "function"
    },
    {
      "inputs": [
        {
          "internalType": "uint256",
          "name": "_basePrice",
          "type": "uint256"
        },
        {
          "internalType": "uint256",
          "name": "_supply",
          "type": "uint256"
        },
        {
          "internalType": "uint256",
          "name": "_amount",
          "type": "uint256"
        }
      ],
      "name": "getContentPrice",
      "outputs": [
        {
          "internalType": "uint256",
          "name": "",
          "type": "uint256"
        }
      ],
      "stateMutability": "pure",
      "type": "function"
    },
    {
      "inputs": [
        {
          "internalType": "bytes32[]",
          "name": "_contentHashes",
          "type": "bytes32[]"
        }
      ],
      "name": "getContentsInfo",
      "outputs": [
        {
          "components": [
            {
              "internalType": "bytes32",
              "name": "contentHash",
              "type": "bytes32"
            },
            {
              "internalType": "uint256",
              "name": "accessTokenId",
              "type": "uint256"
            },
            {
              "internalType": "address",
              "name": "creator",
              "type": "address"
            },
            {
              "internalType": "bool",
              "name": "isPaid",
              "type": "bool"
            },
            {
              "internalType": "uint256",
              "name": "startedPrice",
              "type": "uint256"
            },
            {
              "internalType": "uint256",
              "name": "totalUpvote",
              "type": "uint256"
            },
            {
              "internalType": "uint256",
              "name": "totalDownvote",
              "type": "uint256"
            },
            {
              "internalType": "uint256",
              "name": "totalSupply",
              "type": "uint256"
            }
          ],
          "internalType": "struct JustFriendsInterface.Content[]",
          "name": "",
          "type": "tuple[]"
        }
      ],
      "stateMutability": "view",
      "type": "function"
    },
    {
      "inputs": [
        {
          "internalType": "address",
          "name": "_walletAddress",
          "type": "address"
        }
      ],
      "name": "getCreatorInfo",
      "outputs": [
        {
          "internalType": "uint256",
          "name": "",
          "type": "uint256"
        },
        {
          "internalType": "uint256",
          "name": "",
          "type": "uint256"
        },
        {
          "internalType": "uint256",
          "name": "",
          "type": "uint256"
        }
      ],
      "stateMutability": "view",
      "type": "function"
    },
    {
      "inputs": [
        {
          "internalType": "address",
          "name": "account",
          "type": "address"
        },
        {
          "internalType": "address",
          "name": "operator",
          "type": "address"
        }
      ],
      "name": "isApprovedForAll",
      "outputs": [
        {
          "internalType": "bool",
          "name": "",
          "type": "bool"
        }
      ],
      "stateMutability": "view",
      "type": "function"
    },
    {
      "inputs": [],
      "name": "loyalFanFeePercentBase",
      "outputs": [
        {
          "internalType": "uint8",
          "name": "",
          "type": "uint8"
        }
      ],
      "stateMutability": "view",
      "type": "function"
    },
    {
      "inputs": [
        {
          "internalType": "uint256",
          "name": "id",
          "type": "uint256"
        },
        {
          "internalType": "uint256",
          "name": "amount",
          "type": "uint256"
        },
        {
          "internalType": "bytes",
          "name": "data",
          "type": "bytes"
        }
      ],
      "name": "mint",
      "outputs": [],
      "stateMutability": "nonpayable",
      "type": "function"
    },
    {
      "inputs": [
        {
          "internalType": "uint256[]",
          "name": "ids",
          "type": "uint256[]"
        },
        {
          "internalType": "uint256[]",
          "name": "amounts",
          "type": "uint256[]"
        },
        {
          "internalType": "bytes",
          "name": "data",
          "type": "bytes"
        }
      ],
      "name": "mintBatch",
      "outputs": [],
      "stateMutability": "nonpayable",
      "type": "function"
    },
    {
      "inputs": [],
      "name": "owner",
      "outputs": [
        {
          "internalType": "address",
          "name": "",
          "type": "address"
        }
      ],
      "stateMutability": "view",
      "type": "function"
    },
    {
      "inputs": [
        {
          "internalType": "bytes32",
          "name": "_contentHash",
          "type": "bytes32"
        },
        {
          "internalType": "uint256",
          "name": "_startedPrice",
          "type": "uint256"
        },
        {
          "internalType": "bool",
          "name": "isPaid",
          "type": "bool"
        }
      ],
      "name": "postContent",
      "outputs": [],
      "stateMutability": "nonpayable",
      "type": "function"
    },
    {
      "inputs": [],
      "name": "protocolFeeDestination",
      "outputs": [
        {
          "internalType": "address",
          "name": "",
          "type": "address"
        }
      ],
      "stateMutability": "view",
      "type": "function"
    },
    {
      "inputs": [],
      "name": "protocolFeePercentBase",
      "outputs": [
        {
          "internalType": "uint8",
          "name": "",
          "type": "uint8"
        }
      ],
      "stateMutability": "view",
      "type": "function"
    },
    {
      "inputs": [],
      "name": "renounceOwnership",
      "outputs": [],
      "stateMutability": "nonpayable",
      "type": "function"
    },
    {
      "inputs": [
        {
          "internalType": "address",
          "name": "from",
          "type": "address"
        },
        {
          "internalType": "address",
          "name": "to",
          "type": "address"
        },
        {
          "internalType": "uint256[]",
          "name": "ids",
          "type": "uint256[]"
        },
        {
          "internalType": "uint256[]",
          "name": "values",
          "type": "uint256[]"
        },
        {
          "internalType": "bytes",
          "name": "data",
          "type": "bytes"
        }
      ],
      "name": "safeBatchTransferFrom",
      "outputs": [],
      "stateMutability": "nonpayable",
      "type": "function"
    },
    {
      "inputs": [
        {
          "internalType": "address",
          "name": "from",
          "type": "address"
        },
        {
          "internalType": "address",
          "name": "to",
          "type": "address"
        },
        {
          "internalType": "uint256",
          "name": "id",
          "type": "uint256"
        },
        {
          "internalType": "uint256",
          "name": "value",
          "type": "uint256"
        },
        {
          "internalType": "bytes",
          "name": "data",
          "type": "bytes"
        }
      ],
      "name": "safeTransferFrom",
      "outputs": [],
      "stateMutability": "nonpayable",
      "type": "function"
    },
    {
      "inputs": [
        {
          "internalType": "bytes32",
          "name": "_contentHash",
          "type": "bytes32"
        },
        {
          "internalType": "uint256",
          "name": "_amount",
          "type": "uint256"
        }
      ],
      "name": "sellContentAccess",
      "outputs": [],
      "stateMutability": "nonpayable",
      "type": "function"
    },
    {
      "inputs": [
        {
          "internalType": "address",
          "name": "operator",
          "type": "address"
        },
        {
          "internalType": "bool",
          "name": "approved",
          "type": "bool"
        }
      ],
      "name": "setApprovalForAll",
      "outputs": [],
      "stateMutability": "nonpayable",
      "type": "function"
    },
    {
      "inputs": [
        {
          "internalType": "uint8",
          "name": "_newProtocolFeePercentBase",
          "type": "uint8"
        },
        {
          "internalType": "uint8",
          "name": "_newCreatorFeePercentBase",
          "type": "uint8"
        },
        {
          "internalType": "uint8",
          "name": "_newExtraFeePercentBase",
          "type": "uint8"
        }
      ],
      "name": "setFeePercentBase",
      "outputs": [],
      "stateMutability": "nonpayable",
      "type": "function"
    },
    {
      "inputs": [
        {
          "internalType": "address",
          "name": "_newProtocolFeeDestination",
          "type": "address"
        }
      ],
      "name": "setProtocolFeeDestination",
      "outputs": [],
      "stateMutability": "nonpayable",
      "type": "function"
    },
    {
      "inputs": [
        {
          "internalType": "string",
          "name": "newURI",
          "type": "string"
        }
      ],
      "name": "setURI",
      "outputs": [],
      "stateMutability": "nonpayable",
      "type": "function"
    },
    {
      "inputs": [
        {
          "internalType": "uint8",
          "name": "_upvoteWeight",
          "type": "uint8"
        },
        {
          "internalType": "uint8",
          "name": "_downvoteWeight",
          "type": "uint8"
        },
        {
          "internalType": "uint8",
          "name": "_voteWeight",
          "type": "uint8"
        }
      ],
      "name": "setVoteWeightBase",
      "outputs": [],
      "stateMutability": "nonpayable",
      "type": "function"
    },
    {
      "inputs": [
        {
          "internalType": "bytes4",
          "name": "interfaceId",
          "type": "bytes4"
        }
      ],
      "name": "supportsInterface",
      "outputs": [
        {
          "internalType": "bool",
          "name": "",
          "type": "bool"
        }
      ],
      "stateMutability": "view",
      "type": "function"
    },
    {
      "inputs": [
        {
          "internalType": "address",
          "name": "newOwner",
          "type": "address"
        }
      ],
      "name": "transferOwnership",
      "outputs": [],
      "stateMutability": "nonpayable",
      "type": "function"
    },
    {
      "inputs": [
        {
          "internalType": "uint256",
          "name": "",
          "type": "uint256"
        }
      ],
      "name": "uri",
      "outputs": [
        {
          "internalType": "string",
          "name": "",
          "type": "string"
        }
      ],
      "stateMutability": "view",
      "type": "function"
    },
    {
      "inputs": [
        {
          "internalType": "bytes32",
          "name": "_contentHash",
          "type": "bytes32"
        },
        {
          "internalType": "enum JustFriendsInterface.VoteType",
          "name": "_voteType",
          "type": "uint8"
        }
      ],
      "name": "vote",
      "outputs": [],
      "stateMutability": "nonpayable",
      "type": "function"
    }
  ],
  "bytecode": "0x60803462000228576001600160401b0390601f6200452538819003918201601f191683019291908484118385101762000212578160a09284926040968752833981010312620002285780516001600160a01b0393908481169081900362000228576200006e602084016200022d565b906200007c8585016200022d565b9262000099608062000091606088016200022d565b96016200022d565b958051916020830190838210908211176200021257815260008092526002546001908181811c9116801562000207575b6020821014620001f357601f8111620001a9575b5050816002553315620001925760038054336001600160a01b0319821681179092559151989091167f8be0079c531659141344cd1fd0a4f28419497f9722a3daafe3b4186f6b6457e08380a3600555650186a019506466ffffffffffffff1960065416176006556004549460ff60b81b9060b81b169460018060c01b031916179060ff60a01b9060a01b16179060ff60a81b9060a81b16179060ff60b01b9060b01b1617176004556142e890816200023d8239f35b602492505190631e4fbdf760e01b82526004820152fd5b60028452601f0160051c7f405787fa12a823e0f2b7631cc41b3ba8828b3321ca811111fa75cd3aa3bb5ace908101905b818110620001e85750620000dd565b8481558201620001d9565b634e487b7160e01b84526022600452602484fd5b90607f1690620000c9565b634e487b7160e01b600052604160045260246000fd5b600080fd5b519060ff82168203620002285756fe6080604052600436101561001257600080fd5b60003560e01c8062fdd58e1461024657806301ffc9a71461024157806302fe53051461023c57806308dc9f42146102375780630e89341c146102325780630f7f49ff1461022d578063115b1570146102285780631d5593b41461022357806323bac0dd1461021e5780632eb2c2d61461021957806333a581d2146102145780633d4ac7181461020f57806340d8bbc71461020a5780634ce7957c146102055780634e1273f414610200578063715018a6146101fb57806383ca4b6f146101f65780638da5cb5b146101f157806391a6fe98146101ec57806397d5c1ac146101e75780639dd3cad3146101e2578063a10786b0146101dd578063a22cb465146101d8578063aad3ec96146101d3578063ac3744e2146101ce578063b390c0ab146101c9578063bb4351e8146101c4578063bfcfb7a7146101bf578063c9a28cb9146101ba578063ccdb635f146101b5578063de11368c146101b0578063e985e9c5146101ab578063ec17d627146101a6578063f242432a146101a15763f2fde38b1461019c57600080fd5b612858565b6126fc565b6126ba565b612620565b61222d565b6121eb565b611d73565b611906565b611842565b611804565b611698565b611655565b611528565b611496565b611436565b611393565b611349565b6112f7565b61123e565b61119c565b6110c4565b61102d565b610feb565b610f0f565b610eb6565b610ced565b610c4d565b610b99565b610a5b565b610990565b610825565b610756565b610594565b61035a565b6102b7565b6004359073ffffffffffffffffffffffffffffffffffffffff8216820361026e57565b600080fd5b6024359073ffffffffffffffffffffffffffffffffffffffff8216820361026e57565b359073ffffffffffffffffffffffffffffffffffffffff8216820361026e57565b3461026e5760407ffffffffffffffffffffffffffffffffffffffffffffffffffffffffffffffffc36011261026e5760206103276102f361024b565b6024356000526000835260406000209073ffffffffffffffffffffffffffffffffffffffff16600052602052604060002090565b54604051908152f35b7fffffffff0000000000000000000000000000000000000000000000000000000081160361026e57565b3461026e5760207ffffffffffffffffffffffffffffffffffffffffffffffffffffffffffffffffc36011261026e5760207fffffffff000000000000000000000000000000000000000000000000000000006004356103b881610330565b167fd9b67a26000000000000000000000000000000000000000000000000000000008114908115610420575b81156103f6575b506040519015158152f35b7f01ffc9a700000000000000000000000000000000000000000000000000000000915014386103eb565b7f0e89341c00000000000000000000000000000000000000000000000000000000811491506103e4565b7f4e487b7100000000000000000000000000000000000000000000000000000000600052604160045260246000fd5b6060810190811067ffffffffffffffff82111761049557604052565b61044a565b610100810190811067ffffffffffffffff82111761049557604052565b6020810190811067ffffffffffffffff82111761049557604052565b90601f7fffffffffffffffffffffffffffffffffffffffffffffffffffffffffffffffe0910116810190811067ffffffffffffffff82111761049557604052565b604051906105218261049a565b565b67ffffffffffffffff811161049557601f017fffffffffffffffffffffffffffffffffffffffffffffffffffffffffffffffe01660200190565b92919261056982610523565b9161057760405193846104d3565b82948184528183011161026e578281602093846000960137010152565b3461026e576020807ffffffffffffffffffffffffffffffffffffffffffffffffffffffffffffffffc36011261026e5767ffffffffffffffff60043581811161026e573660238201121561026e576105f690369060248160040135910161055d565b916105ff61293a565b82519182116104955761061c8261061760025461298b565b614241565b80601f83116001146106755750819260009261066a575b50507fffffffffffffffffffffffffffffffffffffffffffffffffffffffffffffffff8260011b9260031b1c191617600255600080f35b015190503880610633565b907fffffffffffffffffffffffffffffffffffffffffffffffffffffffffffffffe08316936106c660026000527f405787fa12a823e0f2b7631cc41b3ba8828b3321ca811111fa75cd3aa3bb5ace90565b926000905b86821061072057505083600195106106e9575b505050811b01600255005b01517fffffffffffffffffffffffffffffffffffffffffffffffffffffffffffffffff60f88460031b161c191690553880806106de565b806001859682949686015181550195019301906106cb565b9080601f8301121561026e578160206107539335910161055d565b90565b3461026e5760607ffffffffffffffffffffffffffffffffffffffffffffffffffffffffffffffffc36011261026e5760443567ffffffffffffffff811161026e576107a86107b4913690600401610738565b602435600435336140e0565b005b919082519283825260005b8481106108005750507fffffffffffffffffffffffffffffffffffffffffffffffffffffffffffffffe0601f8460006020809697860101520116010190565b6020818301810151848301820152016107c1565b9060206107539281815201906107b6565b3461026e576020807ffffffffffffffffffffffffffffffffffffffffffffffffffffffffffffffffc36011261026e576040516000916002546108678161298b565b808452906001908181169081156108fc57506001146108a1575b61089d84610891818803826104d3565b60405191829182610814565b0390f35b600260009081529294507f405787fa12a823e0f2b7631cc41b3ba8828b3321ca811111fa75cd3aa3bb5ace5b8284106108e9575050508161089d936108919282010193610881565b80548585018701529285019281016108cd565b7fffffffffffffffffffffffffffffffffffffffffffffffffffffffffffffff0016858501525050151560051b82010191506108918161089d610881565b7ffffffffffffffffffffffffffffffffffffffffffffffffffffffffffffffffc606091011261026e5760043560ff8116810361026e579060243560ff8116810361026e579060443560ff8116810361026e5790565b3461026e5760ff610a457fffffffffffffffffff0000ffffffffffffffffffffffffffffffffffffffffff75ff00000000000000000000000000000000000000000076ff000000000000000000000000000000000000000000006109f33661093a565b9591610a0097919761293a565b6004547fffffffffffffffffffffff00ffffffffffffffffffffffffffffffffffffffff16911660a01b74ff0000000000000000000000000000000000000000161790565b9360b01b169360a81b1691161717600455600080f35b3461026e5760207ffffffffffffffffffffffffffffffffffffffffffffffffffffffffffffffffc36011261026e5773ffffffffffffffffffffffffffffffffffffffff610aa761024b565b1660005260086020526040600020805461089d60026001840154930154604051938493846040919493926060820195825260208201520152565b67ffffffffffffffff81116104955760051b60200190565b60208082019080835283518092528060408094019401926000905b838210610b2357505050505090565b84518051875280840151878501528082015173ffffffffffffffffffffffffffffffffffffffff16878301526060808201511515908801526080808201519088015260a0808201519088015260c0808201519088015260e090810151908701526101009095019493820193600190910190610b14565b3461026e576020807ffffffffffffffffffffffffffffffffffffffffffffffffffffffffffffffffc36011261026e5760043567ffffffffffffffff811161026e573660238201121561026e57806004013590610bf582610ae1565b91610c0360405193846104d3565b80835260248484019160051b8301019136831161026e57602401905b828210610c3e5761089d610c32856136de565b60405191829182610af9565b81358152908401908401610c1f565b3461026e5760007ffffffffffffffffffffffffffffffffffffffffffffffffffffffffffffffffc36011261026e57602060ff60045460b01c16604051908152f35b81601f8201121561026e57803591610ca683610ae1565b92610cb460405194856104d3565b808452602092838086019260051b82010192831161026e578301905b828210610cde575050505090565b81358152908301908301610cd0565b3461026e5760a07ffffffffffffffffffffffffffffffffffffffffffffffffffffffffffffffffc36011261026e57610d2461024b565b610d2c610273565b906044359167ffffffffffffffff9081841161026e57610d5160049436908601610c8f565b9060643583811161026e57610d699036908701610c8f565b9260843590811161026e57610d819036908701610738565b9373ffffffffffffffffffffffffffffffffffffffff808216903382141580610e74575b610e2157831615610df05715610dbf576107b49550612f11565b6024866000604051917f01a83514000000000000000000000000000000000000000000000000000000008352820152fd5b6024876000604051917f57f447ce000000000000000000000000000000000000000000000000000000008352820152fd5b604080517fe237d92200000000000000000000000000000000000000000000000000000000815233818b0190815273ffffffffffffffffffffffffffffffffffffffff8616602082015290918291010390fd5b5081600052600160205260ff610eae3360406000209073ffffffffffffffffffffffffffffffffffffffff16600052602052604060002090565b541615610da5565b3461026e5760007ffffffffffffffffffffffffffffffffffffffffffffffffffffffffffffffffc36011261026e5760206040517fffffffffffffffffffffffffffffffffffffffffffffffffffffffffffffffff8152f35b3461026e5760207ffffffffffffffffffffffffffffffffffffffffffffffffffffffffffffffffc36011261026e576004356000526007602052604060002080549061089d6001820154916002810154906003810154600482015490600660058401549301549360405197889773ffffffffffffffffffffffffffffffffffffffff60ff8460a01c1693169189949160e0969373ffffffffffffffffffffffffffffffffffffffff919a999895929a61010088019b8852602088015216604086015215156060850152608084015260a083015260c08201520152565b3461026e5760007ffffffffffffffffffffffffffffffffffffffffffffffffffffffffffffffffc36011261026e57602060ff60045460b81c16604051908152f35b3461026e5760007ffffffffffffffffffffffffffffffffffffffffffffffffffffffffffffffffc36011261026e57602073ffffffffffffffffffffffffffffffffffffffff60045416604051908152f35b90815180825260208080930193019160005b82811061109f575050505090565b835185529381019392810192600101611091565b90602061075392818152019061107f565b3461026e5760407ffffffffffffffffffffffffffffffffffffffffffffffffffffffffffffffffc36011261026e5760043567ffffffffffffffff80821161026e573660238301121561026e57816004013561111f81610ae1565b9261112d60405194856104d3565b81845260209160248386019160051b8301019136831161026e57602401905b828210611185578560243586811161026e5761089d91611173611179923690600401610c8f565b90612ac1565b604051918291826110b3565b83809161119184610296565b81520191019061114c565b3461026e576000807ffffffffffffffffffffffffffffffffffffffffffffffffffffffffffffffffc36011261123b576111d461293a565b8073ffffffffffffffffffffffffffffffffffffffff6003547fffffffffffffffffffffffff00000000000000000000000000000000000000008116600355167f8be0079c531659141344cd1fd0a4f28419497f9722a3daafe3b4186f6b6457e08280a380f35b80fd5b3461026e5760407ffffffffffffffffffffffffffffffffffffffffffffffffffffffffffffffffc36011261026e5767ffffffffffffffff60043581811161026e5761128e903690600401610c8f565b9060243590811161026e576112a7903690600401610c8f565b33156112c6576107b49160006040516112bf816104b7565b5233612ba2565b60246040517f01a8351400000000000000000000000000000000000000000000000000000000815260006004820152fd5b3461026e5760007ffffffffffffffffffffffffffffffffffffffffffffffffffffffffffffffffc36011261026e57602073ffffffffffffffffffffffffffffffffffffffff60035416604051908152f35b3461026e5760607ffffffffffffffffffffffffffffffffffffffffffffffffffffffffffffffffc36011261026e57602061138b60443560243560043561388e565b604051908152f35b3461026e5760207ffffffffffffffffffffffffffffffffffffffffffffffffffffffffffffffffc36011261026e5773ffffffffffffffffffffffffffffffffffffffff6113df61024b565b16600052600860205260406000206040516113f981610479565b61089d6040835492838152600260018601549586602084015201549182910152604051938493846040919493926060820195825260208201520152565b3461026e5761ff006114473661093a565b6114539391929361293a565b7fffffffffffffffffffffffffffffffffffffffffffffffffffffffffff00000060ff62ff00006006549360101b1695169116179160081b161717600655600080f35b3461026e5760207ffffffffffffffffffffffffffffffffffffffffffffffffffffffffffffffffc36011261026e5773ffffffffffffffffffffffffffffffffffffffff6114e261024b565b6114ea61293a565b167fffffffffffffffffffffffff00000000000000000000000000000000000000006004541617600455600080f35b60443590811515820361026e57565b3461026e5760407ffffffffffffffffffffffffffffffffffffffffffffffffffffffffffffffffc36011261026e5761155f61024b565b602435908115159081830361026e5773ffffffffffffffffffffffffffffffffffffffff8116928315611624576115c66115f69233600052600160205260406000209073ffffffffffffffffffffffffffffffffffffffff16600052602052604060002090565b9060ff7fffffffffffffffffffffffffffffffffffffffffffffffffffffffffffffff0083541691151516179055565b6040519081527f17307eab39ab6107e8899845ad3d59bd9653f200f220920489ca2b5937696c3160203392a3005b60246040517fced3e10000000000000000000000000000000000000000000000000000000000815260006004820152fd5b3461026e5760407ffffffffffffffffffffffffffffffffffffffffffffffffffffffffffffffffc36011261026e576107b461168f61024b565b60243590613c9b565b3461026e5760607ffffffffffffffffffffffffffffffffffffffffffffffffffffffffffffffffc36011261026e576024356004356116d5611519565b60066116eb836000526007602052604060002090565b01546117d2576117cd7f2a6ac6014fb9ac562e49a217a307e224bc04bf37f3b004677735bbff991ce72091611771600554611724610514565b86815260208101919091523360408201528215156060820152866080820152600060a0820152600060c0820152600160e082015261176c866000526007602052604060002090565b613fba565b61178461177f600554612a47565b600555565b61179960055461179261324a565b9033614094565b3360009081526008602052604090206117b28154612a47565b90556040805195865290151560208601523394918291820190565b0390a3005b6040517f69d71ce500000000000000000000000000000000000000000000000000000000815260048101839052602490fd5b3461026e5760407ffffffffffffffffffffffffffffffffffffffffffffffffffffffffffffffffc36011261026e576107b4602435600435336141e4565b3461026e5760607ffffffffffffffffffffffffffffffffffffffffffffffffffffffffffffffffc36011261026e5767ffffffffffffffff60043581811161026e57611892903690600401610c8f565b9060243581811161026e576118ab903690600401610c8f565b9060443590811161026e576118c4903690600401610738565b9033156118d5576107b49233612d81565b60246040517f57f447ce00000000000000000000000000000000000000000000000000000000815260006004820152fd5b6040807ffffffffffffffffffffffffffffffffffffffffffffffffffffffffffffffffc36011261026e5760049081356024359161194e826000526007602052604060002090565b906002820191825473ffffffffffffffffffffffffffffffffffffffff8116908115611d3f5760a01c60ff1615611d03573314611ccf5784956119af6119a96119a060065463ffffffff9060181c1690565b63ffffffff1690565b43613855565b60026119dc6119bd836137d8565b336000908152600b602052604090205b90600052602052604060002090565b016119ef6119eb825460ff1690565b1590565b611ca0575b50336000908152600a60209081526040808320885473ffffffffffffffffffffffffffffffffffffffff168452825280832084845290915290208054611a3990613165565b8091553390828754611a5e9073ffffffffffffffffffffffffffffffffffffffff1690565b92611a6893613a6c565b845473ffffffffffffffffffffffffffffffffffffffff166000908152600860205260409020611a9790613620565b94600384015492600685019384549a8b611ab09261388e565b968760208201918883519101908151611ac891614131565b92519051611ad591613181565b611ade9261415f565b95909b868d611aed858d613181565b90611af791613181565b90611b0191613181565b3410611c5e578b611b1191613181565b90556000808080809e8180808093611b3d8b5473ffffffffffffffffffffffffffffffffffffffff1690565b5af194611b4861325d565b50875473ffffffffffffffffffffffffffffffffffffffff165af190611b6c61325d565b5015908115611c55575b50611c2e57507f8fccfe372405954c8e1283918d67d52c901db69d2458fb3588c9491d6da7b0939593611c289593611bff611bf7611c13956119cd611bd16001975473ffffffffffffffffffffffffffffffffffffffff1690565b73ffffffffffffffffffffffffffffffffffffffff16600052600b602052604060002090565b918254613181565b9055015487611c0c61324a565b91336140e0565b51948552602085015233939081906040820190565b0390a380f35b85517f24a8ac13000000000000000000000000000000000000000000000000000000008152fd5b90501538611b76565b88517fd066786900000000000000000000000000000000000000000000000000000000815233818601908152602081018d905234604082015281906060010390fd5b80547fffffffffffffffffffffffffffffffffffffffffffffffffffffffffffffff00166001179055386119f4565b81517f69d71ce500000000000000000000000000000000000000000000000000000000815280870185815281906020010390fd5b82517f18c1febf000000000000000000000000000000000000000000000000000000008152338189019081526020810187905281906040010390fd5b83517f69d71ce500000000000000000000000000000000000000000000000000000000815280890187815281906020010390fd5b3461026e576040807ffffffffffffffffffffffffffffffffffffffffffffffffffffffffffffffffc36011261026e576004359060243590600382101561026e57611dd0611dcb846000526007602052604060002090565b613648565b906001611de06060840151151590565b1515146121b557611df08361398f565b821561217f5780820190611e18825173ffffffffffffffffffffffffffffffffffffffff1690565b73ffffffffffffffffffffffffffffffffffffffff94908516331461214857611e86611e81611e5b855173ffffffffffffffffffffffffffffffffffffffff1690565b73ffffffffffffffffffffffffffffffffffffffff166000526008602052604060002090565b613620565b90611ebf611eb8886119cd3373ffffffffffffffffffffffffffffffffffffffff166000526009602052604060002090565b5460ff1690565b611ec88161398f565b81811515918261212b575b50506120f457600190611fdb611ef86119a96119a060065463ffffffff9060181c1690565b6002611f27611f06836137d8565b6119cd611bd18b5173ffffffffffffffffffffffffffffffffffffffff1690565b01611f366119eb825460ff1690565b6120c5575b50611fa9816119cd611f6d3373ffffffffffffffffffffffffffffffffffffffff16600052600a602052604060002090565b8a5173ffffffffffffffffffffffffffffffffffffffff1673ffffffffffffffffffffffffffffffffffffffff16600052602052604060002090565b90611fb48254612a47565b80925533611fd6895173ffffffffffffffffffffffffffffffffffffffff1690565b613a6c565b6120128161200d8a6119cd3373ffffffffffffffffffffffffffffffffffffffff166000526009602052604060002090565b6139c8565b61201b8161398f565b036120855760c061205a94016120318151613173565b90520161203e8151613173565b90525173ffffffffffffffffffffffffffffffffffffffff1690565b169033907f0f4350ab19f9ce309a3a6602ee41a7e87d7e70da42bac2bec03750a0e9990295600080a4005b6020915060a061209a94016120318151613173565b169033907fbb855693349364057d3f5bfed9236334c04a7458f3a270f18a0c373f909b87f2600080a4005b80547fffffffffffffffffffffffffffffffffffffffffffffffffffffffffffffff0016600117905538611f3b565b82517fcd7f7b9500000000000000000000000000000000000000000000000000000000815233600482015260248101889052604490fd5b9091506121378261398f565b6121408161398f565b148138611ed3565b81517f8a0ffdbe00000000000000000000000000000000000000000000000000000000815233600482015260248101879052604490fd5b517f8a0ffdbe00000000000000000000000000000000000000000000000000000000815233600482015260248101849052604490fd5b517f51e6df2200000000000000000000000000000000000000000000000000000000815233600482015260248101849052604490fd5b3461026e5760007ffffffffffffffffffffffffffffffffffffffffffffffffffffffffffffffffc36011261026e57602060ff60045460a01c16604051908152f35b3461026e576040807ffffffffffffffffffffffffffffffffffffffffffffffffffffffffffffffffc36011261026e5760049081356024359161227a826000526007602052604060002090565b906002820194855473ffffffffffffffffffffffffffffffffffffffff81169081156125ec5760a01c60ff16156125ae57331461257a576001830190856122c28354336129de565b10612536576122e06119a96119a060065463ffffffff9060181c1690565b9660026122ef6119bd8a6137d8565b016122fe6119eb825460ff1690565b612507575b50805473ffffffffffffffffffffffffffffffffffffffff16946123478673ffffffffffffffffffffffffffffffffffffffff166000526008602052604060002090565b61235090613620565b9060038101549060060190898083549061236991613805565b6123729261388e565b91826020820191888351910190815161238a91614131565b9251905161239791613181565b6123a09261415f565b816123b0849e9396948395613805565b906123ba91613805565b906123c491613805565b986123ef9073ffffffffffffffffffffffffffffffffffffffff16600052600b602052604060002090565b6000918252602052604090209081549061240891613181565b90558881549061241791613805565b905560008080809b8180808080988b546124449073ffffffffffffffffffffffffffffffffffffffff1690565b5af19561244f61325d565b505473ffffffffffffffffffffffffffffffffffffffff165af19061247261325d565b508880808089335af19061248461325d565b50159182156124fe575b5081156124f5575b506124ce575091611c2891611c13867fb78a347f67e60e77f52aa2a212347075651ba0dbe890c6ca751c2aab5cf45d3d9554336141e4565b82517f24a8ac13000000000000000000000000000000000000000000000000000000008152fd5b90501538612496565b1591503861248e565b80547fffffffffffffffffffffffffffffffffffffffffffffffffffffffffffffff0016600117905538612303565b82517f380dfc420000000000000000000000000000000000000000000000000000000081523391810191825260208201869052604082018790529081906060010390fd5b90517f69d71ce500000000000000000000000000000000000000000000000000000000815290810183815281906020010390fd5b5090517f18c1febf00000000000000000000000000000000000000000000000000000000815233918101918252602082018490529081906040010390fd5b83517f69d71ce500000000000000000000000000000000000000000000000000000000815280840187815281906020010390fd5b3461026e5760407ffffffffffffffffffffffffffffffffffffffffffffffffffffffffffffffffc36011261026e57602060ff6126ae61265e61024b565b73ffffffffffffffffffffffffffffffffffffffff61267b610273565b91166000526001845260406000209073ffffffffffffffffffffffffffffffffffffffff16600052602052604060002090565b54166040519015158152f35b3461026e5760007ffffffffffffffffffffffffffffffffffffffffffffffffffffffffffffffffc36011261026e57602060ff60045460a81c16604051908152f35b3461026e5760a07ffffffffffffffffffffffffffffffffffffffffffffffffffffffffffffffffc36011261026e5761273361024b565b61273b610273565b60843567ffffffffffffffff811161026e5761275b903690600401610738565b9073ffffffffffffffffffffffffffffffffffffffff808416903382141580612816575b6127c9578216156118d557156112c6576107b4926127c16064356044359160405192600184526020840152604083019160018352606084015260808301604052565b929091612f11565b6040517fe237d92200000000000000000000000000000000000000000000000000000000815233600482015273ffffffffffffffffffffffffffffffffffffffff86166024820152604490fd5b5081600052600160205260ff6128503360406000209073ffffffffffffffffffffffffffffffffffffffff16600052602052604060002090565b54161561277f565b3461026e5760207ffffffffffffffffffffffffffffffffffffffffffffffffffffffffffffffffc36011261026e5761288f61024b565b61289761293a565b73ffffffffffffffffffffffffffffffffffffffff80911690811561290957600354827fffffffffffffffffffffffff0000000000000000000000000000000000000000821617600355167f8be0079c531659141344cd1fd0a4f28419497f9722a3daafe3b4186f6b6457e0600080a3005b60246040517f1e4fbdf700000000000000000000000000000000000000000000000000000000815260006004820152fd5b73ffffffffffffffffffffffffffffffffffffffff60035416330361295b57565b60246040517f118cdaa7000000000000000000000000000000000000000000000000000000008152336004820152fd5b90600182811c921680156129d4575b60208310146129a557565b7f4e487b7100000000000000000000000000000000000000000000000000000000600052602260045260246000fd5b91607f169161299a565b612a1491600052600060205260406000209073ffffffffffffffffffffffffffffffffffffffff16600052602052604060002090565b5490565b7f4e487b7100000000000000000000000000000000000000000000000000000000600052601160045260246000fd5b7fffffffffffffffffffffffffffffffffffffffffffffffffffffffffffffffff8114612a745760010190565b612a18565b7f4e487b7100000000000000000000000000000000000000000000000000000000600052603260045260246000fd5b8051821015612abc5760209160051b010190565b612a79565b91909180518351808203612b675750508051907fffffffffffffffffffffffffffffffffffffffffffffffffffffffffffffffe0612b17612b0184610ae1565b93612b0f60405195866104d3565b808552610ae1565b0190602091368385013760005b8151811015612b5f5780612b4a612b5a9260051b85808287010151918a010151906129de565b612b548287612aa8565b52612a47565b612b24565b509193505050565b6040517f5b05999100000000000000000000000000000000000000000000000000000000815260048101919091526024810191909152604490fd5b9291908051825190818103612b6757505060005b8151811015612cc6578060051b6020808285010151918501015173ffffffffffffffffffffffffffffffffffffffff8716612bfc575b5050612bf790612a47565b612bb6565b612c3987612c14846000526000602052604060002090565b9073ffffffffffffffffffffffffffffffffffffffff16600052602052604060002090565b54818110612c695787612c14612bf7959493612c619303936000526000602052604060002090565b559038612bec565b6040517f03dee4c500000000000000000000000000000000000000000000000000000000815273ffffffffffffffffffffffffffffffffffffffff8916600482015260248101919091526044810182905260648101839052608490fd5b5090600092939160018151148414612d355760209081015191810151604080519384529183015273ffffffffffffffffffffffffffffffffffffffff929092169133917fc3d58168c5ae7397731d063d5bbf3d657854427343f4c083240f7aacaa2d0f6291819081015b0390a4565b909173ffffffffffffffffffffffffffffffffffffffff7f4a39dc06d4c0dbc64b70af90fd698a233a518aa5d07e595d983b8c0526c8f7fb91612d30604051928392169533958361318e565b908051835190818103612b6757505060005b8151811015612e015780612dd79160051b84602080838701015192880101519173ffffffffffffffffffffffffffffffffffffffff8216612ddc575b505050612a47565b612d93565b612df791612c14611bf7926000526000602052604060002090565b9055388481612dcf565b50805191939291600103612ebd5760208181015183820151604080519283529282015273ffffffffffffffffffffffffffffffffffffffff86169160009133917fc3d58168c5ae7397731d063d5bbf3d657854427343f4c083240f7aacaa2d0f6291a45b73ffffffffffffffffffffffffffffffffffffffff8416612e87575b50505050565b8051600103612eae5790602080612ea595930151910151913361328d565b38808080612e81565b612eb89333613582565b612ea5565b604051600073ffffffffffffffffffffffffffffffffffffffff8616917f4a39dc06d4c0dbc64b70af90fd698a233a518aa5d07e595d983b8c0526c8f7fb339180612f0988888361318e565b0390a4612e65565b949190918151845190818103612b6757505060005b8251811015613049578060051b90602080838601015192870101518573ffffffffffffffffffffffffffffffffffffffff93848b16612f9c575b612f72948216612f7757505050612a47565b612f26565b612f9291612c14611bf7926000526000602052604060002090565b9055388581612dcf565b9192939050612fb98a612c14846000526000602052604060002090565b54838110612fec5791879184612f7296959403612fe48d612c14856000526000602052604060002090565b559450612f60565b6040517f03dee4c500000000000000000000000000000000000000000000000000000000815273ffffffffffffffffffffffffffffffffffffffff8c16600482015260248101919091526044810184905260648101839052608490fd5b50949193929093600185511460001461310e5760208581015183820151604080519283529282015273ffffffffffffffffffffffffffffffffffffffff838116929086169133917fc3d58168c5ae7397731d063d5bbf3d657854427343f4c083240f7aacaa2d0f6291a45b73ffffffffffffffffffffffffffffffffffffffff81166130d7575b5050505050565b84516001036130fd576020806130f39601519201519233613411565b38808080806130d0565b613109949192336135d0565b6130f3565b60405173ffffffffffffffffffffffffffffffffffffffff90818316918516907f4a39dc06d4c0dbc64b70af90fd698a233a518aa5d07e595d983b8c0526c8f7fb33918061315d888c8361318e565b0390a46130b4565b9060038201809211612a7457565b9060018201809211612a7457565b91908201809211612a7457565b90916131a56107539360408452604084019061107f565b91602081840391015261107f565b9081602091031261026e575161075381610330565b909260a09273ffffffffffffffffffffffffffffffffffffffff6107539695168352600060208401526040830152606082015281608082015201906107b6565b919261075395949160a09473ffffffffffffffffffffffffffffffffffffffff80921685521660208401526040830152606082015281608082015201906107b6565b60405190613257826104b7565b60008252565b3d15613288573d9061326e82610523565b9161327c60405193846104d3565b82523d6000602084013e565b606090565b9293919093843b61329f575050505050565b6020916132db60405194859384937ff23a6e610000000000000000000000000000000000000000000000000000000098898652600486016131c8565b0381600073ffffffffffffffffffffffffffffffffffffffff88165af1600091816133e1575b50613366578261330f61325d565b805191908261335f576040517f57f447ce00000000000000000000000000000000000000000000000000000000815273ffffffffffffffffffffffffffffffffffffffff83166004820152602490fd5b9050602001fd5b7fffffffff000000000000000000000000000000000000000000000000000000001603613398575038808080806130d0565b6040517f57f447ce00000000000000000000000000000000000000000000000000000000815273ffffffffffffffffffffffffffffffffffffffff919091166004820152602490fd5b61340391925060203d811161340a575b6133fb81836104d3565b8101906131b3565b9038613301565b503d6133f1565b939290949194853b613426575b505050505050565b61346260209360405195869485947ff23a6e6100000000000000000000000000000000000000000000000000000000998a875260048701613208565b0381600073ffffffffffffffffffffffffffffffffffffffff88165af1600091816134c9575b50613496578261330f61325d565b7fffffffff000000000000000000000000000000000000000000000000000000001603613398575038808080808061341e565b6134e291925060203d811161340a576133fb81836104d3565b9038613488565b92613526610753959373ffffffffffffffffffffffffffffffffffffffff613534941686526000602087015260a0604087015260a086019061107f565b90848203606086015261107f565b9160808184039101526107b6565b93906107539593613526916135349473ffffffffffffffffffffffffffffffffffffffff809216885216602087015260a0604087015260a086019061107f565b9293919093843b613594575050505050565b6020916132db60405194859384937fbc197c810000000000000000000000000000000000000000000000000000000098898652600486016134e9565b939290949194853b6135e457505050505050565b61346260209360405195869485947fbc197c8100000000000000000000000000000000000000000000000000000000998a875260048701613542565b9060405161362d81610479565b60406002829480548452600181015460208501520154910152565b906040516136558161049a565b60e06006829480548452600181015460208501526136b960ff60028301546136ac73ffffffffffffffffffffffffffffffffffffffff8216604089019073ffffffffffffffffffffffffffffffffffffffff169052565b60a01c1615156060860152565b60038101546080850152600481015460a0850152600581015460c08501520154910152565b8051906136ea82610ae1565b917fffffffffffffffffffffffffffffffffffffffffffffffffffffffffffffffe061372660409261371e845196876104d3565b808652610ae1565b019060005b82811061378b5750505060005b81518110156137865780613766611dcb6137556137819486612aa8565b516000526007602052604060002090565b6137708286612aa8565b5261377b8185612aa8565b50612a47565b613738565b505090565b60209082516137998161049a565b60008152826000818301526000858301526000606083015260006080830152600060a0830152600060c0830152600060e083015282880101520161372b565b907fffffffffffffffffffffffffffffffffffffffffffffffffffffffffffffffff8201918211612a7457565b91908203918211612a7457565b908160011b917f7fffffffffffffffffffffffffffffffffffffffffffffffffffffffffffffff811603612a7457565b81810292918115918404141715612a7457565b811561385f570490565b7f4e487b7100000000000000000000000000000000000000000000000000000000600052601260045260246000fd5b9080159283600014613940576000935b80613936575b156138ca5750506138c46138bc610753936000613805565b612710900490565b90613181565b6138d3826137d8565b93818501809511612a7457818301808411612a745761392a6138c49461392461391f61391a6138bc9761391561390f613931986107539e613842565b956137d8565b613181565b613812565b613173565b90613842565b6006900490565b613805565b50600181146138a4565b7fffffffffffffffffffffffffffffffffffffffffffffffffffffffffffffffff8201828111612a745761398861397984600693613842565b61392461391f61391a876137d8565b049361389e565b6003111561399957565b7f4e487b7100000000000000000000000000000000000000000000000000000000600052602160045260246000fd5b9060038110156139995760ff7fffffffffffffffffffffffffffffffffffffffffffffffffffffffffffffff008354169116179055565b8054821015612abc5760005260206000200190600090565b90815491680100000000000000008310156104955782613a3f916001610521950181556139ff565b90919082549060031b9173ffffffffffffffffffffffffffffffffffffffff809116831b921b1916179055565b929091926001613aa0856119cd8473ffffffffffffffffffffffffffffffffffffffff16600052600b602052604060002090565b019182548015613bbe57613ab381613173565b957fffffffffffffffffffffffffffffffffffffffffffffffffffffffffffffffff9360005b838110613b0d57505050601411613b015711613af457505050565b61052192613a3f916139ff565b50506105219250613a17565b613b3a613b1a82896139ff565b905473ffffffffffffffffffffffffffffffffffffffff9160031b1c1690565b73ffffffffffffffffffffffffffffffffffffffff808a1690821614613bb257836119cd84612c14613b8c9473ffffffffffffffffffffffffffffffffffffffff16600052600a602052604060002090565b54868110613ba4575b50613b9f90612a47565b613ad9565b909850945087613b9f613b95565b50505050505050505050565b5050506105219250613a17565b906040516040810181811067ffffffffffffffff82111761049557604052602060ff60018395805485520154161515910152565b90604051613c0c81610479565b8092805482526001808201604051908192815490818452602080940192600052836000209160005b818110613c6157505050509282600292613c5460ff9560409703836104d3565b8601520154161515910152565b835473ffffffffffffffffffffffffffffffffffffffff16855293850193928201928201613c34565b60ff1660ff8114612a745760010190565b90613ce26020613cdb613cd6846119cd87612c143373ffffffffffffffffffffffffffffffffffffffff16600052600a602052604060002090565b613bcb565b0151151590565b613f665780613d006119a96119a060065463ffffffff9060181c1690565b1115613f1257613d3c613d37826119cd8573ffffffffffffffffffffffffffffffffffffffff16600052600b602052604060002090565b613bff565b613d7a6119eb6002613d72856119cd8873ffffffffffffffffffffffffffffffffffffffff16600052600b602052604060002090565b015460ff1690565b613ebd57604091828201613d916119eb8251151590565b613eb3575b50602082019360005b8551805160ff831690811015613e5a57613dda613dc0613df3923394612aa8565b5173ffffffffffffffffffffffffffffffffffffffff1690565b73ffffffffffffffffffffffffffffffffffffffff1690565b14613e0657613e0190613c8a565b613d9f565b50505060008080939450613e1d8193516014900490565b335af1613e2861325d565b5015613e315750565b600490517f24a8ac13000000000000000000000000000000000000000000000000000000008152fd5b505084517ffd52de3600000000000000000000000000000000000000000000000000000000815233600482015273ffffffffffffffffffffffffffffffffffffffff929092166024830152506044810191909152606490fd5b6001905238613d96565b506040517ff68fd58400000000000000000000000000000000000000000000000000000000815233600482015273ffffffffffffffffffffffffffffffffffffffff9290921660248301526044820152606490fd5b6040517f858e249f00000000000000000000000000000000000000000000000000000000815233600482015273ffffffffffffffffffffffffffffffffffffffff9290921660248301526044820152606490fd5b6040517fc3ea5df500000000000000000000000000000000000000000000000000000000815233600482015273ffffffffffffffffffffffffffffffffffffffff9290921660248301526044820152606490fd5b9060e0600691805184556020810151600185015561406f6002850173ffffffffffffffffffffffffffffffffffffffff6040840151167fffffffffffffffffffffffff00000000000000000000000000000000000000008254161781556140246060840151151590565b90805490917fffffffffffffffffffffff00ffffffffffffffffffffffffffffffffffffffff90911690151560a01b74ff000000000000000000000000000000000000000016179055565b6080810151600385015560a0810151600485015560c081015160058501550151910155565b91909173ffffffffffffffffffffffffffffffffffffffff8116156118d55761052192604051906001825260208201526040810191600183526001606083015260808201604052612d81565b9092919273ffffffffffffffffffffffffffffffffffffffff8216156118d5576105219361412b60405192600184526020840152604083019160018352606084015260808301604052565b91612d81565b906141539060ff6141486006549482861690613842565b9360081c1690613842565b8103908111612a745790565b929091926004549360ff91828660a81c1690614188848860a01c16968560065460101c16613842565b106141c3575b908260646141b082826141a781986141bc981687613842565b04981684613842565b049660b81c1690613842565b0491929190565b828660b01c16809101838111612a7457940390828211612a7457909361418e565b9073ffffffffffffffffffffffffffffffffffffffff8216156112c6576105219261422c60405192600184526020840152604083019160018352606084015260808301604052565b91600060405161423b816104b7565b52612ba2565b601f811161424d575050565b600090600282527f405787fa12a823e0f2b7631cc41b3ba8828b3321ca811111fa75cd3aa3bb5ace906020601f850160051c830194106142a8575b601f0160051c01915b82811061429d57505050565b818155600101614291565b909250829061428856fea2646970667358221220907bf24d044a95bb63e4211b0e4effbecdc285cae674fbe03693710df4c165ff64736f6c63430008140033",
  "linkReferences": {},
  "deployedLinkReferences": {}
}