{
  "_format": "hh-sol-artifact-1",
  "contractName": "JustFriends",
  "sourceName": "contracts/JustFriends.sol",
  "abi": [
    {
      "inputs": [
        {
          "internalType": "address",
          "name": "_protocolFeeDestination",
          "type": "address"
        },
        {
          "internalType": "uint8",
          "name": "_protocolFeePercentBase",
          "type": "uint8"
        },
        {
          "internalType": "uint8",
          "name": "_creatorFeePercentBase",
          "type": "uint8"
        },
        {
          "internalType": "uint8",
          "name": "_extraFeePercentBase",
          "type": "uint8"
        },
        {
          "internalType": "uint8",
          "name": "_loyalFanFeePercentBase",
          "type": "uint8"
        },
        {
          "internalType": "uint8",
          "name": "_loyalFanLength",
          "type": "uint8"
        }
      ],
      "stateMutability": "nonpayable",
      "type": "constructor"
    },
    {
      "inputs": [
        {
          "internalType": "address",
          "name": "user",
          "type": "address"
        },
        {
          "internalType": "address",
          "name": "creator",
          "type": "address"
        },
        {
          "internalType": "uint256",
          "name": "periodTimestamp",
          "type": "uint256"
        }
      ],
      "name": "DuplicateClaiming",
      "type": "error"
    },
    {
      "inputs": [
        {
          "internalType": "address",
          "name": "walletAddress",
          "type": "address"
        },
        {
          "internalType": "bytes32",
          "name": "contentHash",
          "type": "bytes32"
        }
      ],
      "name": "DuplicateVoting",
      "type": "error"
    },
    {
      "inputs": [
        {
          "internalType": "address",
          "name": "sender",
          "type": "address"
        },
        {
          "internalType": "uint256",
          "name": "balance",
          "type": "uint256"
        },
        {
          "internalType": "uint256",
          "name": "needed",
          "type": "uint256"
        },
        {
          "internalType": "uint256",
          "name": "tokenId",
          "type": "uint256"
        }
      ],
      "name": "ERC1155InsufficientBalance",
      "type": "error"
    },
    {
      "inputs": [
        {
          "internalType": "address",
          "name": "approver",
          "type": "address"
        }
      ],
      "name": "ERC1155InvalidApprover",
      "type": "error"
    },
    {
      "inputs": [
        {
          "internalType": "uint256",
          "name": "idsLength",
          "type": "uint256"
        },
        {
          "internalType": "uint256",
          "name": "valuesLength",
          "type": "uint256"
        }
      ],
      "name": "ERC1155InvalidArrayLength",
      "type": "error"
    },
    {
      "inputs": [
        {
          "internalType": "address",
          "name": "operator",
          "type": "address"
        }
      ],
      "name": "ERC1155InvalidOperator",
      "type": "error"
    },
    {
      "inputs": [
        {
          "internalType": "address",
          "name": "receiver",
          "type": "address"
        }
      ],
      "name": "ERC1155InvalidReceiver",
      "type": "error"
    },
    {
      "inputs": [
        {
          "internalType": "address",
          "name": "sender",
          "type": "address"
        }
      ],
      "name": "ERC1155InvalidSender",
      "type": "error"
    },
    {
      "inputs": [
        {
          "internalType": "address",
          "name": "operator",
          "type": "address"
        },
        {
          "internalType": "address",
          "name": "owner",
          "type": "address"
        }
      ],
      "name": "ERC1155MissingApprovalForAll",
      "type": "error"
    },
    {
      "inputs": [
        {
          "internalType": "address",
          "name": "user",
          "type": "address"
        },
        {
          "internalType": "address",
          "name": "creator",
          "type": "address"
        },
        {
          "internalType": "uint256",
          "name": "periodTimestamp",
          "type": "uint256"
        }
      ],
      "name": "EarlyClaiming",
      "type": "error"
    },
    {
      "inputs": [
        {
          "internalType": "address",
          "name": "walletAddress",
          "type": "address"
        }
      ],
      "name": "ExistedCreator",
      "type": "error"
    },
    {
      "inputs": [],
      "name": "FailedFeeTransfer",
      "type": "error"
    },
    {
      "inputs": [
        {
          "internalType": "address",
          "name": "walletAddress",
          "type": "address"
        },
        {
          "internalType": "bytes32",
          "name": "contentHash",
          "type": "bytes32"
        }
      ],
      "name": "FreeContentExchange",
      "type": "error"
    },
    {
      "inputs": [
        {
          "internalType": "address",
          "name": "user",
          "type": "address"
        },
        {
          "internalType": "address",
          "name": "creator",
          "type": "address"
        },
        {
          "internalType": "uint256",
          "name": "periodTimestamp",
          "type": "uint256"
        }
      ],
      "name": "IllegalClaiming",
      "type": "error"
    },
    {
      "inputs": [
        {
          "internalType": "address",
          "name": "walletAddress",
          "type": "address"
        },
        {
          "internalType": "bytes32",
          "name": "contentHash",
          "type": "bytes32"
        },
        {
          "internalType": "uint256",
          "name": "amount",
          "type": "uint256"
        }
      ],
      "name": "InsufficientAccess",
      "type": "error"
    },
    {
      "inputs": [
        {
          "internalType": "address",
          "name": "walletAddress",
          "type": "address"
        },
        {
          "internalType": "bytes32",
          "name": "contentHash",
          "type": "bytes32"
        },
        {
          "internalType": "uint256",
          "name": "amount",
          "type": "uint256"
        }
      ],
      "name": "InsufficientPayment",
      "type": "error"
    },
    {
      "inputs": [
        {
          "internalType": "bytes32",
          "name": "contentHash",
          "type": "bytes32"
        }
      ],
      "name": "InvalidContent",
      "type": "error"
    },
    {
      "inputs": [
        {
          "internalType": "address",
          "name": "walletAddress",
          "type": "address"
        }
      ],
      "name": "InvalidCreator",
      "type": "error"
    },
    {
      "inputs": [
        {
          "internalType": "address",
          "name": "walletAddress",
          "type": "address"
        },
        {
          "internalType": "bytes32",
          "name": "contentHash",
          "type": "bytes32"
        }
      ],
      "name": "InvalidFirstPurchase",
      "type": "error"
    },
    {
      "inputs": [
        {
          "internalType": "address",
          "name": "walletAddress",
          "type": "address"
        },
        {
          "internalType": "bytes32",
          "name": "contentHash",
          "type": "bytes32"
        }
      ],
      "name": "InvalidLastSell",
      "type": "error"
    },
    {
      "inputs": [
        {
          "internalType": "address",
          "name": "walletAddress",
          "type": "address"
        },
        {
          "internalType": "bytes32",
          "name": "contentHash",
          "type": "bytes32"
        }
      ],
      "name": "InvalidVoting",
      "type": "error"
    },
    {
      "inputs": [
        {
          "internalType": "address",
          "name": "owner",
          "type": "address"
        }
      ],
      "name": "OwnableInvalidOwner",
      "type": "error"
    },
    {
      "inputs": [
        {
          "internalType": "address",
          "name": "account",
          "type": "address"
        }
      ],
      "name": "OwnableUnauthorizedAccount",
      "type": "error"
    },
    {
      "inputs": [
        {
          "internalType": "address",
          "name": "walletAddress",
          "type": "address"
        },
        {
          "internalType": "bytes32",
          "name": "contentHash",
          "type": "bytes32"
        }
      ],
      "name": "PaidContentVoting",
      "type": "error"
    },
    {
      "inputs": [
        {
          "internalType": "address",
          "name": "user",
          "type": "address"
        },
        {
          "internalType": "address",
          "name": "creator",
          "type": "address"
        },
        {
          "internalType": "uint256",
          "name": "periodTimestamp",
          "type": "uint256"
        }
      ],
      "name": "UnCloseClaiming",
      "type": "error"
    },
    {
      "anonymous": false,
      "inputs": [
        {
          "indexed": true,
          "internalType": "bytes32",
          "name": "hash",
          "type": "bytes32"
        },
        {
          "indexed": true,
          "internalType": "address",
          "name": "buyer",
          "type": "address"
        },
        {
          "indexed": false,
          "internalType": "uint256",
          "name": "amount",
          "type": "uint256"
        },
        {
          "indexed": false,
          "internalType": "uint256",
          "name": "totalPrice",
          "type": "uint256"
        }
      ],
      "name": "AccessPurchased",
      "type": "event"
    },
    {
      "anonymous": false,
      "inputs": [
        {
          "indexed": true,
          "internalType": "bytes32",
          "name": "hash",
          "type": "bytes32"
        },
        {
          "indexed": true,
          "internalType": "address",
          "name": "seller",
          "type": "address"
        },
        {
          "indexed": false,
          "internalType": "uint256",
          "name": "amount",
          "type": "uint256"
        },
        {
          "indexed": false,
          "internalType": "uint256",
          "name": "totalPrice",
          "type": "uint256"
        }
      ],
      "name": "AccessSold",
      "type": "event"
    },
    {
      "anonymous": false,
      "inputs": [
        {
          "indexed": true,
          "internalType": "address",
          "name": "account",
          "type": "address"
        },
        {
          "indexed": true,
          "internalType": "address",
          "name": "operator",
          "type": "address"
        },
        {
          "indexed": false,
          "internalType": "bool",
          "name": "approved",
          "type": "bool"
        }
      ],
      "name": "ApprovalForAll",
      "type": "event"
    },
    {
      "anonymous": false,
      "inputs": [
        {
          "indexed": true,
          "internalType": "bytes32",
          "name": "hash",
          "type": "bytes32"
        },
        {
          "indexed": true,
          "internalType": "address",
          "name": "creator",
          "type": "address"
        },
        {
          "indexed": false,
          "internalType": "uint256",
          "name": "startedPrice",
          "type": "uint256"
        },
        {
          "indexed": false,
          "internalType": "bool",
          "name": "isPaid",
          "type": "bool"
        }
      ],
      "name": "ContentCreated",
      "type": "event"
    },
    {
      "anonymous": false,
      "inputs": [
        {
          "indexed": true,
          "internalType": "bytes32",
          "name": "hash",
          "type": "bytes32"
        },
        {
          "indexed": true,
          "internalType": "address",
          "name": "account",
          "type": "address"
        },
        {
          "indexed": true,
          "internalType": "address",
          "name": "creator",
          "type": "address"
        }
      ],
      "name": "Downvoted",
      "type": "event"
    },
    {
      "anonymous": false,
      "inputs": [
        {
          "indexed": true,
          "internalType": "address",
          "name": "previousOwner",
          "type": "address"
        },
        {
          "indexed": true,
          "internalType": "address",
          "name": "newOwner",
          "type": "address"
        }
      ],
      "name": "OwnershipTransferred",
      "type": "event"
    },
    {
      "anonymous": false,
      "inputs": [
        {
          "indexed": true,
          "internalType": "address",
          "name": "operator",
          "type": "address"
        },
        {
          "indexed": true,
          "internalType": "address",
          "name": "from",
          "type": "address"
        },
        {
          "indexed": true,
          "internalType": "address",
          "name": "to",
          "type": "address"
        },
        {
          "indexed": false,
          "internalType": "uint256[]",
          "name": "ids",
          "type": "uint256[]"
        },
        {
          "indexed": false,
          "internalType": "uint256[]",
          "name": "values",
          "type": "uint256[]"
        }
      ],
      "name": "TransferBatch",
      "type": "event"
    },
    {
      "anonymous": false,
      "inputs": [
        {
          "indexed": true,
          "internalType": "address",
          "name": "operator",
          "type": "address"
        },
        {
          "indexed": true,
          "internalType": "address",
          "name": "from",
          "type": "address"
        },
        {
          "indexed": true,
          "internalType": "address",
          "name": "to",
          "type": "address"
        },
        {
          "indexed": false,
          "internalType": "uint256",
          "name": "id",
          "type": "uint256"
        },
        {
          "indexed": false,
          "internalType": "uint256",
          "name": "value",
          "type": "uint256"
        }
      ],
      "name": "TransferSingle",
      "type": "event"
    },
    {
      "anonymous": false,
      "inputs": [
        {
          "indexed": false,
          "internalType": "string",
          "name": "value",
          "type": "string"
        },
        {
          "indexed": true,
          "internalType": "uint256",
          "name": "id",
          "type": "uint256"
        }
      ],
      "name": "URI",
      "type": "event"
    },
    {
      "anonymous": false,
      "inputs": [
        {
          "indexed": true,
          "internalType": "bytes32",
          "name": "hash",
          "type": "bytes32"
        },
        {
          "indexed": true,
          "internalType": "address",
          "name": "account",
          "type": "address"
        },
        {
          "indexed": true,
          "internalType": "address",
          "name": "creator",
          "type": "address"
        }
      ],
      "name": "Upvoted",
      "type": "event"
    },
    {
      "inputs": [],
      "name": "MAX_UINT256",
      "outputs": [
        {
          "internalType": "uint256",
          "name": "",
          "type": "uint256"
        }
      ],
      "stateMutability": "view",
      "type": "function"
    },
    {
      "inputs": [
        {
          "internalType": "address",
          "name": "account",
          "type": "address"
        },
        {
          "internalType": "uint256",
          "name": "id",
          "type": "uint256"
        }
      ],
      "name": "balanceOf",
      "outputs": [
        {
          "internalType": "uint256",
          "name": "",
          "type": "uint256"
        }
      ],
      "stateMutability": "view",
      "type": "function"
    },
    {
      "inputs": [
        {
          "internalType": "address[]",
          "name": "accounts",
          "type": "address[]"
        },
        {
          "internalType": "uint256[]",
          "name": "ids",
          "type": "uint256[]"
        }
      ],
      "name": "balanceOfBatch",
      "outputs": [
        {
          "internalType": "uint256[]",
          "name": "",
          "type": "uint256[]"
        }
      ],
      "stateMutability": "view",
      "type": "function"
    },
    {
      "inputs": [
        {
          "internalType": "uint256",
          "name": "id",
          "type": "uint256"
        },
        {
          "internalType": "uint256",
          "name": "amount",
          "type": "uint256"
        }
      ],
      "name": "burn",
      "outputs": [],
      "stateMutability": "nonpayable",
      "type": "function"
    },
    {
      "inputs": [
        {
          "internalType": "uint256[]",
          "name": "ids",
          "type": "uint256[]"
        },
        {
          "internalType": "uint256[]",
          "name": "amounts",
          "type": "uint256[]"
        }
      ],
      "name": "burnBatch",
      "outputs": [],
      "stateMutability": "nonpayable",
      "type": "function"
    },
    {
      "inputs": [
        {
          "internalType": "bytes32",
          "name": "_contentHash",
          "type": "bytes32"
        },
        {
          "internalType": "uint256",
          "name": "_amount",
          "type": "uint256"
        }
      ],
      "name": "buyContentAccess",
      "outputs": [],
      "stateMutability": "payable",
      "type": "function"
    },
    {
      "inputs": [
        {
          "internalType": "address",
          "name": "_creator",
          "type": "address"
        },
        {
          "internalType": "uint256",
          "name": "_periodId",
          "type": "uint256"
        }
      ],
      "name": "claim",
      "outputs": [],
      "stateMutability": "nonpayable",
      "type": "function"
    },
    {
      "inputs": [
        {
          "internalType": "bytes32",
          "name": "",
          "type": "bytes32"
        }
      ],
      "name": "contentList",
      "outputs": [
        {
          "internalType": "bytes32",
          "name": "contentHash",
          "type": "bytes32"
        },
        {
          "internalType": "uint256",
          "name": "accessTokenId",
          "type": "uint256"
        },
        {
          "internalType": "address",
          "name": "creator",
          "type": "address"
        },
        {
          "internalType": "bool",
          "name": "isPaid",
          "type": "bool"
        },
        {
          "internalType": "uint256",
          "name": "startedPrice",
          "type": "uint256"
        },
        {
          "internalType": "uint256",
          "name": "totalUpvote",
          "type": "uint256"
        },
        {
          "internalType": "uint256",
          "name": "totalDownvote",
          "type": "uint256"
        },
        {
          "internalType": "uint256",
          "name": "totalSupply",
          "type": "uint256"
        }
      ],
      "stateMutability": "view",
      "type": "function"
    },
    {
      "inputs": [],
      "name": "creatorFeePercentBase",
      "outputs": [
        {
          "internalType": "uint8",
          "name": "",
          "type": "uint8"
        }
      ],
      "stateMutability": "view",
      "type": "function"
    },
    {
      "inputs": [
        {
          "internalType": "address",
          "name": "",
          "type": "address"
        }
      ],
      "name": "creatorList",
      "outputs": [
        {
          "internalType": "uint256",
          "name": "totalContent",
          "type": "uint256"
        },
        {
          "internalType": "uint256",
          "name": "totalUpvote",
          "type": "uint256"
        },
        {
          "internalType": "uint256",
          "name": "totalDownvote",
          "type": "uint256"
        }
      ],
      "stateMutability": "view",
      "type": "function"
    },
    {
      "inputs": [],
      "name": "extraFeePercentBase",
      "outputs": [
        {
          "internalType": "uint8",
          "name": "",
          "type": "uint8"
        }
      ],
      "stateMutability": "view",
      "type": "function"
    },
    {
      "inputs": [
        {
          "internalType": "bytes32[]",
          "name": "_contentHashes",
          "type": "bytes32[]"
        },
        {
          "internalType": "uint256[]",
          "name": "_amounts",
          "type": "uint256[]"
        }
      ],
      "name": "getBuyPrice",
      "outputs": [
        {
          "internalType": "uint256[]",
          "name": "",
          "type": "uint256[]"
        }
      ],
      "stateMutability": "view",
      "type": "function"
    },
    {
      "inputs": [
        {
          "internalType": "uint256",
          "name": "_basePrice",
          "type": "uint256"
        },
        {
          "internalType": "uint256",
          "name": "_supply",
          "type": "uint256"
        },
        {
          "internalType": "uint256",
          "name": "_amount",
          "type": "uint256"
        }
      ],
      "name": "getContentPrice",
      "outputs": [
        {
          "internalType": "uint256",
          "name": "",
          "type": "uint256"
        }
      ],
      "stateMutability": "pure",
      "type": "function"
    },
    {
      "inputs": [
        {
          "internalType": "bytes32[]",
          "name": "_contentHashes",
          "type": "bytes32[]"
        }
      ],
      "name": "getContentsInfo",
      "outputs": [
        {
          "components": [
            {
              "internalType": "bytes32",
              "name": "contentHash",
              "type": "bytes32"
            },
            {
              "internalType": "uint256",
              "name": "accessTokenId",
              "type": "uint256"
            },
            {
              "internalType": "address",
              "name": "creator",
              "type": "address"
            },
            {
              "internalType": "bool",
              "name": "isPaid",
              "type": "bool"
            },
            {
              "internalType": "uint256",
              "name": "startedPrice",
              "type": "uint256"
            },
            {
              "internalType": "uint256",
              "name": "totalUpvote",
              "type": "uint256"
            },
            {
              "internalType": "uint256",
              "name": "totalDownvote",
              "type": "uint256"
            },
            {
              "internalType": "uint256",
              "name": "totalSupply",
              "type": "uint256"
            }
          ],
          "internalType": "struct JustFriendsInterface.Content[]",
          "name": "",
          "type": "tuple[]"
        }
      ],
      "stateMutability": "view",
      "type": "function"
    },
    {
      "inputs": [
        {
          "internalType": "address",
          "name": "_walletAddress",
          "type": "address"
        }
      ],
      "name": "getCreatorInfo",
      "outputs": [
        {
          "internalType": "uint256",
          "name": "",
          "type": "uint256"
        },
        {
          "internalType": "uint256",
          "name": "",
          "type": "uint256"
        },
        {
          "internalType": "uint256",
          "name": "",
          "type": "uint256"
        }
      ],
      "stateMutability": "view",
      "type": "function"
    },
    {
      "inputs": [
        {
          "internalType": "address",
          "name": "_creator",
          "type": "address"
        },
        {
          "internalType": "uint256",
          "name": "_periodId",
          "type": "uint256"
        }
      ],
      "name": "getListLoyalty",
      "outputs": [
        {
          "internalType": "address[]",
          "name": "",
          "type": "address[]"
        }
      ],
      "stateMutability": "view",
      "type": "function"
    },
    {
      "inputs": [
        {
          "internalType": "bytes32[]",
          "name": "_contentHashes",
          "type": "bytes32[]"
        },
        {
          "internalType": "uint256[]",
          "name": "_amounts",
          "type": "uint256[]"
        }
      ],
      "name": "getSellPrice",
      "outputs": [
        {
          "internalType": "uint256[]",
          "name": "",
          "type": "uint256[]"
        }
      ],
      "stateMutability": "view",
      "type": "function"
    },
    {
      "inputs": [
        {
          "internalType": "address",
          "name": "account",
          "type": "address"
        },
        {
          "internalType": "address",
          "name": "operator",
          "type": "address"
        }
      ],
      "name": "isApprovedForAll",
      "outputs": [
        {
          "internalType": "bool",
          "name": "",
          "type": "bool"
        }
      ],
      "stateMutability": "view",
      "type": "function"
    },
    {
      "inputs": [],
      "name": "loyalFanFeePercentBase",
      "outputs": [
        {
          "internalType": "uint8",
          "name": "",
          "type": "uint8"
        }
      ],
      "stateMutability": "view",
      "type": "function"
    },
    {
      "inputs": [
        {
          "internalType": "address",
          "name": "",
          "type": "address"
        },
        {
          "internalType": "address",
          "name": "",
          "type": "address"
        },
        {
          "internalType": "uint256",
          "name": "",
          "type": "uint256"
        }
      ],
      "name": "loyalFanRecords",
      "outputs": [
        {
          "internalType": "uint256",
          "name": "loyalty",
          "type": "uint256"
        },
        {
          "internalType": "bool",
          "name": "claimed",
          "type": "bool"
        }
      ],
      "stateMutability": "view",
      "type": "function"
    },
    {
      "inputs": [
        {
          "internalType": "uint256",
          "name": "id",
          "type": "uint256"
        },
        {
          "internalType": "uint256",
          "name": "amount",
          "type": "uint256"
        },
        {
          "internalType": "bytes",
          "name": "data",
          "type": "bytes"
        }
      ],
      "name": "mint",
      "outputs": [],
      "stateMutability": "nonpayable",
      "type": "function"
    },
    {
      "inputs": [
        {
          "internalType": "uint256[]",
          "name": "ids",
          "type": "uint256[]"
        },
        {
          "internalType": "uint256[]",
          "name": "amounts",
          "type": "uint256[]"
        },
        {
          "internalType": "bytes",
          "name": "data",
          "type": "bytes"
        }
      ],
      "name": "mintBatch",
      "outputs": [],
      "stateMutability": "nonpayable",
      "type": "function"
    },
    {
      "inputs": [],
      "name": "owner",
      "outputs": [
        {
          "internalType": "address",
          "name": "",
          "type": "address"
        }
      ],
      "stateMutability": "view",
      "type": "function"
    },
    {
      "inputs": [
        {
          "internalType": "address",
          "name": "",
          "type": "address"
        },
        {
          "internalType": "uint256",
          "name": "",
          "type": "uint256"
        }
      ],
      "name": "periodList",
      "outputs": [
        {
          "internalType": "uint256",
          "name": "revenue",
          "type": "uint256"
        },
        {
          "internalType": "bool",
          "name": "isClose",
          "type": "bool"
        }
      ],
      "stateMutability": "view",
      "type": "function"
    },
    {
      "inputs": [
        {
          "internalType": "bytes32",
          "name": "_contentHash",
          "type": "bytes32"
        },
        {
          "internalType": "uint256",
          "name": "_startedPrice",
          "type": "uint256"
        },
        {
          "internalType": "bool",
          "name": "isPaid",
          "type": "bool"
        }
      ],
      "name": "postContent",
      "outputs": [],
      "stateMutability": "nonpayable",
      "type": "function"
    },
    {
      "inputs": [],
      "name": "protocolFeeDestination",
      "outputs": [
        {
          "internalType": "address",
          "name": "",
          "type": "address"
        }
      ],
      "stateMutability": "view",
      "type": "function"
    },
    {
      "inputs": [],
      "name": "protocolFeePercentBase",
      "outputs": [
        {
          "internalType": "uint8",
          "name": "",
          "type": "uint8"
        }
      ],
      "stateMutability": "view",
      "type": "function"
    },
    {
      "inputs": [],
      "name": "renounceOwnership",
      "outputs": [],
      "stateMutability": "nonpayable",
      "type": "function"
    },
    {
      "inputs": [
        {
          "internalType": "address",
          "name": "from",
          "type": "address"
        },
        {
          "internalType": "address",
          "name": "to",
          "type": "address"
        },
        {
          "internalType": "uint256[]",
          "name": "ids",
          "type": "uint256[]"
        },
        {
          "internalType": "uint256[]",
          "name": "values",
          "type": "uint256[]"
        },
        {
          "internalType": "bytes",
          "name": "data",
          "type": "bytes"
        }
      ],
      "name": "safeBatchTransferFrom",
      "outputs": [],
      "stateMutability": "nonpayable",
      "type": "function"
    },
    {
      "inputs": [
        {
          "internalType": "address",
          "name": "from",
          "type": "address"
        },
        {
          "internalType": "address",
          "name": "to",
          "type": "address"
        },
        {
          "internalType": "uint256",
          "name": "id",
          "type": "uint256"
        },
        {
          "internalType": "uint256",
          "name": "value",
          "type": "uint256"
        },
        {
          "internalType": "bytes",
          "name": "data",
          "type": "bytes"
        }
      ],
      "name": "safeTransferFrom",
      "outputs": [],
      "stateMutability": "nonpayable",
      "type": "function"
    },
    {
      "inputs": [
        {
          "internalType": "bytes32",
          "name": "_contentHash",
          "type": "bytes32"
        },
        {
          "internalType": "uint256",
          "name": "_amount",
          "type": "uint256"
        }
      ],
      "name": "sellContentAccess",
      "outputs": [],
      "stateMutability": "nonpayable",
      "type": "function"
    },
    {
      "inputs": [
        {
          "internalType": "address",
          "name": "operator",
          "type": "address"
        },
        {
          "internalType": "bool",
          "name": "approved",
          "type": "bool"
        }
      ],
      "name": "setApprovalForAll",
      "outputs": [],
      "stateMutability": "nonpayable",
      "type": "function"
    },
    {
      "inputs": [
        {
          "internalType": "uint8",
          "name": "_newProtocolFeePercentBase",
          "type": "uint8"
        },
        {
          "internalType": "uint8",
          "name": "_newCreatorFeePercentBase",
          "type": "uint8"
        },
        {
          "internalType": "uint8",
          "name": "_newExtraFeePercentBase",
          "type": "uint8"
        }
      ],
      "name": "setFeePercentBase",
      "outputs": [],
      "stateMutability": "nonpayable",
      "type": "function"
    },
    {
      "inputs": [
        {
          "internalType": "address",
          "name": "_newProtocolFeeDestination",
          "type": "address"
        }
      ],
      "name": "setProtocolFeeDestination",
      "outputs": [],
      "stateMutability": "nonpayable",
      "type": "function"
    },
    {
      "inputs": [
        {
          "internalType": "string",
          "name": "newURI",
          "type": "string"
        }
      ],
      "name": "setURI",
      "outputs": [],
      "stateMutability": "nonpayable",
      "type": "function"
    },
    {
      "inputs": [
        {
          "internalType": "uint8",
          "name": "_upvoteWeight",
          "type": "uint8"
        },
        {
          "internalType": "uint8",
          "name": "_downvoteWeight",
          "type": "uint8"
        },
        {
          "internalType": "uint8",
          "name": "_voteWeight",
          "type": "uint8"
        }
      ],
      "name": "setVoteWeightBase",
      "outputs": [],
      "stateMutability": "nonpayable",
      "type": "function"
    },
    {
      "inputs": [
        {
          "internalType": "bytes4",
          "name": "interfaceId",
          "type": "bytes4"
        }
      ],
      "name": "supportsInterface",
      "outputs": [
        {
          "internalType": "bool",
          "name": "",
          "type": "bool"
        }
      ],
      "stateMutability": "view",
      "type": "function"
    },
    {
      "inputs": [
        {
          "internalType": "address",
          "name": "newOwner",
          "type": "address"
        }
      ],
      "name": "transferOwnership",
      "outputs": [],
      "stateMutability": "nonpayable",
      "type": "function"
    },
    {
      "inputs": [
        {
          "internalType": "uint256",
          "name": "",
          "type": "uint256"
        }
      ],
      "name": "uri",
      "outputs": [
        {
          "internalType": "string",
          "name": "",
          "type": "string"
        }
      ],
      "stateMutability": "view",
      "type": "function"
    },
    {
      "inputs": [
        {
          "internalType": "address",
          "name": "",
          "type": "address"
        },
        {
          "internalType": "bytes32",
          "name": "",
          "type": "bytes32"
        }
      ],
      "name": "userReactions",
      "outputs": [
        {
          "internalType": "enum JustFriendsInterface.VoteType",
          "name": "",
          "type": "uint8"
        }
      ],
      "stateMutability": "view",
      "type": "function"
    },
    {
      "inputs": [
        {
          "internalType": "bytes32",
          "name": "_contentHash",
          "type": "bytes32"
        },
        {
          "internalType": "enum JustFriendsInterface.VoteType",
          "name": "_voteType",
          "type": "uint8"
        }
      ],
      "name": "vote",
      "outputs": [],
      "stateMutability": "nonpayable",
      "type": "function"
    }
  ],
  "bytecode": "0x6080346200024857601f62004a9938819003918201601f1916830192916001600160401b03918285118486101762000232578160c09285926040978852833981010312620002485781516001600160a01b0392838216929183900362000248576200006d602082016200024d565b6200007a8683016200024d565b62000088606084016200024d565b91620000a560a06200009d608087016200024d565b95016200024d565b8851909560208201908111828210176200023257895260008091526002546001908181811c9116801562000227575b60208210146200021357601f8111620001c9575b5050806002553315620001b25760038054336001600160a01b031982168117909255995199650186a01950649967ff000000000000009897969594939291167f8be0079c531659141344cd1fd0a4f28419497f9722a3daafe3b4186f6b6457e08380a360055560018060401b031960065416966004549460ff60b81b9060b81b169460018060c01b031916179060ff60a01b9060a01b16179060ff60a81b9060a81b16179060ff60b01b9060b01b16171760045560381b16171760065561483c90816200025d8239f35b602490895190631e4fbdf760e01b82526004820152fd5b60028352601f0160051c7f405787fa12a823e0f2b7631cc41b3ba8828b3321ca811111fa75cd3aa3bb5ace908101905b818110620002085750620000e8565b8381558201620001f9565b634e487b7160e01b83526022600452602483fd5b90607f1690620000d4565b634e487b7160e01b600052604160045260246000fd5b600080fd5b519060ff82168203620002485756fe6080604052600436101561001257600080fd5b60003560e01c80626228d9146102a5578062fdd58e146102a057806301ffc9a71461029b57806302fe53051461029657806308dc9f42146102915780630e89341c1461028c5780630f7f49ff14610287578063115b15701461028257806311f4bfde1461027d5780631d5593b41461027857806323bac0dd146102735780632eb2c2d61461026e57806333a581d2146102695780633d4ac718146102645780633f3ca6b21461025f57806340d8bbc71461025a578063485fe27f146102555780634ce7957c146102505780634e1273f41461024b578063715018a61461024657806383ca4b6f146102415780638da5cb5b1461023c57806391a6fe981461023757806397d5c1ac146102325780639dd3cad31461022d578063a10786b014610228578063a22cb46514610223578063aad3ec961461021e578063ac3744e214610219578063b390c0ab14610214578063bb4351e81461020f578063bfcfb7a71461020a578063c9a28cb914610205578063ccdb635f14610200578063de11368c146101fb578063e985e9c5146101f6578063eb183aca146101f1578063ec17d627146101ec578063ecadb26a146101e7578063f242432a146101e25763f2fde38b146101dd57600080fd5b612e5b565b612cff565b612c70565b612c2e565b612b81565b612aae565b6126b2565b612670565b61225e565b611d6f565b611cab565b611c6d565b611b01565b611abe565b611991565b6118ff565b61189f565b6117fc565b6117b2565b611760565b6116a7565b611605565b61152d565b6114db565b611425565b6113e3565b611321565b611245565b6111ec565b611023565b610fe1565b610ea1565b610d70565b610cea565b610c1f565b610ab8565b6109e9565b61082a565b6106c9565b610626565b6104e3565b7f4e487b7100000000000000000000000000000000000000000000000000000000600052604160045260246000fd5b610100810190811067ffffffffffffffff8211176102f657604052565b6102aa565b6060810190811067ffffffffffffffff8211176102f657604052565b6020810190811067ffffffffffffffff8211176102f657604052565b90601f7fffffffffffffffffffffffffffffffffffffffffffffffffffffffffffffffe0910116810190811067ffffffffffffffff8211176102f657604052565b60405190610381826102d9565b565b67ffffffffffffffff81116102f65760051b60200190565b81601f820112156103f9578035916103b283610383565b926103c06040519485610333565b808452602092838086019260051b8201019283116103f9578301905b8282106103ea575050505090565b813581529083019083016103dc565b600080fd5b9060407ffffffffffffffffffffffffffffffffffffffffffffffffffffffffffffffffc8301126103f95767ffffffffffffffff6004358181116103f957836104499160040161039b565b926024359182116103f9576104609160040161039b565b90565b90815180825260208080930193019160005b828110610483575050505090565b835185529381019392810192600101610475565b6020604081830192828152606051809452019160809160005b8281106104be575050505090565b8351855293810193928101926001016104b0565b906020610460928181520190610463565b346103f9576104f1366103fe565b6000916004549260ff8460a81c1660ff808660a01c169560b81c16915b83518110156105ae578061059a6105938861058d6105876105828961057d6105768e61055a8f6105446105a99e610555926130c3565b516000526007602052604060002090565b613caf565b9061056f8c60e06080850151940151926130c3565b5191613e29565b958b613f29565b613f29565b613f17565b60ff1690565b90613ddd565b6064900490565b6105a3826130ab565b5261304a565b61050e565b604051806105bb81610497565b0390f35b6004359073ffffffffffffffffffffffffffffffffffffffff821682036103f957565b6024359073ffffffffffffffffffffffffffffffffffffffff821682036103f957565b359073ffffffffffffffffffffffffffffffffffffffff821682036103f957565b346103f95760407ffffffffffffffffffffffffffffffffffffffffffffffffffffffffffffffffc3601126103f95760206106966106626105bf565b6024356000526000835260406000209073ffffffffffffffffffffffffffffffffffffffff16600052602052604060002090565b54604051908152f35b7fffffffff000000000000000000000000000000000000000000000000000000008116036103f957565b346103f95760207ffffffffffffffffffffffffffffffffffffffffffffffffffffffffffffffffc3601126103f95760207fffffffff000000000000000000000000000000000000000000000000000000006004356107278161069f565b167fd9b67a2600000000000000000000000000000000000000000000000000000000811490811561078f575b8115610765575b506040519015158152f35b7f01ffc9a7000000000000000000000000000000000000000000000000000000009150143861075a565b7f0e89341c0000000000000000000000000000000000000000000000000000000081149150610753565b67ffffffffffffffff81116102f657601f017fffffffffffffffffffffffffffffffffffffffffffffffffffffffffffffffe01660200190565b9291926107ff826107b9565b9161080d6040519384610333565b8294818452818301116103f9578281602093846000960137010152565b346103f9576020807ffffffffffffffffffffffffffffffffffffffffffffffffffffffffffffffffc3601126103f95767ffffffffffffffff6004358181116103f957366023820112156103f95761088c9036906024816004013591016107f3565b91610895612f3d565b82519182116102f6576108b2826108ad600254612f8e565b614795565b80601f831160011461090b57508192600092610900575b50507fffffffffffffffffffffffffffffffffffffffffffffffffffffffffffffffff8260011b9260031b1c191617600255600080f35b0151905038806108c9565b907fffffffffffffffffffffffffffffffffffffffffffffffffffffffffffffffe083169361095c60026000527f405787fa12a823e0f2b7631cc41b3ba8828b3321ca811111fa75cd3aa3bb5ace90565b926000905b8682106109b6575050836001951061097f575b505050811b01600255005b01517fffffffffffffffffffffffffffffffffffffffffffffffffffffffffffffffff60f88460031b161c19169055388080610974565b80600185968294968601518155019501930190610961565b9080601f830112156103f957816020610460933591016107f3565b346103f95760607ffffffffffffffffffffffffffffffffffffffffffffffffffffffffffffffffc3601126103f95760443567ffffffffffffffff81116103f957610a3b610a479136906004016109ce565b60243560043533614634565b005b919082519283825260005b848110610a935750507fffffffffffffffffffffffffffffffffffffffffffffffffffffffffffffffe0601f8460006020809697860101520116010190565b602081830181015184830182015201610a54565b906020610460928181520190610a49565b346103f9576020807ffffffffffffffffffffffffffffffffffffffffffffffffffffffffffffffffc3601126103f957604051600091600254610afa81612f8e565b80845290600190818116908115610b8b5750600114610b30575b6105bb84610b2481880382610333565b60405191829182610aa7565b600260009081529294507f405787fa12a823e0f2b7631cc41b3ba8828b3321ca811111fa75cd3aa3bb5ace5b828410610b7857505050816105bb93610b249282010193610b14565b8054858501870152928501928101610b5c565b7fffffffffffffffffffffffffffffffffffffffffffffffffffffffffffffff0016858501525050151560051b8201019150610b24816105bb610b14565b7ffffffffffffffffffffffffffffffffffffffffffffffffffffffffffffffffc60609101126103f95760043560ff811681036103f9579060243560ff811681036103f9579060443560ff811681036103f95790565b346103f95760ff610cd47fffffffffffffffffff0000ffffffffffffffffffffffffffffffffffffffffff75ff00000000000000000000000000000000000000000076ff00000000000000000000000000000000000000000000610c8236610bc9565b9591610c8f979197612f3d565b6004547fffffffffffffffffffffff00ffffffffffffffffffffffffffffffffffffffff16911660a01b74ff0000000000000000000000000000000000000000161790565b9360b01b169360a81b1691161717600455600080f35b346103f95760207ffffffffffffffffffffffffffffffffffffffffffffffffffffffffffffffffc3601126103f95773ffffffffffffffffffffffffffffffffffffffff610d366105bf565b166000526008602052604060002080546105bb60026001840154930154604051938493846040919493926060820195825260208201520152565b346103f95760407ffffffffffffffffffffffffffffffffffffffffffffffffffffffffffffffffc3601126103f95773ffffffffffffffffffffffffffffffffffffffff610dbc6105bf565b16600052600b6020526040600020602435600052602052604060002060ff6002825492015416906105bb60405192839283909291602090604083019483521515910152565b60208082019080835283518092528060408094019401926000905b838210610e2b57505050505090565b84518051875280840151878501528082015173ffffffffffffffffffffffffffffffffffffffff16878301526060808201511515908801526080808201519088015260a0808201519088015260c0808201519088015260e090810151908701526101009095019493820193600190910190610e1c565b346103f9576020807ffffffffffffffffffffffffffffffffffffffffffffffffffffffffffffffffc3601126103f95760043567ffffffffffffffff81116103f957610ef190369060040161039b565b90815191610efe83610383565b917fffffffffffffffffffffffffffffffffffffffffffffffffffffffffffffffe0610f3a604095610f3287519687610333565b808652610383565b0160005b818110610f955750505060005b8151811015610f885780610f68610555610544610f8394866130c3565b610f7282866130c3565b52610f7d81856130c3565b5061304a565b610f4b565b8351806105bb8582610e01565b82908651610fa2816102d9565b600081526000838201526000888201526000606082015260006080820152600060a0820152600060c0820152600060e082015282828801015201610f3e565b346103f95760007ffffffffffffffffffffffffffffffffffffffffffffffffffffffffffffffffc3601126103f957602060ff60045460b01c16604051908152f35b346103f95760a07ffffffffffffffffffffffffffffffffffffffffffffffffffffffffffffffffc3601126103f95761105a6105bf565b6110626105e2565b906044359167ffffffffffffffff908184116103f9576110876004943690860161039b565b906064358381116103f95761109f903690870161039b565b926084359081116103f9576110b790369087016109ce565b9373ffffffffffffffffffffffffffffffffffffffff8082169033821415806111aa575b6111575783161561112657156110f557610a479550613521565b6024866000604051917f01a83514000000000000000000000000000000000000000000000000000000008352820152fd5b6024876000604051917f57f447ce000000000000000000000000000000000000000000000000000000008352820152fd5b604080517fe237d92200000000000000000000000000000000000000000000000000000000815233818b0190815273ffffffffffffffffffffffffffffffffffffffff8616602082015290918291010390fd5b5081600052600160205260ff6111e43360406000209073ffffffffffffffffffffffffffffffffffffffff16600052602052604060002090565b5416156110db565b346103f95760007ffffffffffffffffffffffffffffffffffffffffffffffffffffffffffffffffc3601126103f95760206040517fffffffffffffffffffffffffffffffffffffffffffffffffffffffffffffffff8152f35b346103f95760207ffffffffffffffffffffffffffffffffffffffffffffffffffffffffffffffffc3601126103f957600435600052600760205260406000208054906105bb6001820154916002810154906003810154600482015490600660058401549301549360405197889773ffffffffffffffffffffffffffffffffffffffff60ff8460a01c1693169189949160e0969373ffffffffffffffffffffffffffffffffffffffff919a999895929a61010088019b8852602088015216604086015215156060850152608084015260a083015260c08201520152565b346103f95760607ffffffffffffffffffffffffffffffffffffffffffffffffffffffffffffffffc3601126103f9576113ac61135b6105bf565b73ffffffffffffffffffffffffffffffffffffffff6113786105e2565b9116600052600a60205260406000209073ffffffffffffffffffffffffffffffffffffffff16600052602052604060002090565b604435600052602052604060002060ff6001825492015416906105bb60405192839283909291602090604083019483521515910152565b346103f95760007ffffffffffffffffffffffffffffffffffffffffffffffffffffffffffffffffc3601126103f957602060ff60045460b81c16604051908152f35b346103f95760407ffffffffffffffffffffffffffffffffffffffffffffffffffffffffffffffffc3601126103f95773ffffffffffffffffffffffffffffffffffffffff806114726105bf565b166000526020600b815260406000206024356000528152600161149a81604060002001613c22565b926040519280840190808552855180925280604086019601926000905b8382106114c45786880387f35b8451811688529682019693820193908501906114b7565b346103f95760007ffffffffffffffffffffffffffffffffffffffffffffffffffffffffffffffffc3601126103f957602073ffffffffffffffffffffffffffffffffffffffff60045416604051908152f35b346103f95760407ffffffffffffffffffffffffffffffffffffffffffffffffffffffffffffffffc3601126103f95760043567ffffffffffffffff8082116103f957366023830112156103f957816004013561158881610383565b926115966040519485610333565b81845260209160248386019160051b830101913683116103f957602401905b8282106115ee57856024358681116103f9576105bb916115dc6115e292369060040161039b565b906130d7565b604051918291826104d2565b8380916115fa84610605565b8152019101906115b5565b346103f9576000807ffffffffffffffffffffffffffffffffffffffffffffffffffffffffffffffffc3601126116a45761163d612f3d565b8073ffffffffffffffffffffffffffffffffffffffff6003547fffffffffffffffffffffffff00000000000000000000000000000000000000008116600355167f8be0079c531659141344cd1fd0a4f28419497f9722a3daafe3b4186f6b6457e08280a380f35b80fd5b346103f95760407ffffffffffffffffffffffffffffffffffffffffffffffffffffffffffffffffc3601126103f95767ffffffffffffffff6004358181116103f9576116f790369060040161039b565b906024359081116103f95761171090369060040161039b565b331561172f57610a4791600060405161172881610317565b52336131b2565b60246040517f01a8351400000000000000000000000000000000000000000000000000000000815260006004820152fd5b346103f95760007ffffffffffffffffffffffffffffffffffffffffffffffffffffffffffffffffc3601126103f957602073ffffffffffffffffffffffffffffffffffffffff60035416604051908152f35b346103f95760607ffffffffffffffffffffffffffffffffffffffffffffffffffffffffffffffffc3601126103f95760206117f4604435602435600435613e29565b604051908152f35b346103f95760207ffffffffffffffffffffffffffffffffffffffffffffffffffffffffffffffffc3601126103f95773ffffffffffffffffffffffffffffffffffffffff6118486105bf565b1660005260086020526040600020604051611862816102fb565b6105bb6040835492838152600260018601549586602084015201549182910152604051938493846040919493926060820195825260208201520152565b346103f95761ff006118b036610bc9565b6118bc93919293612f3d565b7fffffffffffffffffffffffffffffffffffffffffffffffffffffffffff00000060ff62ff00006006549360101b1695169116179160081b161717600655600080f35b346103f95760207ffffffffffffffffffffffffffffffffffffffffffffffffffffffffffffffffc3601126103f95773ffffffffffffffffffffffffffffffffffffffff61194b6105bf565b611953612f3d565b167fffffffffffffffffffffffff00000000000000000000000000000000000000006004541617600455600080f35b6044359081151582036103f957565b346103f95760407ffffffffffffffffffffffffffffffffffffffffffffffffffffffffffffffffc3601126103f9576119c86105bf565b60243590811515908183036103f95773ffffffffffffffffffffffffffffffffffffffff8116928315611a8d57611a2f611a5f9233600052600160205260406000209073ffffffffffffffffffffffffffffffffffffffff16600052602052604060002090565b9060ff7fffffffffffffffffffffffffffffffffffffffffffffffffffffffffffffff0083541691151516179055565b6040519081527f17307eab39ab6107e8899845ad3d59bd9653f200f220920489ca2b5937696c3160203392a3005b60246040517fced3e10000000000000000000000000000000000000000000000000000000000815260006004820152fd5b346103f95760407ffffffffffffffffffffffffffffffffffffffffffffffffffffffffffffffffc3601126103f957610a47611af86105bf565b602435906141dc565b346103f95760607ffffffffffffffffffffffffffffffffffffffffffffffffffffffffffffffffc3601126103f957602435600435611b3e611982565b6006611b54836000526007602052604060002090565b0154611c3b57611c367f2a6ac6014fb9ac562e49a217a307e224bc04bf37f3b004677735bbff991ce72091611b92611b8d60055461304a565b600555565b611bed600554611ba0610374565b86815260208101919091523360408201528215156060820152866080820152600060a0820152600060c0820152600160e0820152611be8866000526007602052604060002090565b61450e565b611c02600554611bfb61384c565b90336145e8565b336000908152600860205260409020611c1b815461304a565b90556040805195865290151560208601523394918291820190565b0390a3005b6040517f69d71ce500000000000000000000000000000000000000000000000000000000815260048101839052602490fd5b346103f95760407ffffffffffffffffffffffffffffffffffffffffffffffffffffffffffffffffc3601126103f957610a4760243560043533614738565b346103f95760607ffffffffffffffffffffffffffffffffffffffffffffffffffffffffffffffffc3601126103f95767ffffffffffffffff6004358181116103f957611cfb90369060040161039b565b906024358181116103f957611d1490369060040161039b565b906044359081116103f957611d2d9036906004016109ce565b903315611d3e57610a479233613391565b60246040517f57f447ce00000000000000000000000000000000000000000000000000000000815260006004820152fd5b6040807ffffffffffffffffffffffffffffffffffffffffffffffffffffffffffffffffc3601126103f9576004803560243591611db6826000526007602052604060002090565b93600285019485549573ffffffffffffffffffffffffffffffffffffffff87169687156122265760a01c60ff16156121e8578633146121b257611f8c96611f8c91611e1f611e19611e1060065463ffffffff9060181c1690565b63ffffffff1690565b43613df0565b9182612132575b50611ee3611ea783611e98611e5b3373ffffffffffffffffffffffffffffffffffffffff16600052600a602052604060002090565b855473ffffffffffffffffffffffffffffffffffffffff165b73ffffffffffffffffffffffffffffffffffffffff16600052602052604060002090565b90600052602052604060002090565b611ebb8154611eb58c613d7f565b90613783565b8091558333611ede855473ffffffffffffffffffffffffffffffffffffffff1690565b613fe1565b611f32611f2d611f07835473ffffffffffffffffffffffffffffffffffffffff1690565b73ffffffffffffffffffffffffffffffffffffffff166000526008602052604060002090565b613c87565b95611f7889611f91611f7e60038901549a8a611f5660068c019586549e8f90613e29565b9582611f6e6020899501938451920191825190614685565b9251905190613783565b906146b3565b98909e8f90838b9497613783565b613783565b988934106120f0578b611fa391613783565b90556000808080809e8180808093611fcf8b5473ffffffffffffffffffffffffffffffffffffffff1690565b5af194611fda61385f565b50875473ffffffffffffffffffffffffffffffffffffffff165af190611ffe61385f565b50159081156120e7575b506120c057507f8fccfe372405954c8e1283918d67d52c901db69d2458fb3588c9491d6da7b09395936120ba95936120916120896120a595611e986120636001975473ffffffffffffffffffffffffffffffffffffffff1690565b73ffffffffffffffffffffffffffffffffffffffff16600052600b602052604060002090565b918254613783565b905501548761209e61384c565b9133614634565b51948552602085015233939081906040820190565b0390a380f35b85517f24a8ac13000000000000000000000000000000000000000000000000000000008152fd5b90501538612008565b88517fd066786900000000000000000000000000000000000000000000000000000000815233818601908152602081018d905234604082015281906060010390fd5b61216b600291611e9861214486613d45565b9173ffffffffffffffffffffffffffffffffffffffff16600052600b602052604060002090565b0161217e61217a825460ff1690565b1590565b15611e265780547fffffffffffffffffffffffffffffffffffffffffffffffffffffffffffffff0016600117905538611e26565b5050517f69d71ce50000000000000000000000000000000000000000000000000000000081529081019182529081906020010390fd5b5050517f18c1febf00000000000000000000000000000000000000000000000000000000815233918101918252602082019290925281906040010390fd5b505090517f69d71ce5000000000000000000000000000000000000000000000000000000008152918201928352509081906020010390fd5b346103f9576040807ffffffffffffffffffffffffffffffffffffffffffffffffffffffffffffffffc3601126103f957600480359160243560038110156103f9576122b3846000526007602052604060002090565b906002820191825494600160ff8760a01c16151514612633576122d583612b48565b82156125f65773ffffffffffffffffffffffffffffffffffffffff809616923384146125ba57612328611f2d8573ffffffffffffffffffffffffffffffffffffffff166000526008602052604060002090565b9361236161235a8a611e983373ffffffffffffffffffffffffffffffffffffffff166000526009602052604060002090565b5460ff1690565b61236a81612b48565b82811515918261259d575b5050612561579061241e60019261239b611e19611e1060065463ffffffff9060181c1690565b908161250c575b506123f181611e986123d43373ffffffffffffffffffffffffffffffffffffffff16600052600a602052604060002090565b8b5473ffffffffffffffffffffffffffffffffffffffff16611e74565b906123fc825461304a565b80925533611ede8a5473ffffffffffffffffffffffffffffffffffffffff1690565b612455816124508b611e983373ffffffffffffffffffffffffffffffffffffffff166000526009602052604060002090565b613f3d565b61245e81612b48565b036124c957509261248391600561249e950161247a8154613775565b90550151613775565b505473ffffffffffffffffffffffffffffffffffffffff1690565b169033907f0f4350ab19f9ce309a3a6602ee41a7e87d7e70da42bac2bec03750a0e9990295600080a4005b6124e1945091612483926020920161247a8154613775565b169033907fbb855693349364057d3f5bfed9236334c04a7458f3a270f18a0c373f909b87f2600080a4005b61251e600291611e9861214485613d45565b0161252d61217a825460ff1690565b156123a25780547fffffffffffffffffffffffffffffffffffffffffffffffffffffffffffffff00166001179055386123a2565b86517fcd7f7b9500000000000000000000000000000000000000000000000000000000815233818501908152602081018b905281906040010390fd5b9091506125a982612b48565b6125b281612b48565b148238612375565b85517f8a0ffdbe00000000000000000000000000000000000000000000000000000000815233818401908152602081018a905281906040010390fd5b84517f8a0ffdbe00000000000000000000000000000000000000000000000000000000815233918101918252602082018890529081906040010390fd5b84517f51e6df2200000000000000000000000000000000000000000000000000000000815233918101918252602082018890529081906040010390fd5b346103f95760007ffffffffffffffffffffffffffffffffffffffffffffffffffffffffffffffffc3601126103f957602060ff60045460a01c16604051908152f35b346103f9576040807ffffffffffffffffffffffffffffffffffffffffffffffffffffffffffffffffc3601126103f9576004908135602435916126ff826000526007602052604060002090565b906002820180549573ffffffffffffffffffffffffffffffffffffffff8716968715612a7a5760a01c60ff1615612a3d57863314612a0957600184019186612748845433612fe1565b106129c657612766611e19611e1060065463ffffffff9060181c1690565b9788612971575b50805473ffffffffffffffffffffffffffffffffffffffff16946127b18673ffffffffffffffffffffffffffffffffffffffff166000526008602052604060002090565b6127ba90613c87565b906003810154906006019089808354906127d391613d72565b6127dc92613e29565b9182602082019188835191019081516127f491614685565b9251905161280191613783565b61280a926146b3565b8161281a849e9396948395613d72565b9061282491613d72565b9061282e91613d72565b986128599073ffffffffffffffffffffffffffffffffffffffff16600052600b602052604060002090565b6000918252602052604090209081549061287291613783565b90558881549061288191613d72565b905560008080809b8180808080988b546128ae9073ffffffffffffffffffffffffffffffffffffffff1690565b5af1956128b961385f565b505473ffffffffffffffffffffffffffffffffffffffff165af1906128dc61385f565b508880808089335af1906128ee61385f565b5015918215612968575b50811561295f575b506129385750916120ba916120a5867fb78a347f67e60e77f52aa2a212347075651ba0dbe890c6ca751c2aab5cf45d3d955433614738565b82517f24a8ac13000000000000000000000000000000000000000000000000000000008152fd5b90501538612900565b159150386128f8565b612983600291611e986121448c613d45565b0161299261217a825460ff1690565b1561276d5780547fffffffffffffffffffffffffffffffffffffffffffffffffffffffffffffff001660011790553861276d565b83517f380dfc4200000000000000000000000000000000000000000000000000000000815233818401908152602081018890526040810189905281906060010390fd5b82517f69d71ce500000000000000000000000000000000000000000000000000000000815290810185815281906020010390fd5b82517f18c1febf00000000000000000000000000000000000000000000000000000000815233918101918252602082018690529081906040010390fd5b83517f69d71ce500000000000000000000000000000000000000000000000000000000815280830187815281906020010390fd5b346103f95760407ffffffffffffffffffffffffffffffffffffffffffffffffffffffffffffffffc3601126103f957602060ff612b3c612aec6105bf565b73ffffffffffffffffffffffffffffffffffffffff612b096105e2565b91166000526001845260406000209073ffffffffffffffffffffffffffffffffffffffff16600052602052604060002090565b54166040519015158152f35b60031115612b5257565b7f4e487b7100000000000000000000000000000000000000000000000000000000600052602160045260246000fd5b346103f95760407ffffffffffffffffffffffffffffffffffffffffffffffffffffffffffffffffc3601126103f95773ffffffffffffffffffffffffffffffffffffffff612bcd6105bf565b166000908152600960205260408120602435825260205260ff604082205416604051906003811015612c0157602092508152f35b6024837f4e487b710000000000000000000000000000000000000000000000000000000081526021600452fd5b346103f95760007ffffffffffffffffffffffffffffffffffffffffffffffffffffffffffffffffc3601126103f957602060ff60045460a81c16604051908152f35b346103f957612c7e366103fe565b6000916004549260ff8460a81c1660ff808660a01c169560b81c16915b83518110156105ae578061059a6105938861058d6105876105828961057d6105768e612cd18f610544612cfa9e610555926130c3565b9061056f8c612cf460e06080860151950151612ced83866130c3565b5190613d72565b926130c3565b612c9b565b346103f95760a07ffffffffffffffffffffffffffffffffffffffffffffffffffffffffffffffffc3601126103f957612d366105bf565b612d3e6105e2565b60843567ffffffffffffffff81116103f957612d5e9036906004016109ce565b9073ffffffffffffffffffffffffffffffffffffffff808416903382141580612e19575b612dcc57821615611d3e571561172f57610a4792612dc46064356044359160405192600184526020840152604083019160018352606084015260808301604052565b929091613521565b6040517fe237d92200000000000000000000000000000000000000000000000000000000815233600482015273ffffffffffffffffffffffffffffffffffffffff86166024820152604490fd5b5081600052600160205260ff612e533360406000209073ffffffffffffffffffffffffffffffffffffffff16600052602052604060002090565b541615612d82565b346103f95760207ffffffffffffffffffffffffffffffffffffffffffffffffffffffffffffffffc3601126103f957612e926105bf565b612e9a612f3d565b73ffffffffffffffffffffffffffffffffffffffff809116908115612f0c57600354827fffffffffffffffffffffffff0000000000000000000000000000000000000000821617600355167f8be0079c531659141344cd1fd0a4f28419497f9722a3daafe3b4186f6b6457e0600080a3005b60246040517f1e4fbdf700000000000000000000000000000000000000000000000000000000815260006004820152fd5b73ffffffffffffffffffffffffffffffffffffffff600354163303612f5e57565b60246040517f118cdaa7000000000000000000000000000000000000000000000000000000008152336004820152fd5b90600182811c92168015612fd7575b6020831014612fa857565b7f4e487b7100000000000000000000000000000000000000000000000000000000600052602260045260246000fd5b91607f1691612f9d565b61301791600052600060205260406000209073ffffffffffffffffffffffffffffffffffffffff16600052602052604060002090565b5490565b7f4e487b7100000000000000000000000000000000000000000000000000000000600052601160045260246000fd5b7fffffffffffffffffffffffffffffffffffffffffffffffffffffffffffffffff81146130775760010190565b61301b565b7f4e487b7100000000000000000000000000000000000000000000000000000000600052603260045260246000fd5b6060518110156130be5760051b60800190565b61307c565b80518210156130be5760209160051b010190565b919091805183518082036131775750508051907fffffffffffffffffffffffffffffffffffffffffffffffffffffffffffffffe061312d61311784610383565b936131256040519586610333565b808552610383565b0190602091368385013760005b815181101561316f578061316061316a9260051b85808287010151918a01015190612fe1565b6105a382876130c3565b61313a565b509193505050565b6040517f5b05999100000000000000000000000000000000000000000000000000000000815260048101919091526024810191909152604490fd5b929190805182519081810361317757505060005b81518110156132d6578060051b6020808285010151918501015173ffffffffffffffffffffffffffffffffffffffff871661320c575b50506132079061304a565b6131c6565b61324987613224846000526000602052604060002090565b9073ffffffffffffffffffffffffffffffffffffffff16600052602052604060002090565b5481811061327957876132246132079594936132719303936000526000602052604060002090565b5590386131fc565b6040517f03dee4c500000000000000000000000000000000000000000000000000000000815273ffffffffffffffffffffffffffffffffffffffff8916600482015260248101919091526044810182905260648101839052608490fd5b50906000929391600181511484146133455760209081015191810151604080519384529183015273ffffffffffffffffffffffffffffffffffffffff929092169133917fc3d58168c5ae7397731d063d5bbf3d657854427343f4c083240f7aacaa2d0f6291819081015b0390a4565b909173ffffffffffffffffffffffffffffffffffffffff7f4a39dc06d4c0dbc64b70af90fd698a233a518aa5d07e595d983b8c0526c8f7fb916133406040519283921695339583613790565b90805183519081810361317757505060005b815181101561341157806133e79160051b84602080838701015192880101519173ffffffffffffffffffffffffffffffffffffffff82166133ec575b50505061304a565b6133a3565b61340791613224612089926000526000602052604060002090565b90553884816133df565b508051919392916001036134cd5760208181015183820151604080519283529282015273ffffffffffffffffffffffffffffffffffffffff86169160009133917fc3d58168c5ae7397731d063d5bbf3d657854427343f4c083240f7aacaa2d0f6291a45b73ffffffffffffffffffffffffffffffffffffffff8416613497575b50505050565b80516001036134be57906020806134b595930151910151913361388f565b38808080613491565b6134c89333613b84565b6134b5565b604051600073ffffffffffffffffffffffffffffffffffffffff8616917f4a39dc06d4c0dbc64b70af90fd698a233a518aa5d07e595d983b8c0526c8f7fb339180613519888883613790565b0390a4613475565b94919091815184519081810361317757505060005b8251811015613659578060051b90602080838601015192870101518573ffffffffffffffffffffffffffffffffffffffff93848b166135ac575b6135829482166135875750505061304a565b613536565b6135a291613224612089926000526000602052604060002090565b90553885816133df565b91929390506135c98a613224846000526000602052604060002090565b548381106135fc5791879184613582969594036135f48d613224856000526000602052604060002090565b559450613570565b6040517f03dee4c500000000000000000000000000000000000000000000000000000000815273ffffffffffffffffffffffffffffffffffffffff8c16600482015260248101919091526044810184905260648101839052608490fd5b50949193929093600185511460001461371e5760208581015183820151604080519283529282015273ffffffffffffffffffffffffffffffffffffffff838116929086169133917fc3d58168c5ae7397731d063d5bbf3d657854427343f4c083240f7aacaa2d0f6291a45b73ffffffffffffffffffffffffffffffffffffffff81166136e7575b5050505050565b845160010361370d576020806137039601519201519233613a13565b38808080806136e0565b61371994919233613bd2565b613703565b60405173ffffffffffffffffffffffffffffffffffffffff90818316918516907f4a39dc06d4c0dbc64b70af90fd698a233a518aa5d07e595d983b8c0526c8f7fb33918061376d888c83613790565b0390a46136c4565b906001820180921161307757565b9190820180921161307757565b90916137a761046093604084526040840190610463565b916020818403910152610463565b908160209103126103f957516104608161069f565b909260a09273ffffffffffffffffffffffffffffffffffffffff610460969516835260006020840152604083015260608201528160808201520190610a49565b919261046095949160a09473ffffffffffffffffffffffffffffffffffffffff8092168552166020840152604083015260608201528160808201520190610a49565b6040519061385982610317565b60008252565b3d1561388a573d90613870826107b9565b9161387e6040519384610333565b82523d6000602084013e565b606090565b9293919093843b6138a1575050505050565b6020916138dd60405194859384937ff23a6e610000000000000000000000000000000000000000000000000000000098898652600486016137ca565b0381600073ffffffffffffffffffffffffffffffffffffffff88165af1600091816139e3575b50613968578261391161385f565b8051919082613961576040517f57f447ce00000000000000000000000000000000000000000000000000000000815273ffffffffffffffffffffffffffffffffffffffff83166004820152602490fd5b9050602001fd5b7fffffffff00000000000000000000000000000000000000000000000000000000160361399a575038808080806136e0565b6040517f57f447ce00000000000000000000000000000000000000000000000000000000815273ffffffffffffffffffffffffffffffffffffffff919091166004820152602490fd5b613a0591925060203d8111613a0c575b6139fd8183610333565b8101906137b5565b9038613903565b503d6139f3565b939290949194853b613a28575b505050505050565b613a6460209360405195869485947ff23a6e6100000000000000000000000000000000000000000000000000000000998a87526004870161380a565b0381600073ffffffffffffffffffffffffffffffffffffffff88165af160009181613acb575b50613a98578261391161385f565b7fffffffff00000000000000000000000000000000000000000000000000000000160361399a5750388080808080613a20565b613ae491925060203d8111613a0c576139fd8183610333565b9038613a8a565b92613b28610460959373ffffffffffffffffffffffffffffffffffffffff613b36941686526000602087015260a0604087015260a0860190610463565b908482036060860152610463565b916080818403910152610a49565b93906104609593613b2891613b369473ffffffffffffffffffffffffffffffffffffffff809216885216602087015260a0604087015260a0860190610463565b9293919093843b613b96575050505050565b6020916138dd60405194859384937fbc197c81000000000000000000000000000000000000000000000000000000009889865260048601613aeb565b939290949194853b613be657505050505050565b613a6460209360405195869485947fbc197c8100000000000000000000000000000000000000000000000000000000998a875260048701613b44565b9060405191828154918282526020928383019160005283600020936000905b828210613c575750505061038192500383610333565b855473ffffffffffffffffffffffffffffffffffffffff1684526001958601958895509381019390910190613c41565b90604051613c94816102fb565b60406002829480548452600181015460208501520154910152565b90604051613cbc816102d9565b60e0600682948054845260018101546020850152613d2060ff6002830154613d1373ffffffffffffffffffffffffffffffffffffffff8216604089019073ffffffffffffffffffffffffffffffffffffffff169052565b60a01c1615156060860152565b60038101546080850152600481015460a0850152600581015460c08501520154910152565b907fffffffffffffffffffffffffffffffffffffffffffffffffffffffffffffffff820191821161307757565b9190820391821161307757565b908160030291600383040361307757565b908160011b917f7fffffffffffffffffffffffffffffffffffffffffffffffffffffffffffffff81160361307757565b90670de0b6b3a76400009182810292818404149015171561307757565b8181029291811591840414171561307757565b8115613dfa570490565b7f4e487b7100000000000000000000000000000000000000000000000000000000600052601260045260246000fd5b9080159283600014613ec8576000935b80613ebe575b15613e5f575050611eb5610593613e5a610460946000613d72565b613dc0565b613e6882613d45565b918183018093116130775761046094613eb9613eb28361058d613ead613ea888611f8c613ea2611eb59c61058d6105939d613e5a9d613783565b95613d45565b613d90565b613775565b6006900490565b613d72565b5060018114613e3f565b7fffffffffffffffffffffffffffffffffffffffffffffffffffffffffffffffff820182811161307757613f10613f0184600693613ddd565b61058d613ead613ea887613d45565b0493613e39565b60ff60649116019060ff821161307757565b9060ff8091169116019060ff821161307757565b906003811015612b525760ff7fffffffffffffffffffffffffffffffffffffffffffffffffffffffffffffff008354169116179055565b80548210156130be5760005260206000200190600090565b90815491680100000000000000008310156102f65782613fb491600161038195018155613f74565b90919082549060031b9173ffffffffffffffffffffffffffffffffffffffff809116831b921b1916179055565b909192600161401485611e988573ffffffffffffffffffffffffffffffffffffffff16600052600b602052604060002090565b0191825480156140a45780957fffffffffffffffffffffffffffffffffffffffffffffffffffffffffffffffff9260005b8381106140b1575050600654614061915060381c60ff16610587565b81106140a4576006546140799060381c60ff16610587565b1115918261409a575b505061408d57505050565b61038192613fb491613f74565b1190503880614082565b5050506103819250613f8c565b6140de6140be8289613f74565b905473ffffffffffffffffffffffffffffffffffffffff9160031b1c1690565b73ffffffffffffffffffffffffffffffffffffffff808a16908216146141575783611e98846132246141309473ffffffffffffffffffffffffffffffffffffffff16600052600a602052604060002090565b5485811115614149575b506141449061304a565b614045565b90985093508761414461413a565b50505050505050505050565b906040516040810181811067ffffffffffffffff8211176102f657604052602060ff60018395805485520154161515910152565b906040516141a4816102fb565b604060ff60028395805485526141bc60018201613c22565b60208601520154161515910152565b60ff1660ff81146130775760010190565b90614223602061421c61421784611e98876132243373ffffffffffffffffffffffffffffffffffffffff16600052600a602052604060002090565b614163565b0151151590565b6144ba57600681614242611e19611e10845463ffffffff9060181c1690565b11156144655761427e61427983611e988673ffffffffffffffffffffffffffffffffffffffff16600052600b602052604060002090565b614197565b6142bc61217a60026142b486611e988973ffffffffffffffffffffffffffffffffffffffff16600052600b602052604060002090565b015460ff1690565b614411576040928382016142d361217a8251151590565b614407575b50602082019460005b8651805160ff8316908110156143ae5761431c6143026143359233946130c3565b5173ffffffffffffffffffffffffffffffffffffffff1690565b73ffffffffffffffffffffffffffffffffffffffff1690565b1461434857614343906141cb565b6142e1565b505050600080939450614371819361436b610587849551925460ff9060381c1690565b90613df0565b335af161437c61385f565b50156143855750565b600490517f24a8ac13000000000000000000000000000000000000000000000000000000008152fd5b505085517ffd52de3600000000000000000000000000000000000000000000000000000000815233600482015273ffffffffffffffffffffffffffffffffffffffff929092166024830152506044810191909152606490fd5b60019052386142d8565b6040517ff68fd58400000000000000000000000000000000000000000000000000000000815233600482015273ffffffffffffffffffffffffffffffffffffffff8516602482015260448101849052606490fd5b506040517f858e249f00000000000000000000000000000000000000000000000000000000815233600482015273ffffffffffffffffffffffffffffffffffffffff9290921660248301526044820152606490fd5b6040517fc3ea5df500000000000000000000000000000000000000000000000000000000815233600482015273ffffffffffffffffffffffffffffffffffffffff9290921660248301526044820152606490fd5b9060e060069180518455602081015160018501556145c36002850173ffffffffffffffffffffffffffffffffffffffff6040840151167fffffffffffffffffffffffff00000000000000000000000000000000000000008254161781556145786060840151151590565b90805490917fffffffffffffffffffffff00ffffffffffffffffffffffffffffffffffffffff90911690151560a01b74ff000000000000000000000000000000000000000016179055565b6080810151600385015560a0810151600485015560c081015160058501550151910155565b91909173ffffffffffffffffffffffffffffffffffffffff811615611d3e5761038192604051906001825260208201526040810191600183526001606083015260808201604052613391565b9092919273ffffffffffffffffffffffffffffffffffffffff821615611d3e576103819361467f60405192600184526020840152604083019160018352606084015260808301604052565b91613391565b906146a79060ff61469c6006549482861690613ddd565b9360081c1690613ddd565b81039081116130775790565b929091926004549360ff91828660a81c16906146dc848860a01c16968560065460101c16613ddd565b10614717575b9082606461470482826146fb8198614710981687613ddd565b04981684613ddd565b049660b81c1690613ddd565b0491929190565b614727838760b01c168092613f29565b9403908282116130775790936146e2565b9073ffffffffffffffffffffffffffffffffffffffff82161561172f576103819261478060405192600184526020840152604083019160018352606084015260808301604052565b91600060405161478f81610317565b526131b2565b601f81116147a1575050565b600090600282527f405787fa12a823e0f2b7631cc41b3ba8828b3321ca811111fa75cd3aa3bb5ace906020601f850160051c830194106147fc575b601f0160051c01915b8281106147f157505050565b8181556001016147e5565b90925082906147dc56fea2646970667358221220494b9ec496a25c827e31c6bde5359544d928dd6b28e0101b7e11f27a1290ccb764736f6c63430008140033",
  "linkReferences": {},
  "deployedLinkReferences": {}
}