{
  "_format": "hh-sol-artifact-1",
  "contractName": "JustFriends",
  "sourceName": "contracts/JustFriends.sol",
  "abi": [
    {
      "inputs": [
        {
          "internalType": "address",
          "name": "_protocolFeeDestination",
          "type": "address"
        },
        {
          "internalType": "uint8",
          "name": "_protocolFeePercentBase",
          "type": "uint8"
        },
        {
          "internalType": "uint8",
          "name": "_creatorFeePercentBase",
          "type": "uint8"
        },
        {
          "internalType": "uint8",
          "name": "_extraFeePercentBase",
          "type": "uint8"
        },
        {
          "internalType": "address",
          "name": "_contentAccessContract",
          "type": "address"
        }
      ],
      "stateMutability": "nonpayable",
      "type": "constructor"
    },
    {
      "inputs": [
        {
          "internalType": "address",
          "name": "user",
          "type": "address"
        },
        {
          "internalType": "address",
          "name": "creator",
          "type": "address"
        },
        {
          "internalType": "uint256",
          "name": "periodTimestamp",
          "type": "uint256"
        }
      ],
      "name": "DuplicateClaiming",
      "type": "error"
    },
    {
      "inputs": [
        {
          "internalType": "address",
          "name": "walletAddress",
          "type": "address"
        },
        {
          "internalType": "bytes32",
          "name": "contentHash",
          "type": "bytes32"
        }
      ],
      "name": "DuplicateVoting",
      "type": "error"
    },
    {
      "inputs": [
        {
          "internalType": "address",
          "name": "user",
          "type": "address"
        },
        {
          "internalType": "address",
          "name": "creator",
          "type": "address"
        },
        {
          "internalType": "uint256",
          "name": "periodTimestamp",
          "type": "uint256"
        }
      ],
      "name": "EarlyClaiming",
      "type": "error"
    },
    {
      "inputs": [
        {
          "internalType": "address",
          "name": "walletAddress",
          "type": "address"
        }
      ],
      "name": "ExistedCreator",
      "type": "error"
    },
    {
      "inputs": [],
      "name": "FailedFeeTransfer",
      "type": "error"
    },
    {
      "inputs": [
        {
          "internalType": "address",
          "name": "walletAddress",
          "type": "address"
        },
        {
          "internalType": "bytes32",
          "name": "contentHash",
          "type": "bytes32"
        }
      ],
      "name": "FreeContentExchange",
      "type": "error"
    },
    {
      "inputs": [
        {
          "internalType": "address",
          "name": "user",
          "type": "address"
        },
        {
          "internalType": "address",
          "name": "creator",
          "type": "address"
        },
        {
          "internalType": "uint256",
          "name": "periodTimestamp",
          "type": "uint256"
        }
      ],
      "name": "IllegalClaiming",
      "type": "error"
    },
    {
      "inputs": [
        {
          "internalType": "address",
          "name": "walletAddress",
          "type": "address"
        },
        {
          "internalType": "bytes32",
          "name": "contentHash",
          "type": "bytes32"
        },
        {
          "internalType": "uint256",
          "name": "amount",
          "type": "uint256"
        }
      ],
      "name": "InsufficientAccess",
      "type": "error"
    },
    {
      "inputs": [
        {
          "internalType": "address",
          "name": "walletAddress",
          "type": "address"
        },
        {
          "internalType": "bytes32",
          "name": "contentHash",
          "type": "bytes32"
        },
        {
          "internalType": "uint256",
          "name": "amount",
          "type": "uint256"
        }
      ],
      "name": "InsufficientPayment",
      "type": "error"
    },
    {
      "inputs": [
        {
          "internalType": "bytes32",
          "name": "contentHash",
          "type": "bytes32"
        }
      ],
      "name": "InvalidContent",
      "type": "error"
    },
    {
      "inputs": [
        {
          "internalType": "address",
          "name": "walletAddress",
          "type": "address"
        }
      ],
      "name": "InvalidCreator",
      "type": "error"
    },
    {
      "inputs": [
        {
          "internalType": "address",
          "name": "walletAddress",
          "type": "address"
        },
        {
          "internalType": "bytes32",
          "name": "contentHash",
          "type": "bytes32"
        }
      ],
      "name": "InvalidFirstPurchase",
      "type": "error"
    },
    {
      "inputs": [
        {
          "internalType": "address",
          "name": "walletAddress",
          "type": "address"
        },
        {
          "internalType": "bytes32",
          "name": "contentHash",
          "type": "bytes32"
        }
      ],
      "name": "InvalidLastSell",
      "type": "error"
    },
    {
      "inputs": [
        {
          "internalType": "address",
          "name": "walletAddress",
          "type": "address"
        },
        {
          "internalType": "bytes32",
          "name": "contentHash",
          "type": "bytes32"
        }
      ],
      "name": "InvalidVoting",
      "type": "error"
    },
    {
      "inputs": [
        {
          "internalType": "address",
          "name": "owner",
          "type": "address"
        }
      ],
      "name": "OwnableInvalidOwner",
      "type": "error"
    },
    {
      "inputs": [
        {
          "internalType": "address",
          "name": "account",
          "type": "address"
        }
      ],
      "name": "OwnableUnauthorizedAccount",
      "type": "error"
    },
    {
      "inputs": [
        {
          "internalType": "address",
          "name": "walletAddress",
          "type": "address"
        },
        {
          "internalType": "bytes32",
          "name": "contentHash",
          "type": "bytes32"
        }
      ],
      "name": "PaidContentVoting",
      "type": "error"
    },
    {
      "anonymous": false,
      "inputs": [
        {
          "indexed": true,
          "internalType": "bytes32",
          "name": "hash",
          "type": "bytes32"
        },
        {
          "indexed": true,
          "internalType": "address",
          "name": "buyer",
          "type": "address"
        },
        {
          "indexed": false,
          "internalType": "uint256",
          "name": "amount",
          "type": "uint256"
        },
        {
          "indexed": false,
          "internalType": "uint256",
          "name": "totalPrice",
          "type": "uint256"
        }
      ],
      "name": "AccessPurchased",
      "type": "event"
    },
    {
      "anonymous": false,
      "inputs": [
        {
          "indexed": true,
          "internalType": "bytes32",
          "name": "hash",
          "type": "bytes32"
        },
        {
          "indexed": true,
          "internalType": "address",
          "name": "seller",
          "type": "address"
        },
        {
          "indexed": false,
          "internalType": "uint256",
          "name": "amount",
          "type": "uint256"
        },
        {
          "indexed": false,
          "internalType": "uint256",
          "name": "totalPrice",
          "type": "uint256"
        }
      ],
      "name": "AccessSold",
      "type": "event"
    },
    {
      "anonymous": false,
      "inputs": [
        {
          "indexed": true,
          "internalType": "bytes32",
          "name": "hash",
          "type": "bytes32"
        },
        {
          "indexed": true,
          "internalType": "address",
          "name": "creator",
          "type": "address"
        },
        {
          "indexed": false,
          "internalType": "uint256",
          "name": "startedPrice",
          "type": "uint256"
        }
      ],
      "name": "ContentCreated",
      "type": "event"
    },
    {
      "anonymous": false,
      "inputs": [
        {
          "indexed": true,
          "internalType": "bytes32",
          "name": "hash",
          "type": "bytes32"
        },
        {
          "indexed": true,
          "internalType": "address",
          "name": "account",
          "type": "address"
        },
        {
          "indexed": true,
          "internalType": "address",
          "name": "creator",
          "type": "address"
        }
      ],
      "name": "Downvoted",
      "type": "event"
    },
    {
      "anonymous": false,
      "inputs": [
        {
          "indexed": true,
          "internalType": "address",
          "name": "previousOwner",
          "type": "address"
        },
        {
          "indexed": true,
          "internalType": "address",
          "name": "newOwner",
          "type": "address"
        }
      ],
      "name": "OwnershipTransferred",
      "type": "event"
    },
    {
      "anonymous": false,
      "inputs": [
        {
          "indexed": true,
          "internalType": "bytes32",
          "name": "hash",
          "type": "bytes32"
        },
        {
          "indexed": true,
          "internalType": "address",
          "name": "account",
          "type": "address"
        },
        {
          "indexed": true,
          "internalType": "address",
          "name": "creator",
          "type": "address"
        }
      ],
      "name": "Upvoted",
      "type": "event"
    },
    {
      "inputs": [
        {
          "internalType": "bytes32",
          "name": "_contentHash",
          "type": "bytes32"
        },
        {
          "internalType": "uint256",
          "name": "_amount",
          "type": "uint256"
        }
      ],
      "name": "buyContentAccess",
      "outputs": [],
      "stateMutability": "payable",
      "type": "function"
    },
    {
      "inputs": [
        {
          "internalType": "address",
          "name": "_creator",
          "type": "address"
        },
        {
          "internalType": "uint256",
          "name": "_periodTimestamp",
          "type": "uint256"
        }
      ],
      "name": "claim",
      "outputs": [],
      "stateMutability": "nonpayable",
      "type": "function"
    },
    {
      "inputs": [],
      "name": "contentAccessContract",
      "outputs": [
        {
          "internalType": "address",
          "name": "",
          "type": "address"
        }
      ],
      "stateMutability": "view",
      "type": "function"
    },
    {
      "inputs": [
        {
          "internalType": "bytes32",
          "name": "",
          "type": "bytes32"
        }
      ],
      "name": "contentList",
      "outputs": [
        {
          "internalType": "bytes32",
          "name": "contentHash",
          "type": "bytes32"
        },
        {
          "internalType": "uint256",
          "name": "accessTokenId",
          "type": "uint256"
        },
        {
          "internalType": "address",
          "name": "creator",
          "type": "address"
        },
        {
          "internalType": "uint256",
          "name": "startedPrice",
          "type": "uint256"
        },
        {
          "internalType": "uint256",
          "name": "totalUpvote",
          "type": "uint256"
        },
        {
          "internalType": "uint256",
          "name": "totalDownvote",
          "type": "uint256"
        },
        {
          "internalType": "uint256",
          "name": "totalSupply",
          "type": "uint256"
        }
      ],
      "stateMutability": "view",
      "type": "function"
    },
    {
      "inputs": [],
      "name": "creatorFeePercentBase",
      "outputs": [
        {
          "internalType": "uint8",
          "name": "",
          "type": "uint8"
        }
      ],
      "stateMutability": "view",
      "type": "function"
    },
    {
      "inputs": [
        {
          "internalType": "address",
          "name": "",
          "type": "address"
        }
      ],
      "name": "creatorList",
      "outputs": [
        {
          "internalType": "address",
          "name": "walletAddress",
          "type": "address"
        },
        {
          "internalType": "uint256",
          "name": "totalContent",
          "type": "uint256"
        },
        {
          "internalType": "uint256",
          "name": "totalUpvote",
          "type": "uint256"
        },
        {
          "internalType": "uint256",
          "name": "totalDownvote",
          "type": "uint256"
        }
      ],
      "stateMutability": "view",
      "type": "function"
    },
    {
      "inputs": [],
      "name": "extraFeePercentBase",
      "outputs": [
        {
          "internalType": "uint8",
          "name": "",
          "type": "uint8"
        }
      ],
      "stateMutability": "view",
      "type": "function"
    },
    {
      "inputs": [
        {
          "internalType": "uint256",
          "name": "_basePrice",
          "type": "uint256"
        },
        {
          "internalType": "uint256",
          "name": "_supply",
          "type": "uint256"
        },
        {
          "internalType": "uint256",
          "name": "_amount",
          "type": "uint256"
        }
      ],
      "name": "getContentPrice",
      "outputs": [
        {
          "internalType": "uint256",
          "name": "",
          "type": "uint256"
        }
      ],
      "stateMutability": "pure",
      "type": "function"
    },
    {
      "inputs": [
        {
          "internalType": "bytes32[]",
          "name": "_contentHashes",
          "type": "bytes32[]"
        }
      ],
      "name": "getContentsInfo",
      "outputs": [
        {
          "components": [
            {
              "internalType": "bytes32",
              "name": "contentHash",
              "type": "bytes32"
            },
            {
              "internalType": "uint256",
              "name": "accessTokenId",
              "type": "uint256"
            },
            {
              "internalType": "address",
              "name": "creator",
              "type": "address"
            },
            {
              "internalType": "uint256",
              "name": "startedPrice",
              "type": "uint256"
            },
            {
              "internalType": "uint256",
              "name": "totalUpvote",
              "type": "uint256"
            },
            {
              "internalType": "uint256",
              "name": "totalDownvote",
              "type": "uint256"
            },
            {
              "internalType": "uint256",
              "name": "totalSupply",
              "type": "uint256"
            }
          ],
          "internalType": "struct JustFriendsInterface.Content[]",
          "name": "",
          "type": "tuple[]"
        }
      ],
      "stateMutability": "view",
      "type": "function"
    },
    {
      "inputs": [
        {
          "internalType": "address",
          "name": "_walletAddress",
          "type": "address"
        }
      ],
      "name": "getCreatorInfo",
      "outputs": [
        {
          "internalType": "address",
          "name": "",
          "type": "address"
        },
        {
          "internalType": "uint256",
          "name": "",
          "type": "uint256"
        },
        {
          "internalType": "uint256",
          "name": "",
          "type": "uint256"
        },
        {
          "internalType": "uint256",
          "name": "",
          "type": "uint256"
        }
      ],
      "stateMutability": "view",
      "type": "function"
    },
    {
      "inputs": [],
      "name": "owner",
      "outputs": [
        {
          "internalType": "address",
          "name": "",
          "type": "address"
        }
      ],
      "stateMutability": "view",
      "type": "function"
    },
    {
      "inputs": [
        {
          "internalType": "bytes32",
          "name": "_contentHash",
          "type": "bytes32"
        },
        {
          "internalType": "uint256",
          "name": "_startedPrice",
          "type": "uint256"
        }
      ],
      "name": "postContent",
      "outputs": [],
      "stateMutability": "nonpayable",
      "type": "function"
    },
    {
      "inputs": [],
      "name": "protocolFeeDestination",
      "outputs": [
        {
          "internalType": "address",
          "name": "",
          "type": "address"
        }
      ],
      "stateMutability": "view",
      "type": "function"
    },
    {
      "inputs": [],
      "name": "protocolFeePercentBase",
      "outputs": [
        {
          "internalType": "uint8",
          "name": "",
          "type": "uint8"
        }
      ],
      "stateMutability": "view",
      "type": "function"
    },
    {
      "inputs": [],
      "name": "renounceOwnership",
      "outputs": [],
      "stateMutability": "nonpayable",
      "type": "function"
    },
    {
      "inputs": [
        {
          "internalType": "bytes32",
          "name": "_contentHash",
          "type": "bytes32"
        },
        {
          "internalType": "uint256",
          "name": "_amount",
          "type": "uint256"
        }
      ],
      "name": "sellContentAccess",
      "outputs": [],
      "stateMutability": "nonpayable",
      "type": "function"
    },
    {
      "inputs": [
        {
          "internalType": "uint8",
          "name": "_newProtocolFeePercentBase",
          "type": "uint8"
        },
        {
          "internalType": "uint8",
          "name": "_newCreatorFeePercentBase",
          "type": "uint8"
        },
        {
          "internalType": "uint8",
          "name": "_newExtraFeePercentBase",
          "type": "uint8"
        }
      ],
      "name": "setFeePercentBase",
      "outputs": [],
      "stateMutability": "nonpayable",
      "type": "function"
    },
    {
      "inputs": [
        {
          "internalType": "address",
          "name": "_newProtocolFeeDestination",
          "type": "address"
        }
      ],
      "name": "setProtocolFeeDestination",
      "outputs": [],
      "stateMutability": "nonpayable",
      "type": "function"
    },
    {
      "inputs": [
        {
          "internalType": "uint8",
          "name": "_upvoteWeight",
          "type": "uint8"
        },
        {
          "internalType": "uint8",
          "name": "_downvoteWeight",
          "type": "uint8"
        },
        {
          "internalType": "uint8",
          "name": "_voteWeight",
          "type": "uint8"
        }
      ],
      "name": "setVoteWeightBase",
      "outputs": [],
      "stateMutability": "nonpayable",
      "type": "function"
    },
    {
      "inputs": [
        {
          "internalType": "address",
          "name": "newOwner",
          "type": "address"
        }
      ],
      "name": "transferOwnership",
      "outputs": [],
      "stateMutability": "nonpayable",
      "type": "function"
    },
    {
      "inputs": [
        {
          "internalType": "bytes32",
          "name": "_contentHash",
          "type": "bytes32"
        },
        {
          "internalType": "enum JustFriendsInterface.VoteType",
          "name": "_voteType",
          "type": "uint8"
        },
        {
          "internalType": "uint256",
          "name": "_periodTimestamp",
          "type": "uint256"
        }
      ],
      "name": "vote",
      "outputs": [],
      "stateMutability": "nonpayable",
      "type": "function"
    }
  ],
  "bytecode": "0x608060405260006003556004805466ffffffffffffff1916650f42401950641790553480156200002e57600080fd5b5060405162002b9c38038062002b9c833981016040819052620000519162000175565b33806200007857604051631e4fbdf760e01b81526000600482015260240160405180910390fd5b6200008381620000f6565b5060018054600280546001600160a01b0319166001600160a01b03948516179055959091166001600160a81b031990951694909417600160a01b60ff948516021761ffff60a81b1916600160a81b9284169290920260ff60b01b191691909117600160b01b9190921602179055620001e5565b600080546001600160a01b038381166001600160a01b0319831681178455604051919092169283917f8be0079c531659141344cd1fd0a4f28419497f9722a3daafe3b4186f6b6457e09190a35050565b80516001600160a01b03811681146200015e57600080fd5b919050565b805160ff811681146200015e57600080fd5b600080600080600060a086880312156200018e57600080fd5b620001998662000146565b9450620001a96020870162000163565b9350620001b96040870162000163565b9250620001c96060870162000163565b9150620001d96080870162000146565b90509295509295909350565b6129a780620001f56000396000f3fe60806040526004361061016a5760003560e01c806391a6fe98116100cb578063bfcfb7a71161007f578063de11368c11610059578063de11368c146105aa578063ec17d627146105ca578063f2fde38b146105fd57600080fd5b8063bfcfb7a714610545578063cb6029b214610558578063ccdb635f1461057857600080fd5b80639dd3cad3116100b05780639dd3cad3146104e5578063a10786b014610505578063aad3ec961461052557600080fd5b806391a6fe981461043857806397d5c1ac1461046657600080fd5b80633d4ac7181161012257806355b90ea71161010757806355b90ea7146103d8578063715018a6146103f85780638da5cb5b1461040d57600080fd5b80633d4ac718146102eb5780634ce7957c146103ab57600080fd5b8063115b157011610153578063115b1570146101e85780631d5593b41461027857806323bac0dd146102a557600080fd5b806307bd92b71461016f5780630f7f49ff146101c6575b600080fd5b34801561017b57600080fd5b5060025461019c9073ffffffffffffffffffffffffffffffffffffffff1681565b60405173ffffffffffffffffffffffffffffffffffffffff90911681526020015b60405180910390f35b3480156101d257600080fd5b506101e66101e1366004612474565b61061d565b005b3480156101f457600080fd5b506102416102033660046124db565b600660205260009081526040902080546001820154600283015460039093015473ffffffffffffffffffffffffffffffffffffffff90921692909184565b6040805173ffffffffffffffffffffffffffffffffffffffff909516855260208501939093529183015260608201526080016101bd565b34801561028457600080fd5b50610298610293366004612525565b6106f3565b6040516101bd9190612601565b3480156102b157600080fd5b506001546102d990760100000000000000000000000000000000000000000000900460ff1681565b60405160ff90911681526020016101bd565b3480156102f757600080fd5b5061035b610306366004612699565b600560208190526000918252604090912080546001820154600283015460038401546004850154958501546006909501549395929473ffffffffffffffffffffffffffffffffffffffff909216939092919087565b60408051978852602088019690965273ffffffffffffffffffffffffffffffffffffffff909416948601949094526060850191909152608084015260a083019190915260c082015260e0016101bd565b3480156103b757600080fd5b5060015461019c9073ffffffffffffffffffffffffffffffffffffffff1681565b3480156103e457600080fd5b506101e66103f33660046126b2565b6108b0565b34801561040457600080fd5b506101e6610e5f565b34801561041957600080fd5b5060005473ffffffffffffffffffffffffffffffffffffffff1661019c565b34801561044457600080fd5b506104586104533660046126ee565b610e73565b6040519081526020016101bd565b34801561047257600080fd5b506102416104813660046124db565b73ffffffffffffffffffffffffffffffffffffffff9081166000908152600660209081526040918290208251608081018452815490941680855260018201549285018390526002820154938501849052600390910154606090940184905293909290565b3480156104f157600080fd5b506101e6610500366004612474565b610f8d565b34801561051157600080fd5b506101e66105203660046124db565b611004565b34801561053157600080fd5b506101e661054036600461271a565b611053565b6101e6610553366004612744565b6113bb565b34801561056457600080fd5b506101e6610573366004612744565b6117ea565b34801561058457600080fd5b506001546102d99074010000000000000000000000000000000000000000900460ff1681565b3480156105b657600080fd5b506101e66105c5366004612744565b611a0b565b3480156105d657600080fd5b506001546102d9907501000000000000000000000000000000000000000000900460ff1681565b34801561060957600080fd5b506101e66106183660046124db565b611f1d565b610625611f81565b600180547fffffffffffffffffffff0000ffffffffffffffffffffffffffffffffffffffff167401000000000000000000000000000000000000000060ff958616027fffffffffffffffffffff00ffffffffffffffffffffffffffffffffffffffffff1617750100000000000000000000000000000000000000000093851693909302929092177fffffffffffffffffff00ffffffffffffffffffffffffffffffffffffffffffff167601000000000000000000000000000000000000000000009190931602919091179055565b60606000825167ffffffffffffffff811115610711576107116124f6565b60405190808252806020026020018201604052801561079b57816020015b6107886040518060e001604052806000801916815260200160008152602001600073ffffffffffffffffffffffffffffffffffffffff168152602001600081526020016000815260200160008152602001600081525090565b81526020019060019003908161072f5790505b50905060005b83518110156108a9576000600560008684815181106107c2576107c2612766565b602002602001015181526020019081526020016000206040518060e001604052908160008201548152602001600182015481526020016002820160009054906101000a900473ffffffffffffffffffffffffffffffffffffffff1673ffffffffffffffffffffffffffffffffffffffff1673ffffffffffffffffffffffffffffffffffffffff16815260200160038201548152602001600482015481526020016005820154815260200160068201548152505090508083838151811061088a5761088a612766565b60200260200101819052505080806108a1906127c4565b9150506107a1565b5092915050565b600083815260056020818152604092839020835160e08101855281548152600182015492810192909252600281015473ffffffffffffffffffffffffffffffffffffffff1693820193909352600383015460608201819052600484015460808301529183015460a082015260069092015460c08301521561096b576040517f51e6df22000000000000000000000000000000000000000000000000000000008152336004820152602481018590526044015b60405180910390fd5b600083600281111561097f5761097f6127fc565b036109bf576040517f8a0ffdbe00000000000000000000000000000000000000000000000000000000815233600482015260248101859052604401610962565b3373ffffffffffffffffffffffffffffffffffffffff16816040015173ffffffffffffffffffffffffffffffffffffffff1603610a31576040517f8a0ffdbe00000000000000000000000000000000000000000000000000000000815233600482015260248101859052604401610962565b60408082015173ffffffffffffffffffffffffffffffffffffffff90811660009081526006602090815283822084516080810186528154909416845260018101548483015260028101548486015260030154606084015233825260078152838220888352905291822054909160ff90911690816002811115610ab557610ab56127fc565b14158015610ae45750846002811115610ad057610ad06127fc565b816002811115610ae257610ae26127fc565b145b15610b24576040517fcd7f7b9500000000000000000000000000000000000000000000000000000000815233600482015260248101879052604401610962565b815173ffffffffffffffffffffffffffffffffffffffff1660009081526009602090815260408083208784529091529020600281015460ff16610ceb576004544290610b7d906301000000900463ffffffff168761282b565b11610c6d5760028101805460017fffffffffffffffffffffffffffffffffffffffffffffffffffffffffffffff009182168117909255845173ffffffffffffffffffffffffffffffffffffffff908116600090815260096020908152604080832042808552908352818420870180548089018255908552838520018054337fffffffffffffffffffffffff0000000000000000000000000000000000000000909116811790915582518084018452888152808501868152918652600885528386208c5190971686529584528285209185529252909120915182555192018054909116911515919091179055610ceb565b336000908152600860209081526040808320865173ffffffffffffffffffffffffffffffffffffffff16845282528083208884528252918290208251808401909352805480845260019182015460ff16151592840192909252908290610cd490839061282b565b90525083518151610ce9919033908990611fd4565b505b6001866002811115610cff57610cff6127fc565b03610d825760018460a001818151610d17919061282b565b90525060608301805160019190610d2f90839061282b565b905250604080850151905173ffffffffffffffffffffffffffffffffffffffff90911690339089907f0f4350ab19f9ce309a3a6602ee41a7e87d7e70da42bac2bec03750a0e999029590600090a4610dfc565b600184608001818151610d95919061282b565b90525060408301805160019190610dad90839061282b565b905250604080850151905173ffffffffffffffffffffffffffffffffffffffff90911690339089907fbb855693349364057d3f5bfed9236334c04a7458f3a270f18a0c373f909b87f290600090a45b3360009081526007602090815260408083208a8452909152902080548791907fffffffffffffffffffffffffffffffffffffffffffffffffffffffffffffff00166001836002811115610e5157610e516127fc565b021790555050505050505050565b610e67611f81565b610e7160006122b7565b565b6000808315610ece576006610e8960018661283e565b610e94906002612851565b610e9f90600161282b565b85610eab60018261283e565b610eb59190612851565b610ebf9190612851565b610ec99190612868565b610ed1565b60005b9050600084158015610ee35750836001145b610f5857600684610ef560018861283e565b610eff919061282b565b610f0a906002612851565b610f1590600161282b565b610f1f868861282b565b86610f2b60018a61283e565b610f35919061282b565b610f3f9190612851565b610f499190612851565b610f539190612868565b610f5b565b60005b90506000610f69838361283e565b9050612710610f788289612851565b610f829190612868565b979650505050505050565b610f95611f81565b6004805460ff9485167fffffffffffffffffffffffffffffffffffffffffffffffffffffffffffff00009091161761010093851693909302929092177fffffffffffffffffffffffffffffffffffffffffffffffffffffffffff00ffff16620100009190931602919091179055565b61100c611f81565b600180547fffffffffffffffffffffffff00000000000000000000000000000000000000001673ffffffffffffffffffffffffffffffffffffffff92909216919091179055565b33600090815260086020908152604080832073ffffffffffffffffffffffffffffffffffffffff8616845282528083208484528252918290208251808401909352805483526001015460ff1615801591830191909152611104576040517fc3ea5df500000000000000000000000000000000000000000000000000000000815233600482015273ffffffffffffffffffffffffffffffffffffffff8416602482015260448101839052606401610962565b60045461111e906301000000900463ffffffff168361282b565b42101561117c576040517f858e249f00000000000000000000000000000000000000000000000000000000815233600482015273ffffffffffffffffffffffffffffffffffffffff8416602482015260448101839052606401610962565b73ffffffffffffffffffffffffffffffffffffffff831660009081526009602090815260408083208584528252808320815160608101835281548152600182018054845181870281018701909552808552919492938584019390929083018282801561121e57602002820191906000526020600020905b815473ffffffffffffffffffffffffffffffffffffffff1681526001909101906020018083116111f3575b50505091835250506002919091015460ff161515602090910152604081015190915061124c57600160408201525b60005b8160200151518160ff161015611363573373ffffffffffffffffffffffffffffffffffffffff1682602001518260ff168151811061128f5761128f612766565b602002602001015173ffffffffffffffffffffffffffffffffffffffff16036113515781516000906112c390601490612868565b604051909150600090339083908381818185875af1925050503d8060008114611308576040519150601f19603f3d011682016040523d82523d6000602084013e61130d565b606091505b5050905080611348576040517f24a8ac1300000000000000000000000000000000000000000000000000000000815260040160405180910390fd5b50505050505050565b8061135b816128a3565b91505061124f565b506040517ffd52de3600000000000000000000000000000000000000000000000000000000815233600482015273ffffffffffffffffffffffffffffffffffffffff8516602482015260448101849052606401610962565b6000828152600560205260409020600281015473ffffffffffffffffffffffffffffffffffffffff1661141d576040517f69d71ce500000000000000000000000000000000000000000000000000000000815260048101849052602401610962565b8060030154600003611464576040517f18c1febf00000000000000000000000000000000000000000000000000000000815233600482015260248101849052604401610962565b60068101541580156114905750600281015473ffffffffffffffffffffffffffffffffffffffff163314155b156114d0576040517fdb5a4fd400000000000000000000000000000000000000000000000000000000815233600482015260248101849052604401610962565b60028082015473ffffffffffffffffffffffffffffffffffffffff908116600090815260066020818152604080842081516080810183528154909616865260018101549286019290925294810154948401949094526003938401546060840152928401549284015491929091611547919086610e73565b9050600061155d8360400151846060015161232c565b9050600080611580838660600151876040015161157a919061282b565b86612367565b909250905080611590838661282b565b61159a919061282b565b3410156115e2576040517fd066786900000000000000000000000000000000000000000000000000000000815233600482015260248101899052346044820152606401610962565b868660060160008282546115f6919061282b565b909155505060015460405160009173ffffffffffffffffffffffffffffffffffffffff169083908381818185875af1925050503d8060008114611655576040519150601f19603f3d011682016040523d82523d6000602084013e61165a565b606091505b505090506000866000015173ffffffffffffffffffffffffffffffffffffffff168460405160006040518083038185875af1925050503d80600081146116bc576040519150601f19603f3d011682016040523d82523d6000602084013e6116c1565b606091505b505090508115806116d0575080155b15611707576040517f24a8ac1300000000000000000000000000000000000000000000000000000000815260040160405180910390fd5b60025460018901546040517fbbe108b90000000000000000000000000000000000000000000000000000000081523360048201526024810191909152604481018b905273ffffffffffffffffffffffffffffffffffffffff90911690819063bbe108b990606401600060405180830381600087803b15801561178857600080fd5b505af115801561179c573d6000803e3d6000fd5b5050604080518d8152602081018b90523393508e92507f8fccfe372405954c8e1283918d67d52c901db69d2458fb3588c9491d6da7b093910160405180910390a35050505050505050505050565b3360009081526006602052604090205473ffffffffffffffffffffffffffffffffffffffff1661189d5760408051608081018252338082526000602080840182815284860183815260608601848152948452600690925294909120925183547fffffffffffffffffffffffff00000000000000000000000000000000000000001673ffffffffffffffffffffffffffffffffffffffff909116178355925160018301559151600282015590516003909101555b6040805160e081018252838152600380546020808401918252338486019081526060850187815260006080870181815260a0880182815260c089018381528c8452600596879052998320895181559651600188015593516002870180547fffffffffffffffffffffffff00000000000000000000000000000000000000001673ffffffffffffffffffffffffffffffffffffffff90921691909117905591518587015590516004850155905191830191909155935160069091015580549192611965836127c4565b9091555050336000908152600660209081526040918290208251608081018452815473ffffffffffffffffffffffffffffffffffffffff16815260018201549281018381526002830154948201949094526003909101546060820152916119cb826127c4565b905250604051838152339085907fd37a590ef3ba46087e58089ce48f31e4d9984dfbc9f16f956693aee6297f3e1e9060200160405180910390a350505050565b6000828152600560205260409020600281015473ffffffffffffffffffffffffffffffffffffffff16611a6d576040517f69d71ce500000000000000000000000000000000000000000000000000000000815260048101849052602401610962565b8060030154600003611ab4576040517f18c1febf00000000000000000000000000000000000000000000000000000000815233600482015260248101849052604401610962565b81816006015411611afa576040517fb958565e00000000000000000000000000000000000000000000000000000000815233600482015260248101849052604401610962565b60025460018201546040517efdd58e000000000000000000000000000000000000000000000000000000008152336004820152602481019190915273ffffffffffffffffffffffffffffffffffffffff909116908390829062fdd58e90604401602060405180830381865afa158015611b77573d6000803e3d6000fd5b505050506040513d601f19601f82011682018060405250810190611b9b91906128c2565b11611be2576040517f380dfc420000000000000000000000000000000000000000000000000000000081523360048201526024810185905260448101849052606401610962565b60028083015473ffffffffffffffffffffffffffffffffffffffff908116600090815260066020818152604080842081516080810183528154909616865260018101549286019290925294810154948401949094526003938401546060840152928501549285015491929091611c649190611c5e90889061283e565b87610e73565b90506000611c7a8360400151846060015161232c565b9050600080611c97838660600151876040015161157a919061282b565b9150915087876006016000828254611caf919061283e565b909155505060015460405160009173ffffffffffffffffffffffffffffffffffffffff169083908381818185875af1925050503d8060008114611d0e576040519150601f19603f3d011682016040523d82523d6000602084013e611d13565b606091505b505090506000866000015173ffffffffffffffffffffffffffffffffffffffff168460405160006040518083038185875af1925050503d8060008114611d75576040519150601f19603f3d011682016040523d82523d6000602084013e611d7a565b606091505b50909150600090503384611d8e878a61283e565b611d98919061283e565b604051600081818185875af1925050503d8060008114611dd4576040519150601f19603f3d011682016040523d82523d6000602084013e611dd9565b606091505b50509050821580611de8575081155b80611df1575080155b15611e28576040517f24a8ac1300000000000000000000000000000000000000000000000000000000815260040160405180910390fd5b60018a01546040517f588160480000000000000000000000000000000000000000000000000000000081523360048201526024810191909152604481018c905273ffffffffffffffffffffffffffffffffffffffff8a1690635881604890606401600060405180830381600087803b158015611ea357600080fd5b505af1158015611eb7573d6000803e3d6000fd5b503392508e91507fb78a347f67e60e77f52aa2a212347075651ba0dbe890c6ca751c2aab5cf45d3d90508d87611eed8a8d61283e565b611ef7919061283e565b6040805192835260208301919091520160405180910390a3505050505050505050505050565b611f25611f81565b73ffffffffffffffffffffffffffffffffffffffff8116611f75576040517f1e4fbdf700000000000000000000000000000000000000000000000000000000815260006004820152602401610962565b611f7e816122b7565b50565b60005473ffffffffffffffffffffffffffffffffffffffff163314610e71576040517f118cdaa7000000000000000000000000000000000000000000000000000000008152336004820152602401610962565b73ffffffffffffffffffffffffffffffffffffffff841660009081526009602090815260408083208584529091528120600181015490915b8181101561134857600083600101828154811061202b5761202b612766565b600091825260208083209091015473ffffffffffffffffffffffffffffffffffffffff908116808452600883526040808520928d1685529183528184208a8552909252909120549091508086106120835750506122a5565b61208e60018561283e565b8314801561209c5750601484105b156120fa576001858101805491820181556000908152602090200180547fffffffffffffffffffffffff00000000000000000000000000000000000000001673ffffffffffffffffffffffffffffffffffffffff8a161790556122a2565b8360140361216e5784600101805480612115576121156128db565b60008281526020902081017fffffffffffffffffffffffffffffffffffffffffffffffffffffffffffffffff90810180547fffffffffffffffffffffffff00000000000000000000000000000000000000001690550190555b600061217b60018661283e565b90505b838111156122425785600101600182612197919061283e565b815481106121a7576121a7612766565b60009182526020909120015460018701805473ffffffffffffffffffffffffffffffffffffffff90921691839081106121e2576121e2612766565b600091825260209091200180547fffffffffffffffffffffffff00000000000000000000000000000000000000001673ffffffffffffffffffffffffffffffffffffffff929092169190911790558061223a8161290a565b91505061217e565b508785600101848154811061225957612259612766565b9060005260206000200160006101000a81548173ffffffffffffffffffffffffffffffffffffffff021916908373ffffffffffffffffffffffffffffffffffffffff1602179055505b50505b806122af816127c4565b91505061200c565b6000805473ffffffffffffffffffffffffffffffffffffffff8381167fffffffffffffffffffffffff0000000000000000000000000000000000000000831681178455604051919092169283917f8be0079c531659141344cd1fd0a4f28419497f9722a3daafe3b4186f6b6457e09190a35050565b60045460009061234490610100900460ff1683612851565b6004546123549060ff1685612851565b61235e919061283e565b90505b92915050565b600154600454600091829160ff750100000000000000000000000000000000000000000083048116927401000000000000000000000000000000000000000090048116916123bd91889162010000900416612851565b87111561241e576001546123ee90760100000000000000000000000000000000000000000000900460ff168361293f565b60015490925061241b90760100000000000000000000000000000000000000000000900460ff1682612958565b90505b606461242d60ff841687612851565b6124379190612868565b606461244660ff841688612851565b6124509190612868565b935093505050935093915050565b803560ff8116811461246f57600080fd5b919050565b60008060006060848603121561248957600080fd5b6124928461245e565b92506124a06020850161245e565b91506124ae6040850161245e565b90509250925092565b803573ffffffffffffffffffffffffffffffffffffffff8116811461246f57600080fd5b6000602082840312156124ed57600080fd5b61235e826124b7565b7f4e487b7100000000000000000000000000000000000000000000000000000000600052604160045260246000fd5b6000602080838503121561253857600080fd5b823567ffffffffffffffff8082111561255057600080fd5b818501915085601f83011261256457600080fd5b813581811115612576576125766124f6565b8060051b6040517fffffffffffffffffffffffffffffffffffffffffffffffffffffffffffffffe0603f830116810181811085821117156125b9576125b96124f6565b6040529182528482019250838101850191888311156125d757600080fd5b938501935b828510156125f5578435845293850193928501926125dc565b98975050505050505050565b602080825282518282018190526000919060409081850190868401855b8281101561268c5781518051855286810151878601528581015173ffffffffffffffffffffffffffffffffffffffff1686860152606080820151908601526080808201519086015260a0808201519086015260c0908101519085015260e0909301929085019060010161261e565b5091979650505050505050565b6000602082840312156126ab57600080fd5b5035919050565b6000806000606084860312156126c757600080fd5b833592506020840135600381106126dd57600080fd5b929592945050506040919091013590565b60008060006060848603121561270357600080fd5b505081359360208301359350604090920135919050565b6000806040838503121561272d57600080fd5b612736836124b7565b946020939093013593505050565b6000806040838503121561275757600080fd5b50508035926020909101359150565b7f4e487b7100000000000000000000000000000000000000000000000000000000600052603260045260246000fd5b7f4e487b7100000000000000000000000000000000000000000000000000000000600052601160045260246000fd5b60007fffffffffffffffffffffffffffffffffffffffffffffffffffffffffffffffff82036127f5576127f5612795565b5060010190565b7f4e487b7100000000000000000000000000000000000000000000000000000000600052602160045260246000fd5b8082018082111561236157612361612795565b8181038181111561236157612361612795565b808202811582820484141761236157612361612795565b60008261289e577f4e487b7100000000000000000000000000000000000000000000000000000000600052601260045260246000fd5b500490565b600060ff821660ff81036128b9576128b9612795565b60010192915050565b6000602082840312156128d457600080fd5b5051919050565b7f4e487b7100000000000000000000000000000000000000000000000000000000600052603160045260246000fd5b60008161291957612919612795565b507fffffffffffffffffffffffffffffffffffffffffffffffffffffffffffffffff0190565b60ff818116838216019081111561236157612361612795565b60ff82811682821603908111156123615761236161279556fea2646970667358221220f2e1520ed2a8cba8a87fa98586eda55edde5c526ec8a7600ba6185ad87bda32a64736f6c63430008140033",
  "linkReferences": {},
  "deployedLinkReferences": {}
}