{
  "_format": "hh-sol-artifact-1",
  "contractName": "NonTransferableERC1155",
  "sourceName": "contracts/token/NonTransferableERC1155.sol",
  "abi": [
    {
      "inputs": [
        {
          "internalType": "string",
          "name": "uri",
          "type": "string"
        }
      ],
      "stateMutability": "nonpayable",
      "type": "constructor"
    },
    {
      "inputs": [
        {
          "internalType": "address",
          "name": "sender",
          "type": "address"
        },
        {
          "internalType": "uint256",
          "name": "balance",
          "type": "uint256"
        },
        {
          "internalType": "uint256",
          "name": "needed",
          "type": "uint256"
        },
        {
          "internalType": "uint256",
          "name": "tokenId",
          "type": "uint256"
        }
      ],
      "name": "ERC1155InsufficientBalance",
      "type": "error"
    },
    {
      "inputs": [
        {
          "internalType": "address",
          "name": "approver",
          "type": "address"
        }
      ],
      "name": "ERC1155InvalidApprover",
      "type": "error"
    },
    {
      "inputs": [
        {
          "internalType": "uint256",
          "name": "idsLength",
          "type": "uint256"
        },
        {
          "internalType": "uint256",
          "name": "valuesLength",
          "type": "uint256"
        }
      ],
      "name": "ERC1155InvalidArrayLength",
      "type": "error"
    },
    {
      "inputs": [
        {
          "internalType": "address",
          "name": "operator",
          "type": "address"
        }
      ],
      "name": "ERC1155InvalidOperator",
      "type": "error"
    },
    {
      "inputs": [
        {
          "internalType": "address",
          "name": "receiver",
          "type": "address"
        }
      ],
      "name": "ERC1155InvalidReceiver",
      "type": "error"
    },
    {
      "inputs": [
        {
          "internalType": "address",
          "name": "sender",
          "type": "address"
        }
      ],
      "name": "ERC1155InvalidSender",
      "type": "error"
    },
    {
      "inputs": [
        {
          "internalType": "address",
          "name": "operator",
          "type": "address"
        },
        {
          "internalType": "address",
          "name": "owner",
          "type": "address"
        }
      ],
      "name": "ERC1155MissingApprovalForAll",
      "type": "error"
    },
    {
      "inputs": [
        {
          "internalType": "address",
          "name": "owner",
          "type": "address"
        }
      ],
      "name": "OwnableInvalidOwner",
      "type": "error"
    },
    {
      "inputs": [
        {
          "internalType": "address",
          "name": "account",
          "type": "address"
        }
      ],
      "name": "OwnableUnauthorizedAccount",
      "type": "error"
    },
    {
      "anonymous": false,
      "inputs": [
        {
          "indexed": true,
          "internalType": "address",
          "name": "account",
          "type": "address"
        },
        {
          "indexed": true,
          "internalType": "address",
          "name": "operator",
          "type": "address"
        },
        {
          "indexed": false,
          "internalType": "bool",
          "name": "approved",
          "type": "bool"
        }
      ],
      "name": "ApprovalForAll",
      "type": "event"
    },
    {
      "anonymous": false,
      "inputs": [
        {
          "indexed": true,
          "internalType": "address",
          "name": "previousOwner",
          "type": "address"
        },
        {
          "indexed": true,
          "internalType": "address",
          "name": "newOwner",
          "type": "address"
        }
      ],
      "name": "OwnershipTransferred",
      "type": "event"
    },
    {
      "anonymous": false,
      "inputs": [
        {
          "indexed": true,
          "internalType": "address",
          "name": "operator",
          "type": "address"
        },
        {
          "indexed": true,
          "internalType": "address",
          "name": "from",
          "type": "address"
        },
        {
          "indexed": true,
          "internalType": "address",
          "name": "to",
          "type": "address"
        },
        {
          "indexed": false,
          "internalType": "uint256[]",
          "name": "ids",
          "type": "uint256[]"
        },
        {
          "indexed": false,
          "internalType": "uint256[]",
          "name": "values",
          "type": "uint256[]"
        }
      ],
      "name": "TransferBatch",
      "type": "event"
    },
    {
      "anonymous": false,
      "inputs": [
        {
          "indexed": true,
          "internalType": "address",
          "name": "operator",
          "type": "address"
        },
        {
          "indexed": true,
          "internalType": "address",
          "name": "from",
          "type": "address"
        },
        {
          "indexed": true,
          "internalType": "address",
          "name": "to",
          "type": "address"
        },
        {
          "indexed": false,
          "internalType": "uint256",
          "name": "id",
          "type": "uint256"
        },
        {
          "indexed": false,
          "internalType": "uint256",
          "name": "value",
          "type": "uint256"
        }
      ],
      "name": "TransferSingle",
      "type": "event"
    },
    {
      "anonymous": false,
      "inputs": [
        {
          "indexed": false,
          "internalType": "string",
          "name": "value",
          "type": "string"
        },
        {
          "indexed": true,
          "internalType": "uint256",
          "name": "id",
          "type": "uint256"
        }
      ],
      "name": "URI",
      "type": "event"
    },
    {
      "inputs": [
        {
          "internalType": "address",
          "name": "account",
          "type": "address"
        },
        {
          "internalType": "uint256",
          "name": "id",
          "type": "uint256"
        }
      ],
      "name": "balanceOf",
      "outputs": [
        {
          "internalType": "uint256",
          "name": "",
          "type": "uint256"
        }
      ],
      "stateMutability": "view",
      "type": "function"
    },
    {
      "inputs": [
        {
          "internalType": "address[]",
          "name": "accounts",
          "type": "address[]"
        },
        {
          "internalType": "uint256[]",
          "name": "ids",
          "type": "uint256[]"
        }
      ],
      "name": "balanceOfBatch",
      "outputs": [
        {
          "internalType": "uint256[]",
          "name": "",
          "type": "uint256[]"
        }
      ],
      "stateMutability": "view",
      "type": "function"
    },
    {
      "inputs": [
        {
          "internalType": "uint256",
          "name": "id",
          "type": "uint256"
        },
        {
          "internalType": "uint256",
          "name": "amount",
          "type": "uint256"
        }
      ],
      "name": "burn",
      "outputs": [],
      "stateMutability": "nonpayable",
      "type": "function"
    },
    {
      "inputs": [
        {
          "internalType": "uint256[]",
          "name": "ids",
          "type": "uint256[]"
        },
        {
          "internalType": "uint256[]",
          "name": "amounts",
          "type": "uint256[]"
        }
      ],
      "name": "burnBatch",
      "outputs": [],
      "stateMutability": "nonpayable",
      "type": "function"
    },
    {
      "inputs": [
        {
          "internalType": "address",
          "name": "account",
          "type": "address"
        },
        {
          "internalType": "address",
          "name": "operator",
          "type": "address"
        }
      ],
      "name": "isApprovedForAll",
      "outputs": [
        {
          "internalType": "bool",
          "name": "",
          "type": "bool"
        }
      ],
      "stateMutability": "view",
      "type": "function"
    },
    {
      "inputs": [
        {
          "internalType": "uint256",
          "name": "id",
          "type": "uint256"
        },
        {
          "internalType": "uint256",
          "name": "amount",
          "type": "uint256"
        },
        {
          "internalType": "bytes",
          "name": "data",
          "type": "bytes"
        }
      ],
      "name": "mint",
      "outputs": [],
      "stateMutability": "nonpayable",
      "type": "function"
    },
    {
      "inputs": [
        {
          "internalType": "uint256[]",
          "name": "ids",
          "type": "uint256[]"
        },
        {
          "internalType": "uint256[]",
          "name": "amounts",
          "type": "uint256[]"
        },
        {
          "internalType": "bytes",
          "name": "data",
          "type": "bytes"
        }
      ],
      "name": "mintBatch",
      "outputs": [],
      "stateMutability": "nonpayable",
      "type": "function"
    },
    {
      "inputs": [],
      "name": "owner",
      "outputs": [
        {
          "internalType": "address",
          "name": "",
          "type": "address"
        }
      ],
      "stateMutability": "view",
      "type": "function"
    },
    {
      "inputs": [],
      "name": "renounceOwnership",
      "outputs": [],
      "stateMutability": "nonpayable",
      "type": "function"
    },
    {
      "inputs": [
        {
          "internalType": "address",
          "name": "from",
          "type": "address"
        },
        {
          "internalType": "address",
          "name": "to",
          "type": "address"
        },
        {
          "internalType": "uint256[]",
          "name": "ids",
          "type": "uint256[]"
        },
        {
          "internalType": "uint256[]",
          "name": "values",
          "type": "uint256[]"
        },
        {
          "internalType": "bytes",
          "name": "data",
          "type": "bytes"
        }
      ],
      "name": "safeBatchTransferFrom",
      "outputs": [],
      "stateMutability": "nonpayable",
      "type": "function"
    },
    {
      "inputs": [
        {
          "internalType": "address",
          "name": "from",
          "type": "address"
        },
        {
          "internalType": "address",
          "name": "to",
          "type": "address"
        },
        {
          "internalType": "uint256",
          "name": "id",
          "type": "uint256"
        },
        {
          "internalType": "uint256",
          "name": "value",
          "type": "uint256"
        },
        {
          "internalType": "bytes",
          "name": "data",
          "type": "bytes"
        }
      ],
      "name": "safeTransferFrom",
      "outputs": [],
      "stateMutability": "nonpayable",
      "type": "function"
    },
    {
      "inputs": [
        {
          "internalType": "address",
          "name": "operator",
          "type": "address"
        },
        {
          "internalType": "bool",
          "name": "approved",
          "type": "bool"
        }
      ],
      "name": "setApprovalForAll",
      "outputs": [],
      "stateMutability": "nonpayable",
      "type": "function"
    },
    {
      "inputs": [
        {
          "internalType": "string",
          "name": "newURI",
          "type": "string"
        }
      ],
      "name": "setURI",
      "outputs": [],
      "stateMutability": "nonpayable",
      "type": "function"
    },
    {
      "inputs": [
        {
          "internalType": "bytes4",
          "name": "interfaceId",
          "type": "bytes4"
        }
      ],
      "name": "supportsInterface",
      "outputs": [
        {
          "internalType": "bool",
          "name": "",
          "type": "bool"
        }
      ],
      "stateMutability": "view",
      "type": "function"
    },
    {
      "inputs": [
        {
          "internalType": "address",
          "name": "newOwner",
          "type": "address"
        }
      ],
      "name": "transferOwnership",
      "outputs": [],
      "stateMutability": "nonpayable",
      "type": "function"
    },
    {
      "inputs": [
        {
          "internalType": "uint256",
          "name": "",
          "type": "uint256"
        }
      ],
      "name": "uri",
      "outputs": [
        {
          "internalType": "string",
          "name": "",
          "type": "string"
        }
      ],
      "stateMutability": "view",
      "type": "function"
    }
  ],
  "bytecode": "0x60806040523480156200001157600080fd5b5060405162002182380380620021828339810160408190526200003491620000fe565b3381620000418162000084565b506001600160a01b0381166200007157604051631e4fbdf760e01b81526000600482015260240160405180910390fd5b6200007c8162000096565b50506200032e565b600262000092828262000262565b5050565b600380546001600160a01b038381166001600160a01b0319831681179093556040519116919082907f8be0079c531659141344cd1fd0a4f28419497f9722a3daafe3b4186f6b6457e090600090a35050565b634e487b7160e01b600052604160045260246000fd5b600060208083850312156200011257600080fd5b82516001600160401b03808211156200012a57600080fd5b818501915085601f8301126200013f57600080fd5b815181811115620001545762000154620000e8565b604051601f8201601f19908116603f011681019083821181831017156200017f576200017f620000e8565b8160405282815288868487010111156200019857600080fd5b600093505b82841015620001bc57848401860151818501870152928501926200019d565b600086848301015280965050505050505092915050565b600181811c90821680620001e857607f821691505b6020821081036200020957634e487b7160e01b600052602260045260246000fd5b50919050565b601f8211156200025d57600081815260208120601f850160051c81016020861015620002385750805b601f850160051c820191505b81811015620002595782815560010162000244565b5050505b505050565b81516001600160401b038111156200027e576200027e620000e8565b62000296816200028f8454620001d3565b846200020f565b602080601f831160018114620002ce5760008415620002b55750858301515b600019600386901b1c1916600185901b17855562000259565b600085815260208120601f198616915b82811015620002ff57888601518255948401946001909101908401620002de565b50858210156200031e5787850151600019600388901b60f8161c191681555b5050505050600190811b01905550565b611e44806200033e6000396000f3fe608060405234801561001057600080fd5b50600436106100ff5760003560e01c806383ca4b6f11610097578063bb4351e811610066578063bb4351e814610231578063e985e9c514610244578063f242432a1461028d578063f2fde38b146102a057600080fd5b806383ca4b6f146101d05780638da5cb5b146101e3578063a22cb4651461020b578063b390c0ab1461021e57600080fd5b80630e89341c116100d35780630e89341c146101755780632eb2c2d6146101955780634e1273f4146101a8578063715018a6146101c857600080fd5b8062fdd58e1461010457806301ffc9a71461012a57806302fe53051461014d57806308dc9f4214610162575b600080fd5b6101176101123660046113c8565b6102b3565b6040519081526020015b60405180910390f35b61013d610138366004611420565b6102e8565b6040519015158152602001610121565b61016061015b366004611538565b6103cb565b005b6101606101703660046115a9565b6103df565b6101886101833660046115f9565b6103f0565b6040516101219190611676565b6101606101a3366004611718565b610484565b6101bb6101b63660046117c2565b61054f565b60405161012191906118bd565b61016061063d565b6101606101de3660046118d0565b610651565b60035460405173ffffffffffffffffffffffffffffffffffffffff9091168152602001610121565b61016061021936600461191d565b610660565b61016061022c366004611959565b61066b565b61016061023f36600461197b565b610676565b61013d6102523660046119f9565b73ffffffffffffffffffffffffffffffffffffffff918216600090815260016020908152604080832093909416825291909152205460ff1690565b61016061029b366004611a2c565b610682565b6101606102ae366004611a91565b610740565b60008181526020818152604080832073ffffffffffffffffffffffffffffffffffffffff861684529091529020545b92915050565b60007fffffffff0000000000000000000000000000000000000000000000000000000082167fd9b67a2600000000000000000000000000000000000000000000000000000000148061037b57507fffffffff0000000000000000000000000000000000000000000000000000000082167f0e89341c00000000000000000000000000000000000000000000000000000000145b806102e257507f01ffc9a7000000000000000000000000000000000000000000000000000000007fffffffff000000000000000000000000000000000000000000000000000000008316146102e2565b6103d36107a1565b6103dc816107f4565b50565b6103eb33848484610800565b505050565b6060600280546103ff90611aac565b80601f016020809104026020016040519081016040528092919081815260200182805461042b90611aac565b80156104785780601f1061044d57610100808354040283529160200191610478565b820191906000526020600020905b81548152906001019060200180831161045b57829003601f168201915b50505050509050919050565b3373ffffffffffffffffffffffffffffffffffffffff861681148015906104de575073ffffffffffffffffffffffffffffffffffffffff80871660009081526001602090815260408083209385168352929052205460ff16155b1561053a576040517fe237d92200000000000000000000000000000000000000000000000000000000815273ffffffffffffffffffffffffffffffffffffffff8083166004830152871660248201526044015b60405180910390fd5b6105478686868686610883565b505050505050565b6060815183511461059957815183516040517f5b05999100000000000000000000000000000000000000000000000000000000815260048101929092526024820152604401610531565b6000835167ffffffffffffffff8111156105b5576105b5611444565b6040519080825280602002602001820160405280156105de578160200160208202803683370190505b50905060005b845181101561063557602080820286010151610608906020808402870101516102b3565b82828151811061061a5761061a611aff565b602090810291909101015261062e81611b5d565b90506105e4565b509392505050565b6106456107a1565b61064f6000610937565b565b61065c3383836109ae565b5050565b61065c338383610a1b565b61065c338383610b03565b6103eb33848484610b92565b3373ffffffffffffffffffffffffffffffffffffffff861681148015906106dc575073ffffffffffffffffffffffffffffffffffffffff80871660009081526001602090815260408083209385168352929052205460ff16155b15610733576040517fe237d92200000000000000000000000000000000000000000000000000000000815273ffffffffffffffffffffffffffffffffffffffff808316600483015287166024820152604401610531565b6105478686868686610bf6565b6107486107a1565b73ffffffffffffffffffffffffffffffffffffffff8116610798576040517f1e4fbdf700000000000000000000000000000000000000000000000000000000815260006004820152602401610531565b6103dc81610937565b60035473ffffffffffffffffffffffffffffffffffffffff16331461064f576040517f118cdaa7000000000000000000000000000000000000000000000000000000008152336004820152602401610531565b600261065c8282611bdb565b73ffffffffffffffffffffffffffffffffffffffff8416610850576040517f57f447ce00000000000000000000000000000000000000000000000000000000815260006004820152602401610531565b60408051600180825260208201869052818301908152606082018590526080820190925290610547600087848487610cd1565b73ffffffffffffffffffffffffffffffffffffffff84166108d3576040517f57f447ce00000000000000000000000000000000000000000000000000000000815260006004820152602401610531565b73ffffffffffffffffffffffffffffffffffffffff8516610923576040517f01a8351400000000000000000000000000000000000000000000000000000000815260006004820152602401610531565b6109308585858585610cd1565b5050505050565b6003805473ffffffffffffffffffffffffffffffffffffffff8381167fffffffffffffffffffffffff0000000000000000000000000000000000000000831681179093556040519116919082907f8be0079c531659141344cd1fd0a4f28419497f9722a3daafe3b4186f6b6457e090600090a35050565b73ffffffffffffffffffffffffffffffffffffffff83166109fe576040517f01a8351400000000000000000000000000000000000000000000000000000000815260006004820152602401610531565b6103eb836000848460405180602001604052806000815250610cd1565b73ffffffffffffffffffffffffffffffffffffffff8216610a6b576040517fced3e10000000000000000000000000000000000000000000000000000000000815260006004820152602401610531565b73ffffffffffffffffffffffffffffffffffffffff83811660008181526001602090815260408083209487168084529482529182902080547fffffffffffffffffffffffffffffffffffffffffffffffffffffffffffffff001686151590811790915591519182527f17307eab39ab6107e8899845ad3d59bd9653f200f220920489ca2b5937696c31910160405180910390a3505050565b73ffffffffffffffffffffffffffffffffffffffff8316610b53576040517f01a8351400000000000000000000000000000000000000000000000000000000815260006004820152602401610531565b604080516001808252602082018590528183019081526060820184905260a0820190925260006080820181815291929161093091879185908590610cd1565b73ffffffffffffffffffffffffffffffffffffffff8416610be2576040517f57f447ce00000000000000000000000000000000000000000000000000000000815260006004820152602401610531565b610bf0600085858585610cd1565b50505050565b73ffffffffffffffffffffffffffffffffffffffff8416610c46576040517f57f447ce00000000000000000000000000000000000000000000000000000000815260006004820152602401610531565b73ffffffffffffffffffffffffffffffffffffffff8516610c96576040517f01a8351400000000000000000000000000000000000000000000000000000000815260006004820152602401610531565b60408051600180825260208201869052818301908152606082018590526080820190925290610cc88787848487610cd1565b50505050505050565b610cdd85858585610d31565b73ffffffffffffffffffffffffffffffffffffffff8416156109305782513390600103610d235760208481015190840151610d1c83898985858961101c565b5050610547565b61054781878787878761120e565b8051825114610d7957815181516040517f5b05999100000000000000000000000000000000000000000000000000000000815260048101929092526024820152604401610531565b3360005b8351811015610eef5760208181028581018201519085019091015173ffffffffffffffffffffffffffffffffffffffff881615610e7d5760008281526020818152604080832073ffffffffffffffffffffffffffffffffffffffff8c16845290915290205481811015610e49576040517f03dee4c500000000000000000000000000000000000000000000000000000000815273ffffffffffffffffffffffffffffffffffffffff8a166004820152602481018290526044810183905260648101849052608401610531565b60008381526020818152604080832073ffffffffffffffffffffffffffffffffffffffff8d16845290915290209082900390555b73ffffffffffffffffffffffffffffffffffffffff871615610edc5760008281526020818152604080832073ffffffffffffffffffffffffffffffffffffffff8b16845290915281208054839290610ed6908490611cf5565b90915550505b505080610ee890611b5d565b9050610d7d565b508251600103610f9757602083015160009060208401519091508573ffffffffffffffffffffffffffffffffffffffff168773ffffffffffffffffffffffffffffffffffffffff168473ffffffffffffffffffffffffffffffffffffffff167fc3d58168c5ae7397731d063d5bbf3d657854427343f4c083240f7aacaa2d0f628585604051610f88929190918252602082015260400190565b60405180910390a45050610930565b8373ffffffffffffffffffffffffffffffffffffffff168573ffffffffffffffffffffffffffffffffffffffff168273ffffffffffffffffffffffffffffffffffffffff167f4a39dc06d4c0dbc64b70af90fd698a233a518aa5d07e595d983b8c0526c8f7fb868660405161100d929190611d08565b60405180910390a45050505050565b73ffffffffffffffffffffffffffffffffffffffff84163b15610547576040517ff23a6e6100000000000000000000000000000000000000000000000000000000815273ffffffffffffffffffffffffffffffffffffffff85169063f23a6e61906110939089908990889088908890600401611d36565b6020604051808303816000875af19250505080156110ec575060408051601f3d9081017fffffffffffffffffffffffffffffffffffffffffffffffffffffffffffffffe01682019092526110e991810190611d86565b60015b61117b573d80801561111a576040519150601f19603f3d011682016040523d82523d6000602084013e61111f565b606091505b508051600003611173576040517f57f447ce00000000000000000000000000000000000000000000000000000000815273ffffffffffffffffffffffffffffffffffffffff86166004820152602401610531565b805181602001fd5b7fffffffff0000000000000000000000000000000000000000000000000000000081167ff23a6e610000000000000000000000000000000000000000000000000000000014610cc8576040517f57f447ce00000000000000000000000000000000000000000000000000000000815273ffffffffffffffffffffffffffffffffffffffff86166004820152602401610531565b73ffffffffffffffffffffffffffffffffffffffff84163b15610547576040517fbc197c8100000000000000000000000000000000000000000000000000000000815273ffffffffffffffffffffffffffffffffffffffff85169063bc197c81906112859089908990889088908890600401611da3565b6020604051808303816000875af19250505080156112de575060408051601f3d9081017fffffffffffffffffffffffffffffffffffffffffffffffffffffffffffffffe01682019092526112db91810190611d86565b60015b61130c573d80801561111a576040519150601f19603f3d011682016040523d82523d6000602084013e61111f565b7fffffffff0000000000000000000000000000000000000000000000000000000081167fbc197c810000000000000000000000000000000000000000000000000000000014610cc8576040517f57f447ce00000000000000000000000000000000000000000000000000000000815273ffffffffffffffffffffffffffffffffffffffff86166004820152602401610531565b803573ffffffffffffffffffffffffffffffffffffffff811681146113c357600080fd5b919050565b600080604083850312156113db57600080fd5b6113e48361139f565b946020939093013593505050565b7fffffffff00000000000000000000000000000000000000000000000000000000811681146103dc57600080fd5b60006020828403121561143257600080fd5b813561143d816113f2565b9392505050565b7f4e487b7100000000000000000000000000000000000000000000000000000000600052604160045260246000fd5b604051601f82017fffffffffffffffffffffffffffffffffffffffffffffffffffffffffffffffe016810167ffffffffffffffff811182821017156114ba576114ba611444565b604052919050565b600067ffffffffffffffff8311156114dc576114dc611444565b61150d60207fffffffffffffffffffffffffffffffffffffffffffffffffffffffffffffffe0601f86011601611473565b905082815283838301111561152157600080fd5b828260208301376000602084830101529392505050565b60006020828403121561154a57600080fd5b813567ffffffffffffffff81111561156157600080fd5b8201601f8101841361157257600080fd5b611581848235602084016114c2565b949350505050565b600082601f83011261159a57600080fd5b61143d838335602085016114c2565b6000806000606084860312156115be57600080fd5b8335925060208401359150604084013567ffffffffffffffff8111156115e357600080fd5b6115ef86828701611589565b9150509250925092565b60006020828403121561160b57600080fd5b5035919050565b6000815180845260005b818110156116385760208185018101518683018201520161161c565b5060006020828601015260207fffffffffffffffffffffffffffffffffffffffffffffffffffffffffffffffe0601f83011685010191505092915050565b60208152600061143d6020830184611612565b600067ffffffffffffffff8211156116a3576116a3611444565b5060051b60200190565b600082601f8301126116be57600080fd5b813560206116d36116ce83611689565b611473565b82815260059290921b840181019181810190868411156116f257600080fd5b8286015b8481101561170d57803583529183019183016116f6565b509695505050505050565b600080600080600060a0868803121561173057600080fd5b6117398661139f565b94506117476020870161139f565b9350604086013567ffffffffffffffff8082111561176457600080fd5b61177089838a016116ad565b9450606088013591508082111561178657600080fd5b61179289838a016116ad565b935060808801359150808211156117a857600080fd5b506117b588828901611589565b9150509295509295909350565b600080604083850312156117d557600080fd5b823567ffffffffffffffff808211156117ed57600080fd5b818501915085601f83011261180157600080fd5b813560206118116116ce83611689565b82815260059290921b8401810191818101908984111561183057600080fd5b948201945b83861015611855576118468661139f565b82529482019490820190611835565b9650508601359250508082111561186b57600080fd5b50611878858286016116ad565b9150509250929050565b600081518084526020808501945080840160005b838110156118b257815187529582019590820190600101611896565b509495945050505050565b60208152600061143d6020830184611882565b600080604083850312156118e357600080fd5b823567ffffffffffffffff808211156118fb57600080fd5b611907868387016116ad565b9350602085013591508082111561186b57600080fd5b6000806040838503121561193057600080fd5b6119398361139f565b91506020830135801515811461194e57600080fd5b809150509250929050565b6000806040838503121561196c57600080fd5b50508035926020909101359150565b60008060006060848603121561199057600080fd5b833567ffffffffffffffff808211156119a857600080fd5b6119b4878388016116ad565b945060208601359150808211156119ca57600080fd5b6119d6878388016116ad565b935060408601359150808211156119ec57600080fd5b506115ef86828701611589565b60008060408385031215611a0c57600080fd5b611a158361139f565b9150611a236020840161139f565b90509250929050565b600080600080600060a08688031215611a4457600080fd5b611a4d8661139f565b9450611a5b6020870161139f565b93506040860135925060608601359150608086013567ffffffffffffffff811115611a8557600080fd5b6117b588828901611589565b600060208284031215611aa357600080fd5b61143d8261139f565b600181811c90821680611ac057607f821691505b602082108103611af9577f4e487b7100000000000000000000000000000000000000000000000000000000600052602260045260246000fd5b50919050565b7f4e487b7100000000000000000000000000000000000000000000000000000000600052603260045260246000fd5b7f4e487b7100000000000000000000000000000000000000000000000000000000600052601160045260246000fd5b60007fffffffffffffffffffffffffffffffffffffffffffffffffffffffffffffffff8203611b8e57611b8e611b2e565b5060010190565b601f8211156103eb57600081815260208120601f850160051c81016020861015611bbc5750805b601f850160051c820191505b8181101561054757828155600101611bc8565b815167ffffffffffffffff811115611bf557611bf5611444565b611c0981611c038454611aac565b84611b95565b602080601f831160018114611c5c5760008415611c265750858301515b7fffffffffffffffffffffffffffffffffffffffffffffffffffffffffffffffff600386901b1c1916600185901b178555610547565b6000858152602081207fffffffffffffffffffffffffffffffffffffffffffffffffffffffffffffffe08616915b82811015611ca957888601518255948401946001909101908401611c8a565b5085821015611ce557878501517fffffffffffffffffffffffffffffffffffffffffffffffffffffffffffffffff600388901b60f8161c191681555b5050505050600190811b01905550565b808201808211156102e2576102e2611b2e565b604081526000611d1b6040830185611882565b8281036020840152611d2d8185611882565b95945050505050565b600073ffffffffffffffffffffffffffffffffffffffff808816835280871660208401525084604083015283606083015260a06080830152611d7b60a0830184611612565b979650505050505050565b600060208284031215611d9857600080fd5b815161143d816113f2565b600073ffffffffffffffffffffffffffffffffffffffff808816835280871660208401525060a06040830152611ddc60a0830186611882565b8281036060840152611dee8186611882565b90508281036080840152611e028185611612565b9897505050505050505056fea264697066735822122033dec78e2e07769fa11e1a0eb58903ba1fb95497045a437b4386e124d5f1264e64736f6c63430008140033",
  "linkReferences": {},
  "deployedLinkReferences": {}
}