{
  "_format": "hh-sol-artifact-1",
  "contractName": "NonTransferableERC1155",
  "sourceName": "contracts/token/NonTransferableERC1155.sol",
  "abi": [
    {
      "inputs": [
        {
          "internalType": "string",
          "name": "uri",
          "type": "string"
        }
      ],
      "stateMutability": "nonpayable",
      "type": "constructor"
    },
    {
      "inputs": [
        {
          "internalType": "address",
          "name": "sender",
          "type": "address"
        },
        {
          "internalType": "uint256",
          "name": "balance",
          "type": "uint256"
        },
        {
          "internalType": "uint256",
          "name": "needed",
          "type": "uint256"
        },
        {
          "internalType": "uint256",
          "name": "tokenId",
          "type": "uint256"
        }
      ],
      "name": "ERC1155InsufficientBalance",
      "type": "error"
    },
    {
      "inputs": [
        {
          "internalType": "address",
          "name": "approver",
          "type": "address"
        }
      ],
      "name": "ERC1155InvalidApprover",
      "type": "error"
    },
    {
      "inputs": [
        {
          "internalType": "uint256",
          "name": "idsLength",
          "type": "uint256"
        },
        {
          "internalType": "uint256",
          "name": "valuesLength",
          "type": "uint256"
        }
      ],
      "name": "ERC1155InvalidArrayLength",
      "type": "error"
    },
    {
      "inputs": [
        {
          "internalType": "address",
          "name": "operator",
          "type": "address"
        }
      ],
      "name": "ERC1155InvalidOperator",
      "type": "error"
    },
    {
      "inputs": [
        {
          "internalType": "address",
          "name": "receiver",
          "type": "address"
        }
      ],
      "name": "ERC1155InvalidReceiver",
      "type": "error"
    },
    {
      "inputs": [
        {
          "internalType": "address",
          "name": "sender",
          "type": "address"
        }
      ],
      "name": "ERC1155InvalidSender",
      "type": "error"
    },
    {
      "inputs": [
        {
          "internalType": "address",
          "name": "operator",
          "type": "address"
        },
        {
          "internalType": "address",
          "name": "owner",
          "type": "address"
        }
      ],
      "name": "ERC1155MissingApprovalForAll",
      "type": "error"
    },
    {
      "inputs": [
        {
          "internalType": "address",
          "name": "owner",
          "type": "address"
        }
      ],
      "name": "OwnableInvalidOwner",
      "type": "error"
    },
    {
      "inputs": [
        {
          "internalType": "address",
          "name": "account",
          "type": "address"
        }
      ],
      "name": "OwnableUnauthorizedAccount",
      "type": "error"
    },
    {
      "anonymous": false,
      "inputs": [
        {
          "indexed": true,
          "internalType": "address",
          "name": "account",
          "type": "address"
        },
        {
          "indexed": true,
          "internalType": "address",
          "name": "operator",
          "type": "address"
        },
        {
          "indexed": false,
          "internalType": "bool",
          "name": "approved",
          "type": "bool"
        }
      ],
      "name": "ApprovalForAll",
      "type": "event"
    },
    {
      "anonymous": false,
      "inputs": [
        {
          "indexed": true,
          "internalType": "address",
          "name": "previousOwner",
          "type": "address"
        },
        {
          "indexed": true,
          "internalType": "address",
          "name": "newOwner",
          "type": "address"
        }
      ],
      "name": "OwnershipTransferred",
      "type": "event"
    },
    {
      "anonymous": false,
      "inputs": [
        {
          "indexed": true,
          "internalType": "address",
          "name": "operator",
          "type": "address"
        },
        {
          "indexed": true,
          "internalType": "address",
          "name": "from",
          "type": "address"
        },
        {
          "indexed": true,
          "internalType": "address",
          "name": "to",
          "type": "address"
        },
        {
          "indexed": false,
          "internalType": "uint256[]",
          "name": "ids",
          "type": "uint256[]"
        },
        {
          "indexed": false,
          "internalType": "uint256[]",
          "name": "values",
          "type": "uint256[]"
        }
      ],
      "name": "TransferBatch",
      "type": "event"
    },
    {
      "anonymous": false,
      "inputs": [
        {
          "indexed": true,
          "internalType": "address",
          "name": "operator",
          "type": "address"
        },
        {
          "indexed": true,
          "internalType": "address",
          "name": "from",
          "type": "address"
        },
        {
          "indexed": true,
          "internalType": "address",
          "name": "to",
          "type": "address"
        },
        {
          "indexed": false,
          "internalType": "uint256",
          "name": "id",
          "type": "uint256"
        },
        {
          "indexed": false,
          "internalType": "uint256",
          "name": "value",
          "type": "uint256"
        }
      ],
      "name": "TransferSingle",
      "type": "event"
    },
    {
      "anonymous": false,
      "inputs": [
        {
          "indexed": false,
          "internalType": "string",
          "name": "value",
          "type": "string"
        },
        {
          "indexed": true,
          "internalType": "uint256",
          "name": "id",
          "type": "uint256"
        }
      ],
      "name": "URI",
      "type": "event"
    },
    {
      "inputs": [
        {
          "internalType": "address",
          "name": "account",
          "type": "address"
        },
        {
          "internalType": "uint256",
          "name": "id",
          "type": "uint256"
        }
      ],
      "name": "balanceOf",
      "outputs": [
        {
          "internalType": "uint256",
          "name": "",
          "type": "uint256"
        }
      ],
      "stateMutability": "view",
      "type": "function"
    },
    {
      "inputs": [
        {
          "internalType": "address[]",
          "name": "accounts",
          "type": "address[]"
        },
        {
          "internalType": "uint256[]",
          "name": "ids",
          "type": "uint256[]"
        }
      ],
      "name": "balanceOfBatch",
      "outputs": [
        {
          "internalType": "uint256[]",
          "name": "",
          "type": "uint256[]"
        }
      ],
      "stateMutability": "view",
      "type": "function"
    },
    {
      "inputs": [
        {
          "internalType": "uint256",
          "name": "id",
          "type": "uint256"
        },
        {
          "internalType": "uint256",
          "name": "amount",
          "type": "uint256"
        }
      ],
      "name": "burn",
      "outputs": [],
      "stateMutability": "nonpayable",
      "type": "function"
    },
    {
      "inputs": [
        {
          "internalType": "uint256[]",
          "name": "ids",
          "type": "uint256[]"
        },
        {
          "internalType": "uint256[]",
          "name": "amounts",
          "type": "uint256[]"
        }
      ],
      "name": "burnBatch",
      "outputs": [],
      "stateMutability": "nonpayable",
      "type": "function"
    },
    {
      "inputs": [
        {
          "internalType": "address",
          "name": "account",
          "type": "address"
        },
        {
          "internalType": "address",
          "name": "operator",
          "type": "address"
        }
      ],
      "name": "isApprovedForAll",
      "outputs": [
        {
          "internalType": "bool",
          "name": "",
          "type": "bool"
        }
      ],
      "stateMutability": "view",
      "type": "function"
    },
    {
      "inputs": [
        {
          "internalType": "uint256",
          "name": "id",
          "type": "uint256"
        },
        {
          "internalType": "uint256",
          "name": "amount",
          "type": "uint256"
        },
        {
          "internalType": "bytes",
          "name": "data",
          "type": "bytes"
        }
      ],
      "name": "mint",
      "outputs": [],
      "stateMutability": "nonpayable",
      "type": "function"
    },
    {
      "inputs": [
        {
          "internalType": "uint256[]",
          "name": "ids",
          "type": "uint256[]"
        },
        {
          "internalType": "uint256[]",
          "name": "amounts",
          "type": "uint256[]"
        },
        {
          "internalType": "bytes",
          "name": "data",
          "type": "bytes"
        }
      ],
      "name": "mintBatch",
      "outputs": [],
      "stateMutability": "nonpayable",
      "type": "function"
    },
    {
      "inputs": [],
      "name": "owner",
      "outputs": [
        {
          "internalType": "address",
          "name": "",
          "type": "address"
        }
      ],
      "stateMutability": "view",
      "type": "function"
    },
    {
      "inputs": [],
      "name": "renounceOwnership",
      "outputs": [],
      "stateMutability": "nonpayable",
      "type": "function"
    },
    {
      "inputs": [
        {
          "internalType": "address",
          "name": "from",
          "type": "address"
        },
        {
          "internalType": "address",
          "name": "to",
          "type": "address"
        },
        {
          "internalType": "uint256[]",
          "name": "ids",
          "type": "uint256[]"
        },
        {
          "internalType": "uint256[]",
          "name": "values",
          "type": "uint256[]"
        },
        {
          "internalType": "bytes",
          "name": "data",
          "type": "bytes"
        }
      ],
      "name": "safeBatchTransferFrom",
      "outputs": [],
      "stateMutability": "nonpayable",
      "type": "function"
    },
    {
      "inputs": [
        {
          "internalType": "address",
          "name": "from",
          "type": "address"
        },
        {
          "internalType": "address",
          "name": "to",
          "type": "address"
        },
        {
          "internalType": "uint256",
          "name": "id",
          "type": "uint256"
        },
        {
          "internalType": "uint256",
          "name": "value",
          "type": "uint256"
        },
        {
          "internalType": "bytes",
          "name": "data",
          "type": "bytes"
        }
      ],
      "name": "safeTransferFrom",
      "outputs": [],
      "stateMutability": "nonpayable",
      "type": "function"
    },
    {
      "inputs": [
        {
          "internalType": "address",
          "name": "operator",
          "type": "address"
        },
        {
          "internalType": "bool",
          "name": "approved",
          "type": "bool"
        }
      ],
      "name": "setApprovalForAll",
      "outputs": [],
      "stateMutability": "nonpayable",
      "type": "function"
    },
    {
      "inputs": [
        {
          "internalType": "string",
          "name": "newURI",
          "type": "string"
        }
      ],
      "name": "setURI",
      "outputs": [],
      "stateMutability": "nonpayable",
      "type": "function"
    },
    {
      "inputs": [
        {
          "internalType": "bytes4",
          "name": "interfaceId",
          "type": "bytes4"
        }
      ],
      "name": "supportsInterface",
      "outputs": [
        {
          "internalType": "bool",
          "name": "",
          "type": "bool"
        }
      ],
      "stateMutability": "view",
      "type": "function"
    },
    {
      "inputs": [
        {
          "internalType": "address",
          "name": "newOwner",
          "type": "address"
        }
      ],
      "name": "transferOwnership",
      "outputs": [],
      "stateMutability": "nonpayable",
      "type": "function"
    },
    {
      "inputs": [
        {
          "internalType": "uint256",
          "name": "",
          "type": "uint256"
        }
      ],
      "name": "uri",
      "outputs": [
        {
          "internalType": "string",
          "name": "",
          "type": "string"
        }
      ],
      "stateMutability": "view",
      "type": "function"
    }
  ],
  "bytecode": "0x6080604052346200027c5762002249803803806200001d8162000281565b928339810190602080828403126200027c5781516001600160401b03928382116200027c570192601f908082860112156200027c5784518481116200025157601f1995620000718285018816860162000281565b928284528583830101116200027c57849060005b838110620002675750506000918301015280519384116200025157600254926001938481811c9116801562000246575b828210146200023057838111620001e4575b5080928511600114620001795750839450908392916000946200016d575b50501b916000199060031b1c1916176002555b3315620001545760038054336001600160a01b03198216811790925560405191906001600160a01b03167f8be0079c531659141344cd1fd0a4f28419497f9722a3daafe3b4186f6b6457e0600080a3611fa19081620002a88239f35b604051631e4fbdf760e01b815260006004820152602490fd5b015192503880620000e5565b929484908116600260005284600020946000905b88838310620001c95750505010620001af575b505050811b01600255620000f8565b015160001960f88460031b161c19169055388080620001a0565b8587015188559096019594850194879350908101906200018d565b6002600052816000208480880160051c82019284891062000226575b0160051c019085905b82811062000219575050620000c7565b6000815501859062000209565b9250819262000200565b634e487b7160e01b600052602260045260246000fd5b90607f1690620000b5565b634e487b7160e01b600052604160045260246000fd5b81810183015185820184015286920162000085565b600080fd5b6040519190601f01601f191682016001600160401b03811183821017620002515760405256fe6080604052600436101561001257600080fd5b60003560e01c8062fdd58e1461011657806301ffc9a71461011157806302fe53051461010c57806308dc9f42146101075780630e89341c146101025780632eb2c2d6146100fd5780634e1273f4146100f8578063715018a6146100f357806383ca4b6f146100ee5780638da5cb5b146100e9578063a22cb465146100e4578063b390c0ab146100df578063bb4351e8146100da578063e985e9c5146100d5578063f242432a146100d05763f2fde38b146100cb57600080fd5b61115e565b611002565b610f68565b610ed5565b610e60565b610d2c565b610cda565b610c21565b610b7f565b610aa7565b610899565b61070e565b6105de565b61041c565b61022a565b610187565b6004359073ffffffffffffffffffffffffffffffffffffffff8216820361013e57565b600080fd5b6024359073ffffffffffffffffffffffffffffffffffffffff8216820361013e57565b359073ffffffffffffffffffffffffffffffffffffffff8216820361013e57565b3461013e5760407ffffffffffffffffffffffffffffffffffffffffffffffffffffffffffffffffc36011261013e5760206101f76101c361011b565b6024356000526000835260406000209073ffffffffffffffffffffffffffffffffffffffff16600052602052604060002090565b54604051908152f35b7fffffffff0000000000000000000000000000000000000000000000000000000081160361013e57565b3461013e5760207ffffffffffffffffffffffffffffffffffffffffffffffffffffffffffffffffc36011261013e5760207fffffffff0000000000000000000000000000000000000000000000000000000060043561028881610200565b167fd9b67a260000000000000000000000000000000000000000000000000000000081149081156102f0575b81156102c6575b506040519015158152f35b7f01ffc9a700000000000000000000000000000000000000000000000000000000915014386102bb565b7f0e89341c00000000000000000000000000000000000000000000000000000000811491506102b4565b7f4e487b7100000000000000000000000000000000000000000000000000000000600052604160045260246000fd5b6020810190811067ffffffffffffffff82111761036557604052565b61031a565b90601f7fffffffffffffffffffffffffffffffffffffffffffffffffffffffffffffffe0910116810190811067ffffffffffffffff82111761036557604052565b67ffffffffffffffff811161036557601f017fffffffffffffffffffffffffffffffffffffffffffffffffffffffffffffffe01660200190565b9291926103f1826103ab565b916103ff604051938461036a565b82948184528183011161013e578281602093846000960137010152565b3461013e576020807ffffffffffffffffffffffffffffffffffffffffffffffffffffffffffffffffc36011261013e5767ffffffffffffffff60043581811161013e573660238201121561013e5761047e9036906024816004013591016103e5565b91610487611240565b8251918211610365576104a48261049f600254611291565b611efa565b80601f83116001146104fd575081926000926104f2575b50507fffffffffffffffffffffffffffffffffffffffffffffffffffffffffffffffff8260011b9260031b1c191617600255600080f35b0151905038806104bb565b907fffffffffffffffffffffffffffffffffffffffffffffffffffffffffffffffe083169361054e60026000527f405787fa12a823e0f2b7631cc41b3ba8828b3321ca811111fa75cd3aa3bb5ace90565b926000905b8682106105a85750508360019510610571575b505050811b01600255005b01517fffffffffffffffffffffffffffffffffffffffffffffffffffffffffffffffff60f88460031b161c19169055388080610566565b80600185968294968601518155019501930190610553565b9080601f8301121561013e578160206105db933591016103e5565b90565b3461013e5760607ffffffffffffffffffffffffffffffffffffffffffffffffffffffffffffffffc36011261013e5760443567ffffffffffffffff811161013e5761062d9036906004016105c0565b331561066e5761066c906106656024356004359160405192600184526020840152604083019160018352606084015260808301604052565b90336114a3565b005b60246040517f57f447ce00000000000000000000000000000000000000000000000000000000815260006004820152fd5b919082519283825260005b8481106106e95750507fffffffffffffffffffffffffffffffffffffffffffffffffffffffffffffffe0601f8460006020809697860101520116010190565b6020818301810151848301820152016106aa565b9060206105db92818152019061069f565b3461013e576020807ffffffffffffffffffffffffffffffffffffffffffffffffffffffffffffffffc36011261013e5760405160009160025461075081611291565b808452906001908181169081156107e5575060011461078a575b6107868461077a8188038261036a565b604051918291826106fd565b0390f35b600260009081529294507f405787fa12a823e0f2b7631cc41b3ba8828b3321ca811111fa75cd3aa3bb5ace5b8284106107d257505050816107869361077a928201019361076a565b80548585018701529285019281016107b6565b7fffffffffffffffffffffffffffffffffffffffffffffffffffffffffffffff0016858501525050151560051b820101915061077a8161078661076a565b67ffffffffffffffff81116103655760051b60200190565b81601f8201121561013e5780359161085283610823565b92610860604051948561036a565b808452602092838086019260051b82010192831161013e578301905b82821061088a575050505090565b8135815290830190830161087c565b3461013e5760a07ffffffffffffffffffffffffffffffffffffffffffffffffffffffffffffffffc36011261013e576108d061011b565b6108d8610143565b906044359167ffffffffffffffff9081841161013e576108fd6004943690860161083b565b9060643583811161013e57610915903690870161083b565b9260843590811161013e5761092d90369087016105c0565b9373ffffffffffffffffffffffffffffffffffffffff808216903382141580610a20575b6109cd5783161561099c571561096b5761066c955061181a565b6024866000604051917f01a83514000000000000000000000000000000000000000000000000000000008352820152fd5b6024876000604051917f57f447ce000000000000000000000000000000000000000000000000000000008352820152fd5b604080517fe237d92200000000000000000000000000000000000000000000000000000000815233818b0190815273ffffffffffffffffffffffffffffffffffffffff8616602082015290918291010390fd5b5081600052600160205260ff610a5a3360406000209073ffffffffffffffffffffffffffffffffffffffff16600052602052604060002090565b541615610951565b90815180825260208080930193019160005b828110610a82575050505090565b835185529381019392810192600101610a74565b9060206105db928181520190610a62565b3461013e5760407ffffffffffffffffffffffffffffffffffffffffffffffffffffffffffffffffc36011261013e5760043567ffffffffffffffff80821161013e573660238301121561013e578160040135610b0281610823565b92610b10604051948561036a565b81845260209160248386019160051b8301019136831161013e57602401905b828210610b68578560243586811161013e5761078691610b56610b5c92369060040161083b565b906113c2565b60405191829182610a96565b838091610b7484610166565b815201910190610b2f565b3461013e576000807ffffffffffffffffffffffffffffffffffffffffffffffffffffffffffffffffc360112610c1e57610bb7611240565b8073ffffffffffffffffffffffffffffffffffffffff6003547fffffffffffffffffffffffff00000000000000000000000000000000000000008116600355167f8be0079c531659141344cd1fd0a4f28419497f9722a3daafe3b4186f6b6457e08280a380f35b80fd5b3461013e5760407ffffffffffffffffffffffffffffffffffffffffffffffffffffffffffffffffc36011261013e5767ffffffffffffffff60043581811161013e57610c7190369060040161083b565b9060243590811161013e57610c8a90369060040161083b565b3315610ca95761066c916000604051610ca281610349565b5233611660565b60246040517f01a8351400000000000000000000000000000000000000000000000000000000815260006004820152fd5b3461013e5760007ffffffffffffffffffffffffffffffffffffffffffffffffffffffffffffffffc36011261013e57602073ffffffffffffffffffffffffffffffffffffffff60035416604051908152f35b3461013e5760407ffffffffffffffffffffffffffffffffffffffffffffffffffffffffffffffffc36011261013e57610d6361011b565b60243580151580820361013e5773ffffffffffffffffffffffffffffffffffffffff8316928315610e2f57610dc59033600052600160205260406000209073ffffffffffffffffffffffffffffffffffffffff16600052602052604060002090565b9060ff7fffffffffffffffffffffffffffffffffffffffffffffffffffffffffffffff0083541691161790557f17307eab39ab6107e8899845ad3d59bd9653f200f220920489ca2b5937696c3160405180610e2a339482919091602081019215159052565b0390a3005b60246040517fced3e10000000000000000000000000000000000000000000000000000000000815260006004820152fd5b3461013e5760407ffffffffffffffffffffffffffffffffffffffffffffffffffffffffffffffffc36011261013e573315610ca95761066c610ec66024356004359160405192600184526020840152604083019160018352606084015260808301604052565b906000604051610ca281610349565b3461013e5760607ffffffffffffffffffffffffffffffffffffffffffffffffffffffffffffffffc36011261013e5767ffffffffffffffff60043581811161013e57610f2590369060040161083b565b9060243581811161013e57610f3e90369060040161083b565b9060443590811161013e57610f579036906004016105c0565b90331561066e5761066c92336114a3565b3461013e5760407ffffffffffffffffffffffffffffffffffffffffffffffffffffffffffffffffc36011261013e57602060ff610ff6610fa661011b565b73ffffffffffffffffffffffffffffffffffffffff610fc3610143565b91166000526001845260406000209073ffffffffffffffffffffffffffffffffffffffff16600052602052604060002090565b54166040519015158152f35b3461013e5760a07ffffffffffffffffffffffffffffffffffffffffffffffffffffffffffffffffc36011261013e5761103961011b565b611041610143565b60843567ffffffffffffffff811161013e576110619036906004016105c0565b9073ffffffffffffffffffffffffffffffffffffffff80841690338214158061111c575b6110cf5782161561066e5715610ca95761066c926110c76064356044359160405192600184526020840152604083019160018352606084015260808301604052565b92909161181a565b6040517fe237d92200000000000000000000000000000000000000000000000000000000815233600482015273ffffffffffffffffffffffffffffffffffffffff86166024820152604490fd5b5081600052600160205260ff6111563360406000209073ffffffffffffffffffffffffffffffffffffffff16600052602052604060002090565b541615611085565b3461013e5760207ffffffffffffffffffffffffffffffffffffffffffffffffffffffffffffffffc36011261013e5761119561011b565b61119d611240565b73ffffffffffffffffffffffffffffffffffffffff80911690811561120f57600354827fffffffffffffffffffffffff0000000000000000000000000000000000000000821617600355167f8be0079c531659141344cd1fd0a4f28419497f9722a3daafe3b4186f6b6457e0600080a3005b60246040517f1e4fbdf700000000000000000000000000000000000000000000000000000000815260006004820152fd5b73ffffffffffffffffffffffffffffffffffffffff60035416330361126157565b60246040517f118cdaa7000000000000000000000000000000000000000000000000000000008152336004820152fd5b90600182811c921680156112da575b60208310146112ab57565b7f4e487b7100000000000000000000000000000000000000000000000000000000600052602260045260246000fd5b91607f16916112a0565b61131a91600052600060205260406000209073ffffffffffffffffffffffffffffffffffffffff16600052602052604060002090565b5490565b7f4e487b7100000000000000000000000000000000000000000000000000000000600052601160045260246000fd5b7fffffffffffffffffffffffffffffffffffffffffffffffffffffffffffffffff811461137a5760010190565b61131e565b80518210156113935760209160051b010190565b7f4e487b7100000000000000000000000000000000000000000000000000000000600052603260045260246000fd5b919091805183518082036114685750508051907fffffffffffffffffffffffffffffffffffffffffffffffffffffffffffffffe061141861140284610823565b93611410604051958661036a565b808552610823565b0190602091368385013760005b8151811015611460578061144b61145b9260051b85808287010151918a010151906112e4565b611455828761137f565b5261134d565b611425565b509193505050565b6040517f5b05999100000000000000000000000000000000000000000000000000000000815260048101919091526024810191909152604490fd5b90805183519081810361146857505060005b815181101561155057806114f99160051b84602080838701015192880101519173ffffffffffffffffffffffffffffffffffffffff82166114fe575b50505061134d565b6114b5565b6115469161151961153e926000526000602052604060002090565b9073ffffffffffffffffffffffffffffffffffffffff16600052602052604060002090565b918254611a6e565b90553884816114f1565b5080519193929160010361160c5760208181015183820151604080519283529282015273ffffffffffffffffffffffffffffffffffffffff86169160009133917fc3d58168c5ae7397731d063d5bbf3d657854427343f4c083240f7aacaa2d0f6291a45b73ffffffffffffffffffffffffffffffffffffffff84166115d6575b50505050565b80516001036115fd57906020806115f4959301519101519133611b67565b388080806115d0565b6116079333611e5c565b6115f4565b604051600073ffffffffffffffffffffffffffffffffffffffff8616917f4a39dc06d4c0dbc64b70af90fd698a233a518aa5d07e595d983b8c0526c8f7fb339180611658888883611a7b565b0390a46115b4565b929190805182519081810361146857505060005b815181101561175f578060051b6020808285010151918501015173ffffffffffffffffffffffffffffffffffffffff87166116ba575b50506116b59061134d565b611674565b6116d287611519846000526000602052604060002090565b5481811061170257876115196116b59594936116fa9303936000526000602052604060002090565b5590386116aa565b6040517f03dee4c500000000000000000000000000000000000000000000000000000000815273ffffffffffffffffffffffffffffffffffffffff8916600482015260248101919091526044810182905260648101839052608490fd5b50906000929391600181511484146117ce5760209081015191810151604080519384529183015273ffffffffffffffffffffffffffffffffffffffff929092169133917fc3d58168c5ae7397731d063d5bbf3d657854427343f4c083240f7aacaa2d0f6291819081015b0390a4565b909173ffffffffffffffffffffffffffffffffffffffff7f4a39dc06d4c0dbc64b70af90fd698a233a518aa5d07e595d983b8c0526c8f7fb916117c96040519283921695339583611a7b565b94919091815184519081810361146857505060005b8251811015611952578060051b90602080838601015192870101518573ffffffffffffffffffffffffffffffffffffffff93848b166118a5575b61187b9482166118805750505061134d565b61182f565b61189b9161151961153e926000526000602052604060002090565b90553885816114f1565b91929390506118c28a611519846000526000602052604060002090565b548381106118f5579187918461187b969594036118ed8d611519856000526000602052604060002090565b559450611869565b6040517f03dee4c500000000000000000000000000000000000000000000000000000000815273ffffffffffffffffffffffffffffffffffffffff8c16600482015260248101919091526044810184905260648101839052608490fd5b509491939290936001855114600014611a175760208581015183820151604080519283529282015273ffffffffffffffffffffffffffffffffffffffff838116929086169133917fc3d58168c5ae7397731d063d5bbf3d657854427343f4c083240f7aacaa2d0f6291a45b73ffffffffffffffffffffffffffffffffffffffff81166119e0575b5050505050565b8451600103611a06576020806119fc9601519201519233611ceb565b38808080806119d9565b611a1294919233611eaa565b6119fc565b60405173ffffffffffffffffffffffffffffffffffffffff90818316918516907f4a39dc06d4c0dbc64b70af90fd698a233a518aa5d07e595d983b8c0526c8f7fb339180611a66888c83611a7b565b0390a46119bd565b9190820180921161137a57565b9091611a926105db93604084526040840190610a62565b916020818403910152610a62565b9081602091031261013e57516105db81610200565b909260a09273ffffffffffffffffffffffffffffffffffffffff6105db96951683526000602084015260408301526060820152816080820152019061069f565b91926105db95949160a09473ffffffffffffffffffffffffffffffffffffffff809216855216602084015260408301526060820152816080820152019061069f565b3d15611b62573d90611b48826103ab565b91611b56604051938461036a565b82523d6000602084013e565b606090565b9293919093843b611b79575050505050565b602091611bb560405194859384937ff23a6e61000000000000000000000000000000000000000000000000000000009889865260048601611ab5565b0381600073ffffffffffffffffffffffffffffffffffffffff88165af160009181611cbb575b50611c405782611be9611b37565b8051919082611c39576040517f57f447ce00000000000000000000000000000000000000000000000000000000815273ffffffffffffffffffffffffffffffffffffffff83166004820152602490fd5b9050602001fd5b7fffffffff000000000000000000000000000000000000000000000000000000001603611c72575038808080806119d9565b6040517f57f447ce00000000000000000000000000000000000000000000000000000000815273ffffffffffffffffffffffffffffffffffffffff919091166004820152602490fd5b611cdd91925060203d8111611ce4575b611cd5818361036a565b810190611aa0565b9038611bdb565b503d611ccb565b939290949194853b611d00575b505050505050565b611d3c60209360405195869485947ff23a6e6100000000000000000000000000000000000000000000000000000000998a875260048701611af5565b0381600073ffffffffffffffffffffffffffffffffffffffff88165af160009181611da3575b50611d705782611be9611b37565b7fffffffff000000000000000000000000000000000000000000000000000000001603611c725750388080808080611cf8565b611dbc91925060203d8111611ce457611cd5818361036a565b9038611d62565b92611e006105db959373ffffffffffffffffffffffffffffffffffffffff611e0e941686526000602087015260a0604087015260a0860190610a62565b908482036060860152610a62565b91608081840391015261069f565b93906105db9593611e0091611e0e9473ffffffffffffffffffffffffffffffffffffffff809216885216602087015260a0604087015260a0860190610a62565b9293919093843b611e6e575050505050565b602091611bb560405194859384937fbc197c81000000000000000000000000000000000000000000000000000000009889865260048601611dc3565b939290949194853b611ebe57505050505050565b611d3c60209360405195869485947fbc197c8100000000000000000000000000000000000000000000000000000000998a875260048701611e1c565b601f8111611f06575050565b600090600282527f405787fa12a823e0f2b7631cc41b3ba8828b3321ca811111fa75cd3aa3bb5ace906020601f850160051c83019410611f61575b601f0160051c01915b828110611f5657505050565b818155600101611f4a565b9092508290611f4156fea2646970667358221220712940187ad0cd0145d1abde9b255865ba4e277416d9de109afbca927c065e0864736f6c63430008140033",
  "linkReferences": {},
  "deployedLinkReferences": {}
}